:100000000C942A000C943F000C943F000C943F0089
:100010000C943F000C943F000C943F000C943F0064
:100020000C943F000C943F000C943F000C943F0054
:100030000C943F000C943F000C943F000C943F0044
:100040000C943F000C943F000C943F000C943F0034
:100050000C943F0011241FBECFE5D8E0DEBFCDBF1A
:1000600010E0A0E6B0E0EEE1F6E002C005900D92EF
:10007000AA3AB107D9F70E9431020C940D030C94EF
:100080000000803208F0B3C0633008F0B2C0982F8F
:100090009770869586958695823009F457C083308F
:1000A00009F47DC0813049F12AB330E0092E02C045
:1000B000359527950A94E2F720FF9DC0662379F0D5
:1000C000613009F09AC04BB321E030E0B90102C0C1
:1000D000660F771F9A95E2F7CB01842B0CC04BB3C8
:1000E00021E030E0B90102C0660F771F9A95E2F770
:1000F000CB01809584238BBB80C027B330E0092ED1
:1001000002C0359527950A94E2F720FF74C0662354
:1001100079F0613009F071C048B321E030E0B901F5
:1001200002C0660F771F9A95E2F7CB01842B0CC0B3
:1001300048B321E030E0B90102C0660F771F9A95FD
:10014000E2F7CB018095842388BB57C024B330E00D
:10015000092E02C0359527950A94E2F720FF4BC07F
:10016000662379F0613009F048C045B321E030E002
:10017000B90102C0660F771F9A95E2F7CB01842B75
:100180000CC045B321E030E0B90102C0660F771F13
:100190009A95E2F7CB018095842385BB2EC021B3CD
:1001A00030E0092E02C0359527950A94E2F720FF2A
:1001B00022C0662371F0613001F542B321E030E0E6
:1001C000B90102C0660F771F9A95E2F7CB01842B25
:1001D0000CC042B321E030E0B90102C0660F771FC6
:1001E0009A95E2F7CB018095842382BB06C081E01B
:1001F000089582E0089583E0089580E00895CF9304
:10020000C82F60E083E00E9441006C2F661F6627C4
:10021000661F8CE00E944100C6FB662760F98AE0F9
:100220000E944100C5FB662760F989E00E944100F9
:10023000C4FB662760F988E00E94410061E082E02B
:100240000E9441008FE99FE00197F1F700C0000094
:1002500060E082E00E9441008FE99FE00197F1F7A2
:1002600000C00000C3FB662760F98CE00E944100DB
:10027000C2FB662760F98AE00E944100C1FB662745
:1002800060F989E00E9441006C2F617088E00E9453
:10029000410061E082E00E9441008FE99FE0019708
:1002A000F1F700C0000060E082E00E9441008FE9A9
:1002B0009FE00197F1F700C00000CF910895CF9320
:1002C000C82F61E083E00E9441006C2F661F662703
:1002D000661F8CE00E944100C6FB662760F98AE039
:1002E0000E944100C5FB662760F989E00E94410039
:1002F000C4FB662760F988E00E94410061E082E06B
:100300000E9441008FE99FE00197F1F700C00000D3
:1003100060E082E00E9441008FE99FE00197F1F7E1
:1003200000C00000C3FB662760F98CE00E9441001A
:10033000C2FB662760F98AE00E944100C1FB662784
:1003400060F989E00E9441006C2F617088E00E9492
:10035000410061E082E00E9441008FE99FE0019747
:10036000F1F700C0000060E082E00E9441008FE9E8
:100370009FE00197F1F700C00000CF9108952FEFA3
:1003800080E792E0215080409040E1F700C00000FB
:1003900082E00E94FF0088E20E94FF008FE99FE058
:1003A0000197F1F700C000008CE00E94FF008FE988
:1003B0009FE00197F1F700C0000081E00E94FF007C
:1003C0008FE39FE10197F1F700C0000086E00E94F3
:1003D000FF008FE39FE10197F1F700C0000008954F
:1003E0000C945F010F931F93CF938C01C0E0F80131
:1003F000EC0FF11D8081882321F00E945F01CF5F07
:10040000F6CFCF911F910F910895611102C08058CE
:100410000BC0613011F4805407C0623011F48C5667
:1004200003C0633019F48C520C94FF0008950F93AD
:100430001F93CF93DF938C0128E0629FC0011124AA
:1004400080640E94FF00E801085F1F4F89910E94AD
:100450005F01C017D107D1F7DF91CF911F910F91A5
:100460000895FF920F931F93CF93DF930E9403038E
:100470000E94BF0188E790E00E94F20161E080E005
:100480000E94050288E790E00E94F20163E080E0AC
:100490000E9405028DE890E00E94F20160E080E792
:1004A00090E00E94170261E088E690E00E94170247
:1004B00062E080E690E00E94170260E080E00E9427
:1004C000050281E00E94F001C0E010E0F12C00E0A4
:1004D000002319F0013049F1FBCF2FEF83EC99E0B5
:1004E000215080409040E1F700C00000D1E0D10FE2
:1004F000D43181F463E180E00E9405028FE50E941F
:10050000F001CF5FC23029F4C0E0D0E001E01D2F40
:10051000DFCFD0E06C2F8D2F0E94050281E00E947A
:10052000F0016C2F8FEF8D0F33C0F11010C06C2FC6
:1005300087E00E94050280E20E94F00161E08DE008
:100540000E94050280E20E94F001FF24F3942FEF45
:1005500083EC99E0215080409040E1F700C000001A
:10056000D1E0D10FD73049F46C2F812F0E940502C2
:100570008FE50E94F001C1E002C0DD3079F06C2F00
:100580008D2F0E94050281E00E94F0016C2F812FC7
:100590000E9405028FE50E94F001B9CF6C2F812FD8
:1005A0000E9405028FE50E94F00162E08DE00E944A
:1005B000050280E00E94F0012FEF83EC99E02150CA
:1005C00080409040E1F700C0000062E08DE00E94B2
:1005D000050280E20E94F00163E08DE00E940502C6
:1005E00082E00E94F00162E080E00E94050282EA5F
:1005F00090E00E94F20180E090E0DF91CF911F91A6
:100600000F91FF9008958FEF8ABB87BB84BB81BB9E
:0E0610001BBA18BA15BA12BA0895F894FFCFA3
:10061E001F15151F1B1F111F0E040E15040A1F0098
:10062E000E040E15040A11005F5F5F5F5F5F5F5F70
:10063E005F5F5F5F5F5F5F5F5F5F5F5F005E5E5E1E
:10064E005E5E5E5E5E5E5E5E5E5E5E5E5E5E5E5EBC
:0A065E005E0054484520454E44005C
:00000001FF
