:100000000C942A000C943F000C943F000C943F0089
:100010000C943F000C943F000C943F000C943F0064
:100020000C943F000C943F000C943F000C943F0054
:100030000C943F000C943F000C943F000C943F0044
:100040000C943F000C943F000C943F000C943F0034
:100050000C943F0011241FBECFE5D8E0DEBFCDBF1A
:1000600010E0A0E6B0E0EEE1F6E002C005900D92EF
:10007000AA3AB107D9F70E9473010C940D030C94AE
:100080000000CF93C82F60E083E00E9445026C2FF0
:10009000661F6627661F8CE00E944502C6FB662726
:1000A00060F98AE00E944502C5FB662760F989E095
:1000B0000E944502C4FB662760F988E00E94450261
:1000C00061E082E00E9445028FE99FE00197F1F72D
:1000D00000C0000060E082E00E9445028FE99FE0DE
:1000E0000197F1F700C00000C3FB662760F98CE0C0
:1000F0000E944502C2FB662760F98AE00E94450221
:10010000C1FB662760F989E00E9445026C2F61708F
:1001100088E00E94450261E082E00E9445028FE98A
:100120009FE00197F1F700C0000060E082E00E94CC
:1001300045028FE99FE00197F1F700C00000CF91E1
:100140000895CF93C82F61E083E00E9445026C2F91
:10015000661F6627661F8CE00E944502C6FB662765
:1001600060F98AE00E944502C5FB662760F989E0D4
:100170000E944502C4FB662760F988E00E944502A0
:1001800061E082E00E9445028FE99FE00197F1F76C
:1001900000C0000060E082E00E9445028FE99FE01D
:1001A0000197F1F700C00000C3FB662760F98CE0FF
:1001B0000E944502C2FB662760F98AE00E94450260
:1001C000C1FB662760F989E00E9445026C2F6170CF
:1001D00088E00E94450261E082E00E9445028FE9CA
:1001E0009FE00197F1F700C0000060E082E00E940C
:1001F00045028FE99FE00197F1F700C00000CF9121
:1002000008952FEF80E792E0215080409040E1F781
:1002100000C0000082E00E94410088E20E9441008C
:100220008FE99FE00197F1F700C000008CE00E9489
:1002300041008FE99FE00197F1F700C0000081E0E5
:100240000E9441008FE39FE10197F1F700C0000099
:1002500086E00E9441008FE39FE10197F1F700C023
:10026000000008950C94A1000F931F93CF938C016D
:10027000C0E0F801EC0FF11D8081882321F00E947D
:10028000A100CF5FF6CFCF911F910F91089561111B
:1002900002C080580BC0613011F4805407C0623036
:1002A00011F48C5603C0633019F48C520C94410045
:1002B00008950F931F93CF93DF938C0128E0629FE3
:1002C000C001112480640E944100E801085F1F4FB3
:1002D00089910E94A100C017D107D1F7DF91CF917A
:1002E0001F910F910895FF920F931F93CF93DF9368
:1002F0000E9403030E94010188E790E00E943401FC
:1003000061E080E00E94470188E790E00E943401AC
:1003100063E080E00E9447018DE890E00E94340194
:1003200060E080E790E00E94590161E088E690E09B
:100330000E94590162E080E690E00E94590160E06D
:1003400080E00E94470181E00E943201C0E010E09D
:10035000F12C00E0002319F0013049F1FBCF2FEF21
:1003600083EC99E0215080409040E1F700C000000C
:10037000D1E0D10FD43181F463E180E00E944701E4
:100380008FE50E943201CF5FC23029F4C0E0D0E097
:1003900001E01D2FDFCFD0E06C2F8D2F0E94470191
:1003A00081E00E9432016C2F8FEF8D0F33C0F1106E
:1003B00010C06C2F87E00E94470180E20E9432014A
:1003C00061E08DE00E94470180E20E943201FF243B
:1003D000F3942FEF83EC99E0215080409040E1F7B7
:1003E00000C00000D1E0D10FD73049F46C2F812F2D
:1003F0000E9447018FE50E943201C1E002C0DD305A
:1004000079F06C2F8D2F0E94470181E00E9432010C
:100410006C2F812F0E9447018FE50E943201B9CFD6
:100420006C2F812F0E9447018FE50E94320162E00C
:100430008DE00E94470180E00E9432012FEF83ECA3
:1004400099E0215080409040E1F700C0000062E058
:100450008DE00E94470180E20E94320163E08DE05E
:100460000E94470182E00E94320162E080E00E9427
:10047000470182EA90E00E94340180E090E0DF9141
:10048000CF911F910F91FF900895803208F0B3C073
:10049000633008F0B2C0982F977086958695869540
:1004A000823009F457C0833009F47DC0813049F1AE
:1004B0002AB330E0092E02C0359527950A94E2F759
:1004C00020FF9DC0662379F0613009F09AC04BB3DC
:1004D00021E030E0B90102C0660F771F9A95E2F77C
:1004E000CB01842B0CC04BB321E030E0B90102C03A
:1004F000660F771F9A95E2F7CB01809584238BBB1B
:1005000080C027B330E0092E02C0359527950A94A4
:10051000E2F720FF74C0662379F0613009F071C002
:1005200048B321E030E0B90102C0660F771F9A9509
:10053000E2F7CB01842B0CC048B321E030E0B901D5
:1005400002C0660F771F9A95E2F7CB01809584234E
:1005500088BB57C024B330E0092E02C035952795DB
:100560000A94E2F720FF4BC0662379F0613009F06E
:1005700048C045B321E030E0B90102C0660F771FE3
:100580009A95E2F7CB01842B0CC045B321E030E013
:10059000B90102C0660F771F9A95E2F7CB018095EB
:1005A000842385BB2EC021B330E0092E02C03595CF
:1005B00027950A94E2F720FF22C0662371F061308C
:1005C00001F542B321E030E0B90102C0660F771FA8
:1005D0009A95E2F7CB01842B0CC042B321E030E0C6
:1005E000B90102C0660F771F9A95E2F7CB0180959B
:1005F000842382BB06C081E0089582E0089583E0F1
:10060000089580E008958FEF8ABB87BB84BB81BBD0
:0E0610001BBA18BA15BA12BA0895F894FFCFA3
:10061E001F15151F1B1F111F0E040E15040A1F0098
:10062E000E040E15040A11005F5F5F5F5F5F5F5F70
:10063E005F5F5F5F5F5F5F5F5F5F5F5F005E5E5E1E
:10064E005E5E5E5E5E5E5E5E5E5E5E5E5E5E5E5EBC
:0A065E005E0054484520454E44005C
:00000001FF
