:100000000C942A000C945D0C0C94890C0C94B50C87
:100010000C9447000C9447000C94A8080C947F089B
:100020000C9456080C942D080C9447000C9447002F
:100030000C9409090C9447000C9447000C94470059
:100040000C94E60E0C9447000C9447000C94470067
:100050000C94470011241FBECFE5D8E0DEBFCDBF12
:1000600010E0A0E6B0E0ECE1F7E202C005900D92EE
:10007000AC39B107D9F710E0ACE9B0E001C01D928E
:10008000A73BB107E1F70E941A120C948C130C9451
:100090000000EF92FF920F931F937B018C0120E0F1
:1000A00030E040E05FE40E94C50388238CF0C80183
:1000B000B70120E030E040E05FE40E94C1010E940F
:1000C00025049B01AC01205030404040504806C000
:1000D000C801B7010E9425049B01AC01B901CA0106
:1000E0001F910F91FF90EF900895A0E0B0E0EBE733
:1000F000F0E00C945513DC012B01FA019C91923035
:1001000008F439C1EB018881823008F433C194309E
:1001100069F4843009F02FC111969C91119789815F
:10012000981709F428C1ABE7B0E025C1843009F481
:1001300021C18230A9F4923009F01DC19A01AD01AC
:1001400088E0EA010990AE01E90109929E0181501F
:10015000C1F7E201898111969C918923818308C1AD
:10016000923009F407C112962D903C901397EB0141
:100170008A819B811496AD90BD90CD90DC901797AD
:10018000EC80FD800E811F819101281B390BB90184
:1001900037FF04C066277727621B730B6032710537
:1001A0000CF061C0121613066CF537014801062EDB
:1001B00004C096948794779467940A94D2F721E0C8
:1001C00030E040E050E004C0220F331F441F551FB1
:1001D0006A95D2F721503040404050402E213F21B7
:1001E00040235123211531054105510521F021E01E
:1001F00030E040E050E079018A01E628F72808293C
:1002000019293CC0232BD1F1260E371E350146019A
:10021000062E04C096948794779467940A94D2F734
:1002200021E030E040E050E004C0220F331F441FC3
:10023000551F6A95D2F721503040404050402A2146
:100240003B214C215D21211531054105510521F04E
:1002500021E030E040E050E059016A01A628B728CB
:10026000C828D9280BC0821593052CF01C01AA249C
:10027000BB24650103C0EE24FF24870111969C91E5
:10028000D20111968C91981709F445C0992339F041
:10029000A80197012A193B094C095D0906C0A6016E
:1002A00095012E193F09400B510B57FD08C01182D3
:1002B0003382228224833583468357831DC081E0A5
:1002C00081833382228288279927DC01821B930B4A
:1002D000A40BB50B84839583A683B7830DC0220F2F
:1002E000331F441F551F24833583468357838281E0
:1002F000938101979383828324813581468157813D
:10030000DA01C9010197A109B1098F5F9F4FAF4F72
:10031000BF4328F30BC0918333822282EA0CFB1C7B
:100320000C1D1D1DE482F5820683178383E0808304
:10033000248135814681578157FF1AC0C901AA27F8
:1003400097FDA095BA2F81709070A070B0705695EF
:10035000479537952795822B932BA42BB52B848318
:100360009583A683B7838281938101969383828349
:10037000DF0101C0D201CD01CDB7DEB7E2E10C94BF
:100380007113A0E2B0E0E7ECF1E00C946113698333
:100390007A838B839C832D833E834F835887E9E048
:1003A000EE2EF12CEC0EFD1ECE010196B7010E943F
:1003B0004E058E010F5E1F4FCE010596B8010E94BB
:1003C0004E058A8991E089278A8BC701B801AE0161
:1003D000475E5F4F0E9475000E947904A096E6E098
:1003E0000C947D13A0E2B0E0E8EFF1E00C9461130F
:1003F00069837A838B839C832D833E834F835887C5
:10040000F9E0EF2EF12CEC0EFD1ECE010196B701A6
:100410000E944E058E010F5E1F4FCE010596B8015A
:100420000E944E05C701B801AE01475E5F4F0E94B2
:1004300075000E947904A096E6E00C947D13A0E27A
:10044000B0E0E5E2F2E00C94551369837A838B8384
:100450009C832D833E834F835887CE010196BE0136
:10046000675F7F4F0E944E05CE010596BE016F5E0D
:100470007F4F0E944E059985923088F0898982309D
:10048000C8F0943019F4823051F404C0843029F457
:10049000923081F48BE790E0C6C0923049F420E0BE
:1004A0009A858A89981321E02A87CE010996BBC0D4
:1004B000823049F420E09A858A89981321E02A8BBA
:1004C000CE014196B0C02D843E844F8458886D88FB
:1004D0007E888F88988CEE24FF248701AA24BB2471
:1004E000650140E050E060E070E0E0E0F0E0C10174
:1004F00081709070892BE9F0E60CF71C081D191D1E
:100500009A01AB012A0D3B1D4C1D5D1D80E090E062
:10051000A0E0B0E0E614F7040805190520F481E036
:1005200090E0A0E0B0E0BA01A901480F591F6A1F8E
:100530007B1FAA0CBB1CCC1CDD1C97FE08C081E0F5
:1005400090E0A0E0B0E0A82AB92ACA2ADB2A3196B6
:10055000E032F10549F0660C771C881C991C569412
:10056000479437942794C3CFFA85EA892B893C892D
:100570008B859C85280F391F2E5F3F4F17C0CA01FE
:1005800081709070892B61F016950795F794E79428
:1005900080E090E0A0E0B0E8E82AF92A0A2B1B2BC3
:1005A00076956795579547952F5F3F4F77FDE7CF36
:1005B0000CC0440F551F661F771F17FD4160EE0CDE
:1005C000FF1C001F111F21503040403090E05907A0
:1005D00090E0690790E4790760F32B8F3C8FDB0193
:1005E000CA018F779070A070B07080349105A1051A
:1005F000B10561F447FD0AC0E114F10401051105DC
:1006000029F0405C5F4F6F4F7F4F40781A8EFE1786
:1006100011F081E08A8F4D8F5E8F6F8F78A383E01A
:10062000898FCE0149960E947904A096E2E10C944C
:100630007113A8E1B0E0EFE1F3E00C945D1369837E
:100640007A838B839C832D833E834F835887B9E0C5
:10065000EB2EF12CEC0EFD1ECE010196B7010E948F
:100660004E058E010F5E1F4FCE010596B8010E9408
:100670004E052985223008F47EC03989323010F4C5
:10068000B8017CC08A859A8989278A87243011F02D
:10069000223031F4231709F06EC06BE770E06EC0B2
:1006A000343039F41D861E861F86188A1C861B86E8
:1006B00004C0323021F484E08987B7015FC02B8504
:1006C0003C858B899C89281B390B3C872B87ED84C3
:1006D000FE840F851889AD88BE88CF88D88CEA142F
:1006E000FB040C051D0540F4EE0CFF1C001F111F40
:1006F000215030403C872B8720E030E040E050E044
:1007000080E090E0A0E0B0E460E070E0EA14FB0478
:100710000C051D0540F0282B392B4A2B5B2BEA18C2
:10072000FB080C091D09B695A79597958795EE0CC2
:10073000FF1C001F111F6F5F7F4F6F31710531F775
:10074000DA01C9018F779070A070B0708034910584
:10075000A105B10561F427FD0AC0E114F10401050A
:10076000110529F0205C3F4F4F4F5F4F20782D87B8
:100770003E874F87588BBE01675F7F4FCB010E943A
:1007800079046896EAE00C947913A8E1B0E0EBEC08
:10079000F3E00C94611369837A838B839C832D83AC
:1007A0003E834F83588789E0E82EF12CEC0EFD1E26
:1007B000CE010196B7010E944E058E010F5E1F4FBC
:1007C000CE010596B8010E944E058985823040F021
:1007D0008989823028F0C701B8010E94C60501C08E
:1007E0008FEF6896E6E00C947D13A8E1B0E0EBEFA4
:1007F000F3E00C94611369837A838B839C832D834C
:100800003E834F83588789E0E82EF12CEC0EFD1EC5
:10081000CE010196B7010E944E058E010F5E1F4F5B
:10082000CE010596B8010E944E058985823040F0C0
:100830008989823028F0C701B8010E94C60501C02D
:1008400081E06896E6E00C947D13ACE0B0E0EBE26A
:10085000F4E00C94651369837A838B839C83CE01C7
:100860000196BE016B5F7F4F0E944E058D818230E5
:1008700061F1823050F1843021F48E81882351F16E
:100880002EC02F81388537FD20C06E812F31310574
:100890001CF06623F9F023C08EE190E0821B930BDD
:1008A00029853A854B855C8504C0569547953795D3
:1008B00027958A95D2F76623B1F0509540953095EB
:1008C00021953F4F4F4F5F4F0EC020E030E040E09A
:1008D00050E009C02FEF3FEF4FEF5FE704C020E08B
:1008E00030E040E050E8B901CA012C96E2E00C94F7
:1008F0008113DF92EF92FF920F931F93FC01E4802C
:10090000F58006811781D1808081823048F480E0B3
:1009100090E0A0E1B0E0E82AF92A0A2B1B2BA5C041
:10092000843009F49FC0823021F4EE24FF24870133
:1009300005C0E114F1040105110519F4E0E0F0E04F
:1009400096C0628173819FEF623879070CF05BC0BB
:1009500022E83FEF261B370B2A3131052CF020E02F
:1009600030E040E050E02AC0B801A701022E04C0E8
:1009700076956795579547950A94D2F781E090E070
:10098000A0E0B0E004C0880F991FAA1FBB1F2A95E2
:10099000D2F70197A109B1098E219F21A023B1238C
:1009A0000097A105B10521F081E090E0A0E0B0E062
:1009B0009A01AB01282B392B4A2B5B2BDA01C90199
:1009C0008F779070A070B07080349105A105B1054B
:1009D00039F427FF09C0205C3F4F4F4F5F4F04C0E1
:1009E000215C3F4F4F4F5F4FE0E0F0E02030A0E050
:1009F0003A07A0E04A07A0E45A0710F0E1E0F0E06F
:100A000079018A0127C06038710564F5FB01E1585E
:100A1000FF4FD801C7018F779070A070B0708034FD
:100A20009105A105B10539F4E7FE0DC080E490E021
:100A3000A0E0B0E004C08FE390E0A0E0B0E0E80EFA
:100A4000F91E0A1F1B1F17FF05C016950795F7947F
:100A5000E794319687E016950795F794E7948A9581
:100A6000D1F705C0EE24FF248701EFEFF0E06E2FF1
:100A7000679566276795902F9F77D794DD24D79445
:100A80008E2F8695492F462B582F5D29B701CA0115
:100A90001F910F91FF90EF90DF900895FC01DB0113
:100AA000408151812281622F6F7770E0221F2227BF
:100AB000221F9381892F880F822B282F30E0991FC6
:100AC0009927991F11969C93119721153105A9F526
:100AD000411551056105710511F482E037C082E8C6
:100AE0009FEF13969C938E9312979A01AB0167E048
:100AF000220F331F441F551F6A95D1F783E08C9353
:100B00000DC0220F331F441F551F12968D919C91CB
:100B10001397019713969C938E931297203080E041
:100B2000380780E0480780E4580758F314962D935F
:100B30003D934D935C93179708952F3F310579F4BA
:100B4000411551056105710519F484E08C930895F0
:100B500064FF03C081E08C9312C01C9210C02F5719
:100B6000304013963C932E93129783E08C9387E04A
:100B7000440F551F661F771F8A95D1F7706414962E
:100B80004D935D936D937C93179708951F93DC01AC
:100B9000FB019C91923008F447C08081823008F4B8
:100BA00043C0943051F411961C91843099F58181A1
:100BB000682F70E0611B71093FC0843021F09230D2
:100BC00031F48230B9F18181882389F12DC01196E9
:100BD0001C9111978230F1F081811817D9F4129687
:100BE0002D913C911397828193818217930794F002
:100BF00028173907BCF014968D919D910D90BC91EA
:100C0000A02D2481358146815781281739074A074D
:100C10005B0718F4112341F00AC082179307A40759
:100C2000B50740F4112319F061E070E005C06FEFE3
:100C30007FEF02C060E070E0CB011F91089581B5A5
:100C40008B7F81BD81B58D7F81BD81B58E7F81BD5B
:100C5000089581B5886081BD089588E181BD11BC8A
:100C600008955D9BFECF8CB908955F9BFECF8CB13C
:100C7000089540E060E971E00CC05D9BFECFECB9E7
:100C800024EF31E0FB013197F1F721503040D1F7EB
:100C90004F5FFC01E40FF11DE081EE2371F7089531
:100CA000AC0120E05F9BFECF8CB1FA01E20FF11D99
:100CB0008083803211F02F5FF5CF0895529886EA35
:100CC00080BD88E689B9539A549A88E160E00E9411
:100CD0007E0989E161E00E947E09089585B5877FDC
:100CE00085BD85B58F7B85BD89B7806489BF8FB78A
:100CF00082608FBF089528EE33E040E050E00E940C
:100D0000D21220E030E040E050E00E940413C9011C
:100D1000DA01292F3A2F4B2F552720939C0030932F
:100D20009D0040939E0050939F00982F8093A400B5
:100D3000882371F0919594BD2F5F3F4F4F4F5F4FC8
:100D400020939C0030939D0040939E0050939F0001
:100D5000089585B5846085BD85B5826085BD85B5FE
:100D6000816085BD089585B58B7F85BD85B58D7FF7
:100D700085BD85B58E7F85BD0895982F882349F45C
:100D800085B5806285BD85B5806185BD8FEF83BDEA
:100D9000089585B5806285BD85B58F7E85BD80E06F
:100DA00064E670E00E94F112615063BD08950E94F4
:100DB000B30608959093A6008093A50008950E941D
:100DC000A9068FE161E00E947E0908958FE161E04C
:100DD0000E947E0985B5886085BD85B5806485BD26
:100DE00085B5806285BD85B58F7E85BD08958EB53C
:100DF00080618EBD8EB588608EBD8FB582608FBDDF
:100E00008FB58E7F8FBD8FB580688FBD8FB58F7B7F
:100E10008FBD8FB580628FBD8FB58F7E8FBD8EB534
:100E20008B7F8EBD8EB582608EBD8EB581608EBD8E
:100E300008959DBD8CBD08958330910510F097BD38
:100E400086BD08959BBD8ABD089599BD88BD08954E
:100E5000EF92FF920F931F937B018C0120E030E013
:100E600040E050E00E94C503882304F1C801B701A7
:100E700020E030E048EC52E40E94F5031816B4F08C
:100E800080E094E097BD86BDC801B70120E030E066
:100E900048EC52E40E94190320E030E040E854E4BA
:100EA0000E941F020E9449007BBD6ABD1F910F91E5
:100EB000FF90EF900895EF92FF920F931F937B01A5
:100EC0008C0120E030E048EC52E40E94F503181653
:100ED000B4F080E094E097BD86BDC801B70120E082
:100EE00030E048EC52E40E94190320E030E040E892
:100EF00054E40E941F020E94490079BD68BD1F9101
:100F00000F91FF90EF900895FC01009721F08CB5B0
:100F10009DB59183808308958EB580688EBD0895B8
:100F20008EB58F778EBD0895882319F0813041F4F6
:100F300004C08EB58F7B8EBD08958EB580648EBD46
:100F40000895FC01009721F086B597B591838083C1
:100F5000089589B7846089BF089589B78B7F89BF59
:100F6000089589B7806189BF089589B78F7E89BF49
:100F7000089589B7886089BF089589B7877F89BF39
:100F8000089589B7806289BF089589B78F7D89BF29
:100F9000089508B602FEFDCF88B7846088BF089523
:100FA00008B604FEFDCF88B7806188BF089508B6F3
:100FB00003FEFDCF88B7886088BF089508B605FE98
:100FC000FDCF88B7806288BF0895009721F0909385
:100FD000A8008093A7000895009721F09093AA009D
:100FE0008093A9000895009721F09093AC0080931E
:100FF000AB000895009721F09093AE008093AD0070
:10100000089580B7816080BF08950E9428070895E1
:101010009C0186E0220F331F8A95E1F740E050E003
:1010200060E074E284EF90E00E94261337BD26BD95
:1010300008958EB58B7F8EBD8EB582608EBD8EB5C8
:1010400081608EBD08958EB58B7F8EBD8EB58D7FF0
:101050008EBD8EB58E7F8EBD08951F920F920FB6F6
:101060000F9211242F933F934F935F936F937F932E
:101070008F939F93AF93BF93EF93FF93E091A7005C
:10108000F091A800309709F00995FF91EF91BF9179
:10109000AF919F918F917F916F915F914F913F9110
:1010A0002F910F900FBE0F901F9018951F920F92C7
:1010B0000FB60F9211242F933F934F935F936F932B
:1010C0007F938F939F93AF93BF93EF93FF93E091A1
:1010D000AB00F091AC00309709F00995FF91EF91CA
:1010E000BF91AF919F918F917F916F915F914F9140
:1010F0003F912F910F900FBE0F901F9018951F9248
:101100000F920FB60F9211242F933F934F935F933B
:101110006F937F938F939F93AF93BF93EF93FF93BF
:10112000E091A900F091AA00309709F00995FF918C
:10113000EF91BF91AF919F918F917F916F915F914F
:101140004F913F912F910F900FBE0F901F901895C8
:101150001F920F920FB60F9211242F933F934F932C
:101160005F936F937F938F939F93AF93BF93EF930F
:10117000FF93E091AD00F091AE00309709F0099532
:10118000FF91EF91BF91AF919F918F917F916F915F
:101190005F914F913F912F910F900FBE0F901F9035
:1011A00018958DE161E00E947E098FB580688FBD42
:1011B0008FB58F7B8FBD0E94F70608958FB9779BFF
:1011C000FECF0895779BFECF8FB1089520E040E2D7
:1011D0005EE407C0EFB9779BFECFFA013197F1F7D4
:1011E0002F5FFC01E20FF11DE081EE2399F70895D6
:1011F00020E0779BFECF3FB1E22FF0E0303221F4C8
:10120000E80FF91F10820895E80FF91F30832F5F50
:10121000F0CF1F920F920FB60F9211242F933F938E
:101220004F935F936F937F938F939F93AF93BF93EE
:10123000EF93FF93E091AF00F091B000309709F089
:101240000995FF91EF91BF91AF919F918F917F9100
:101250006F915F914F913F912F910F900FBE0F9023
:101260001F901895009721F09093B0008093AF00E5
:1012700008958CE060E00E947E098DE060E00E94AD
:101280007E098EE061E00E947E098FE060E00E94AE
:101290007E096D986B986A986F986C986E9A08950D
:1012A0008CE061E00E947E098DE061E00E947E0991
:1012B0008EE060E00E947E098FE061E00E947E097E
:1012C0008CE061E00E94E10C6D986B986A986F98D1
:1012D00070988DB18C7F8DB98DB183608DB96C9A0A
:1012E0006E9A08952EE02ABB9FE097BB14BA84E063
:1012F00081BB2BBB98BB15BA82BB0895803210F01E
:1013000081E00895623010F082E00895382F377040
:10131000869586958695813009F1813030F082304E
:10132000B1F1833009F058C04BC0613059F42AB391
:1013300081E090E002C0880F991F3A95E2F7282BD0
:101340002ABB4AC02AB381E090E002C0880F991FEF
:101350003A95E2F7809582238ABB3EC0613059F40A
:1013600027B381E090E002C0880F991F3A95E2F719
:10137000282B27BB31C027B381E090E002C0880F43
:10138000991F3A95E2F78095822387BB25C061308B
:1013900059F424B381E090E002C0880F991F3A9578
:1013A000E2F7282B24BB18C024B381E090E002C0F0
:1013B000880F991F3A95E2F78095822384BB0CC071
:1013C000613061F421B381E090E002C0880F991F81
:1013D0003A95E2F7282B21BB80E0089521B381E004
:1013E00090E002C0880F991F3A95E2F7809582231A
:1013F00081BB80E00895803210F081E00895643070
:1014000010F082E00895482F47708695869586955E
:10141000813009F449C0813038F0823009F484C049
:10142000833009F001C1C0C06130A1F0613030F0FB
:101430006230E1F0633009F0F7C027C08AB321E0E1
:1014400030E001C0220F4A95EAF7822B8ABB8BB3AA
:10145000209518C08AB321E030E001C0220F4A95E0
:10146000EAF7822B8ABB8BB3282B0DC08AB321E00D
:1014700030E002C0220F331F4A95E2F72095822305
:101480008ABB8BB328232BBBCDC03AB381E090E05D
:1014900001C0880F4A95EAF7282F209523232ABBFD
:1014A0002BB3822B8BBBBEC06130A1F0613030F01A
:1014B0006230E9F0633009F0B7C027C087B321E09C
:1014C00030E001C0220F4A95EAF7822B87BB88B330
:1014D000209519C087B321E030E001C0220F4A9562
:1014E000EAF7822B87BB88B3282B28BB9BC087B326
:1014F00021E030E002C0220F331F4A95E2F7209529
:10150000822387BB88B32823F0CF37B381E090E0F4
:1015100001C0880F4A95EAF7282F2095232327BB7F
:1015200028B3822B88BB7EC06130A1F0613030F0DF
:101530006230E9F0633009F077C027C084B321E05E
:1015400030E001C0220F4A95EAF7822B84BB85B3B5
:10155000209519C084B321E030E001C0220F4A95E4
:10156000EAF7822B84BB85B3282B25BB5BC084B3F1
:1015700021E030E002C0220F331F4A95E2F72095A8
:10158000822384BB85B32823F0CF34B381E090E07D
:1015900001C0880F4A95EAF7282F2095232324BB02
:1015A00025B3822B85BB3EC0613099F0613028F0B5
:1015B0006230D9F06330C1F527C081B321E030E05B
:1015C00001C0220F4A95EAF7822B81BB82B3209596
:1015D00018C081B321E030E001C0220F4A95EAF73C
:1015E000822B81BB82B3282B0DC081B321E030E078
:1015F00002C0220F331F4A95E2F72095822381BB58
:1016000082B3282322BB0EC031B381E090E001C039
:10161000880F4A95EAF7282F2095232321BB22B370
:10162000822B82BB80E0089580E0089596B79B7F6F
:1016300096BF9CE090B90898099892B1917092B9C0
:1016400092B1880F982B92B986B7846086BF80E4E8
:101650009CE90197F1F7089596B79B7F96BF96B7DF
:10166000906496BF92B1917092B992B1880F982B05
:1016700092B986B7846086BF80E49CE90197F1F750
:101680000895982F84EA86BF06B607FEFDCF990F0E
:1016900093B984E886BF06B607FEFDCF63B984E838
:1016A00086BF06B607FEFDCF84E986BF0895982F52
:1016B000FB0184EA86BF06B607FEFDCF990F916055
:1016C00093B984E886BF06B607FEFDCF83B1808359
:1016D00084E886BF06B607FEFDCF81B1887F8832D9
:1016E00011F084E986BF089584EA86BF06B607FE36
:1016F000FDCF80E49CE90197F1F7089584EA86BF65
:1017000006B607FEFDCF80E49CE90197F1F7089546
:1017100084E986BF06B607FEFDCF80E49CE9019709
:10172000F1F70895880F83B984E886BF06B607FEEF
:10173000FDCF80E49CE90197F1F70895880F81605F
:1017400083B984E886BF06B607FEFDCF80E49CE936
:101750000197F1F7089583B984E886BF06B607FEBE
:10176000FDCF80E49CE90197F1F70895882329F0E3
:10177000813019F48FB7806802C08FB78F778FBF21
:10178000089585B78E7F85BF85B7816085BF8BB78C
:1017900080648BBF08958BB78F7B8BBF089585B70F
:1017A0008E7F85BF85B7816085BF8BB780688BBF13
:1017B00008958823F9F4613051F0613028F06230E7
:1017C00061F0633099F40CC085B78E7F02C085B795
:1017D000816085BF85B78D7F08C085B78E7F02C0C9
:1017E00085B7816085BF85B7816085BF8BB7806411
:1017F0008BBF08958130E1F5613051F0613028F000
:10180000623061F0633099F40CC085B78E7F02C0FE
:1018100085B7816085BF85B78D7F08C085B78E7F0E
:1018200002C085B7816085BF85B7816085BF8BB7F2
:1018300080688BBF613051F0613028F0623061F018
:10184000633099F40CC085B78E7F02C085B7816084
:1018500085BF85B78D7F08C085B78E7F02C085B7ED
:10186000816085BF85B7816085BF8BB780628BBF84
:10187000089584B78E7F84BF8BB780628BBF089535
:10188000813041F0813018F0823059F407C08AB7B6
:10189000806402C08AB780688ABF08958BB780626F
:1018A0008BBF0895009741F0E62FF0E0EE0FFF1F89
:1018B000EF54FF4F9183808308951F920F920FB6CC
:1018C0000F9211242F933F934F935F936F937F93C6
:1018D0008F939F93AF93BF93EF93FF93E091B100EA
:1018E000F091B200309721F0099580E00E94400C01
:1018F000FF91EF91BF91AF919F918F917F916F91E8
:101900005F914F913F912F910F900FBE0F901F90BD
:1019100018951F920F920FB60F9211242F933F9399
:101920004F935F936F937F938F939F93AF93BF93E7
:10193000EF93FF93E091B300F091B400309721F062
:10194000099581E00E94400CFF91EF91BF91AF910A
:101950009F918F917F916F915F914F913F912F91C7
:101960000F900FBE0F901F9018951F920F920FB6F9
:101970000F9211242F933F934F935F936F937F9315
:101980008F939F93AF93BF93EF93FF93E091B50035
:10199000F091B600309721F0099582E00E94400C4A
:1019A000FF91EF91BF91AF919F918F917F916F9137
:1019B0005F914F913F912F910F900FBE0F901F900D
:1019C0001895803210F081E00895623010F082E0C6
:1019D0000895382F3770869586958695813079F1F0
:1019E000813038F0823009F450C0833009F097C05C
:1019F00072C08AB390E0032E02C0959587950A9431
:101A0000E2F780FF8EC0662371F0613009F087C075
:101A10002BB381E090E002C0880F991F3A95E2F75E
:101A2000282B2BBB7CC02BB381E090E002C0880F39
:101A3000991F3A95E2F7809582238BBB70C087B3DC
:101A400090E0032E02C0959587950A94E2F780FFF7
:101A500068C0662371F0613009F061C028B381E08D
:101A600090E002C0880F991F3A95E2F7282B28BB17
:101A700056C028B381E090E002C0880F991F3A95C4
:101A8000E2F78095822388BB4AC084B390E0032E9E
:101A900002C0959587950A94E2F780FF42C06623BD
:101AA00071F0613009F03BC025B381E090E002C0E5
:101AB000880F991F3A95E2F7282B25BB30C025B334
:101AC00081E090E002C0880F991F3A95E2F7809577
:101AD000822385BB24C081B390E0032E02C095957C
:101AE00087950A94E2F780FF1CC0662369F0613095
:101AF000B1F422B381E090E002C0880F991F3A95BB
:101B0000E2F7282B22BB0BC022B381E090E002C099
:101B1000880F991F3A95E2F78095822382BB80E077
:101B2000089583E00895FB016115710511F484E0C7
:101B30000895803210F081E00895282F277086954F
:101B400086958695813099F0813028F08230D9F0E1
:101B50008330C1F524C08AB390E0022E02C095956F
:101B600087950A94E2F780FD2FC089B323C087B31D
:101B700090E0022E02C0959587950A94E2F780FDC9
:101B800023C086B317C084B390E0022E02C095959F
:101B900087950A94E2F780FD17C083B30BC081B329
:101BA00090E0022E02C0959587950A94E2F780FD99
:101BB0000BC080B390E002C0959587952A95E2F717
:101BC0008170808380E0089583E00895843010F070
:101BD00085E00895813049F0813028F0823039F075
:101BE000833031F407C06BBB03C068BB01C065BB69
:101BF00080E0089562BB80E00895FB01843010F01E
:101C000095E001C090E0309711F494E011C081306C
:101C100049F0813028F0823039F0833049F406C031
:101C200089B305C086B303C083B301C080B380838A
:101C3000892F0895803210F081E00895382F377091
:101C40008695869586958130E9F0813030F0823036
:101C500071F1833009F056C03FC08AB390E0032E83
:101C600002C0959587950A94E2F780FF4BC02BB38D
:101C700081E090E002C0880F991F3A95E2F728278B
:101C80002BBB3EC087B390E0032E02C0959587958D
:101C90000A94E2F780FF36C028B381E090E002C0EA
:101CA000880F991F3A95E2F7282728BB29C084B3EB
:101CB00090E0032E02C0959587950A94E2F780FF85
:101CC00021C025B381E090E002C0880F991F3A95AA
:101CD000E2F7282725BB14C081B390E0032E02C091
:101CE000959587950A94E2F780FF0CC022B381E0B6
:101CF00090E002C0880F991F3A95E2F7282722BB8F
:101D000080E0089580E00895582F853010F081E03C
:101D10000895842F90E08F709070052E02C0880F78
:101D2000991F0A94E2F7482F6130B9F0613030F022
:101D3000623011F1633081F185E008958BB32FE0BB
:101D400030E002C0220F331F5A95E2F72095282376
:101D50002BBB8BB3482B4BBB1DC088B32FE030E0AF
:101D600002C0220F331F5A95E2F72095282328BB83
:101D700088B3482B48BB0EC085B32FE030E002C0CB
:101D8000220F331F5A95E2F72095282325BB85B3F0
:101D9000482B45BB80E0089582B32FE030E002C0BD
:101DA000220F331F5A95E2F72095282322BB82B3D6
:101DB000482B42BB80E008953E9A3F98309A319A72
:101DC00032983D98379A08953F9808951F920F9240
:101DD0000FB60F921124369A0F900FBE0F901F90DE
:101DE000189597B1907E97B997B18F71892B87B964
:101DF00081E00E94B60B369A349BFECF24B135B1F8
:101E0000C9010895FC01613021F481810E94E10C37
:101E10000895662319F481810E94E10C08951F93AF
:101E200011E0812F61E00E947E091F5F1930C9F720
:101E30008AE160E00E947E098BE160E00E947E09F9
:101E40008CE160E00E947E0911E0812F61E00E9438
:101E5000FB091F5F1930C9F78AE163E00E94FB09A3
:101E60008BE163E00E94FB098CE163E00E94FB09C7
:101E70001F910895EF92FF921F93182F89E060E061
:101E80000E94E10C88E061E00E94E10C412F429544
:101E90004F7084E060E00E94840E8AE061E00E945E
:101EA000E10C80E4E82E8FE1F82EC7010197F1F7ED
:101EB0008AE060E00E94E10C84E060E0412F0E9433
:101EC000840E8AE061E00E94E10CC7010197F1F7FE
:101ED0008AE060E00E94E10C1F91FF90EF9008956E
:101EE000AF92BF92CF92DF92EF92FF920F931F9328
:101EF000DF93CF93CDB7DEB72C970FB6F894DEBF44
:101F00000FBECDBF6B017C01611571058105910587
:101F1000E1F110E05E010894A11CB11CC501810F24
:101F2000911D9C878B87C701B6012AE030E040E015
:101F300050E00E940413EB85FC856083C701B60165
:101F40002AE030E040E050E00E940413C901DA01C9
:101F50006C017D011F5FC114D104E104F104F1F6AD
:101F6000012F0150E02EFF24E7FCF094EA0CFB1C4B
:101F700009C0F7018081805D0E943A0F01500894EA
:101F8000E108F10807FFF5CF03C080E30E943A0F94
:101F90002C960FB6F894DEBF0FBECDBFCF91DF9168
:101FA0001F910F91FF90EF90DF90CF90BF90AF9077
:101FB0000895EF92FF921F93182F89E060E00E942E
:101FC000E10C88E060E00E94E10C412F42954F70E7
:101FD00084E060E00E94840E8AE061E00E94E10CEF
:101FE00090E4E92E9FE1F92EC7010197F1F78AE00D
:101FF00060E00E94E10C84E060E0412F0E94840ECA
:102000008AE061E00E94E10CC7010197F1F78AE0E4
:1020100060E00E94E10C1F91FF90EF9008950F93F4
:102020001F93CF93DF938C01683098F4660F660F8F
:10203000660F862F805C0E94D90FC0E0D0E0F801C7
:10204000EC0FFD1F80810E943A0F2196C830D10508
:10205000B1F7DF91CF911F910F910895823068F40D
:10206000603158F4882329F4862F80580E94D90FB4
:102070000895862F80540E94D90F0895FF920F93E0
:102080001F93CF93DF93AC0120E030E002C02F5FBD
:10209000322FFA01E20FF11D80818823C1F731321E
:1020A000B8F4F32EFA94EA0101E010E00EC010310A
:1020B00028F0602F615181E00E942E1088810E94DB
:1020C0003A0FFA940F5F1F5F21968FEFF81679F79A
:1020D000DF91CF911F910F91FF900895EF92FF92A2
:1020E0000F931F938CE291E020E931E0F9013197E1
:1020F000F1F70197D9F784E061E00E947E0985E05D
:1021000061E00E947E0986E061E00E947E0987E02E
:1021100061E00E947E0988E061E00E947E0989E01A
:1021200061E00E947E098AE061E00E947E0984E00D
:1021300060E042E00E94840E8AE061E00E94E10CCF
:1021400020E4E22E2FE1F22EC7010197F1F78AE099
:1021500060E00E94E10C88E20E94D90F00EA1FE0D3
:10216000C8010197F1F78EE00E94D90FC8010197CD
:10217000F1F781E00E94D90FC7010197F1F786E0DE
:102180000E94D90F1F910F91FF90EF9008958FE05B
:1021900084BB80EF85BB28EC30E0A898A99AAA9A66
:1021A000AB9AC9010197F1F79C9904C09C9BFECFA3
:1021B00087E308959D9904C09D9BFECF88E3089511
:1021C0009E9904C09E9BFECF89E308959F9904C009
:1021D0009F9BFECF8FE20895A89AA998AA9AAB9ADE
:1021E000C9010197F1F79C9904C09C9BFECF84E341
:1021F00008959D9904C09D9BFECF85E308959E9907
:1022000004C09E9BFECF86E308959F9904C09F9BC8
:10221000FECF8AE20895A89AA99AAA98AB9AC90112
:102220000197F1F79C9904C09C9BFECF81E3089530
:102230009D9904C09D9BFECF82E308959E9904C0A2
:102240009E9BFECF83E308959F9904C09F9BFECF82
:102250008DE20895A89AA99AAA9AAB98C901019704
:10226000F1F79C9904C09C9BFECF83E408959D994F
:1022700004C09D9BFECF80E308959E9904C09E9B61
:10228000FECF8DE308959F9988CF9F9BFECF8BE271
:102290000895AF92BF92CF92DF92EF92FF920F9389
:1022A0001F93DF93CF930F92CDB7DEB75C010097FA
:1022B00009F44CC023E9E22E20E0F22E00E010E009
:1022C0006E010894C11CD11CF701808160E00E945E
:1022D000E10C80919700B6010E94930D89818823BB
:1022E00049F180919800B6010E94930D898188235D
:1022F00011F481E01FC080919900B6010E94930DF6
:102300008981882311F482E015C080919A00B6017A
:102310000E94930D8981882361F0F70181917F01EB
:1023200061E00E94E10C0F5F1F4F0430110561F660
:102330000DC083E0000F111F000F111F080F111DAA
:102340000D571F4FF8018081F50180830F90CF91C9
:10235000DF911F910F91FF90EF90DF90CF90BF9092
:10236000AF9008958BE161E00E947E098CE161E00D
:102370000E947E098DE161E00E947E098EE161E0AC
:102380000E947E0982E160E00E947E0983E160E0B4
:102390000E947E0984E160E00E947E0985E160E0A0
:1023A0000E947E0982E163E00E94FB0983E163E011
:1023B0000E94FB0984E163E00E94FB0985E163E080
:1023C0000E94FB098BE161E00E94E10C8CE161E07D
:1023D0000E94E10C8DE161E00E94E10C8EE161E080
:1023E0000E94E10C08950F931F93182F062F0E944F
:1023F000740B80E50E94920B812F0E94AB0B802F03
:102400000E94AB0B0E94880B1F910F9108951F93A0
:10241000162F0E94740B80E50E94920B812F0E9460
:10242000AB0B0E947E0B812F0E949E0B0E94880B9B
:102430001F91089580E090E008951F93CF93DF935C
:10244000EC0197FF06C0D095C195DF4F8DE20E9449
:102450003A0FCE016AE070E00E94F112162F662357
:1024600021F0862F805D0E943A0FCE01805D282FDB
:1024700086EF9FEF189F802D1124820F0E943A0F44
:10248000DF91CF911F9108950F931F93DF93CF9307
:10249000CDB7DEB76B970FB6F894DEBF0FBECDBFDA
:1024A0008C01DE011196E0E6F0E08CE001900D92E7
:1024B0008150E1F7DE011D96ECE6F0E08FE001903F
:1024C0000D928150E1F781E00E94D90F01151105AD
:1024D00031F00130110519F4CE010D9602C0CE0184
:1024E00001960E943E106B960FB6F894DEBF0FBEA9
:1024F000CDBFCF91DF911F910F910895833429F4BF
:1025000081E00E94D90F85E608958B3259F08D3213
:1025100049F08A3239F08F3229F081E090E00E9450
:10252000441285E60895853341F1863370F4823391
:10253000F1F0833328F48033C1F0813361F513C0A7
:102540008333B9F0843339F516C08833E1F0893329
:1025500028F48633A1F08733F1F413C08933A9F04E
:102560008334C9F414C081E01BC080E019C082E04C
:1025700017C083E015C084E013C085E011C086E079
:102580000FC087E00DC088E00BC089E009C081E082
:102590000E94D90F04C080E090E00E9444128DE0B8
:1025A00090E00895629FD001739FF001829FE00D3B
:1025B000F11D649FE00DF11D929FF00D839FF00DC2
:1025C000749FF00D659FF00D9927729FB00DE11D6E
:1025D000F91F639FB00DE11DF91FBD01CF0111244B
:1025E000089597FB092E07260AD077FD04D049D01D
:1025F00006D000201AF4709561957F4F0895F6F784
:10260000909581959F4F0895A1E21A2EAA1BBB1B9E
:10261000FD010DC0AA1FBB1FEE1FFF1FA217B307AE
:10262000E407F50720F0A21BB30BE40BF50B661FC4
:10263000771F881F991F1A9469F760957095809588
:1026400090959B01AC01BD01CF01089597FB092E28
:1026500005260ED057FD04D0D7DF0AD0001C38F471
:1026600050954095309521953F4F4F4F5F4F0895BE
:10267000F6F790958095709561957F4F8F4F9F4F9E
:102680000895AA1BBB1B51E107C0AA1FBB1FA617B9
:10269000B70710F0A61BB70B881F991F5A95A9F70B
:1026A00080959095BC01CD0108952F923F924F9255
:1026B0005F926F927F928F929F92AF92BF92CF92D2
:1026C000DF92EF92FF920F931F93CF93DF93CDB7DB
:1026D000DEB7CA1BDB0B0FB6F894DEBF0FBECDBF53
:1026E00009942A88398848885F846E847D848C8424
:1026F0009B84AA84B984C884DF80EE80FD800C812D
:102700001B81AA81B981CE0FD11D0FB6F894DEBF0F
:0C2710000FBECDBFED010895F894FFCF7F
:10271C0057726F6E6720496E7075740057726F6ECA
:10272C00672046756E6374696F6E000000000000D0
:10273C000000003134372A323538303336392341F2
:0C274C004243441B1C1D1E1213141500F8
:00000001FF
