:100000000C942A000C942A040C9453040C947C0441
:100010000C9447000C9447000C9447000C94470044
:100020000C9447000C9447000C94A9040C944700CE
:100030000C94C3060C9447000C9447000C944700A2
:100040000C9436030C9447000C9447000C94470022
:100050000C94470011241FBECFE5D8E0DEBFCDBF12
:1000600010E0A0E6B0E0EAE0FEE002C005900D92EC
:10007000AE36B107D9F720E0AEE6B0E001C01D9280
:10008000A538B207E1F70E94C9020C9403070C944B
:1000900000000E94D2040E94A5040E94CF000E948A
:1000A00005030E940604089562E082E00E94E004D5
:1000B0008FEC97E00197F1F700C0000063E082E069
:1000C0000E94E0048FEC97E00197F1F700C0000078
:1000D0000895CF93C82F63E083E00E94E00463E0BB
:1000E00084E60E94E0046C2F661F6627661F8CE082
:1000F0000E945F036C2F607470E0062E672F000C67
:10010000661F770B000C661F771F8AE00E945F0353
:100110006C2F607270E0759567957595679575950C
:100120006795759567957595679589E00E945F035A
:100130006C2F607170E075956795759567957595ED
:1001400067957595679588E00E945F030E9454004B
:100150006C2F687070E075956795759567957595C6
:1001600067958CE00E945F036C2F647070E075955A
:100170006795759567958AE00E945F036C2F6270A2
:1001800070E07595679589E00E945F036C2F617040
:1001900088E00E945F030E945400CF9108958FE58C
:1001A0009AEE0197F1F700C0000061E088E00E943C
:1001B0001C0661E089E00E941C0661E08AE00E9462
:1001C0001C0661E08CE00E941C0661E083E00E9456
:1001D0001C0661E082E00E941C0663E084E60E9447
:1001E000E0048FE39CE90197F1F700C0000083E38E
:1001F0000E94690082E30E94690088E20E9469000F
:1002000082E00E94690081E00E9469008FE39FE123
:100210000197F1F700C0000086E00E9469008FECB2
:1002200097E00197F1F700C000008EE00E9469009E
:100230008FEC97E00197F1F700C00000089581115D
:1002400005C0862F80680E9469000895813031F4CE
:1002500080E4860F80680E9469000895823031F43E
:1002600084E1860F80680E9469000895833029F434
:1002700084E5860F80680E9469000895CF93C82F97
:1002800061E083E00E945F036C2F661F6627661F94
:100290008CE00E945F036C2F607470E0062E672F65
:1002A000000C661F770B000C661F771F8AE00E9408
:1002B0005F036C2F607270E0759567957595679513
:1002C00075956795759567957595679589E00E9411
:1002D0005F036C2F607170E07595679575956795F4
:1002E000759567957595679588E00E945F030E94F4
:1002F00054006C2F687070E07595679575956795DB
:10030000759567958CE00E945F036C2F647070E0B8
:1003100075956795759567958AE00E945F036C2FC8
:10032000627070E07595679589E00E945F036C2F9D
:10033000617088E00E945F030E945400CF9108958D
:100340000F931F93CF938C01C0E00CC00E943E011D
:10035000CF5F2FEF80E792E0215080409040E1F79F
:1003600000C00000F801EC0FF11D80818111EECF7B
:10037000CF911F910F91089581E00E946900089527
:10038000CF92DF92EF92FF920F931F938B019C010C
:10039000672B682B692B49F580E30E943E0146C01C
:1003A000DC01CB01880F991FAA1FBB1F6C017D01C7
:1003B000CC0CDD1CEE1CFF1CCC0CDD1CEE1CFF1C51
:1003C000C80ED91EEA1EFB1EC901B8012AE030E0A2
:1003D00040E050E00E94D2066C0D7D1D8E1D9F1DD9
:1003E000022F132F242F352F04C061E070E080E02E
:1003F00090E0011511052105310591F612C02AE0A2
:1004000030E040E050E00E94D206E22EF32E042FAE
:10041000152F80E3860F0E943E016E2D7F2D802FC9
:10042000912F613071058105910549F71F910F9159
:10043000FF90EF90DF90CF900895CF93DF932091BE
:10044000780030917900293E83E0380708F459C0DC
:10045000369527953695279536952795A5ECB0E2E4
:100460000E94F406EC01D295C295CF70CD27DF70C3
:10047000CD2765E082E00E941F01BE0180E090E090
:100480000E94C0018EE20E943E014091780050918E
:1004900079009A01369527953695279536952795B3
:1004A000A5ECB0E20E94F406929582958F708927A0
:1004B0009F70892768EE73E0869F9001879F300DBB
:1004C000969F300D1124CA01821B930B90937900E3
:1004D000809378008436910518F480E30E943E01F1
:1004E000609178007091790080E090E00E94C001F6
:1004F0006AE082E00E941F0180E690E00E94A00175
:1005000045C065E082E00E941F0180E30E943E0139
:100510008EE20E943E0140917800509179009A014C
:10052000369527953695279536952795A5ECB0E213
:100530000E94F406929582958F7089279F70892773
:1005400068EE73E0869F9001879F300D969F300D77
:100550001124CA01821B930B909379008093780039
:100560008436910518F480E30E943E016091780082
:100570007091790080E090E00E94C0016AE082E022
:100580000E941F0180E690E00E94A001DF91CF91C0
:1005900008950E94490060E080E00E94E0046DE15F
:1005A00072E080E090E00E9412040E94BC0183E6A9
:1005B00090E00E94A0016EE670E080E00E941503CA
:1005C00080916E0090916F009C01220F331F220FCB
:1005D000331F820F931F05979093790080937800C3
:1005E00065E082E00E941F016091780070917900BF
:1005F00080E090E00E94C00169E082E00E941F015B
:1006000089E690E00E94A001D6CF87B18F77806401
:100610008F7D87B986B186608E7F806290B79F712B
:1006200090BF877F806C86B9089596B127B1207EF0
:10063000822B87B9892F806686B96115710589F08B
:1006400084FFFECF84B190E0FB019183808325B1CC
:1006500030E0322F2227822B932B9183808381E0FD
:1006600001C083E096B1906196B908951F920F92F0
:100670000FB60F9211242F933F934F935F936F9375
:100680007F938F939F93AF93BF93EF93FF93E091EB
:100690007000F0917100309709F00995FF91EF918A
:1006A000BF91AF919F918F917F916F915F914F918A
:1006B0003F912F910F900FBE0F901F901895803291
:1006C00008F096C0623008F095C0982F96959695E0
:1006D00096958770913049F138F0923009F446C010
:1006E000933009F464C088C0613071F421E030E0D7
:1006F000A90102C0440F551F8A95E2F7CA019BB3B6
:10070000892B8BBB80E00895611178C021E030E037
:10071000A90102C0440F551F8A95E2F7CA018095CE
:100720009BB389238BBB80E00895613071F421E095
:1007300030E0A90102C0440F551F8A95E2F7CA01B3
:1007400098B3892B88BB80E00895611159C021E0DE
:1007500030E0A90102C0440F551F8A95E2F7CA0193
:10076000809598B3892388BB80E00895613071F447
:1007700021E030E0A90102C0440F551F8A95E2F73D
:10078000CA0195B3892B85BB80E0089561113AC0F9
:1007900021E030E0A90102C0440F551F8A95E2F71D
:1007A000CA01809595B3892385BB80E008956130A7
:1007B00071F421E030E0A90102C0440F551F8A9571
:1007C000E2F7CA0192B3892B82BB80E008956111E0
:1007D0001BC021E030E0A90102C0440F551F8A95DB
:1007E000E2F7CA01809592B3892382BB80E0089525
:1007F00082E0089584E0089583E0089580E00895FC
:1008000080E0089580E0089580E008959BB785B763
:10081000887F886085BF892F806E8BBF84B78F7B70
:1008200084BF089561157105A1F0813049F018F079
:10083000823059F0089570937300609372000895A8
:1008400070937500609374000895709377006093BF
:10085000760008951F920F920FB60F9211242F93D6
:100860003F934F935F936F937F938F939F93AF9338
:10087000BF93EF93FF93E0917200F0917300309774
:1008800009F00995FF91EF91BF91AF919F918F91E1
:100890007F916F915F914F913F912F910F900FBE7C
:1008A0000F901F9018951F920F920FB60F92112460
:1008B0002F933F934F935F936F937F938F939F9368
:1008C000AF93BF93EF93FF93E0917400F0917500A5
:1008D000309709F00995FF91EF91BF91AF919F91EA
:1008E0008F917F916F915F914F913F912F910F90D9
:1008F0000FBE0F901F9018951F920F920FB60F9278
:1009000011242F933F934F935F936F937F938F9314
:100910009F93AF93BF93EF93FF93E0917600F09195
:100920007700309709F00995FF91EF91BF91AF9152
:100930009F918F917F916F915F914F913F912F91F7
:100940000F900FBE0F901F9018958FB780688FBFC4
:1009500008951F920F920FB60F9211242F933F9379
:100960004F935F936F937F938F939F93AF93BF93B7
:10097000EF93FF93E0917E00F0917F00309709F0B4
:100980000995FF91EF91BF91AF919F918F917F91C9
:100990006F915F914F913F912F910F900FBE0F90EC
:1009A0001F9018958CE08ABB8FE187BB80E484BBE5
:1009B00082E081BB1BBA18BA15BA86E082BB0895E3
:1009C000982F969596959695282F2770943010F429
:1009D00081E001C083E0643008F084E0913009F4E4
:1009E00051C038F0923009F496C0933009F4DCC05D
:1009F0000895613081F481E090E002C0880F991F72
:100A00002A95E2F79BB3982B9BBB80959AB38923D9
:100A10008ABB80E00895611110C081E090E002C0BF
:100A2000880F991F2A95E2F780959BB398239BBB6B
:100A30009AB389238ABB80E00895623079F481E01B
:100A400090E002C0880F991F2A95E2F79BB3982B7C
:100A50009BBB9AB3892B8ABB80E00895633009F071
:100A6000EAC081E090E002C0880F991F2A95E2F762
:100A7000982F90952BB392239BBB9AB3892B8ABB5B
:100A800080E00895613081F481E090E002C0880F39
:100A9000991F2A95E2F798B3982B98BB809597B346
:100AA000892387BB80E00895611110C081E090E048
:100AB00002C0880F991F2A95E2F7809598B3982372
:100AC00098BB97B3892387BB80E00895623079F49F
:100AD00081E090E002C0880F991F2A95E2F798B351
:100AE000982B98BB97B3892B87BB80E00895633020
:100AF00009F0A1C081E090E002C0880F991F2A95FB
:100B0000E2F7982F909528B3922398BB97B3892B3F
:100B100087BB80E00895613081F481E090E002C0FD
:100B2000880F991F2A95E2F795B3982B95BB80956E
:100B300094B3892384BB80E00895611110C081E0E3
:100B400090E002C0880F991F2A95E2F7809595B32F
:100B5000982395BB94B3892384BB80E008956230C9
:100B600079F481E090E002C0880F991F2A95E2F79E
:100B700095B3982B95BB94B3892B84BB80E00895E3
:100B8000633009F058C081E090E002C0880F991FDF
:100B90002A95E2F7982F909525B3922395BB94B3AD
:100BA000892B84BB80E00895613081F481E090E07E
:100BB00002C0880F991F2A95E2F792B3982B92BB37
:100BC000809591B3892381BB80E00895611110C0A5
:100BD00081E090E002C0880F991F2A95E2F7809586
:100BE00092B3982392BB91B3892381BB80E008958F
:100BF000623079F481E090E002C0880F991F2A9555
:100C0000E2F792B3982B92BB91B3892B81BB80E022
:100C10000895633081F481E090E002C0880F991F4D
:100C20002A95E2F7982F909522B3922392BB91B325
:100C3000892B81BB80E00895803208F096C0623035
:100C400008F095C0982F9695969596958770913057
:100C500049F138F0923009F446C0933009F464C089
:100C600088C0613071F421E030E0A90102C0440F76
:100C7000551F8A95E2F7CA019AB3892B8ABB80E097
:100C80000895611178C021E030E0A90102C0440F4D
:100C9000551F8A95E2F7CA0180959AB389238ABBCA
:100CA00080E00895613071F421E030E0A90102C0D4
:100CB000440F551F8A95E2F7CA0197B3892B87BB6A
:100CC00080E00895611159C021E030E0A90102C01F
:100CD000440F551F8A95E2F7CA01809597B389237F
:100CE00087BB80E00895613071F421E030E0A90114
:100CF00002C0440F551F8A95E2F7CA0194B3892BAD
:100D000084BB80E0089561113AC021E030E0A90180
:100D100002C0440F551F8A95E2F7CA01809594B32B
:100D2000892384BB80E00895613071F421E030E0D4
:100D3000A90102C0440F551F8A95E2F7CA0191B379
:100D4000892B81BB80E0089561111BC021E030E058
:100D5000A90102C0440F551F8A95E2F7CA01809588
:100D600091B3892381BB80E0089582E0089584E0F7
:100D7000089583E0089581E0089581E0089581E079
:100D8000089581E008951F920F920FB60F921124DB
:100D90008F938FB1809384008F910F900FBE0F902F
:100DA0001F901895A1E21A2EAA1BBB1BFD010DC0B6
:100DB000AA1FBB1FEE1FFF1FA217B307E407F5070B
:100DC00020F0A21BB30BE40BF50B661F771F881FE7
:100DD000991F1A9469F760957095809590959B017D
:100DE000AC01BD01CF010895A29FB001B39FC00126
:100DF000A39F700D811D1124911DB29F700D811D47
:0A0E00001124911D0895F894FFCF0E
:0E0E0A00205600566F6C743A00206D76200062
:00000001FF
