:100000000C942A000C94910B0C94BE0B0C94EB0BEB
:100010000C9447000C9447000C9447000C94470044
:100020000C9447000C9447000C9489190C9499196E
:100030000C9447000C9447000C9447000C94470024
:100040000C94A3070C9447000C9447000C944700B1
:100050000C94470011241FBECFE5D8E0DEBFCDBF12
:1000600011E0A0E6B0E0E6EDF8E302C005900D92E5
:10007000A238B107D9F711E0A2E8B1E001C01D92A2
:10008000AD39B107E1F70E94611B0C94691C0C9417
:100090000000EF92FF920F931F937B018C0120E0F1
:1000A00030E040E05FE40E94F50388238CF0C80153
:1000B000B70120E030E040E05FE40E94C1010E940F
:1000C00055049B01AC01205030404040504806C0D0
:1000D000C801B7010E9455049B01AC01B901CA01D6
:1000E0001F910F91FF90EF900895A0E0B0E0EBE733
:1000F000F0E00C94321CDC012B01FA019C9192304F
:1001000008F439C1EB018881823008F433C194309E
:1001100069F4843009F02FC111969C91119789815F
:10012000981709F428C1A0E6B0E025C1843009F48D
:1001300021C18230A9F4923009F01DC19A01AD01AC
:1001400088E0EA010990AE01E90109929E0181501F
:10015000C1F7E201898111969C918923818308C1AD
:10016000923009F407C112962D903C901397EB0141
:100170008A819B811496AD90BD90CD90DC901797AD
:10018000EC80FD800E811F819101281B390BB90184
:1001900037FF04C066277727621B730B6032710537
:1001A0000CF061C0121613066CF537014801062EDB
:1001B00004C096948794779467940A94D2F721E0C8
:1001C00030E040E050E004C0220F331F441F551FB1
:1001D0006A95D2F721503040404050402E213F21B7
:1001E00040235123211531054105510521F021E01E
:1001F00030E040E050E079018A01E628F72808293C
:1002000019293CC0232BD1F1260E371E350146019A
:10021000062E04C096948794779467940A94D2F734
:1002200021E030E040E050E004C0220F331F441FC3
:10023000551F6A95D2F721503040404050402A2146
:100240003B214C215D21211531054105510521F04E
:1002500021E030E040E050E059016A01A628B728CB
:10026000C828D9280BC0821593052CF01C01AA249C
:10027000BB24650103C0EE24FF24870111969C91E5
:10028000D20111968C91981709F445C0992339F041
:10029000A80197012A193B094C095D0906C0A6016E
:1002A00095012E193F09400B510B57FD08C01182D3
:1002B0003382228224833583468357831DC081E0A5
:1002C00081833382228288279927DC01821B930B4A
:1002D000A40BB50B84839583A683B7830DC0220F2F
:1002E000331F441F551F24833583468357838281E0
:1002F000938101979383828324813581468157813D
:10030000DA01C9010197A109B1098F5F9F4FAF4F72
:10031000BF4328F30BC0918333822282EA0CFB1C7B
:100320000C1D1D1DE482F5820683178383E0808304
:10033000248135814681578157FF1AC0C901AA27F8
:1003400097FDA095BA2F81709070A070B0705695EF
:10035000479537952795822B932BA42BB52B848318
:100360009583A683B7838281938101969383828349
:10037000DF0101C0D201CD01CDB7DEB7E2E10C94BF
:100380004E1CA0E2B0E0E7ECF1E00C943E1C698367
:100390007A838B839C832D833E834F835887E9E048
:1003A000EE2EF12CEC0EFD1ECE010196B7010E943F
:1003B00046068E010F5E1F4FCE010596B8010E94C2
:1003C00046068A8991E089278A8BC701B801AE0168
:1003D000475E5F4F0E9475000E947105A096E6E09F
:1003E0000C945A1CA0E2B0E0E8EFF1E00C943E1C43
:1003F00069837A838B839C832D833E834F835887C5
:10040000F9E0EF2EF12CEC0EFD1ECE010196B701A6
:100410000E9446068E010F5E1F4FCE010596B80161
:100420000E944606C701B801AE01475E5F4F0E94B9
:1004300075000E947105A096E6E00C945A1CA0E29B
:10044000B0E0E5E2F2E00C94321C69837A838B839E
:100450009C832D833E834F835887CE010196BE0136
:10046000675F7F4F0E944606CE010596BE016F5E14
:100470007F4F0E9446069985923088F089898230A4
:10048000C8F0943019F4823051F404C0843029F457
:10049000923081F480E690E0C6C0923049F420E0CA
:1004A0009A858A89981321E02A87CE010996BBC0D4
:1004B000823049F420E09A858A89981321E02A8BBA
:1004C000CE014196B0C02D843E844F8458886D88FB
:1004D0007E888F88988CEE24FF248701AA24BB2471
:1004E000650140E050E060E070E0E0E0F0E0C10174
:1004F00081709070892BE9F0E60CF71C081D191D1E
:100500009A01AB012A0D3B1D4C1D5D1D80E090E062
:10051000A0E0B0E0E614F7040805190520F481E036
:1005200090E0A0E0B0E0BA01A901480F591F6A1F8E
:100530007B1FAA0CBB1CCC1CDD1C97FE08C081E0F5
:1005400090E0A0E0B0E0A82AB92ACA2ADB2A3196B6
:10055000E032F10549F0660C771C881C991C569412
:10056000479437942794C3CFFA85EA892B893C892D
:100570008B859C85280F391F2E5F3F4F17C0CA01FE
:1005800081709070892B61F016950795F794E79428
:1005900080E090E0A0E0B0E8E82AF92A0A2B1B2BC3
:1005A00076956795579547952F5F3F4F77FDE7CF36
:1005B0000CC0440F551F661F771F17FD4160EE0CDE
:1005C000FF1C001F111F21503040403090E05907A0
:1005D00090E0690790E4790760F32B8F3C8FDB0193
:1005E000CA018F779070A070B07080349105A1051A
:1005F000B10561F447FD0AC0E114F10401051105DC
:1006000029F0405C5F4F6F4F7F4F40781A8EFE1786
:1006100011F081E08A8F4D8F5E8F6F8F78A383E01A
:10062000898FCE0149960E947105A096E2E10C9453
:100630004E1CA8E1B0E0EFE1F3E00C943A1C6983B2
:100640007A838B839C832D833E834F835887B9E0C5
:10065000EB2EF12CEC0EFD1ECE010196B7010E948F
:1006600046068E010F5E1F4FCE010596B8010E940F
:1006700046062985223008F47EC03989323010F4CC
:10068000B8017CC08A859A8989278A87243011F02D
:10069000223031F4231709F06EC060E670E06EC0BE
:1006A000343039F41D861E861F86188A1C861B86E8
:1006B00004C0323021F484E08987B7015FC02B8504
:1006C0003C858B899C89281B390B3C872B87ED84C3
:1006D000FE840F851889AD88BE88CF88D88CEA142F
:1006E000FB040C051D0540F4EE0CFF1C001F111F40
:1006F000215030403C872B8720E030E040E050E044
:1007000080E090E0A0E0B0E460E070E0EA14FB0478
:100710000C051D0540F0282B392B4A2B5B2BEA18C2
:10072000FB080C091D09B695A79597958795EE0CC2
:10073000FF1C001F111F6F5F7F4F6F31710531F775
:10074000DA01C9018F779070A070B0708034910584
:10075000A105B10561F427FD0AC0E114F10401050A
:10076000110529F0205C3F4F4F4F5F4F20782D87B8
:100770003E874F87588BBE01675F7F4FCB010E943A
:1007800071056896EAE00C94561CA8E1B0E0EBEC29
:10079000F3E00C943E1C69837A838B839C832D83C6
:1007A0003E834F83588789E0E82EF12CEC0EFD1E26
:1007B000CE010196B7010E9446068E010F5E1F4FC3
:1007C000CE010596B8010E9446068985823040F028
:1007D0008989823028F0C701B8010E94BE0601C095
:1007E0008FEF6896E6E00C945A1CA8E1B0E0EBEFBE
:1007F000F3E00C943E1C69837A838B839C832D8366
:100800003E834F83588789E0E82EF12CEC0EFD1EC5
:10081000CE010196B7010E9446068E010F5E1F4F62
:10082000CE010596B8010E9446068985823040F0C7
:100830008989823028F0C701B8010E94BE0601C034
:100840008FEF6896E6E00C945A1CA8E1B0E0EBE26A
:10085000F4E00C943E1C69837A838B839C832D8304
:100860003E834F83588789E0E82EF12CEC0EFD1E65
:10087000CE010196B7010E9446068E010F5E1F4F02
:10088000CE010596B8010E9446068985823040F067
:100890008989823028F0C701B8010E94BE0601C0D4
:1008A00081E06896E6E00C945A1CACE0B0E0EBE521
:1008B000F4E00C94421C69837A838B839C83CE0181
:1008C0000196BE016B5F7F4F0E9446068D8182308C
:1008D00061F1823050F1843021F48E81882351F10E
:1008E0002EC02F81388537FD20C06E812F31310514
:1008F0001CF06623F9F023C08EE190E0821B930B7D
:1009000029853A854B855C8504C056954795379572
:1009100027958A95D2F76623B1F05095409530958A
:1009200021953F4F4F4F5F4F0EC020E030E040E039
:1009300050E009C02FEF3FEF4FEF5FE704C020E02A
:1009400030E040E050E8B901CA012C96E2E00C9496
:100950005E1CA8E0B0E0EFEAF4E00C943A1C7B01E6
:100960008C01611571058105910519F482E0898377
:1009700060C083E089838EE1C82ED12CDC82CB82DB
:10098000ED82FE820F831887C801B7010E942205FD
:10099000FC013197F7FF3BC0222733272E1B3F0B6B
:1009A00057016801022E04C0D694C794B794A79447
:1009B0000A94D2F740E050E060E070E081E090E01F
:1009C000A0E0B0E004C0880F991FAA1FBB1F2A95A2
:1009D000D2F70197A109B1098E219F21A023B1234C
:1009E0000097A105B10521F041E050E060E070E022
:1009F0004A295B296C297D294D835E836F83788723
:100A00008EE190E08E1B9F0B9C838B8312C03097EE
:100A100081F00E2E04C0EE0CFF1C001F111F0A9463
:100A2000D2F7ED82FE820F831887CE1ADF0ADC82AE
:100A3000CB821A82CE0101960E9471052896EAE0C7
:100A40000C94561CEF92FF920F931F937B018C0125
:100A500080E0E81680E0F80681E0080780E01807EB
:100A600088F48FEFE816F1040105110531F028F044
:100A700088E090E0A0E0B0E017C080E090E0A0E067
:100A8000B0E012C080E0E81680E0F80680E00807D9
:100A900081E0180728F088E190E0A0E0B0E004C011
:100AA00080E190E0A0E0B0E020E230E040E050E003
:100AB000281B390B4A0B5B0B04C016950795F7945E
:100AC000E7948A95D2F7F701E859FF4F8081281BF8
:100AD000310941095109C9011F910F91FF90EF9010
:100AE0000895DF92EF92FF920F931F93FC01E48031
:100AF000F58006811781D1808081823048F480E0C2
:100B000090E0A0E1B0E0E82AF92A0A2B1B2BA5C04F
:100B1000843009F49FC0823021F4EE24FF24870141
:100B200005C0E114F1040105110519F4E0E0F0E05D
:100B300096C0628173819FEF623879070CF05BC0C9
:100B400022E83FEF261B370B2A3131052CF020E03D
:100B500030E040E050E02AC0B801A701022E04C0F6
:100B600076956795579547950A94D2F781E090E07E
:100B7000A0E0B0E004C0880F991FAA1FBB1F2A95F0
:100B8000D2F70197A109B1098E219F21A023B1239A
:100B90000097A105B10521F081E090E0A0E0B0E070
:100BA0009A01AB01282B392B4A2B5B2BDA01C901A7
:100BB0008F779070A070B07080349105A105B10559
:100BC00039F427FF09C0205C3F4F4F4F5F4F04C0EF
:100BD000215C3F4F4F4F5F4FE0E0F0E02030A0E05E
:100BE0003A07A0E04A07A0E45A0710F0E1E0F0E07D
:100BF00079018A0127C06038710564F5FB01E1586D
:100C0000FF4FD801C7018F779070A070B07080340B
:100C10009105A105B10539F4E7FE0DC080E490E02F
:100C2000A0E0B0E004C08FE390E0A0E0B0E0E80E08
:100C3000F91E0A1F1B1F17FF05C016950795F7948D
:100C4000E794319687E016950795F794E7948A958F
:100C5000D1F705C0EE24FF248701EFEFF0E06E2FFF
:100C6000679566276795902F9F77D794DD24D79453
:100C70008E2F8695492F462B582F5D29B701CA0123
:100C80001F910F91FF90EF90DF900895FC01DB0121
:100C9000408151812281622F6F7770E0221F2227CD
:100CA000221F9381892F880F822B282F30E0991FD4
:100CB0009927991F11969C93119721153105A9F534
:100CC000411551056105710511F482E037C082E8D4
:100CD0009FEF13969C938E9312979A01AB0167E056
:100CE000220F331F441F551F6A95D1F783E08C9361
:100CF0000DC0220F331F441F551F12968D919C91DA
:100D00001397019713969C938E931297203080E04F
:100D1000380780E0480780E4580758F314962D936D
:100D20003D934D935C93179708952F3F310579F4C8
:100D3000411551056105710519F484E08C930895FE
:100D400064FF03C081E08C9312C01C9210C02F5727
:100D5000304013963C932E93129783E08C9387E058
:100D6000440F551F661F771F8A95D1F7706414963C
:100D70004D935D936D937C93179708951F93DC01BA
:100D8000FB019C91923008F447C08081823008F4C6
:100D900043C0943051F411961C91843099F58181AF
:100DA000682F70E0611B71093FC0843021F09230E0
:100DB00031F48230B9F18181882389F12DC01196F7
:100DC0001C9111978230F1F081811817D9F4129695
:100DD0002D913C911397828193818217930794F010
:100DE00028173907BCF014968D919D910D90BC91F8
:100DF000A02D2481358146815781281739074A075C
:100E00005B0718F4112341F00AC082179307A40767
:100E1000B50740F4112319F061E070E005C06FEFF1
:100E20007FEF02C060E070E0CB011F910895DF9377
:100E3000CF93CDB7DEB7A7E2B0E0E7E2F0E0808184
:100E400080648C93A7E2B0E0E7E2F0E080818F77E6
:100E50008C93A7E2B0E0E7E2F0E080818F7D8C9395
:100E6000A6E2B0E0E6E2F0E08081887F8C930E9409
:100E70005A070E943E07CF91DF910895DF93CF93E9
:100E8000CDB7DEB7A6E2B0E0E6E2F0E080818068B0
:100E90008C93CF91DF910895DF93CF93CDB7DEB7D9
:100EA000A7E2B0E0E7E2F0E080818F778C93CF910A
:100EB000DF910895DF93CF93CDB7DEB7A6E2B0E020
:100EC000E6E2F0E0808188608C93CF91DF91089515
:100ED000DF93CF93CDB7DEB7A6E2B0E0E6E2F0E075
:100EE0008081877F8C93CF91DF910895DF93CF939B
:100EF0000F92CDB7DEB78983A7E2B0E0E7E2F0E07A
:100F00008081982F907E8981892B8C93A6E2B0E016
:100F1000E6E2F0E0808180648C930F90CF91DF91C6
:100F20000895DF93CF9300D0CDB7DEB79A8389833E
:100F300089819A8190939601809395010F900F90EB
:100F4000CF91DF9108951F920F920FB60F92112447
:100F50002F933F934F935F936F937F938F939F93C1
:100F6000AF93BF93EF93FF93DF93CF9300D0CDB7B1
:100F7000DEB7E4E2F0E0808191819A838983E09199
:100F80009501F091960189819A8109950F900F90B2
:100F9000CF91DF91FF91EF91BF91AF919F918F9191
:100FA0007F916F915F914F913F912F910F900FBE65
:100FB0000F901F901895DF93CF93CDB7DEB727978B
:100FC0000FB6F894DEBF0FBECDBF8C836D838C81CE
:100FD00087708B838C818695869586958A83198206
:100FE0008A81282F30E03F832E838E819F8181303C
:100FF000910509F449C02E813F81223031052CF43E
:101000008E819F81009771F0D5C02E813F81223063
:10101000310509F46BC08E819F818330910509F4FD
:1010200097C0C8C08D818130A1F4ABE3B0E0EBE3A1
:10103000F0E08081482F8B81282F30E081E090E024
:10104000022E02C0880F991F0A94E2F7842B8C931A
:10105000B3C08D818823A9F4ABE3B0E0EBE3F0E00B
:101060008081482F8B81282F30E081E090E0022E94
:1010700002C0880F991F0A94E2F7809584238C930D
:101080009BC082E0898398C08D818130A1F4A8E360
:10109000B0E0E8E3F0E08081482F8B81282F30E03A
:1010A00081E090E0022E02C0880F991F0A94E2F7B7
:1010B000842B8C9381C08D818823A9F4A8E3B0E0B0
:1010C000E8E3F0E08081482F8B81282F30E081E039
:1010D00090E0022E02C0880F991F0A94E2F78095D3
:1010E00084238C9369C082E0898366C08D818130BE
:1010F000A1F4A5E3B0E0E5E3F0E08081482F8B8127
:10110000282F30E081E090E0022E02C0880F991F66
:101110000A94E2F7842B8C934FC08D818823A9F425
:10112000A5E3B0E0E5E3F0E08081482F8B81282F34
:1011300030E081E090E0022E02C0880F991F0A94EF
:10114000E2F7809584238C9337C082E0898334C092
:101150008D818130A1F4A2E3B0E0E2E3F0E0808190
:10116000482F8B81282F30E081E090E0022E02C0D2
:10117000880F991F0A94E2F7842B8C931DC08D81F0
:101180008823A9F4A2E3B0E0E2E3F0E08081482FF5
:101190008B81282F30E081E090E0022E02C0880F82
:1011A000991F0A94E2F7809584238C9305C082E00E
:1011B000898302C081E08983898127960FB6F894DC
:1011C000DEBF0FBECDBFCF91DF910895DF93CF93E8
:1011D000CDB7DEB728970FB6F894DEBF0FBECDBFF0
:1011E0008C837E836D838C8187708B838C818695C5
:1011F000869586958A8319828D819E81009709F450
:1012000074C08A81282F30E038872F834F8158851A
:101210004130510559F18F8198858230910534F420
:101220002F8138852115310569F05CC04F815885C3
:101230004230510579F18F8198858330910509F409
:101240003DC050C0E9E3F0E08081282F30E08B8181
:10125000882F90E0A90102C0559547958A95E2F73D
:10126000CA018170ED81FE81808341C0E6E3F0E038
:101270008081282F30E08B81882F90E0A90102C067
:10128000559547958A95E2F7CA018170ED81FE81F7
:1012900080832DC0E3E3F0E08081282F30E08B8154
:1012A000882F90E0A90102C0559547958A95E2F7ED
:1012B000CA018170ED81FE81808319C0E0E3F0E016
:1012C0008081282F30E08B81882F90E0A90102C017
:1012D000559547958A95E2F7CA018170ED81FE81A7
:1012E000808305C081E0898302C084E0898389818D
:1012F00028960FB6F894DEBF0FBECDBFCF91DF9119
:101300000895DF93CF9300D000D000D0CDB7DEB7E3
:101310008C838C8187708B838C818695869586954E
:101320008A8319828A81282F30E03E832D838D8124
:101330009E818130910549F12D813E812230310518
:101340002CF48D819E81009761F05BC02D813E81E0
:101350002230310571F18D819E8183309105E9F153
:1013600050C0ABE3B0E0EBE3F0E08081482F8B812D
:10137000282F30E081E090E0022E02C0880F991FF4
:101380000A94E2F784278C933EC0A8E3B0E0E8E338
:10139000F0E08081482F8B81282F30E081E090E0C1
:1013A000022E02C0880F991F0A94E2F784278C93BB
:1013B0002AC0A5E3B0E0E5E3F0E08081482F8B810F
:1013C000282F30E081E090E0022E02C0880F991FA4
:1013D0000A94E2F784278C9316C0A2E3B0E0E2E31C
:1013E000F0E08081482F8B81282F30E081E090E071
:1013F000022E02C0880F991F0A94E2F784278C936B
:1014000002C081E08983898126960FB6F894DEBFF9
:101410000FBECDBFCF91DF910895DF93CF9300D062
:1014200000D00F92CDB7DEB78A836B8319828A8191
:10143000282F30E03D832C838C819D818130910564
:10144000D1F02C813D81223031052CF48C819D819D
:10145000009761F01FC02C813D812230310581F061
:101460008C819D818330910581F014C0EBE3F0E025
:101470008B81808311C0E8E3F0E08B8180830CC016
:10148000E5E3F0E08B81808307C0E2E3F0E08B814D
:10149000808302C081E0898389810F900F900F9033
:1014A0000F900F90CF91DF910895DF93CF9300D0ED
:1014B00000D000D0CDB7DEB78A837C836B831982DE
:1014C0008A81282F30E03E832D838D819E8181305B
:1014D0009105E1F02D813E81223031052CF48D8182
:1014E0009E81009761F027C02D813E812230310519
:1014F000A1F08D819E8183309105B1F01CC0E9E39C
:10150000F0E08081EB81FC81808317C0E6E3F0E0AE
:101510008081EB81FC81808310C0E3E3F0E0808177
:10152000EB81FC81808309C0E0E3F0E08081EB8106
:10153000FC81808302C081E08983898126960FB671
:10154000F894DEBF0FBECDBFCF91DF910895DF933A
:10155000CF93CDB7DEB780E062E00E94230B80E03E
:101560000E94B50ACF91DF910895DF93CF9300D009
:101570000F92CDB7DEB789838981282F30E03B8376
:101580002A838A819B818130910589F02A813B8160
:1015900022303105A1F08A819B810097B9F4ABE537
:1015A000B0E0EBE5F0E0808180648C930FC0ABE5A8
:1015B000B0E0EBE5F0E0808180688C9307C0ABE59C
:1015C000B0E0EBE5F0E0808180628C930F900F90AB
:1015D0000F90CF91DF910895DF93CF9300D00F92BA
:1015E000CDB7DEB789838981282F30E03B832A83FA
:1015F0008A819B818130910589F02A813B8122304B
:101600003105A1F08A819B810097B9F4ABE5B0E088
:10161000EBE5F0E080818F7B8C930FC0ABE5B0E011
:10162000EBE5F0E080818F778C9307C0ABE5B0E00D
:10163000EBE5F0E080818F7D8C930F900F900F9001
:10164000CF91DF910895DF93CF9300D000D0CDB735
:10165000DEB789836A838981282F30E03C832B831E
:101660008B819C8181309105A1F02B813C812230BE
:10167000310501F18B819C81009789F5A5E5B0E0EA
:10168000E5E5F0E08081982F9C7F8A81892B8C93FF
:1016900026C0A5E5B0E0E5E5F0E08081282F237FB6
:1016A0008A81882F90E0880F991F880F991F822BBD
:1016B0008C9315C08A81823041F4A5E5B0E0E5E560
:1016C000F0E080818F7D8C930AC08A81833039F469
:1016D000A5E5B0E0E5E5F0E0808180628C930F90B5
:1016E0000F900F900F90CF91DF910895DF93CF93DC
:1016F00000D00F92CDB7DEB789837B836A8389815F
:10170000882F90E0880F991FFC01E956FE4F8A81CF
:101710009B81918380830F900F900F90CF91DF91E9
:1017200008951F920F920FB60F9211242F933F939B
:101730004F935F936F937F938F939F93AF93BF93D9
:10174000EF93FF93DF93CF93CDB7DEB7E09197018F
:10175000F09198010995CF91DF91FF91EF91BF91A1
:10176000AF919F918F917F916F915F914F913F9139
:101770002F910F900FBE0F901F9018951F920F92F0
:101780000FB60F9211242F933F934F935F936F9354
:101790007F938F939F93AF93BF93EF93FF93DF93C9
:1017A000CF93CDB7DEB7E0919901F0919A010995F9
:1017B000CF91DF91FF91EF91BF91AF919F918F9169
:1017C0007F916F915F914F913F912F910F900FBE3D
:1017D0000F901F9018951F920F920FB60F92112421
:1017E0002F933F934F935F936F937F938F939F9329
:1017F000AF93BF93EF93FF93DF93CF93CDB7DEB754
:10180000E0919B01F0919C010995CF91DF91FF91AF
:10181000EF91BF91AF919F918F917F916F915F9168
:101820004F913F912F910F900FBE0F901F901895E1
:10183000DF93CF93CDB7DEB7AFE5B0E0EFE5F0E0F3
:10184000808180688C93CF91DF910895DF93CF934F
:10185000CDB7DEB7AFE5B0E0EFE5F0E080818F77A0
:101860008C93CF91DF910895DF93CF93CDB7DEB7FF
:1018700085E161E00E94281584E161E00E9428155D
:1018800083E161E00E94281582E161E00E94281551
:1018900085E161E00E94331684E161E00E94331625
:1018A00083E161E00E94331682E161E00E94331619
:1018B0008FE160E00E9428158EE160E00E9428150B
:1018C0008DE160E00E9428158BE160E00E94281500
:1018D0008FE163E00E9433168EE163E00E943316CD
:1018E0008DE163E00E9433168BE163E00E943316C2
:1018F000CF91DF910895DF93CF9300D000D00F9266
:10190000CDB7DEB71C821A8263C08A81882F90E02F
:10191000FC01E859FE4F808160E00E94DB071982DC
:1019200046C08981882F90E0FC01E459FE4F8081F8
:101930009E012D5F3F4FB9010E94E6088B818823ED
:1019400099F40DC08981882F90E0FC01E459FE4F85
:1019500080819E012D5F3F4FB9010E94E6088B8177
:10196000882381F381E08C838C818130E9F48A8142
:10197000882F90E0FC01E859FE4F808161E00E94D1
:10198000DB078A81482F50E08981282F30E0CA0187
:10199000880F991F880F991F820F931FFC01E05930
:1019A000FE4F80818D8319C089818F5F89838981F2
:1019B000843008F4B6CF8A81882F90E0FC01E85982
:1019C000FE4F808161E00E94DB078A818F5F8A83FE
:1019D0008A81843008F499CF1D828D810F900F90F9
:1019E0000F900F900F90CF91DF9108950F931F9359
:1019F000DF93CF93CDB7DEB7C455D0400FB6F89480
:101A0000DEBF0FBECDBF83E061E00E94281582E0FB
:101A100061E00E94281588E061E00E94281589E0B5
:101A200061E00E9428158AE061E00E9428158CE0A0
:101A300061E00E942815FE01EF5AFF4F80E090E020
:101A4000A0EFB1E480839183A283B3838E01035B13
:101A50001F4FFE01EF5AFF4F608171818281938198
:101A600020E030E04AEF54E40E941F02DC01CB0189
:101A7000F80180839183A283B383FE01E35BFF4F70
:101A8000608171818281938120E030E040E85FE3F2
:101A90000E942504882344F4FE01E55BFF4F81E0AA
:101AA00090E09183808364C0FE01E35BFF4F60811F
:101AB00071818281938120E03FEF4FE757E40E94DC
:101AC000C50318160CF043C0FE01EF5AFF4F6081AA
:101AD00071818281938120E030E040E251E40E94F4
:101AE0001F02DC01CB018E01055B1F4FBC01CD0144
:101AF0000E944900DC01CB01F801918380831FC063
:101B0000FE01E75BFF4F88EC90E091838083FE014C
:101B1000E75BFF4F808191810197F1F7FE01E75B61
:101B2000FF4F91838083DE01A55BBF4FFE01E55B24
:101B3000FF4F80819181019711969C938E93FE01B6
:101B4000E55BFF4F808191810097D1F627C08E0120
:101B5000055B1F4FFE01E35BFF4F60817181828156
:101B600093810E944900DC01CB01F80191838083BD
:101B7000DE01A95BBF4FFE01E55BFF4F80819181D4
:101B80008D939C93FE01E95BFF4F808191810197CA
:101B9000F1F7FE01E95BFF4F9183808382E00E94B1
:101BA0004E10FE01ED5BFF4F80E090E0A0E7B1E456
:101BB00080839183A283B3838E01015C1F4FFE015A
:101BC000ED5BFF4F608171818281938120E030E085
:101BD0004AEF54E40E941F02DC01CB01F80180832C
:101BE0009183A283B383FE01FF966081718182811C
:101BF000938120E030E040E85FE30E9425048823E1
:101C00002CF481E090E09EAF8DAF46C0FE01FF96C0
:101C1000608171818281938120E03FEF4FE757E43B
:101C20000E94C503181664F5FE01ED5BFF4F60814D
:101C300071818281938120E030E040E251E40E9492
:101C40001F02DC01CB01BC01CD010E944900DC0177
:101C5000CB019EAF8DAF0FC088EC90E09CAF8BAFF7
:101C60008BAD9CAD0197F1F79CAF8BAF8DAD9EAD69
:101C700001979EAF8DAF8DAD9EAD009769F716C0F1
:101C8000FE01FF9660817181828193810E944900EB
:101C9000DC01CB019EAF8DAF8DAD9EAD9AAF89AF0C
:101CA00089AD9AAD0197F1F79AAF89AF82E20E94B0
:101CB0004E1082E061E00E94DB0788E060E00E9455
:101CC000DB0789E060E00E94DB078AE060E00E94B9
:101CD000DB078CE061E00E94DB0782E060E00E94AD
:101CE000DB0780E090E0A0E8BFE38DAB9EABAFAB3D
:101CF000B8AF6DA97EA98FA998AD20E030E04AEF7A
:101D000054E40E941F02DC01CB0189AB9AABABAB60
:101D1000BCAB69A97AA98BA99CA920E030E040E876
:101D20005FE30E94250488232CF481E090E098ABC7
:101D30008FA73FC069A97AA98BA99CA920E03FEF92
:101D40004FE757E40E94C50318164CF56DA97EA90C
:101D50008FA998AD20E030E040E251E40E941F02DC
:101D6000DC01CB01BC01CD010E944900DC01CB01AB
:101D700098AB8FA70FC088EC90E09EA78DA78DA58C
:101D80009EA50197F1F79EA78DA78FA598A901970A
:101D900098AB8FA78FA598A9009769F714C069A978
:101DA0007AA98BA99CA90E944900DC01CB0198ABC0
:101DB0008FA78FA598A99CA78BA78BA59CA50197FA
:101DC000F1F79CA78BA78CE00E944E1080E090E07A
:101DD000A0E8BFE38FA398A7A9A7BAA76FA178A58A
:101DE00089A59AA520E030E04AEF54E40E941F0242
:101DF000DC01CB018BA39CA3ADA3BEA36BA17CA1F3
:101E00008DA19EA120E030E040E85FE30E94250420
:101E100088232CF481E090E09AA389A33FC06BA1B2
:101E20007CA18DA19EA120E03FEF4FE757E40E94E7
:101E3000C50318164CF56FA178A589A59AA520E0D1
:101E400030E040E251E40E941F02DC01CB01BC0102
:101E5000CD010E944900DC01CB019AA389A30FC0E8
:101E600088EC90E098A38F8F8F8D98A10197F1F760
:101E700098A38F8F89A19AA101979AA389A389A179
:101E80009AA1009769F714C06BA17CA18DA19EA1B6
:101E90000E944900DC01CB019AA389A389A19AA1E0
:101EA0009E8F8D8F8D8D9E8D0197F1F79E8F8D8FDB
:101EB00081E00E944E1080E090E0A0E7B1E4898FBD
:101EC0009A8FAB8FBC8F698D7A8D8B8D9C8D20E026
:101ED00030E04AEF54E40E941F02DC01CB018D8BFD
:101EE0009E8BAF8BB88F6D897E898F89988D20E00E
:101EF00030E040E85FE30E94250488232CF481E071
:101F000090E09C8B8B8B3FC06D897E898F89988DEB
:101F100020E03FEF4FE757E40E94C50318164CF549
:101F2000698D7A8D8B8D9C8D20E030E040E251E40C
:101F30000E941F02DC01CB01BC01CD010E944900BF
:101F4000DC01CB019C8B8B8B0FC088EC90E09A8BD3
:101F5000898B89899A890197F1F79A8B898B8B896B
:101F60009C8901979C8B8B8B8B899C89009769F747
:101F700014C06D897E898F89988D0E944900DC018B
:101F8000CB019C8B8B8B8B899C89988B8F878F85C2
:101F900098890197F1F7988B8F8786E00E944E1001
:101FA00080E090E0A0E0B0E48B879C87AD87BE879F
:101FB0006B857C858D859E8520E030E04AEF54E47A
:101FC0000E941F02DC01CB018F839887A987BA8703
:101FD0006F81788589859A8520E030E040E85FE36D
:101FE0000E94250488232CF481E090E09E838D8359
:101FF0003FC06F81788589859A8520E03FEF4FE764
:1020000057E40E94C50318164CF56B857C858D85B9
:102010009E8520E030E040E251E40E941F02DC0196
:10202000CB01BC01CD010E944900DC01CB019E83A4
:102030008D830FC088EC90E09C838B838B819C8187
:102040000197F1F79C838B838D819E8101979E83FD
:102050008D838D819E81009769F714C06F8178858B
:1020600089859A850E944900DC01CB019E838D837E
:102070008D819E819A83898389819A810197F1F765
:102080009A838983CC5ADF4F0FB6F894DEBF0FBE18
:10209000CDBFCF91DF911F910F910895DF93CF9323
:1020A0000F92CDB7DEB7898383E060E00E94DB0743
:1020B00089810E9470100F90CF91DF910895DF9376
:1020C000CF930F92CDB7DEB7898383E061E00E94A2
:1020D000DB0789810E9470100F90CF91DF910895E6
:1020E000DF93CF93CDB7DEB7E1970FB6F894DEBF9D
:1020F0000FBECDBF89AB82E061E00E94DB0789A9FA
:10210000982F991F9927991F8CE0692F0E94DB0750
:1021100089A98295869586958370982F91708AE01B
:10212000692F0E94DB0789A9829586958770982F71
:10213000917089E0692F0E94DB0789A982958F70D1
:10214000982F917088E0692F0E94DB0782E060E0A1
:102150000E94DB0780E090E0A0EAB0E48DA79EA794
:10216000AFA7B8AB6DA57EA58FA598A92BEA3AEAD3
:102170004AE250E40E941F02DC01CB0189A79AA722
:10218000ABA7BCA769A57AA58BA59CA520E030E0EC
:1021900040E85FE30E94250488231CF481E088A7BF
:1021A00091C069A57AA58BA59CA520E030E04FE7FA
:1021B00053E40E94C50318160CF07BC06DA57EA5E4
:1021C0008FA598A920E030E04AE754E40E94190363
:1021D000DC01CB018CA39DA3AEA3BFA36CA17DA109
:1021E0008EA19FA120E030E04AEF54E40E941F023C
:1021F000DC01CB0188A399A3AAA3BBA368A179A101
:102200008AA19BA120E030E040E85FE30E94250422
:1022100088232CF481E090E09F8F8E8F3FC068A1CF
:1022200079A18AA19BA120E03FEF4FE757E40E94EC
:10223000C50318164CF56CA17DA18EA19FA120E0CD
:1022400030E040E251E40E941F02DC01CB01BC01FE
:10225000CD010E944900DC01CB019F8F8E8F0FC002
:1022600088EC90E09D8F8C8F8C8D9D8D0197F1F780
:102270009D8F8C8F8E8D9F8D01979F8F8E8F8E8DD2
:102280009F8D009769F724C068A179A18AA19BA1BD
:102290000E944900DC01CB019F8F8E8F8E8D9F8D18
:1022A0009B8F8A8F8A8D9B8D0197F1F79B8F8A8FE9
:1022B0000FC069A57AA58BA59CA50E944900DC01E9
:1022C000CB0188A788A5898F898D8A95F1F7898F99
:1022D00082E061E00E94DB0789A986958695869554
:1022E000982F91708CE0692F0E94DB0789A9869551
:1022F0008695982F91708AE0692F0E94DB0789A943
:102300008695982F917089E0692F0E94DB0789A933
:10231000982F917088E0692F0E94DB0782E060E0CF
:102320000E94DB0780E090E0A0EAB0E48D8B9E8BFA
:10233000AF8BB88F6D897E898F89988D2BEA3AEAA9
:102340004AE250E40E941F02DC01CB01898B9A8B88
:10235000AB8BBC8B69897A898B899C8920E030E0C2
:1023600040E85FE30E94250488231CF481E0888B09
:1023700091C069897A898B899C8920E030E04FE798
:1023800053E40E94C50318160CF07BC06D897E894A
:102390008F89988D20E030E04AE754E40E941903C9
:1023A000DC01CB018C879D87AE87BF876C857D85DF
:1023B0008E859F8520E030E04AEF54E40E941F02A2
:1023C000DC01CB0188879987AA87BB8768857985D7
:1023D0008A859B8520E030E040E85FE30E94250489
:1023E00088232CF481E090E09F838E833FC0688532
:1023F00079858A859B8520E03FEF4FE757E40E946F
:10240000C50318164CF56C857D858E859F8520E06B
:1024100030E040E251E40E941F02DC01CB01BC012C
:10242000CD010E944900DC01CB019F838E830FC048
:1024300088EC90E09D838C838C819D810197F1F7DE
:102440009D838C838E819F8101979F838E838E8154
:102450009F81009769F724C0688579858A859B8567
:102460000E944900DC01CB019F838E838E819F8176
:102470009B838A838A819B810197F1F79B838A835F
:102480000FC069897A898B899C890E944900DC0187
:10249000CB01888B8889898389818A95F1F7898323
:1024A000E1960FB6F894DEBF0FBECDBFCF91DF919E
:1024B0000895DF93CF930F92CDB7DEB7898383E082
:1024C00061E00E94DB0789810E9470100F90CF911C
:1024D000DF910895DF93CF93CDB7DEB76B970FB63B
:1024E000F894DEBF0FBECDBF9B8F8A8F198ECCC0F4
:1024F000898D282F30E08A8D9B8DFC01E20FF31F20
:1025000080810E945912898D8F5F898F80E090E0D1
:10251000A0E0B0E48D8B9E8BAF8BB88F6D897E89E8
:102520008F89988D2BEA3AEA4AE250E40E941F0212
:10253000DC01CB01898B9A8BAB8BBC8B69897A8947
:102540008B899C8920E030E040E85FE30E9425040D
:1025500088231CF481E0888B91C069897A898B89F2
:102560009C8920E030E04FE753E40E94C503181631
:102570000CF07BC06D897E898F89988D20E030E0DA
:102580004AE754E40E941903DC01CB018C879D8744
:10259000AE87BF876C857D858E859F8520E030E086
:1025A0004AEF54E40E941F02DC01CB01888799871F
:1025B000AA87BB87688579858A859B8520E030E07E
:1025C00040E85FE30E94250488232CF481E090E03A
:1025D0009F838E833FC0688579858A859B8520E0AF
:1025E0003FEF4FE757E40E94C50318164CF56C8582
:1025F0007D858E859F8520E030E040E251E40E9499
:102600001F02DC01CB01BC01CD010E944900DC01AD
:10261000CB019F838E830FC088EC90E09D838C83D9
:102620008C819D810197F1F79D838C838E819F81A1
:1026300001979F838E838E819F81009769F724C0C5
:10264000688579858A859B850E944900DC01CB01DC
:102650009F838E838E819F819B838A838A819B81C6
:102660000197F1F79B838A830FC069897A898B89E7
:102670009C890E944900DC01CB01888B8889898371
:1026800089818A95F1F78983898D282F30E08A8D99
:102690009B8DFC01E20FF31F8081882309F028CF76
:1026A0006B960FB6F894DEBF0FBECDBFCF91DF9112
:1026B00008950F931F93DF93CF93CDB7DEB7E597C0
:1026C0000FB6F894DEBF0FBECDBF6AAB7BAB8CAB51
:1026D0009DAB6AA97BA98CA99DA920E030E048ECBC
:1026E00052E40E941F02DC01CB01BC01CD010E941B
:1026F0004900DC01CB018A8F9B8FAC8FBD8F198E77
:102700002FC0898D082F112707FD10958A8D9B8D6D
:10271000AC8DBD8D2AE030E040E050E0BC01CD0141
:102720000E94101CDC01CB01282FCE014E96FC012B
:10273000E00FF11F20838A8D9B8DAC8DBD8D2AE02B
:1027400030E040E050E0BC01CD010E94101CDA01F5
:10275000C9018A8F9B8FAC8FBD8F898D8F5F898FC9
:102760008A8D9B8DAC8DBD8D0097A105B10549F675
:10277000D5C0898D823019F48EE20E945912898D5C
:102780008150898F898D282F332727FD3095CE01E1
:102790004E96FC01E20FF31F8081805D0E9459126A
:1027A00080E090E0A0E0B0E48D8B9E8BAF8BB88F83
:1027B0006D897E898F89988D2BEA3AEA4AE250E446
:1027C0000E941F02DC01CB01898B9A8BAB8BBC8BE7
:1027D00069897A898B899C8920E030E040E85FE351
:1027E0000E94250488231CF481E0888B91C06989AC
:1027F0007A898B899C8920E030E04FE753E40E947E
:10280000C50318160CF07BC06D897E898F89988D61
:1028100020E030E04AE754E40E941903DC01CB01D8
:102820008C879D87AE87BF876C857D858E859F85CC
:1028300020E030E04AEF54E40E941F02DC01CB01AB
:1028400088879987AA87BB87688579858A859B85CC
:1028500020E030E040E85FE30E94250488232CF468
:1028600081E090E09F838E833FC0688579858A856B
:102870009B8520E03FEF4FE757E40E94C503181601
:102880004CF56C857D858E859F8520E030E040E2AB
:1028900051E40E941F02DC01CB01BC01CD010E946A
:1028A0004900DC01CB019F838E830FC088EC90E050
:1028B0009D838C838C819D810197F1F79D838C830F
:1028C0008E819F8101979F838E838E819F81009748
:1028D00069F724C0688579858A859B850E944900AF
:1028E000DC01CB019F838E838E819F819B838A83B2
:1028F0008A819B810197F1F79B838A830FC0698945
:102900007A898B899C890E944900DC01CB01888BE4
:102910008889898389818A95F1F78983898D181639
:102920000CF427CFE5960FB6F894DEBF0FBECDBFEF
:10293000CF91DF911F910F910895DF93CF9300D036
:1029400000D0CDB7DEB789836A838981282F30E034
:102950003C832B838B819C8181309105D1F02B812D
:102960003C81223031052CF48B819C81009761F0F1
:102970001EC02B813C812230310581F08B819C81EE
:102980008330910581F013C08A8180580E944E10D7
:102990000EC08A8180540E944E1009C08A818C52D8
:1029A0000E944E1004C08A81885D0E944E100F90D4
:1029B0000F900F900F90CF91DF910895DF93CF93F9
:1029C00000D000D0CDB7DEB78A837C836B838A8149
:1029D000805C0E944E1019820EC08981282F30E041
:1029E0008B819C81FC01E20FF31F80810E945F10AC
:1029F00089818F5F89838981883078F30F900F9068
:102A00000F900F90CF91DF910895DF93CF93CDB7C3
:102A1000DEB7EAE3F0E08FEF8083E7E3F0E08FEFEB
:102A20008083E4E3F0E08FEF8083E1E3F0E08FEF79
:102A30008083EBE3F0E01082E8E3F0E01082E5E36E
:102A4000F0E01082E2E3F0E01082CF91DF91089590
:102A5000DF93CF93CDB7DEB727970FB6F894DEBFDD
:102A60000FBECDBF8C836D838C8187708B838C81EF
:102A70008695869586958A8319828A81282F30E0EB
:102A80003F832E838E819F818130910509F449C057
:102A90002E813F81223031052CF48E819F81009759
:102AA00071F0D5C02E813F812230310509F46BC011
:102AB0008E819F818330910509F497C0C8C08D81B4
:102AC0008130A1F4AAE3B0E0EAE3F0E08081482F8E
:102AD0008B81282F30E081E090E0022E02C0880F29
:102AE000991F0A94E2F7842B8C93B3C08D818823BD
:102AF000A9F4AAE3B0E0EAE3F0E08081482F8B81FB
:102B0000282F30E081E090E0022E02C0880F991F4C
:102B10000A94E2F7809584238C939BC082E089839A
:102B200098C08D818130A1F4A7E3B0E0E7E3F0E045
:102B30008081482F8B81282F30E081E090E0022EA9
:102B400002C0880F991F0A94E2F7842B8C9381C0EE
:102B50008D818823A9F4A7E3B0E0E7E3F0E080816A
:102B6000482F8B81282F30E081E090E0022E02C0B8
:102B7000880F991F0A94E2F7809584238C9369C08B
:102B800082E0898366C08D818130A1F4A4E3B0E046
:102B9000E4E3F0E08081482F8B81282F30E081E052
:102BA00090E0022E02C0880F991F0A94E2F7842B4E
:102BB0008C934FC08D818823A9F4A4E3B0E0E4E3B3
:102BC000F0E08081482F8B81282F30E081E090E079
:102BD000022E02C0880F991F0A94E2F78095842381
:102BE0008C9337C082E0898334C08D818130A1F419
:102BF000A1E3B0E0E1E3F0E08081482F8B81282F52
:102C000030E081E090E0022E02C0880F991F0A9404
:102C1000E2F7842B8C931DC08D818823A9F4A1E356
:102C2000B0E0E1E3F0E08081482F8B81282F30E095
:102C300081E090E0022E02C0880F991F0A94E2F70B
:102C4000809584238C9305C082E0898302C081E053
:102C50008983898127960FB6F894DEBF0FBECDBF5A
:102C6000CF91DF910895DF93CF93CDB7DEB727974C
:102C70000FB6F894DEBF0FBECDBF8C836D838C8101
:102C800087708B838C818695869586958A83198239
:102C90008A81282F30E03F832E838E819F8181306F
:102CA000910509F44FC02E813F81223031052CF46B
:102CB0008E819F81009771F0EDC02E813F8122307F
:102CC000310509F477C08E819F818330910509F425
:102CD000A9C0E0C08D81833019F08D818130A1F4CD
:102CE000ABE3B0E0EBE3F0E08081482F8B81282F4D
:102CF00030E081E090E0022E02C0880F991F0A9414
:102D0000E2F7842B8C93C8C08D81882319F08D81C4
:102D10008230A9F4ABE3B0E0EBE3F0E08081482F30
:102D20008B81282F30E081E090E0022E02C0880FD6
:102D3000991F0A94E2F7809584238C93ADC082E0BA
:102D40008983AAC08D81833019F08D818130A1F4EF
:102D5000A8E3B0E0E8E3F0E08081482F8B81282FE2
:102D600030E081E090E0022E02C0880F991F0A94A3
:102D7000E2F7842B8C9390C08D81882319F08D818C
:102D80008230A9F4A8E3B0E0E8E3F0E08081482FC6
:102D90008B81282F30E081E090E0022E02C0880F66
:102DA000991F0A94E2F7809584238C9375C082E082
:102DB000898372C08D81833019F08D818130A1F4B7
:102DC000A5E3B0E0E5E3F0E08081482F8B81282F78
:102DD00030E081E090E0022E02C0880F991F0A9433
:102DE000E2F7842B8C9358C08D81882319F08D8154
:102DF0008230A9F4A5E3B0E0E5E3F0E08081482F5C
:102E00008B81282F30E081E090E0022E02C0880FF5
:102E1000991F0A94E2F7809584238C933DC082E049
:102E200089833AC08D81833019F08D818130A1F47E
:102E3000A2E3B0E0E2E3F0E08081482F8B81282F0D
:102E400030E081E090E0022E02C0880F991F0A94C2
:102E5000E2F7842B8C9320C08D81882319F08D811B
:102E60008230A9F4A2E3B0E0E2E3F0E08081482FF1
:102E70008B81282F30E081E090E0022E02C0880F85
:102E8000991F0A94E2F7809584238C9305C082E011
:102E9000898302C081E08983898127960FB6F894DF
:102EA000DEBF0FBECDBFCF91DF910895DF93CF93EB
:102EB000CDB7DEB780918401882359F480E062E0C9
:102EC0000E94230B80E00E94711981E080938401AD
:102ED00020C080918401813079F480E063E00E9419
:102EE000230B0E947F198093820180E00E94711958
:102EF00082E0809384010DC080918401823049F486
:102F00000E947F198093830180E00E9471191092C2
:102F10008401CF91DF910895DF93CF93CDB7DEB7D2
:102F20008AE160E00E9428158AE162E00E9433167F
:102F300026E537E180E0B9010E94760B0E94A70ADE
:102F40000E94C017CF91DF910895DF93CF9300D0F7
:102F500000D0CDB7DEB79A8389837C836B83809161
:102F60008201E981FA81808380918301EB81FC8178
:102F700080830F900F900F900F90CF91DF91089565
:102F8000DF93CF93CDB7DEB7A3E5B0E0E3E5F0E0A4
:102F900080818F7B8C93A3E5B0E0E3E5F0E0808156
:102FA000877F8C93A3E5B0E0E3E5F0E080818F7C40
:102FB0008C93A3E5B0E0E3E5F0E08081887F826058
:102FC0008C93CF91DF910895DF93CF9300D0CDB74D
:102FD000DEB79A83898389819A8190939201809345
:102FE00091010F900F90CF91DF910895DF93CF93D0
:102FF0000F92CDB7DEB78983A9E5B0E0E9E5F0E04F
:103000008081982F9C7F8981892B8C930F90CF9101
:10301000DF910895DF93CF93CDB7DEB760970FB6FA
:10302000F894DEBF0FBECDBF69877A878B879C87F8
:103030002D873E874F87588B6D857E858F85988934
:103040000E94A9049B01AC0160E070E080E091E483
:103050000E941903DC01CB018D839E83AF83B88767
:1030600069857A858B859C850E94A904DC01CB014A
:10307000BC01CD012D813E814F8158850E941F02E8
:10308000DC01CB01BC01CD010E944900DC01CB0178
:1030900089839A83AB83BC8389819A81AB81BC810C
:1030A0009070A070B0708093850190938601A0937A
:1030B0008701B093880189819A81AB81BC81892F76
:1030C0009A2FAB2FBB278093890190938A01A093FD
:1030D0008B01B0938C018091890190918A01A0911C
:1030E0008B01B0918C0180938D0190938E01A09300
:1030F0008F01B09390018091890190918A01A091F4
:103100008B01B0918C010097A105B10569F4E2E54E
:10311000F0E08091850190918601A0918701B091A6
:103120008801819580830FC08091890190918A01E7
:10313000A0918B01B0918C010097A105B10519F008
:10314000E2E5F0E0108260960FB6F894DEBF0FBEA5
:10315000CDBFCF91DF910895DF93CF93CDB7DEB789
:1031600060970FB6F894DEBF0FBECDBF69877A8730
:103170008B879C872D873E874F87588B6D857E85F3
:103180008F8598890E94A9049B01AC0160E070E0E2
:1031900080E091E40E941903DC01CB018D839E83C2
:1031A000AF83B88769857A858B859C850E94A90441
:1031B000DC01CB01BC01CD012D813E814F815885C1
:1031C0000E941F02DC01CB01BC01CD010E9449001D
:1031D000DC01CB0189839A83AB83BC8389819A818B
:1031E000AB81BC819070A070B0708093850190938A
:1031F0008601A0938701B093880189819A81AB8170
:10320000BC819070A070B07080938501909386010E
:10321000A0938701B093880189819A81AB81BC8199
:10322000892F9A2FAB2FBB278093890190938A0116
:10323000A0938B01B0938C018091890190918A01B8
:10324000A0918B01B0918C0180938D0190938E01A0
:10325000A0938F01B09390018091890190918A0190
:10326000A0918B01B0918C010097A105B10579F473
:10327000E2E5F0E01082ECE5F0E0809185019091CC
:103280008601A0918701B0918801808313C080914D
:10329000890190918A01A0918B01B0918C010097D6
:1032A000A105B10539F0E2E5F0E01082ECE5F0E0CF
:1032B0008FEF808360960FB6F894DEBF0FBECDBF50
:1032C000CF91DF910895DF93CF930F92CDB7DEB703
:1032D0008983ECE5F0E0898180830F90CF91DF91C5
:1032E0000895DF93CF930F92CDB7DEB78983E2E5E0
:1032F000F0E0898180830F90CF91DF910895DF9373
:10330000CF93CDB7DEB7E2E5F0E08081CF91DF91DA
:1033100008951F920F920FB60F921124DF93CF934F
:10332000CDB7DEB7CF91DF910F900FBE0F901F90FA
:1033300018951F920F920FB60F9211242F933F935F
:103340004F935F936F937F938F939F93AF93BF93AD
:10335000EF93FF93DF93CF93CDB7DEB780918001DA
:10336000823041F4E0919101F0919201099581E060
:10337000809380018091890190918A01A0918B01B5
:10338000B0918C010097A105B105A1F08091890150
:1033900090918A01A0918B01B0918C010197A109B4
:1033A000B1098093890190938A01A0938B01B09316
:1033B0008C012BC08091890190918A01A0918B0191
:1033C000B0918C010097A105B105F9F4E2E5F0E0B8
:1033D0008091850190918601A0918701B09188012B
:1033E0008195808380918D0190918E01A0918F01B4
:1033F000B09190018093890190938A01A0938B01F1
:10340000B0938C0182E080938001CF91DF91FF9196
:10341000EF91BF91AF919F918F917F916F915F914C
:103420004F913F912F910F900FBE0F901F901895C5
:103430000F93DF93CF9300D0CDB7DEB7A0E4B0E019
:10344000E0E4F0E0808180688C93A0E4B0E0E0E408
:10345000F0E080818F7B8C93A0E4B0E0E0E4F0E0CA
:1034600080818F7C8C93A0E4B0E0E0E4F0E0808188
:10347000877F8C93AAE2B0E0EAE2F0E080818B7F64
:103480008C93A0E4B0E0E0E4F0E0808186608C936F
:10349000A0E4B0E0E0E4F0E080818E7F8C93AAE2CB
:1034A000B0E0EAE2F0E080818F778C9360E875E22B
:1034B00080E090E020E032E14AE750E000E00E9446
:1034C000831A9A838983E9E2F0E089818083E0E4CA
:1034D000F0E089819A81892F99278F708083AAE2F1
:1034E000B0E0EAE2F0E0808180618C93AAE2B0E093
:1034F000EAE2F0E0808188608C930F900F90CF918A
:10350000DF910F9108950F93DF93CF93CDB7DEB77F
:103510002D970FB6F894DEBF0FBECDBF6B837C83B3
:103520008D839E832F83388749875A870B878B85A6
:10353000282F30E03D872C878C859D85009731F0C2
:103540002C853D852130310561F151C0ABE2B0E001
:10355000EBE2F0E080818D7F8C938B819C81AD814B
:10356000BE81880F991FAA1FBB1F880F991FAA1F12
:10357000BB1F880F991FAA1FBB1F880F991FAA1F67
:10358000BB1F9C01AD018F819885A985BA85BC01BF
:10359000CD010E94101CDA01C90101979A83898329
:1035A00026C0ABE2B0E0EBE2F0E0808182608C9379
:1035B0008B819C81AD81BE81880F991FAA1FBB1F83
:1035C000880F991FAA1FBB1F880F991FAA1FBB1F17
:1035D0009C01AD018F819885A985BA85BC01CD017B
:1035E0000E94101CDA01C90101979A83898389819D
:1035F0009A812D960FB6F894DEBF0FBECDBFCF9146
:10360000DF910F910895DF93CF9300D0CDB7DEB750
:103610008A838A818983EBE2F0E0808182958695B6
:103620008770882F90E0817090700097A1F3ECE292
:10363000F0E0898180830F900F90CF91DF91089502
:10364000DF93CF9300D00F92CDB7DEB79B838A83F1
:103650008A819B818983EBE2F0E080818823DCF71B
:10366000ECE2F0E080818983EA81FB8189818083BB
:103670000F900F900F90CF91DF910895DF93CF932C
:1036800000D0CDB7DEB78A8388E0898399818A81AB
:10369000892B8983E1E4F0E0898180830F900F908A
:1036A000CF91DF910895DF93CF93CDB7DEB7E1E4FB
:1036B000F0E088E18083E1E4F0E01082CF91DF91D7
:1036C00008950F93DF93CF93CDB7DEB767970FB60B
:1036D000F894DEBF0FBECDBF0E94F60C0E94051508
:1036E0000E94181A89E160E00E94281589E162E0D1
:1036F0000E9433160E94F60C80E090E0AAE7B4E442
:103700008B879C87AD87BE876B857C858D859E85E5
:1037100020E030E04AEF54E40E941F02DC01CB01BC
:103720008F839887A987BA876F81788589859A85DD
:1037300020E030E040E85FE30E94250488232CF479
:1037400081E090E09E838D833FC06F81788589857D
:103750009A8520E03FEF4FE757E40E94C503181613
:103760004CF56B857C858D859E8520E030E040E2C0
:1037700051E40E941F02DC01CB01BC01CD010E947B
:103780004900DC01CB019E838D830FC088EC90E063
:103790009C838B838B819C810197F1F79C838B8326
:1037A0008D819E8101979E838D838D819E8100975F
:1037B00069F714C06F81788589859A850E944900D0
:1037C000DC01CB019E838D838D819E819A838983C9
:1037D00089819A810197F1F79A83898360E875E27C
:1037E00080E090E020E032E14AE750E000E00E9413
:1037F000831A9C0140E050E060E070E080E090E0DF
:103800002F87388B498B5A8B6B8B7C8B8D8B9E8B48
:10381000CE0147960E94201B8F890E945912F8CF33
:10382000A1E21A2EAA1BBB1BFD010DC0AA1FBB1FC4
:10383000EE1FFF1FA217B307E407F50720F0A21B36
:10384000B30BE40BF50B661F771F881F991F1A94A3
:1038500069F760957095809590959B01AC01BD01CD
:10386000CF0108952F923F924F925F926F927F9275
:103870008F929F92AF92BF92CF92DF92EF92FF9280
:103880000F931F93CF93DF93CDB7DEB7CA1BDB0B2C
:103890000FB6F894DEBF0FBECDBF09942A883988D1
:1038A00048885F846E847D848C849B84AA84B984D8
:1038B000C884DF80EE80FD800C811B81AA81B981E4
:1038C000CE0FD11D0FB6F894DEBF0FBECDBFED01F8
:0638D0000895F894FFCFFB
:1038D60000000000000000000001020203030303D1
:1038E600040404040404040405050505050505058A
:1038F600050505050505050506060606060606066A
:103906000606060606060606060606060606060651
:103916000606060606060606070707070707070739
:103926000707070707070707070707070707070721
:103936000707070707070707070707070707070711
:103946000707070707070707070707070707070701
:1039560007070707070707070808080808080808E9
:1039660008080808080808080808080808080808D1
:1039760008080808080808080808080808080808C1
:1039860008080808080808080808080808080808B1
:1039960008080808080808080808080808080808A1
:1039A6000808080808080808080808080808080891
:1039B6000808080808080808080808080808080881
:1039C6000808080808080808080808080808080871
:1039D6000808080808080808151413121F1E1D1BDE
:1039E6003738392F3435362A3132332D2E303D2BA8
:0239F6000100CE
:00000001FF
