:100000000C942A000C94F5000C941C010C944301F0
:100010000C9447000C9447000C9447000C94470044
:100020000C9447000C9447000C9447000C94470034
:100030000C9447000C9447000C9447000C94470024
:100040000C9447000C9447000C9447000C94470014
:100050000C94470011241FBECFE5D8E0DEBFCDBF12
:1000600010E0A0E6B0E0E4EAF6E002C005900D92F0
:10007000A638B107D9F720E0A6E8B0E001C01D928C
:10008000A739B207E1F70E94E1010C9450030C94E8
:100090000000CF93DF93009799F0EC0161E0888135
:1000A0000E94F20261E089810E94F20261E08A818D
:1000B0000E94F20261E08B810E94F20281E001C0A5
:1000C00082E0DF91CF9108951F93CF93DF93009744
:1000D000E1F06A30E0F4162FEC01617088810E9433
:1000E000870211FB662760F989810E94870212FB53
:1000F000662760F98A810E94870213FB662760F9F0
:100100008B810E94870281E003C082E001C083E00E
:10011000DF91CF911F910895CF93009731F0FC01AB
:100120002081203220F4C1E003C0C2E001C0C0E061
:10013000C13029F4FC0160E080810E94F2028C2F22
:10014000CF910895CF92DF92EF92FF920F931F937A
:10015000CF93DF931F92CDB7DEB7009749F06115BB
:10016000710541F0FC012081203230F401E005C02E
:1001700002E003C002E001C000E0013059F509C00F
:10018000BE016F5F7F4FF70180810E94C3021F5F36
:1001900003C06B017C0110E01A3090F3F7018181FC
:1001A00081110BC08981882329F0813099F4F601EF
:1001B000808310C0F60110820DC0813059F489810E
:1001C000882329F0813031F4F601108203C081E0E8
:1001D000F6018083802F0F90DF91CF911F910F91B7
:1001E000FF90EF90DF90CF9008951F920F920FB67F
:1001F0000F9211242F933F934F935F936F937F93AD
:100200008F939F93AF93BF93EF93FF93E0918600FB
:10021000F09187000995FF91EF91BF91AF919F9168
:100220008F917F916F915F914F913F912F910F909F
:100230000FBE0F901F9018951F920F920FB60F923E
:1002400011242F933F934F935F936F937F938F93DB
:100250009F93AF93BF93EF93FF93E0918800F0914A
:1002600089000995FF91EF91BF91AF919F918F9177
:100270007F916F915F914F913F912F910F900FBEA2
:100280000F901F9018951F920F920FB60F92112486
:100290002F933F934F935F936F937F938F939F938E
:1002A000AF93BF93EF93FF93E0918A00F0918B009F
:1002B0000995FF91EF91BF91AF919F918F917F91A0
:1002C0006F915F914F913F912F910F900FBE0F90C3
:1002D0001F901895CF93DF93C0E6D0E061E089814D
:1002E0000E94870261E08A810E94870261E08B811F
:1002F0000E9487026091960084E690E00E9464006C
:1003000060E088810E9487028FE59AEE0197F1F7FD
:1003100000C0000061E088810E94870261E08A815C
:100320000E94870261E08B810E94870260919500A4
:1003300084E690E00E94640060E089810E94870268
:100340008FE59AEE0197F1F700C0000061E08B8124
:100350000E94870261E088810E94870261E08981B2
:100360000E9487026091940084E690E00E946400FD
:1003700060E08A810E9487028FE59AEE0197F1F78B
:1003800000C0000061E088810E94870261E08981ED
:100390000E94870261E08A810E9487026091930037
:1003A00084E690E00E94640060E08B810E948702F6
:1003B0008FE59AEE0197F1F700C00000DF91CF9131
:1003C00008950E94EB028CE690E00E948C008AE681
:1003D00090E00E948C0088E690E00E948C0084E609
:1003E00090E00E944900C0E00E946A0162E970E06A
:1003F0008CE690E00E94A20061E970E08AE690E05D
:100400000E94A20060E970E088E690E00E94A200ED
:1004100080919000813069F080918C0090918D00E6
:10042000A0918E00B0918F008F309742A105B10549
:1004300091F410928C0010928D0010928E00109208
:100440008F001092960010929500109294001092D6
:100450009300C0E00CC080919100813029F0809120
:100460009200813021F402C0C0E001C0C1E0CC2381
:1004700009F4BACFC0908C00D0908D00E0908E002F
:10048000F0908F000F2EFAE08F2E912CA12CB12C22
:10049000F02DC701B601A50194010E942E036093BF
:1004A0009600CA01B901A50194010E942E03609330
:1004B0009500C701B60124E630E040E050E00E941C
:1004C0002E03CA01B901A50194010E942E03609375
:1004D0009400C701B60128EE33E040E050E00E94EE
:1004E0002E03CA01B901A50194010E942E03609355
:1004F00093008FEFC81AD80AE80AF80AC0928C0055
:10050000D0928D00E0928E00F0928F006DCF8032FD
:10051000B0F5E82FE695E695E69587706623C1F07D
:10052000613079F5F0E0EE0FFF1FEA58FF4F0190C0
:10053000F081E02D408121E030E0B90102C0660F7A
:10054000771F8A95E2F7CB01842B808382E00895A0
:10055000F0E0EE0FFF1FEA58FF4F0190F081E02D11
:10056000408121E030E0B90102C0660F771F8A9513
:10057000E2F7CB0180958423808382E0089580E0B8
:10058000089583E00895803210F422E001C020E055
:100590006115710509F424E02230D9F4E82FE695BD
:1005A000E695E695982F9770F0E0EE0FFF1FE25961
:1005B000FF4F0190F081E02D8081482F50E0FA013B
:1005C00002C0F595E7959A95E2F7CF018170FB019E
:1005D0008083822F08958EEF8ABB8FEF87BB84BB09
:1005E00081BB08958032B0F5E82FE695E695E69553
:1005F00087706130B1F4F0E0EE0FFF1FE258FF4F5B
:100600000190F081E02D408121E030E0B90102C08D
:10061000660F771F8A95E2F7CB01842B808381E0F8
:100620000895611119C0F0E0EE0FFF1FE258FF4F6F
:100630000190F081E02D408121E030E0B90102C05D
:10064000660F771F8A95E2F7CB018095842380831C
:1006500081E0089580E0089582E00895A1E21A2ED5
:10066000AA1BBB1BFD010DC0AA1FBB1FEE1FFF1F56
:10067000A217B307E407F50720F0A21BB30BE40BA6
:10068000F50B661F771F881F991F1A9469F76095ED
:100690007095809590959B01AC01BD01CF010895A7
:0406A000F894FFCFFC
:1006A40003020D0E08090A0C1D011E011F01390069
:1006B4003600330030003B003800350032003A0089
:0606C40037003400310094
:040000050080006C0B
:00000001FF
