:100000000C942A000C9447000C9447000C94470071
:100010000C9447000C9447000C9447000C948117F3
:100020000C9447000C94321A0C9447000C9447002F
:100030000C9447000C9447000C9447000C94470024
:100040000C9447000C9447000C9447000C94470014
:100050000C94470011241FBECFE5D8E0DEBFCDBF12
:1000600011E0A0E6B0E0ECE3F8E502C005900D92E7
:10007000A03AB107D9F711E0A0EAB1E001C01D92A2
:10008000A13CB107E1F70E947F2B0C941C2C0C942F
:100090000000A0E3B0E0EFE4F0E00C94E52BA8E072
:1000A0004E010894811C911CF401BA2F1192BA954B
:1000B000E9F729833A834B835C836D837E838F8347
:1000C0009887CE010996FC011192AA95E9F7A986B5
:1000D000BA86CB86DC86ED86FE860F87188B298153
:1000E0003A814B815C812DA73EA74FA758AB790180
:1000F0008A018FEF9FEFA0E0B0E0E822F9220A2307
:100100001B231A014424552429853A854B855C8597
:1001100029A73AA74BA75CA759016A01A822B922CF
:10012000CA22DB223A0188249924C601B501A8011C
:1001300097010E94982B6DA37EA38FA398A7C4015B
:10014000B3010E94982B69A37AA38BA39CA3C60139
:10015000B501A20191010E94982B7B018C01C40181
:10016000B3010E94982B5B016C0189A19AA1ABA1FC
:10017000BCA18E0D9F1DA01FB11F89A39AA3ABA385
:10018000BCA32DA13EA14FA158A5CA01AA27BB27F8
:1001900029A13AA14BA15CA1280F391F4A1F5B1F5F
:1001A00029A33AA34BA35CA32E153F054007510793
:1001B00040F480E090E0A1E0B0E0A80EB91ECA1EB5
:1001C000DB1E89A19AA1ABA1BCA19D0144275527A3
:1001D0002A0D3B1D4C1D5D1D2D8F3E8F4F8F58A34B
:1001E0006C01BB24AA248DA19EA1AFA1B8A5A070CB
:1001F000B070A80EB91ECA1EDB1EA98EBA8ECB8E99
:10020000DC8E9A8C8B8C7C8C9E8D6F8D78A1FE0100
:10021000719688E0DF011D928A95E9F72D8B9E8B00
:100220006F8B788F2D853E854F8558896DA57EA56E
:100230008FA598A90E94982B7B018C012D813E816E
:100240004F81588569A57AA58BA59CA50E94982BFE
:10025000E60EF71E081F191F6D897E898F89988DFC
:100260006E0D7F1D801F911F6D8B7E8B8F8B988FE6
:10027000EE892A2D392D482D572D7E2F8F89988D67
:10028000E096E2E10C94012CEF92FF920F93DF9342
:10029000CF93CDB7DEB760970FB6F894DEBF0FBE31
:1002A000CDBFA82F002309F461C07E010894E11C92
:1002B000F11C88E0F70111928A95E9F729833A83C6
:1002C0004B835C836D837E83AF83988780E2801B42
:1002D000E82FFF27E7FDF0954D815E816F817885DE
:1002E000181684F01D861E861F86188A882799276F
:1002F0008E1B9F0B04C076956795579547958A95F9
:10030000D2F728C0202F332727FD3095DB01CA0103
:10031000022E04C0B695A795979587950A94D2F7B3
:100320008D879E87AF87B88B04C0440F551F661F0B
:10033000771FEA95D2F789819A81AB81BC8104C08D
:10034000B695A795979587952A95D2F7482B592B5F
:100350006A2B7B2B49875A876B877C8729853A854F
:100360004B855C856D857E85AF8598898A2F6096E3
:100370000FB6F894DEBF0FBECDBFCF91DF910F91C6
:10038000FF90EF900895EF92FF920F93DF93CF933A
:10039000CDB7DEB760970FB6F894DEBF0FBECDBF06
:1003A000A82F002309F461C07E010894E11CF11C10
:1003B00088E0F70111928A95E9F729833A834B8304
:1003C0005C836D837E83AF83988780E2801BE82FF8
:1003D000FF27E7FDF09549815A816B817C811816D2
:1003E00084F019861A861B861C86882799278E1BFF
:1003F0009F0B04C0440F551F661F771F8A95D2F7C5
:1004000028C0202F332727FD3095DB01CA01022E9B
:1004100004C0880F991FAA1FBB1F0A94D2F78987AF
:100420009A87AB87BC8704C07695679557954795A3
:10043000EA95D2F78D819E81AF81B88504C0880F7F
:10044000991FAA1FBB1F2A95D2F7482B592B6A2B3D
:100450007B2B4D875E876F87788B29853A854B8507
:100460005C856D857E85AF8598898A2F60960FB6ED
:10047000F894DEBF0FBECDBFCF91DF910F91FF90FB
:10048000EF900895EF92FF920F931F937B018C01E1
:1004900020E030E040E05FE40E94271288238CF0E7
:1004A000C801B70120E030E040E05FE40E949F1007
:1004B0000E9487129B01AC012050304040405048C0
:1004C00006C0C801B7010E9487129B01AC01B901A7
:1004D000CA011F910F91FF90EF900895AEE5B0E033
:1004E000E4E7F2E00C94E52BA8E04E010894811CAF
:1004F000911CF4016A2E11926A94E9F729833A83D8
:100500004B835C836D837E838F839887CE010996AE
:10051000FC011192AA95E9F7A986BA86CB86DC86FA
:10052000ED86FE860F87188B29843A844B845C8481
:10053000ED84FE840F85188969807A808B809C8089
:100540006DA67EA68FA698AA6D807E808F809884E7
:10055000E114F1040105110509F0B3C36214730439
:100560008404950408F03DC100E0201600E0300648
:1005700001E0400600E0500688F41FEF2116310428
:100580004104510439F030F048E0E42EF12C012D03
:10059000112D18C0EE24FF24870114C020E022167C
:1005A00020E0320620E0420621E0520630F038E139
:1005B000E32EF12C012D112D05C020E1E22EF12CAE
:1005C000012D112DD201C1010E2C04C0B695A795A5
:1005D000979587950A94D2F785579F4FDC012C9108
:1005E00080E290E0A0E0B0E08E199F09A00BB10B73
:1005F0007C018D01E21AF10801091109E114F104ED
:1006000001051105A1F10E2C04C0220C331C441C61
:10061000551C0A94D2F7A40193010E2C04C0220F9A
:10062000331F441F551F0A94D2F780E290E08E19C1
:100630009F096DA47EA48FA498A804C09694879463
:10064000779467948A95D2F7622A732A842A952A26
:10065000ADA4BEA4CFA4D8A804C0AA0CBB1CCC1CBB
:10066000DD1CEA94D2F7ADA6BEA6CFA6D8AA620139
:10067000EE24FF24CDAADEAAEFAAF8AE92018101F2
:100680002070307009AF1AAF2BAF3CAFC401B3017B
:10069000A70196010E94C32B7B018C01C401B30109
:1006A0002DA93EA94FA958AD0E94C32BC901DA015B
:1006B0003C014D01C401B30129AD3AAD4BAD5CAD78
:1006C0000E94982B9B01AC018701FF24EE24ADA46E
:1006D000BEA4CFA4D8A8C601AA27BB27570168018A
:1006E000A82AB92ACA2ADB2AA216B306C406D50646
:1006F000E0F408946108710881089108A20CB31C09
:10070000C41CD51CA214B304C404D50470F0A216F2
:10071000B306C406D50648F4089461087108810838
:100720009108A20CB31CC41CD51CA21AB30AC40A9B
:10073000D50AC601B5012DA93EA94FA958AD0E9401
:10074000C32B7B018C01C601B5012DA93EA94FA980
:1007500058AD0E94C32BC901DA015C016D01C601CD
:10076000B50129AD3AAD4BAD5CAD0E94982B9B0114
:10077000AC018701FF24EE248DA59EA5AFA5B8A9E5
:10078000A070B070E82AF92A0A2B1B2BE216F30698
:1007900004071507C0F40894A108B108C108D108DE
:1007A000E20CF31C041D151DE214F30404051505E9
:1007B00050F0E216F3060407150728F40894A10880
:1007C000B108C108D108D30199278827860175018E
:1007D000E82AF92A0A2B1B2BE9AAFAAA0BAB1CABB5
:1007E000CFC4211431044104510471F461E070E07C
:1007F00080E090E020E030E040E050E00E94C32B39
:10080000C901DA011C012D0100E0201600E03006CC
:1008100001E0400600E0500688F41FEF2116310485
:100820004104510431F028F048E050E060E070E00D
:1008300017C040E050E060E070E012C020E02216F7
:1008400020E0320620E0420621E0520628F048E18E
:1008500050E060E070E004C040E150E060E070E033
:10086000D201C101042E04C0B695A795979587952E
:100870000A94D2F785579F4FDC012C91E0E2EE2ECF
:10088000F12C012D112DD801C701841B950BA60B4E
:10089000B70B821B9109A109B1090097A105B10508
:1008A00061F464015301A218B308C408D50831E00B
:1008B000632E712C812C912C1EC16F968FAF6F9778
:1008C000082E04C0220C331C441C551C0A94D2F779
:1008D000EE2DE81B640153010E2E04C0D694C7947C
:1008E000B794A7940A94D2F7A40193016F960FAC22
:1008F0006F9704C0220F331F441F551F0A94D2F76D
:100900006DA47EA48FA498A80E2E04C096948794FC
:10091000779467940A94D2F784017301E22AF32A48
:10092000042B152BE9A6FAA60BA71CA732018824D5
:100930009924920181012070307021960CAF1DAF77
:100940002EAF3FAF2197C601B501A40193010E94CC
:10095000C32B7B018C01C601B501A40193010E9448
:10096000C32BC901DA0125968CAF9DAFAEAFBFAFE7
:100970002597BC01CD0121962CAD3DAD4EAD5FADAF
:1009800021970E94982B9B01AC018701FF24EE2444
:10099000A9A4BAA4CBA4DCA4C601AA27BB275C01E6
:1009A0006D01AE28BF28C02AD12AA216B306C406FC
:1009B000D50660F525966CAD7DAD8EAD9FAD2597C6
:1009C000615070408040904025966CAF7DAF8EAFF7
:1009D0009FAF2597A20CB31CC41CD51CA214B30452
:1009E000C404D50498F0A216B306C406D50670F464
:1009F000615070408040904025966CAF7DAF8EAFC7
:100A00009FAF2597A20CB31CC41CD51CA21AB30A15
:100A1000C40AD50AC601B501A40193010E94C32BE3
:100A20007B018C01C601B501A40193010E94C32B77
:100A3000C901DA013C014D01C401B30121962CAD7D
:100A40003DAD4EAD5FAD21970E94982B9B01AC014F
:100A50008701FF24EE2489A59AA5ABA5BCA5A070AB
:100A6000B07057016801A82AB92ACA2ADB2AA2163F
:100A7000B306C406D506E0F408946108710881083D
:100A80009108A20CB31CC41CD51CA214B304C4044A
:100A9000D50470F0A216B306C406D50648F408942F
:100AA0006108710881089108A20CB31CC41CD51CF4
:100AB0008DA59EA5AFA5B8A96F960FAC6F9704C082
:100AC000880F991FAA1FBB1F0A94D2F78DA79EA754
:100AD000AFA7B8ABA21AB30AC40AD50A2596ECACE4
:100AE000FDAC0EAD1FAD2597D70199278827682A41
:100AF000792A8A2A9B2A82012227332729960CAF3A
:100B00001DAF2EAF3FAF2997A201910140705070E9
:100B10002D962CAF3DAF4EAF5FAF2D97C601B501FF
:100B200029962CAD3DAD4EAD5FAD29970E94C32BEC
:100B30007B018C01C601B50129962CAD3DAD4EADB2
:100B40005FAD29970E94C32BC901DA0161968CAF72
:100B50009DAFAEAFBFAF6197BC01CD012D962CAD5F
:100B60003DAD4EAD5FAD2D970E94982B9B01AC0122
:100B70008701FF24EE24ADA4BEA4CFA4D8A8C6014B
:100B8000AA27BB2757016801A82AB92ACA2ADB2A43
:100B9000A216B306C406D50660F561966CAD7DADB0
:100BA0008EAD9FAD619761507040804090406196DE
:100BB0006CAF7DAF8EAF9FAF6197A20CB31CC41C0E
:100BC000D51CA214B304C404D50498F0A216B3062D
:100BD000C406D50670F46150704080409040619624
:100BE0006CAF7DAF8EAF9FAF6197A20CB31CC41CDE
:100BF000D51CA21AB30AC40AD50AC601B5012996A2
:100C00002CAD3DAD4EAD5FAD29970E94C32B7B014E
:100C10008C01C601B50129962CAD3DAD4EAD5FAD41
:100C200029970E94C32BC901DA015C016D01C6013D
:100C3000B5012D962CAD3DAD4EAD5FAD2D970E940B
:100C4000982B9B01AC018701FF24EE248DA59EA566
:100C5000AFA5B8A9A070B070E82AF92A0A2B1B2BFF
:100C6000E216F30604071507C0F40894A108B108BA
:100C7000C108D108E20CF31C041D151DE214F30495
:100C80000405150550F0E216F3060407150728F4CD
:100C90000894A108B108C108D1086196ECACFDAC7C
:100CA0000EAD1FAD6197D701992788279601850161
:100CB000082B192B2A2B3B2B09AB1AAB2BAB3CABCC
:100CC00062C26E147F048006910608F451C220E0CF
:100CD000E21620E0F20621E0020720E0120788F485
:100CE0003FEFE316F1040105110531F028F048E06B
:100CF00050E060E070E017C040E050E060E070E07D
:100D000012C040E0E41640E0F40640E0040741E091
:100D1000140728F048E150E060E070E004C040E1D2
:100D200050E060E070E0D801C701042E04C0B69521
:100D3000A795979587950A94D2F785579F4FDC0121
:100D40002C9130E2A32EB12CC12CD12CD601C5019F
:100D5000841B950BA60BB70B821B9109A109B10946
:100D60000097A105B10589F4E614F70408051905F3
:100D700008F4F2C16DA47EA48FA498A86214730431
:100D80008404950408F0E8C1F3C16E968FAF6E97A6
:100D9000082E04C0EE0CFF1C001F111F0A94D2F78E
:100DA0006A2D681BD201C101062E04C0B695A79515
:100DB000979587950A94D2F75C016D01AE28BF28FC
:100DC000C02AD12AADA2BEA2CFA2D8A672016101CB
:100DD0006E960FAC6E9704C0CC0CDD1CEE1CFF1C95
:100DE0000A94D2F7C9A2DAA2EBA2FCA264015301D1
:100DF000062E04C0D694C794B794A7940A94D2F749
:100E0000D401C3016E960FAC6E9704C0880F991F72
:100E1000AA1FBB1F0A94D2F7EDA4FEA40FA518A920
:100E200004C016950795F794E7946A95D2F73701B1
:100E30004801682A792A8A2A9B2A6D8E7E8E8F8E97
:100E400098A2EDA0FEA00FA118A53801882499242E
:100E5000980187012070307065960CAF1DAF2EAFE2
:100E60003FAF6597C601B501A40193010E94C32B52
:100E70007B018C01C601B501A40193010E94C32B23
:100E8000C901DA011C012D01C201B10165962CAD29
:100E90003DAD4EAD5FAD65970E94982B9B01AC01B7
:100EA0008701FF24EE24AD8CBE8CCF8CD8A0C60168
:100EB000AA27BB2757016801A82AB92ACA2ADB2A10
:100EC000A216B306C406D50600F508942108310819
:100ED00041085108EDA0FEA00FA118A5AE0CBF1C43
:100EE000C01ED11EAE14BF04C006D10670F0A216FB
:100EF000B306C406D50648F4089421083108410811
:100F00005108AE0CBF1CC01ED11EA21AB30AC40ADF
:100F1000D50AC601B501A40193010E94C32B7B0130
:100F20008C01C601B501A40193010E94C32BC90124
:100F3000DA013C014D01C401B30165962CAD3DAD14
:100F40004EAD5FAD65970E94982B9B01AC01870168
:100F5000FF24EE248D8D9E8DAF8DB8A1A070B07052
:100F600057016801A82AB92ACA2ADB2AA216B306A1
:100F7000C406D50600F50894610871088108910837
:100F80006DA17EA18FA198A5A60EB71EC81ED91E61
:100F9000A616B706C806D90670F0A216B306C40690
:100FA000D50648F408946108710881089108A60ED6
:100FB000B71EC81ED91ED601C501821B930BA40BF8
:100FC000B50B898F9A8FAB8FBC8FD101992788275A
:100FD00064015301A82AB92ACA2ADB2AA9AABAAAF3
:100FE000CBAADCAA860175012FEF3FEF40E050E06D
:100FF000E222F32204231523A601662777276D96A4
:101000004CAF5DAF6EAF7FAF6D97A9A0BAA0CBA07C
:10101000DCA06FEF7FEF80E090E0A622B722C8222D
:10102000D92289A19AA1ABA1BCA11D0144245524B8
:10103000C801B701A60195010E94982B69966CAF73
:101040007DAF8EAF9FAF6997C801B701A201910133
:101050000E94982B3B014C016D966CAD7DAD8EAD21
:101060009FAD6D97A60195010E94982B7B018C0185
:101070006D966CAD7DAD8EAD9FAD6D97A20191016A
:101080000E94982B5B016C01A8019701260D371D6A
:10109000481D591D69966CAC7DAC8EAC9FAC6997B0
:1010A000C401AA27BB27280F391F4A1F5B1F2E1513
:1010B0003F054007510748F4E12CF12C61E0062F71
:1010C000112DAE0CBF1CC01ED11ECA01AA27BB2702
:1010D000BC01CD016A0D7B1D8C1D9D1D698C7A8C18
:1010E0008B8C9C8C661677068806990640F16615EF
:1010F00077058805990509F043C0D9019927882704
:1011000069962CAD3DAD4EAD5FAD699740705070A6
:10111000820F931FA41FB51F2DA53EA54FA558A94B
:101120006E960FAC6E9704C0220F331F441F551FDD
:101130000A94D2F7281739074A075B0708F509A967
:101140001AA92BA93CA9015010402040304009ABFE
:101150001AAB2BAB3CAB14C066247724430121E0CF
:1011600030E040E050E029AB3AAB4BAB5CAB0BC09E
:1011700066247724430119AA1AAA1BAA1CAA03C031
:10118000662477244301FE01719688E0DF011D92F9
:101190008A95E9F7A9A8BAA8CBA8DCA8A98ABA8A2F
:1011A000CB8ADC8A6D8A7E8A8F8A988E29A93A89B1
:1011B0004B895C89662D7E898F89988DC25ADF4F55
:1011C000E2E10C94012CABE5B0E0E9EEF8E00C9420
:1011D000E52BA8E04E010894811C911CF4016A2EB5
:1011E00011926A94E9F729833A834B835C836D8378
:1011F0007E838F839887CE010996FC011192AA9570
:10120000E9F7A986BA86CB86DC86ED86FE860F874F
:10121000188B29843A844B845C84AD84BE84CF844B
:10122000D88829813A814B815C8169962FAF699773
:101230006A963FAF6A976B964FAF6B976C965FAFAE
:101240006C976C966CAC7DAC8EAC9FAC6C9769AABD
:101250007AAA8BAA9CAA6D817E818F8198853B0199
:101260004C016DAA7EAA8FAA98AEA114B104C10444
:10127000D10409F004C3621473048404950408F0D3
:1012800000C100E0201600E0300601E0400600E06A
:10129000500688F41FEF211631044104510439F03F
:1012A00030F088E0E82EF12C012D112D18C0EE242D
:1012B000FF24870114C040E0241640E0340640E0DB
:1012C000440641E0540630F0B8E1EB2EF12C012D3C
:1012D000112D05C0A0E1EA2EF12C012D112DD20116
:1012E000C1010E2C04C0B695A795979587950A94D1
:1012F000D2F785579F4FDC012C9180E290E0A0E06F
:10130000B0E08E199F09A00BB10B5C016D01A21A10
:10131000B108C108D108A9AEBAAECBAEDCAEA114FB
:10132000B104C104D10409F43FC069AD062E04C064
:10133000220C331C441C551C0A94D2F7A4019301BF
:10134000062E04C0220F331F441F551F0A94D2F7E4
:1013500080E290E08A199B096C96CCACDDACEEACD7
:10136000FFAC6C9704C0F694E794D794C7948A9521
:10137000D2F787017601E22AF32A042B152BEDAA76
:10138000FEAA0FAB18AF6C968CAD9DADAEADBFADE8
:101390006C9704C0880F991FAA1FBB1F6A95D2F7CC
:1013A00089AB9AABABABBCAB320188249924B201B8
:1013B000A1016070707021964CAF5DAF6EAF7FAFD2
:1013C00021976DA97EA98FA998ADA40193010E94D0
:1013D000C32B7B018C016DA97EA98FA998ADA401B7
:1013E00093010E94C32BCA01B90121962CAD3DADDA
:1013F0004EAD5FAD21970E94982B9B01AC018701F8
:10140000FF24EE24A9A8BAA8CBA8DCA8C601AA2765
:10141000BB2757016801A82AB92ACA2ADB2AA216C3
:10142000B306C406D50690F4A20CB31CC41CD51C8C
:10143000A214B304C404D50448F0A216B306C4062B
:10144000D50620F4A20CB31CC41CD51CA21AB30AE6
:10145000C40AD50AC601B501A40193010E94C32B99
:101460007B018C01C601B501A40193010E94C32B2D
:10147000CA01B90121962CAD3DAD4EAD5FAD2197AE
:10148000BAC1211431044104510471F461E070E0E7
:1014900080E090E020E030E040E050E00E94C32B8C
:1014A000C901DA011C012D0100E0201600E0300620
:1014B00001E0400600E0500688F41FEF21163104D9
:1014C0004104510439F030F068E0E62EF12C012D92
:1014D000112D18C0EE24FF24870114C040E024160B
:1014E00040E0340640E0440641E0540630F058E164
:1014F000E52EF12C012D112D05C040E1E42EF12C3B
:10150000012D112DD201C1010E2C04C0B695A79555
:10151000979587950A94D2F785579F4FDC012C91B8
:1015200030E2A32EB12CC12CD12CD601C5018E19CD
:101530009F09A00BB10B7C018D01E21AF108010992
:101540001109E9AEFAAE0BAF1CAFE114F1040105CD
:10155000110539F464015301A218B308C408D50871
:10156000E2C0F9AC6896FFAE68970F2C04C0220C5D
:10157000331C441C551C0A94D2F78A2D8F19640120
:101580005301082E04C0D694C794B794A7940A9424
:10159000D2F7A401930104C0220F331F441F551F2B
:1015A000FA94D2F76C966CAC7DAC8EAC9FAC6C9719
:1015B00004C096948794779467948A95D2F78401AF
:1015C0007301E22AF32A042B152BEDA6FEA60FA722
:1015D00018AB320188249924B201A10160707070A7
:1015E00025964CAF5DAF6EAF7FAF2597C601B501B5
:1015F000A40193010E94C32B7B018C01C601B5019C
:10160000A40193010E94C32BCA01B90125962CADF8
:101610003DAD4EAD5FAD25970E94982B9B01AC016F
:101620008701FF24EE24ADA4BEA4CFA4D8A8C60190
:10163000AA27BB275C016D01AE28BF28C02AD12A8A
:10164000A216B306C406D50690F4A20CB31CC41CA3
:10165000D51CA214B304C404D50448F0A216B306E2
:10166000C406D50620F4A20CB31CC41CD51CA21AB7
:10167000B30AC40AD50AC601B501A40193010E94A8
:10168000C32B7B018C01C601B501A40193010E940B
:10169000C32BCA01B90125962CAD3DAD4EAD5FAD52
:1016A00025970E94982B9B01AC018701FF24EE2413
:1016B0008DA59EA5AFA5B8A9A070B070570168010F
:1016C000A82AB92ACA2ADB2AA216B306C406D50656
:1016D00090F4A20CB31CC41CD51CA214B304C40403
:1016E000D50448F0A216B306C406D50620F4A20C11
:1016F000B31CC41CD51C6C96ECACFDAC0EAD1FAD80
:101700006C9768960FAC689704C0EE0CFF1C001F26
:10171000111F0A94D2F7E9AAFAAA0BAB1CABA21AC2
:10172000B30AC40AD50A320188249924B201A1015E
:101730006070707029964CAF5DAF6EAF7FAF299728
:10174000C601B501A40193010E94C32B7B018C014A
:10175000C601B501A40193010E94C32BCA01B901BE
:1017600029962CAD3DAD4EAD5FAD29970E94982BCB
:101770009B01AC018701FF24EE24A9A8BAA8CBA83D
:10178000DCA8C601AA27BB2757016801A82AB92AE5
:10179000CA2ADB2AA216B306C406D50690F4A20C08
:1017A000B31CC41CD51CA214B304C404D50448F053
:1017B000A216B306C406D50620F4A20CB31CC41CA2
:1017C000D51CA21AB30AC40AD50AC601B501A401E0
:1017D00093010E94C32B7B018C01C601B501A401BA
:1017E00093010E94C32BCA01B90129962CAD3DADCE
:1017F0004EAD5FAD29970E94982B9B01AC018701EC
:10180000FF24EE2489A99AA9ABA9BCA9A070B07045
:10181000E82AF92A0A2B1B2BE216F3060407150700
:1018200090F4E20CF31C041D151DE214F3040405EE
:10183000150548F0E216F3060407150720F4E20C3C
:10184000F31C041D151DE21AF30A040B150BD80135
:10185000C70109AC04C0B695A795979587950A94DA
:10186000D2F7898B9A8BAB8BBC8B1D8A1E8A1F8A01
:10187000188E282F3A894B895C896D890CC36A14AC
:101880007B048C049D0408F409C300E0A01600E06A
:10189000B00601E0C00600E0D00688F41FEFA116F4
:1018A000B104C104D10439F030F028E0E22EF12C6B
:1018B000012D112D18C0EE24FF24870114C040E033
:1018C000A41640E0B40640E0C40641E0D40630F07F
:1018D00098E1E92EF12C012D112D05C080E1E82EB3
:1018E000F12C012D112DD601C5010E2C04C0B69589
:1018F000A795979587950A94D2F785579F4FDC0156
:101900002C9180E290E0A0E0B0E08E199F09A00B3E
:10191000B10B821B9109A109B1090097A105B1057D
:1019200009F04FC0A614B704C804D90458F06C9647
:10193000ECACFDAC0EAD1FAD6C97E214F3040405E6
:10194000150568F16C96ECACFDAC0EAD1FAD6C9757
:10195000E218F30804091509A40193012A193B09A7
:101960004C095D09AA24BB2465016C966CAD7DAD64
:101970008EAD9FAD6C976E157F058007910728F49B
:10198000B1E0AB2EB12CC12CD12CDA01C9018A19DE
:101990009B09AC09BD098DAB9EABAFABB8AFE98A73
:1019A000FA8A0B8B1C8B6DA87EA88FA898AC6D8AC9
:1019B0007E8A8F8A988E2E2D3A894B895C896DA9F3
:1019C0006AC267968FAF6797A6019501082E04C07B
:1019D000220F331F441F551F0A94D2F7A0E2AA2EEC
:1019E000A81A6696AFAE6697D201C10104C0B6953B
:1019F000A79597958795AA94D2F76C017D01C22A85
:101A0000D32AE42AF52AC9A6DAA6EBA6FCA6820107
:101A1000710167960FAC679704C0EE0CFF1C001FA6
:101A2000111F0A94D2F7EDA2FEA20FA318A764011A
:101A3000530166960FAC669704C0D694C794B794CA
:101A4000A7940A94D2F7A401930167960FAC679705
:101A500004C0220F331F441F551F0A94D2F76C96FF
:101A60008CAD9DADAEADBFAD6C9766960FAC669775
:101A700004C0B695A795979587950A94D2F73C012F
:101A80004D01622A732A842A952A69A27AA28BA21E
:101A90009CA26C96ECACFDAC0EAD1FAD6C9767963E
:101AA0000FAC679704C0EE0CFF1C001F111F0A94B7
:101AB000D2F7ED8EFE8E0F8F18A349A55AA56BA500
:101AC0007CA53B0188249924607070702D964CAFE2
:101AD0005DAF6EAF7FAF2D97C601B501A401930135
:101AE0000E94C32B7B018C01C601B501A4019301A7
:101AF0000E94C32BC901DA011C012D01C201B101F1
:101B00002D962CAD3DAD4EAD5FAD2D970E94982B1F
:101B10009B01AC018701FF24EE24A9A0BAA0CBA0B1
:101B2000DCA0C601AA27BB2757016801A82AB92A49
:101B3000CA2ADB2AA216B306C406D50600F5089405
:101B40002108310841085108E9A4FAA40BA51CA5F5
:101B5000AE0CBF1CC01ED11EAE14BF04C006D10601
:101B600070F0A216B306C406D50648F408942108FE
:101B7000310841085108AE0CBF1CC01ED11EA21A6C
:101B8000B30AC40AD50AC601B501A40193010E9493
:101B9000C32B7B018C01C601B501A40193010E94F6
:101BA000C32BC901DA013C014D01C401B3012D96DB
:101BB0002CAD3DAD4EAD5FAD2D970E94982B9B0196
:101BC000AC018701FF24EE2489A19AA1ABA1BCA19D
:101BD000A070B07057016801A82AB92ACA2ADB2A66
:101BE000A216B306C406D50600F50894610871086C
:101BF0008108910869A57AA58BA59CA5A60EB71E9C
:101C0000C81ED91EA616B706C806D90670F0A216B9
:101C1000B306C406D50648F4089461087108810823
:101C20009108A60EB71EC81ED91ED601C501821B7B
:101C3000930BA40BB50B898F9A8FAB8FBC8FD101FF
:101C40009927882784017301E82AF92A0A2B1B2B7C
:101C50004FEFA42E4FEFB42EC12CD12CAE20BF20BD
:101C6000C022D1227801002711276DA07EA08FA06D
:101C700098A44FEF5FEF60E070E064227522862247
:101C800097228DA19EA1AFA1B8A5BD018827992754
:101C900065966CAF7DAF8EAF9FAF6597C601B501FE
:101CA000A40193010E94982B61966CAF7DAF8EAF1B
:101CB0009FAF6197C601B50165962CAD3DAD4EADA8
:101CC0005FAD65970E94982B1B012C01C801B701DD
:101CD000A40193010E94982B5B016C01C801B7011C
:101CE00065962CAD3DAD4EAD5FAD65970E94982BCE
:101CF0007B018C01A6019501220D331D441D551D4C
:101D000061966CAC7DAC8EAC9FAC6197C401AA2788
:101D1000BB27280F391F4A1F5B1F2A153B054C059F
:101D20005D0548F4812C912CE1E0AE2EB12CE80C3D
:101D3000F91C0A1D1B1DCA01AA27BB2757016801F0
:101D4000A80EB91ECA1EDB1EA901332722276196E1
:101D50008CAD9DADAEADBFAD6197A070B070280FDA
:101D6000391F4A1F5B1FE98CFA8C0B8D1C8DEA14FE
:101D7000FB040C051D0570F0AE14BF04C006D106AF
:101D800069F56D8D7E8D8F8D98A16217730784071D
:101D9000950720F5DA01C9016DA07EA08FA098A457
:101DA00086199709A809B909E9A4FAA40BA51CA5E5
:101DB000AE18BF08C00AD10AEE24FF2487012817F5
:101DC00039074A075B0728F421E0E22EF12C012DA8
:101DD000112DAE18BF08C00AD10A02C0DA01C9012C
:101DE0006D8C7E8C8F8C98A0681A790A8A0A9B0A5F
:101DF000498D5A8D6B8D7C8D4A195B096C097D0963
:101E00005A016B012224332421016D8D7E8D8F8D2B
:101E100098A1661577058805990528F481E0282E94
:101E2000312C412C512C86017501E218F30804096C
:101E30001509A801970166960FAC669704C0220F9A
:101E4000331F441F551F0A94D2F7D401C30167966C
:101E50000FAC679704C0B695A795979587950A9498
:101E6000D2F7282B392B4A2B5B2B298B3A8B4B8BA8
:101E70005C8B67960FAC679704C016950795F7942F
:101E8000E7940A94D2F7ED8AFE8A0F8B188F3A896D
:101E90004B895C896E2D7E898F89988DC55ADF4F5D
:101EA000E2E10C94012CA0E0B0E0E9E5FFE00C9445
:101EB000E52BDC012B01FA019C91923008F439C129
:101EC000EB018881823008F433C1943069F48430A6
:101ED00009F02FC111969C9111978981981709F4E7
:101EE00028C1A3E8B0E025C1843009F421C18230C3
:101EF000A9F4923009F01DC19A01AD0188E0EA0110
:101F00000990AE01E90109929E018150C1F7E201F9
:101F1000898111969C918923818308C1923009F4AB
:101F200007C112962D903C901397EB018A819B81FB
:101F30001496AD90BD90CD90DC901797EC80FD800D
:101F40000E811F819101281B390BB90137FF04C095
:101F500066277727621B730B603271050CF061C036
:101F6000121613066CF537014801062E04C096942C
:101F70008794779467940A94D2F721E030E040E0A8
:101F800050E004C0220F331F441F551F6A95D2F73B
:101F900021503040404050402E213F2140235123CA
:101FA000211531054105510521F021E030E040E0E7
:101FB00050E079018A01E628F728082919293CC050
:101FC000232BD1F1260E371E35014601062E04C003
:101FD00096948794779467940A94D2F721E030E03E
:101FE00040E050E004C0220F331F441F551F6A9584
:101FF000D2F721503040404050402A213B214C2113
:102000005D21211531054105510521F021E030E028
:1020100040E050E059016A01A628B728C828D9280D
:102020000BC0821593052CF01C01AA24BB2465016A
:1020300003C0EE24FF24870111969C91D2011196D2
:102040008C91981709F445C0992339F0A80197019C
:102050002A193B094C095D0906C0A60195012E19F4
:102060003F09400B510B57FD08C011823382228279
:1020700024833583468357831DC081E08183338267
:10208000228288279927DC01821B930BA40BB50BB6
:1020900084839583A683B7830DC0220F331F441F0B
:1020A000551F24833583468357838281938101970B
:1020B000938382832481358146815781DA01C90166
:1020C0000197A109B1098F5F9F4FAF4FBF4328F31D
:1020D0000BC0918333822282EA0CFB1C0C1D1D1D58
:1020E000E482F5820683178383E08083248135812F
:1020F0004681578157FF1AC0C901AA2797FDA095AD
:10210000BA2F81709070A070B07056954795379532
:102110002795822B932BA42BB52B84839583A683A1
:10212000B78382819381019693838283DF0101C00B
:10213000D201CD01CDB7DEB7E2E10C94012CA0E2D3
:10214000B0E0E5EAF0E10C94F12B69837A838B83AC
:102150009C832D833E834F835887E9E0EE2EF12C3C
:10216000EC0EFD1ECE010196B7010E94B0138E0148
:102170000F5E1F4FCE010596B8010E94B0138A89E9
:1021800091E089278A8BC701B801AE01475E5F4F96
:102190000E94530F0E94DB12A096E6E00C940D2CD7
:1021A000A0E2B0E0E6EDF0E10C94F12B69837A83D4
:1021B0008B839C832D833E834F835887F9E0EF2EDA
:1021C000F12CEC0EFD1ECE010196B7010E94B0135A
:1021D0008E010F5E1F4FCE010596B8010E94B0130D
:1021E000C701B801AE01475E5F4F0E94530F0E94C6
:1021F000DB12A096E6E00C940D2CA0E2B0E0E3E048
:10220000F1E10C94E52B69837A838B839C832D8386
:102210003E834F835887CE010196BE01675F7F4F93
:102220000E94B013CE010596BE016F5E7F4F0E94E3
:10223000B0139985923088F089898230C8F0943043
:1022400019F4823051F404C0843029F4923081F4BE
:1022500083E890E0C6C0923049F420E09A858A89EC
:10226000981321E02A87CE010996BBC0823049F439
:1022700020E09A858A89981321E02A8BCE01419625
:10228000B0C02D843E844F8458886D887E888F88A6
:10229000988CEE24FF248701AA24BB24650140E02A
:1022A00050E060E070E0E0E0F0E0C101817090702B
:1022B000892BE9F0E60CF71C081D191D9A01AB01EA
:1022C0002A0D3B1D4C1D5D1D80E090E0A0E0B0E0BC
:1022D000E614F7040805190520F481E090E0A0E079
:1022E000B0E0BA01A901480F591F6A1F7B1FAA0C51
:1022F000BB1CCC1CDD1C97FE08C081E090E0A0E078
:10230000B0E0A82AB92ACA2ADB2A3196E032F105C0
:1023100049F0660C771C881C991C56944794379496
:102320002794C3CFFA85EA892B893C898B859C85C4
:10233000280F391F2E5F3F4F17C0CA018170907060
:10234000892B61F016950795F794E79480E090E06B
:10235000A0E0B0E8E82AF92A0A2B1B2B76956795AE
:10236000579547952F5F3F4F77FDE7CF0CC0440F40
:10237000551F661F771F17FD4160EE0CFF1C001FE5
:10238000111F21503040403090E0590790E069071C
:1023900090E4790760F32B8F3C8FDB01CA018F77C4
:1023A0009070A070B07080349105A105B10561F402
:1023B00047FD0AC0E114F1040105110529F0405C54
:1023C0005F4F6F4F7F4F40781A8EFE1711F081E0FC
:1023D0008A8F4D8F5E8F6F8F78A383E0898FCE01B8
:1023E00049960E94DB12A096E2E10C94012CA8E130
:1023F000B0E0EDEFF1E10C94F12B69837A838B83EC
:102400009C832D833E834F83588789E0E82EF12CEF
:10241000EC0EFD1ECE010196B7010E94B0138E0195
:102420000F5E1F4FCE010596B8010E94B01389853B
:10243000823040F08989823028F0C701B8010E94BB
:10244000281401C08FEF6896E6E00C940D2CA8E1EB
:10245000B0E0EDE2F2E10C94F12B69837A838B8397
:102460009C832D833E834F83588789E0E82EF12C8F
:10247000EC0EFD1ECE010196B7010E94B0138E0135
:102480000F5E1F4FCE010596B8010E94B0138985DB
:10249000823040F08989823028F0C701B8010E945B
:1024A000281401C08FEF6896E6E00C940D2CA8E18B
:1024B000B0E0EDE5F2E10C94F12B69837A838B8334
:1024C0009C832D833E834F83588789E0E82EF12C2F
:1024D000EC0EFD1ECE010196B7010E94B0138E01D5
:1024E0000F5E1F4FCE010596B8010E94B01389857B
:1024F000823040F08989823028F0C701B8010E94FB
:10250000281401C081E06896E6E00C940D2CACE044
:10251000B0E0EDE8F2E10C94F52B69837A838B83CC
:102520009C83CE010196BE016B5F7F4F0E94B0136A
:102530008D81823061F1823050F1843021F48E81BE
:10254000882351F12EC02F81388537FD20C06E8140
:102550002F3131051CF06623F9F023C08EE190E0A5
:10256000821B930B29853A854B855C8504C0569563
:102570004795379527958A95D2F76623B1F0509500
:102580004095309521953F4F4F4F5F4F0EC020E053
:1025900030E040E050E009C02FEF3FEF4FEF5FE742
:1025A00004C020E030E040E050E8B901CA012C96B8
:1025B000E2E00C94112CDF92EF92FF920F931F93A5
:1025C000FC01E480F58006811781D1808081823012
:1025D00048F480E090E0A0E1B0E0E82AF92A0A2B74
:1025E0001B2BA5C0843009F49FC0823021F4EE2457
:1025F000FF24870105C0E114F1040105110519F458
:10260000E0E0F0E096C0628173819FEF6238790765
:102610000CF05BC022E83FEF261B370B2A31310557
:102620002CF020E030E040E050E02AC0B801A701E3
:10263000022E04C076956795579547950A94D2F770
:1026400081E090E0A0E0B0E004C0880F991FAA1FCD
:10265000BB1F2A95D2F70197A109B1098E219F21AD
:10266000A023B1230097A105B10521F081E090E0FE
:10267000A0E0B0E09A01AB01282B392B4A2B5B2B51
:10268000DA01C9018F779070A070B0708034910525
:10269000A105B10539F427FF09C0205C3F4F4F4F1A
:1026A0005F4F04C0215C3F4F4F4F5F4FE0E0F0E0D1
:1026B0002030A0E03A07A0E04A07A0E45A0710F053
:1026C000E1E0F0E079018A0127C06038710564F526
:1026D000FB01E158FF4FD801C7018F779070A070C0
:1026E000B07080349105A105B10539F4E7FE0DC045
:1026F00080E490E0A0E0B0E004C08FE390E0A0E0D0
:10270000B0E0E80EF91E0A1F1B1F17FF05C0169543
:102710000795F794E794319687E016950795F79417
:10272000E7948A95D1F705C0EE24FF248701EFEFE7
:10273000F0E06E2F679566276795902F9F77D79467
:10274000DD24D7948E2F8695492F462B582F5D294F
:10275000B701CA011F910F91FF90EF90DF9008958C
:10276000FC01DB01408151812281622F6F7770E093
:10277000221F2227221F9381892F880F822B282F27
:1027800030E0991F9927991F11969C931197211555
:102790003105A9F5411551056105710511F482E076
:1027A00037C082E89FEF13969C938E9312979A01FD
:1027B000AB0167E0220F331F441F551F6A95D1F705
:1027C00083E08C930DC0220F331F441F551F1296B8
:1027D0008D919C911397019713969C938E931297CA
:1027E000203080E0380780E0480780E4580758F33D
:1027F00014962D933D934D935C93179708952F3F17
:10280000310579F4411551056105710519F484E02C
:102810008C93089564FF03C081E08C9312C01C92D6
:1028200010C02F57304013963C932E93129783E09D
:102830008C9387E0440F551F661F771F8A95D1F749
:10284000706414964D935D936D937C9317970895E0
:102850001F93DC01FB019C91923008F447C08081FA
:10286000823008F443C0943051F411961C918430A6
:1028700099F58181682F70E0611B71093FC0843038
:1028800021F0923031F48230B9F18181882389F1CD
:102890002DC011961C9111978230F1F0818118178B
:1028A000D9F412962D913C911397828193818217CE
:1028B000930794F028173907BCF014968D919D91D9
:1028C0000D90BC91A02D2481358146815781281718
:1028D00039074A075B0718F4112341F00AC0821731
:1028E0009307A407B50740F4112319F061E070E0E5
:1028F00005C06FEF7FEF02C060E070E0CB011F9179
:102900000895DF93CF93CDB7DEB767970FB6F894EE
:10291000DEBF0FBECDBF9D838C831B828C819D81CA
:10292000009719F481E08B8353C1EC81FD81848190
:10293000882391F0EC81FD818481843069F0EC8101
:10294000FD8184818B3041F0EC81FD8184818F3069
:1029500019F083E08B833CC1EC81FD818581863059
:1029600018F082E08B8334C1EC81FD8186818C304C
:1029700028F4EC81FD8187818C3018F084E08B8312
:1029800027C1EC81FD8185810E94F2159A8389839C
:10299000EC81FD8180819181A281B381EC81FD81F7
:1029A000E48129813A81BC01CD01A9012E2F0E9429
:1029B00048162FE430E03F8B2E8BEFE4F0E080816F
:1029C000382F377F3D8BEC81FD818481882F90E00B
:1029D00081709070009719F488E08C8B01C01C8A7C
:1029E0008D899C89892BEE89FF8980832FE430E0D3
:1029F0003B8B2A8BEFE4F0E08081382F3B7F398BD3
:102A0000EC81FD818481882F90E081709070009727
:102A100019F484E0888B01C0188A89899889892BE8
:102A2000EA89FB898083AFE4B0E0EFE4F0E08081E5
:102A3000282F2F73EC81FD818681882F90E0002460
:102A4000969587950794969587950794982F802D4E
:102A5000822B8C93AFE4B0E0EFE4F0E08081282F8C
:102A60002F7CEC81FD818781882F90E083709070AE
:102A700082959295907F9827807F9827822B8C93C0
:102A8000AFE4B0E0EFE4F0E08081982F9C7FEC8130
:102A9000FD8184818370892B8C93AEE4B0E0EEE4F9
:102AA000F0E08081282F277EEC81FD818481882FB2
:102AB00090E08C709070880F991F822B8C93EC8122
:102AC000FD818481282F30E03F872E878E859F856A
:102AD000009731F0EE85FF85E430F105B1F16BC070
:102AE0002CE430E03D872C872091A4013091A50192
:102AF0004091A6015091A7016091A8017091A90190
:102B00008091AA019091AB01E22FE32BE42BE52BFE
:102B1000E62BE72BE82BE92BEE2339F48091AC016F
:102B20009091AD019B878A8702C01B861A862A85F1
:102B30003B85EC85FD8531832083A9E5B0E0E9E59F
:102B4000F0E0808184608C9336C08AE490E09987BD
:102B500088872091A4013091A5014091A601509150
:102B6000A7016091A8017091A9018091AA0190919B
:102B7000AB01E22FE32BE42BE52BE62BE72BE82B35
:102B8000E92BEE2339F4E091AE01F091AF01FF8320
:102B9000EE8304C02FEF3FEF3F832E832E813F81D2
:102BA000E885F98531832083A9E5B0E0E9E5F0E027
:102BB000808180618C93AEE4B0E0EEE4F0E080814F
:102BC000982F987FEC81FD8185818770892B8C936C
:102BD0008B8167960FB6F894DEBF0FBECDBFCF9145
:102BE000DF910895DF93CF9300D000D00F92CDB73F
:102BF000DEB78B831A8219828B81282F30E03D83C8
:102C00002C838C819D818330910529F12C813D811C
:102C1000243031055CF48C819D818130910589F0EF
:102C20002C813D812230310589F024C08C819D8129
:102C300084309105A9F02C813D8125303105A9F022
:102C400019C081E090E09A83898318C088E090E001
:102C50009A83898313C080E490E09A8389830EC0AD
:102C600080E091E09A83898309C080E094E09A83B0
:102C7000898304C081E090E09A83898389819A8165
:102C80000F900F900F900F900F90CF91DF910895BC
:102C90002F923F924F925F926F927F928F929F926C
:102CA000AF92BF92CF92DF92EF92FF920F931F935A
:102CB000DF93CF93CDB7DEB765970FB6F894DEBF3D
:102CC0000FBECDBF6D877E878F87988B5A8B498BC0
:102CD0002B8B89899A899C0140E050E080E094E246
:102CE000A4EFB0E0BC01CD010E94C32BDA01C90101
:102CF00089879A87AB87BC8789859A85AB85BC8590
:102D00005C016D01EE24FF2487018D859E85AF85D2
:102D1000B8891C012D016624772443012A2D3B2DFF
:102D20004C2D5D2D6E2D7F2D802F912FA22CB32C3D
:102D3000C42CD52CE62CF72C082D192D0E94490007
:102D4000222E332E442E552E662E772E882E992E27
:102D5000A22CB32CC42CD52CE62CF72C082D192D25
:102D60002A2D3B2D4C2D5D2D6E2D7F2D802F912FEB
:102D70000F2EF8EEAF2EF02D0F2EF3E0BF2EF02D1C
:102D8000CC24DD24EE24FF2400E010E00E946E023B
:102D9000A22EB32EC42ED52EE62EF72E082F192FD5
:102DA000A982BA82CB82DC82ED82FE820F831887F1
:102DB000A980BA80CB80DC80ED80FE800F811885F1
:102DC0002A2D3B2D4C2D5D2D6E2D7F2D802F912F8B
:102DD00000E10E944401A22EB32EC42ED52EE62E71
:102DE000F72E082F192F2A2D3B2D4C2D5D2D6E2DE2
:102DF0007F2D802F912F2093A4013093A501409324
:102E0000A6015093A7016093A8017093A901809334
:102E1000AA019093AB018B89282F30E03D8B2C8B3E
:102E20008C899D89009731F02C893D8924303105AA
:102E300059F013C089819A81909581959F4F909305
:102E4000AD018093AC0109C089819A8190958195EB
:102E50009F4F9093AF018093AE0165960FB6F894A3
:102E6000DEBF0FBECDBFCF91DF911F910F91FF90BD
:102E7000EF90DF90CF90BF90AF909F908F907F901A
:102E80006F905F904F903F902F900895DF93CF9376
:102E900000D000D000D0CDB7DEB78A837C836B83AF
:102EA00019828B819C81009719F481E089831FC06E
:102EB0008A81282F30E03E832D838D819E8100976B
:102EC00031F02D813E812430310541F00EC08B81DF
:102ED0009C819093A1018093A00109C0E2EAF1E0F6
:102EE0008B819C819183808302C083E08983898167
:102EF00026960FB6F894DEBF0FBECDBFCF91DF91FF
:102F000008951F920F920FB60F9211242F933F93A3
:102F10004F935F936F937F938F939F93AF93BF93E1
:102F2000EF93FF93DF93CF93CDB7DEB7CF54D0406D
:102F3000DEBFCDBFE2EAF1E080819181009709F424
:102F40007AC22091A4013091A5014091A60150912F
:102F5000A7016091A8017091A9018091AA019091A7
:102F6000AB01E22FE32BE42BE52BE62BE72BE82B41
:102F7000E92BEE2309F41AC28091B0018DA3909140
:102F8000B1019EA3E091B201EFA3F091B301F8A7C4
:102F90008091B40189A79091B5019AA7E091B601FB
:102FA000EBA7F091B701FCA78091A4018D8F9091C0
:102FB000A5019E8FE091A601EF8FF091A701F8A3E4
:102FC0008091A80189A39091A9019AA3E091AA01F7
:102FD000EBA3F091AB01FCA38DA19D8D8917E9F4C2
:102FE000EEA1FE8DEF17C9F48FA19F8D8917A9F46B
:102FF000E8A5F8A1EF1789F489A599A1891769F4C3
:10300000EAA5FAA1EF1749F48BA59BA1891729F42A
:10301000ECA5FCA1EF1709F4C9C18091B0018D8B1B
:103020009091B1019E8BE091B201EF8BF091B301D1
:10303000F88F8091B401898F9091B5019A8FE091BA
:10304000B601EB8FF091B701FC8F81E08DA71EA632
:103050001FA618AA19AA1AAA1BAA1CAA9D89EDA51F
:103060009E0F9DABF1E0FDAF8DA99D89891708F0FA
:103070001DAEEE89FEA5EF0FEEAB81E08EAF9EA9EF
:10308000EE899E1708F01EAEFDAD8EA9F80FFFAFBA
:1030900091E021969FAF2197EFADFEA9EF1718F0B1
:1030A00021961FAE21978EAD21969FAD2197892B3A
:1030B0008EAFEFADEEABFF898FA5F80FFFAB91E0C0
:1030C00022969FAF2297EFA9FF89EF1718F022965B
:1030D0001FAE22978EAD9FA9890F23968FAF23979E
:1030E000E1E02496EFAF24972396FFAD23978FA9B5
:1030F000F81718F024961FAE249722969FAD2297BA
:103100002496EFAD24979E2B22969FAF229723966D
:10311000FFAD2397FFAB888D98A9890F88AFE1E0B9
:103120002596EFAF2597F8AD888DF81718F02596FE
:103130001FAE259722969FAD2297E8AD9E0F26964B
:103140009FAF2697F1E02796FFAF279726968FAD82
:10315000269798AD891718F027961FAE27972596C2
:10316000EFAD25972796FFAD2797EF2B2596EFAF6D
:10317000259726968FAD269788AF998DE9A99E0F42
:1031800099AFF1E02896FFAF289789AD998D8917FF
:1031900018F028961FAE28972596EFAD2597F9AD24
:1031A000EF0F2996EFAF299781E02A968FAF2A97E4
:1031B00029969FAD2997E9AD9E1718F02A961FAE64
:1031C0002A972896FFAD28972A968FAD2A97F82B35
:1031D0002896FFAF289729969FAD299799AFEA8D3A
:1031E000FAA9EF0FEAAF81E02B968FAF2B979AAD3C
:1031F000EA8D9E1718F02B961FAE2B972896FFADE1
:1032000028978AADF80F2C96FFAF2C9791E02D965A
:103210009FAF2D972C96EFAD2C97FAADEF1718F0C6
:103220002D961FAE2D972B968FAD2B972D969FAD7C
:103230002D97892B2B968FAF2B972C96EFAD2C9734
:10324000EAAFFB8D8BA9F80FFBAF91E02E969FAFF5
:103250002E97EBADFB8DEF1718F02E961FAE2E9725
:103260002B968FAD2B979BAD890F2F968FAF2F97F6
:10327000E1E06096EFAF60972F96FFAD2F978BAD93
:10328000F81718F060961FAE60972E969FAD2E9798
:103290006096EFAD60979E2B2E969FAF2E972F9640
:1032A000FFAD2F97FBAF8C8D9CA9890F8CAF2E960D
:1032B0008FAD2E97ECAD8E0F8CAF2DA93EA94FA9E7
:1032C00058AD69AD7AAD8BAD9CAD2093B001309314
:1032D000B1014093B2015093B3016093B401709374
:1032E000B5018093B6019093B701F091B001FD87CD
:1032F0008091B1018E879091B2019F87E091B301D7
:10330000E88BF091B401F98B8091B5018A8B909193
:10331000B6019B8BE091B701EC8BF091A401FD838A
:103320008091A5018E839091A6019F83E091A701D2
:10333000E887F091A801F9878091A9018A87909187
:10334000AA019B87E091AB01EC87FD858D81F81781
:1033500009F071C09E85EE819E1709F06CC0FF8553
:103360008F81F81709F067C09889E8859E1709F0E2
:1033700062C0F9898985F81709F05DC09A89EA85E4
:103380009E1709F058C0FB898B85F81709F053C0C8
:103390009C89EC859E1709F04EC0EAE4F0E080912C
:1033A000AE019091AF019183808345C01092B0012E
:1033B0001092B1011092B2011092B3011092B401B7
:1033C0001092B5011092B6011092B701E2EAF1E055
:1033D0000190F081E02D09958AE490E09C838B8335
:1033E0002091A4013091A5014091A6015091A7011F
:1033F0006091A8017091A9018091AA019091AB01FF
:10340000E22FE32BE42BE52BE62BE72BE82BE92B34
:10341000EE2339F4E091AE01F091AF01FA83E98334
:1034200004C08FEF9FEF9A83898389819A81EB8112
:10343000FC8191838083C15BDF4FDEBFCDBFCF9125
:10344000DF91FF91EF91BF91AF919F918F917F910C
:103450006F915F914F913F912F910F900FBE0F9001
:103460001F9018951F920F920FB60F9211242F9351
:103470003F934F935F936F937F938F939F93AF93FC
:10348000BF93EF93FF93DF93CF93CDB7DEB7CF54C6
:10349000D040DEBFCDBF8091A0019091A1010097E7
:1034A00009F477C22091A4013091A5014091A601B1
:1034B0005091A7016091A8017091A9018091AA0182
:1034C0009091AB01E22FE32BE42BE52BE62BE72BCE
:1034D000E82BE92BEE2309F41AC28091B8018DA3E1
:1034E0009091B9019EA3E091BA01EFA3F091BB01C5
:1034F000F8A78091BC0189A79091BD019AA7E0919E
:10350000BE01EBA7F091BF01FCA78091A4018D8FB4
:103510009091A5019E8FE091A601EF8FF091A701F8
:10352000F8A38091A80189A39091A9019AA3E091A1
:10353000AA01EBA3F091AB01FCA38DA19D8D89178E
:10354000E9F4EEA1FE8DEF17C9F48FA19F8D8917C5
:10355000A9F4E8A5F8A1EF1789F489A599A189171D
:1035600069F4EAA5FAA1EF1749F48BA59BA1891785
:1035700029F4ECA5FCA1EF1709F4C9C18091B801A9
:103580008D8B9091B9019E8BE091BA01EF8BF091F8
:10359000BB01F88F8091BC01898F9091BD019A8FFA
:1035A000E091BE01EB8FF091BF01FC8F81E08DA710
:1035B0001EA61FA618AA19AA1AAA1BAA1CAA9D8988
:1035C000EDA59E0F9DABF1E0FDAF8DA99D898917FB
:1035D00008F01DAEEE89FEA5EF0FEEAB81E08EAFD9
:1035E0009EA9EE899E1708F01EAEFDAD8EA9F80FBC
:1035F000FFAF91E021969FAF2197EFADFEA9EF17A6
:1036000018F021961FAE21978EAD21969FAD219780
:10361000892B8EAFEFADEEABFF898FA5F80FFFAB17
:1036200091E022969FAF2297EFA9FF89EF1718F03C
:1036300022961FAE22978EAD9FA9890F23968FAF3A
:103640002397E1E02496EFAF24972396FFAD2397CD
:103650008FA9F81718F024961FAE249722969FADD5
:1036600022972496EFAD24979E2B22969FAF229708
:103670002396FFAD2397FFAB888D98A9890F88AF5C
:10368000E1E02596EFAF2597F8AD888DF81718F093
:1036900025961FAE259722969FAD2297E8AD9E0FE7
:1036A00026969FAF2697F1E02796FFAF279726969D
:1036B0008FAD269798AD891718F027961FAE2797DC
:1036C0002596EFAD25972796FFAD2797EF2B2596EB
:1036D000EFAF259726968FAD269788AF998DE9A9EC
:1036E0009E0F99AFF1E02896FFAF289789AD998D8D
:1036F000891718F028961FAE28972596EFAD2597C5
:10370000F9ADEF0F2996EFAF299781E02A968FAF99
:103710002A9729969FAD2997E9AD9E1718F02A960A
:103720001FAE2A972896FFAD28972A968FAD2A9725
:10373000F82B2896FFAF289729969FAD299799AF28
:10374000EA8DFAA9EF0FEAAF81E02B968FAF2B97A6
:103750009AADEA8D9E1718F02B961FAE2B972896E0
:10376000FFAD28978AADF80F2C96FFAF2C9791E00C
:103770002D969FAF2D972C96EFAD2C97FAADEF17A6
:1037800018F02D961FAE2D972B968FAD2B972D965B
:103790009FAD2D97892B2B968FAF2B972C96EFAD46
:1037A0002C97EAAFFB8D8BA9F80FFBAF91E02E961B
:1037B0009FAF2E97EBADFB8DEF1718F02E961FAE37
:1037C0002E972B968FAD2B979BAD890F2F968FAF92
:1037D0002F97E1E06096EFAF60972F96FFAD2F97A0
:1037E0008BADF81718F060961FAE60972E969FADC0
:1037F0002E976096EFAD60979E2B2E969FAF2E97DB
:103800002F96FFAD2F97FBAF8C8D9CA9890F8CAFA6
:103810002E968FAD2E97ECAD8E0F8CAF2DA93EA9B5
:103820004FA958AD69AD7AAD8BAD9CAD2093B80171
:103830003093B9014093BA015093BB016093BC012E
:103840007093BD018093BE019093BF01F091B801C8
:10385000FD878091B9018E879091BA019F87E09191
:10386000BB01E88BF091BC01F98B8091BD018A8B83
:103870009091BE019B8BE091BF01EC8BF091A40174
:10388000FD838091A5018E839091A6019F83E09195
:10389000A701E887F091A801F9878091A9018A879B
:1038A0009091AA019B87E091AB01EC87FD858D810A
:1038B000F81709F06EC09E85EE819E1709F069C069
:1038C000FF858F81F81709F064C09889E8859E17F5
:1038D00009F05FC0F9898985F81709F05AC09A89FB
:1038E000EA859E1709F055C0FB898B85F81709F00A
:1038F00050C09C89EC859E1709F04BC0ECE4F0E0C9
:103900008091AC019091AD019183808342C010926F
:10391000B8011092B9011092BA011092BB01109235
:10392000BC011092BD011092BE011092BF01E09146
:10393000A001F091A10109958CE490E09C838B8318
:103940002091A4013091A5014091A6015091A701B9
:103950006091A8017091A9018091AA019091AB0199
:10396000E22FE32BE42BE52BE62BE72BE82BE92BCF
:10397000EE2339F4E091AC01F091AD01FA83E983D3
:1039800002C01A82198289819A81EB81FC8191831C
:103990008083C15BDF4FDEBFCDBFCF91DF91FF9151
:1039A000EF91BF91AF919F918F917F916F915F91B7
:1039B0004F913F912F910F900FBE0F901F90189530
:1039C000DF93CF93CDB7DEB7EAE3F0E08FE08083FB
:1039D000E7E3F0E081E08083E4E3F0E08FEF8083D1
:1039E000E1E3F0E08FEF8083EBE3F0E080EF8083B2
:1039F000E8E3F0E01082E5E3F0E01082E2E3F0E0DB
:103A00001082CF91DF910895DF93CF9300D000D043
:103A100000D0CDB7DEB78A836B834C8319828A814D
:103A2000843018F081E08983B8C08B81883018F029
:103A300082E08983B2C08C81882331F08C8181300F
:103A400019F083E08983A9C08A81282F30E03E8362
:103A50002D836D817E8161307105D1F18D819E81D3
:103A60008230910534F42D813E812115310571F0AC
:103A700094C06D817E816230710509F44BC08D81E7
:103A80009E818330910509F467C087C0AAE3B0E046
:103A9000EAE3F0E08081482F8B81282F30E081E03D
:103AA00090E002C0880F991F2A95E2F7809548237D
:103AB0008C81282F30E08B81882F90E0B90102C0E3
:103AC000660F771F8A95E2F7CB01842B8C9365C034
:103AD000A7E3B0E0E7E3F0E08081482F8B81282F57
:103AE00030E081E090E002C0880F991F2A95E2F74C
:103AF000809548238C81282F30E08B81882F90E09F
:103B0000B90102C0660F771F8A95E2F7CB01842BBB
:103B10008C9343C0A4E3B0E0E4E3F0E08081482F5D
:103B20008B81282F30E081E090E002C0880F991F40
:103B30002A95E2F7809548238C81282F30E08B81ED
:103B4000882F90E0B90102C0660F771F8A95E2F7CF
:103B5000CB01842B8C9321C0A1E3B0E0E1E3F0E042
:103B60008081482F8B81282F30E081E090E002C0D7
:103B7000880F991F2A95E2F7809548238C81282F7A
:103B800030E08B81882F90E0B90102C0660F771F6B
:103B90008A95E2F7CB01842B8C93898126960FB608
:103BA000F894DEBF0FBECDBFCF91DF910895DF93B4
:103BB000CF9300D0CDB7DEB78A8319828A8188235C
:103BC00031F08A81813019F081E0898311C0AFE53D
:103BD000B0E0EFE5F0E08081282F2F778A81882FF1
:103BE00090E09695982F882797958795822B8C93B0
:103BF00089810F900F90CF91DF910895DF93CF933C
:103C000000D000D000D0CDB7DEB78A836B834C8361
:103C100019828A81843018F081E08983B8C08B8151
:103C2000883018F082E08983B2C08C81813031F015
:103C30008C81882319F083E08983A9C08A81282F89
:103C400030E03E832D836D817E8161307105D1F13D
:103C50008D819E818230910534F42D813E81211524
:103C6000310571F094C06D817E816230710509F477
:103C70004BC08D819E818330910509F467C087C058
:103C8000ABE3B0E0EBE3F0E08081482F8B81282F9D
:103C900030E081E090E002C0880F991F2A95E2F79A
:103CA000809548238C81282F30E08B81882F90E0ED
:103CB000B90102C0660F771F8A95E2F7CB01842B0A
:103CC0008C9365C0A8E3B0E0E8E3F0E08081482F82
:103CD0008B81282F30E081E090E002C0880F991F8F
:103CE0002A95E2F7809548238C81282F30E08B813C
:103CF000882F90E0B90102C0660F771F8A95E2F71E
:103D0000CB01842B8C9343C0A5E3B0E0E5E3F0E066
:103D10008081482F8B81282F30E081E090E002C025
:103D2000880F991F2A95E2F7809548238C81282FC8
:103D300030E08B81882F90E0B90102C0660F771FB9
:103D40008A95E2F7CB01842B8C9321C0A2E3B0E0EB
:103D5000E2E3F0E08081482F8B81282F30E081E082
:103D600090E002C0880F991F2A95E2F780954823BA
:103D70008C81282F30E08B81882F90E0B90102C020
:103D8000660F771F8A95E2F7CB01842B8C9389818C
:103D900026960FB6F894DEBF0FBECDBFCF91DF9150
:103DA0000895DF93CF9300D000D00F92CDB7DEB748
:103DB0008A836B8319828A81843018F081E0898339
:103DC00032C08A81282F30E03D832C838C819D81F5
:103DD00081309105D1F02C813D81223031052CF4C8
:103DE0008C819D81009761F01EC02C813D81223025
:103DF000310581F08C819D818330910581F013C064
:103E0000EBE3F0E08B8180830EC0E8E3F0E08B8190
:103E1000808309C0E5E3F0E08B81808304C0E2E3A6
:103E2000F0E08B81808389810F900F900F900F902D
:103E30000F90CF91DF910895DF93CF93CDB7DEB789
:103E40002B970FB6F894DEBF0FBECDBF8A836B836E
:103E50005D834C8319828A81843018F081E08983E4
:103E60009EC08B81883018F082E0898398C08C8155
:103E70009D81009719F484E0898391C08A81282F5D
:103E800030E03B872A874A855B8541305105A1F1A7
:103E90008A859B858230910534F42A853B852115DE
:103EA000310571F07CC04A855B854230510509F4CB
:103EB0003FC08A859B858330910509F455C06FC04A
:103EC000E9E3F0E08081282F30E08B81882F90E0BB
:103ED000A90102C0559547958A95E2F7CA018170FC
:103EE0009070882319F051E0598701C01986EC8140
:103EF000FD818985808353C0E6E3F0E08081282F2F
:103F000030E08B81882F90E0A90102C0559547953C
:103F10008A95E2F7CA0181709070882319F051E008
:103F2000588701C01886EC81FD818885808337C061
:103F3000E3E3F0E08081282F30E08B81882F90E050
:103F4000A90102C0559547958A95E2F7CA0181708B
:103F50009070882319F051E05F8301C01F82EC81CB
:103F6000FD818F8180831BC0E0E3F0E08081282FFA
:103F700030E08B81882F90E0A90102C055954795CC
:103F80008A95E2F7CA0181709070882319F051E098
:103F90005E8301C01E82EC81FD818E8180838981D8
:103FA0002B960FB6F894DEBF0FBECDBFCF91DF9139
:103FB0000895DF93CF9300D000D000D0CDB7DEB707
:103FC0008A837C836B8319828A81843018F081E034
:103FD000898341C08B819C81009719F484E0898397
:103FE0003AC08A81282F30E03E832D838D819E81C7
:103FF00081309105E1F02D813E81223031052CF494
:104000008D819E81009761F026C02D813E812230F6
:104010003105A1F08D819E8183309105B1F01BC0E7
:10402000E9E3F0E08081EB81FC81808314C0E6E36A
:10403000F0E08081EB81FC8180830DC0E3E3F0E060
:104040008081EB81FC81808306C0E0E3F0E0808129
:10405000EB81FC818083898126960FB6F894DEBFC0
:104060000FBECDBFCF91DF910895DF93CF9300D0E6
:1040700000D00F92CDB7DEB78A836B8319828A8115
:10408000843018F081E0898374C08B81883018F007
:1040900082E089836EC08A81282F30E03D832C83A3
:1040A0008C819D818130910549F12C813D812230A7
:1040B00031052CF48C819D81009761F05AC02C81D0
:1040C0003D812230310571F18C819D8183309105D4
:1040D000E9F14FC0ABE3B0E0EBE3F0E08081482FC3
:1040E0008B81282F30E081E090E0022E02C0880F03
:1040F000991F0A94E2F784278C933BC0A8E3B0E0B1
:10410000E8E3F0E08081482F8B81282F30E081E0C8
:1041100090E0022E02C0880F991F0A94E2F78427CC
:104120008C9327C0A5E3B0E0E5E3F0E08081482F61
:104130008B81282F30E081E090E0022E02C0880FB2
:10414000991F0A94E2F784278C9313C0A2E3B0E08E
:10415000E2E3F0E08081482F8B81282F30E081E07E
:1041600090E0022E02C0880F991F0A94E2F784277C
:104170008C9389810F900F900F900F900F90CF919B
:10418000DF910895DF93CF93CDB7DEB788E30E9428
:10419000D2208CE00E94D22081E00E94D220CF91D8
:1041A000DF910895DF93CF93CDB7DEB7E9970FB6D0
:1041B000F894DEBF0FBECDBF89AF82E060E040E083
:1041C0000E94FE1D80E090E0A0E8BFE38DAB9EABB7
:1041D000AFABB8AF6DA97EA98FA998AD20E030E054
:1041E0004AE755E40E94FD10DC01CB0189AB9AAB94
:1041F000ABABBCAB69A97AA98BA99CA920E030E044
:1042000040E85FE30E94571288232CF481E090E09D
:1042100098AB8FA73FC069A97AA98BA99CA920E078
:104220003FEF4FE757E40E94F71118164CF56DA9C0
:104230007EA98FA998AD20E030E040E251E40E94D1
:10424000FD10DC01CB01BC01CD010E944202DC016A
:10425000CB0198AB8FA70FC080E991E09EA78DA7F7
:104260008DA59EA50197F1F79EA78DA78FA598A96B
:10427000019798AB8FA78FA598A9009769F714C0ED
:1042800069A97AA98BA99CA90E944202DC01CB01F1
:1042900098AB8FA78FA598A99CA78BA78BA59CA54A
:1042A0000197F1F79CA78BA782E061E041E00E94B3
:1042B000FE1D80E090E0A0E8BFE38FA398A7A9A728
:1042C000BAA76FA178A589A59AA520E030E04AE7B2
:1042D00055E40E94FD10DC01CB018BA39CA3ADA390
:1042E000BEA36BA17CA18DA19EA120E030E040E89F
:1042F0005FE30E94571288232CF481E090E09AA398
:1043000089A33FC06BA17CA18DA19EA120E03FEFBE
:104310004FE757E40E94F71118164CF56FA178A5E6
:1043200089A59AA520E030E040E251E40E94FD100A
:10433000DC01CB01BC01CD010E944202DC01CB01BA
:104340009AA389A30FC080E991E098A38F8F8F8DE6
:1043500098A10197F1F798A38F8F89A19AA101974E
:104360009AA389A389A19AA1009769F714C06BA1A8
:104370007CA18DA19EA10E944202DC01CB019AA3E7
:1043800089A389A19AA19E8F8D8F8D8D9E8D019776
:10439000F1F79E8F8D8F83E069AD0E94D11E80E082
:1043A00090E0A0E8BFE3898F9A8FAB8FBC8F698DB7
:1043B0007A8D8B8D9C8D20E030E04AE755E40E9499
:1043C000FD10DC01CB018D8B9E8BAF8BB88F6D897F
:1043D0007E898F89988D20E030E040E85FE30E947D
:1043E000571288232CF481E090E09C8B8B8B3FC08C
:1043F0006D897E898F89988D20E03FEF4FE757E4E4
:104400000E94F71118164CF5698D7A8D8B8D9C8D55
:1044100020E030E040E251E40E94FD10DC01CB01DD
:10442000BC01CD010E944202DC01CB019C8B8B8B35
:104430000FC080E991E09A8B898B89899A890197CD
:10444000F1F79A8B898B8B899C8901979C8B8B8B3D
:104450008B899C89009769F714C06D897E898F8943
:10446000988D0E944202DC01CB019C8B8B8B8B8947
:104470009C89988B8F878F8598890197F1F7988B06
:104480008F8782E061E040E00E94FE1D80E090E0C6
:10449000A0E8BFE38B879C87AD87BE876B857C8553
:1044A0008D859E8520E030E04AE755E40E94FD10AE
:1044B000DC01CB018F839887A987BA876F817885C4
:1044C00089859A8520E030E040E85FE30E9457123A
:1044D00088232CF481E090E09E838D833FC06F8120
:1044E000788589859A8520E03FEF4FE757E40E9461
:1044F000F71118164CF56B857C858D859E8520E01F
:1045000030E040E251E40E94FD10DC01CB01BC012F
:10451000CD010E944202DC01CB019E838D830FC03E
:1045200080E991E09C838B838B819C810197F1F7DB
:104530009C838B838D819E8101979E838D838D814A
:104540009E81009769F714C06F81788589859A8567
:104550000E944202DC01CB019E838D838D819E816E
:104560009A83898389819A810197F1F79A83898354
:10457000E9960FB6F894DEBF0FBECDBFCF91DF91A5
:104580000895DF93CF93CDB7DEB7E9970FB6F894D0
:10459000DEBF0FBECDBF89AF82E060E041E00E9488
:1045A000FE1D80E090E0A0E8BFE38DAB9EABAFAB1B
:1045B000B8AF6DA97EA98FA998AD20E030E04AE799
:1045C00055E40E94FD10DC01CB0189AB9AABABAB8B
:1045D000BCAB69A97AA98BA99CA920E030E040E88E
:1045E0005FE30E94571288232CF481E090E098AB9F
:1045F0008FA73FC069A97AA98BA99CA920E03FEFAA
:104600004FE757E40E94F71118164CF56DA97EA9E3
:104610008FA998AD20E030E040E251E40E94FD1007
:10462000DC01CB01BC01CD010E944202DC01CB01C7
:1046300098AB8FA70FC080E991E09EA78DA78DA5AD
:104640009EA50197F1F79EA78DA78FA598A9019721
:1046500098AB8FA78FA598A9009769F714C069A98F
:104660007AA98BA99CA90E944202DC01CB0198ABDC
:104670008FA78FA598A99CA78BA78BA59CA5019711
:10468000F1F79CA78BA782E061E041E00E94FE1D4C
:1046900080E090E0A0E8BFE38FA398A7A9A7BAA7FE
:1046A0006FA178A589A59AA520E030E04AE755E4F6
:1046B0000E94FD10DC01CB018BA39CA3ADA3BEA384
:1046C0006BA17CA18DA19EA120E030E040E85FE3DA
:1046D0000E94571288232CF481E090E09AA389A3CA
:1046E0003FC06BA17CA18DA19EA120E03FEF4FE7D1
:1046F00057E40E94F71118164CF56FA178A589A50B
:104700009AA520E030E040E251E40E94FD10DC0177
:10471000CB01BC01CD010E944202DC01CB019AA376
:1047200089A30FC080E991E098A38F8F8F8D98A106
:104730000197F1F798A38F8F89A19AA101979AA366
:1047400089A389A19AA1009769F714C06BA17CA1E4
:104750008DA19EA10E944202DC01CB019AA389A3F4
:1047600089A19AA19E8F8D8F8D8D9E8D0197F1F7D6
:104770009E8F8D8F83E069AD0E94D11E80E090E016
:10478000A0E8BFE3898F9A8FAB8FBC8F698D7A8D3C
:104790008B8D9C8D20E030E04AE755E40E94FD10AF
:1047A000DC01CB018D8B9E8BAF8BB88F6D897E89A1
:1047B0008F89988D20E030E040E85FE30E94571237
:1047C00088232CF481E090E09C8B8B8B3FC06D891B
:1047D0007E898F89988D20E03FEF4FE757E40E9454
:1047E000F71118164CF5698D7A8D8B8D9C8D20E014
:1047F00030E040E251E40E94FD10DC01CB01BC013D
:10480000CD010E944202DC01CB019C8B8B8B0FC03F
:1048100080E991E09A8B898B89899A890197F1F7D0
:104820009A8B898B8B899C8901979C8B8B8B8B892D
:104830009C89009769F714C06D897E898F89988D4E
:104840000E944202DC01CB019C8B8B8B8B899C8963
:10485000988B8F878F8598890197F1F7988B8F8731
:1048600082E061E040E00E94FE1D80E090E0A0E870
:10487000BFE38B879C87AD87BE876B857C858D85E5
:104880009E8520E030E04AE755E40E94FD10DC01FF
:10489000CB018F839887A987BA876F8178858985AF
:1048A0009A8520E030E040E85FE30E9457128823B9
:1048B0002CF481E090E09E838D833FC06F817885EA
:1048C00089859A8520E03FEF4FE757E40E94F71172
:1048D00018164CF56B857C858D859E8520E030E033
:1048E00040E251E40E94FD10DC01CB01BC01CD018E
:1048F0000E944202DC01CB019E838D830FC080E9C0
:1049000091E09C838B838B819C810197F1F79C8341
:104910008B838D819E8101979E838D838D819E8166
:10492000009769F714C06F81788589859A850E9400
:104930004202DC01CB019E838D838D819E819A830F
:10494000898389819A810197F1F79A838983E9960E
:104950000FB6F894DEBF0FBECDBFCF91DF910895A3
:10496000DF93CF9300D000D00F92CDB7DEB78A830C
:104970006B8319828A81282F30E03D832C838C81C0
:104980009D8181309105C1F02C813D81223031051E
:104990002CF48C819D81009761F01AC02C813D819F
:1049A0002230310569F08C819D818330910561F061
:1049B0000FC08B8189830DC08B81805C898309C086
:1049C0008B818C5E898305C08B818C5A898301C061
:1049D0001982898180680E94D2200F900F900F90D9
:1049E0000F900F90CF91DF910895DF93CF930F92A7
:1049F000CDB7DEB7898389810E94C1220F90CF9104
:104A0000DF910895DF93CF9300D00F92CDB7DEB73B
:104A100089836A834B838A816B810E94B024898158
:104A20000E94C1220F900F900F90CF91DF910895B7
:104A3000DF93CF9300D00F92CDB7DEB79B838A83ED
:104A40008A819B810097D9F019820EC08981282F15
:104A500030E08A819B81FC01E20FF31F80810E947C
:104A6000F52489818F5F89838981282F30E08A81AD
:104A70009B81FC01E20FF31F8081882339F70F909F
:104A80000F900F90CF91DF910895DF93CF9300D0D7
:104A900000D0CDB7DEB79A8389836B834C838B813B
:104AA0006C810E94B02489819A810E9418250F9000
:104AB0000F900F900F90CF91DF910895AF92BF921A
:104AC000CF92DF92EF92FF920F931F93DF93CF93DA
:104AD000CDB7DEB7C656D0400FB6F894DEBF0FBED6
:104AE000CDBF29873A874B875C876D877E878F8705
:104AF000988B89859A85892B9B85892B9C85892B09
:104B00009D85892B9E85892B9F85892B9889892B4B
:104B1000882321F480E30E94F524F9C381E089838E
:104B20001A821B821C821D821E821F8218865EC30F
:104B300029813A814B815C816D817E818F8198854D
:104B4000A22EB32EC42ED52EE62EF72E082F192F07
:104B50002A2D3B2D4C2D5D2D6E2D7F2D802F912FDD
:104B600001E00E94C30129A33AA34BA35CA36DA358
:104B70007EA38FA398A729A13AA14BA15CA16DA107
:104B80007EA18FA198A502E00E94C30129A73AA7A0
:104B90004BA75CA76DA77EA78FA798AB89A199A506
:104BA000890F89AB81E089AF99A989A1981708F08D
:104BB00019AE9AA18AA5980F9AAB91E09AAF8AA9EB
:104BC0009AA1891708F01AAE89AD9AA9890F8BAFFF
:104BD00081E08CAF9BAD8AA9981708F01CAE9AAD06
:104BE0008CAD982B9AAF9BAD9AAB8BA19BA5890FEF
:104BF0008BAB81E08DAF9BA98BA1981708F01DAE00
:104C00009AAD8BA9980F9EAF91E09FAF8EAD9BA9F7
:104C1000891708F01FAE8DAD9FAD892B8DAF8EAD7E
:104C20008BAB9CA18CA5980F9CAB91E021969FAF7C
:104C300021978CA99CA1891718F021961FAE219766
:104C40008DAD9CA9890F22968FAF229781E0239684
:104C50008FAF239722969FAD22978CA9981718F0B3
:104C600023961FAE239721969FAD219723968FAD54
:104C70002397982B21969FAF219722969FAD22973D
:104C80009CAB8DA19DA5890F8DAB81E024968FAF44
:104C900024979DA98DA1981718F024961FAE2497EC
:104CA00021969FAD21978DA9980F25969FAF2597A7
:104CB00091E026969FAF269725968FAD25979DA9C3
:104CC000891718F026961FAE269724968FAD249745
:104CD00026969FAD2697892B24968FAF24972596ED
:104CE0008FAD25978DAB9EA18EA5980F9EAB91E0C1
:104CF00027969FAF27978EA99EA1891718F0279610
:104D00001FAE279724968FAD24979EA9890F2896CA
:104D10008FAF289781E029968FAF299728969FAD6E
:104D200028978EA9981718F029961FAE29972796CD
:104D30009FAD279729968FAD2997982B27969FAFE0
:104D4000279728969FAD28979EAB8FA19FA5890F87
:104D50008FAB81E02A968FAF2A979FA98FA19817D2
:104D600018F02A961FAE2A9727969FAD27978FA9EE
:104D7000980F2B969FAF2B9791E02C969FAF2C9777
:104D80002B968FAD2B979FA9891718F02C961FAEE5
:104D90002C972A968FAD2A972C969FAD2C97892B0E
:104DA0002A968FAF2A972B968FAD2B978FAB98A50E
:104DB00088A9980F98AF2A968FAD2A9798AD890F3A
:104DC00088AF89A9898F9AA99A8F8BA98B8F9CA963
:104DD0009C8F8DA98D8F9EA99E8F8FA98F8F98AD47
:104DE00098A3A984BA84CB84DC84ED84FE840F85E7
:104DF00018892A2D3B2D4C2D5D2D6E2D7F2D802F5A
:104E0000912F0F2EFAE0AF2EF02DBB24CC24DD2401
:104E1000EE24FF2400E010E00E94E308A22EB32E4F
:104E2000C42ED52EE62EF72E082F192FA98ABA8A5E
:104E3000CB8ADC8AED8AFE8A0F8B188F898D99893F
:104E4000890F2D968FAF2D9781E065968FAF65976F
:104E50002D969FAD2D97898D981718F065961FAEEA
:104E600065979A8D8A89980F2E969FAF2E9791E01D
:104E700066969FAF66972E968FAD2E979A8D89175F
:104E800018F066961FAE669765968FAD65972E965D
:104E90009FAD2E97890F67968FAF679781E06896D1
:104EA0008FAF689767969FAD67972E968FAD2E97B9
:104EB000981718F068961FAE689766969FAD66972C
:104EC00068968FAD6897982B66969FAF66976796A2
:104ED0009FAD67972E969FAF2E978B8D9B89890FDD
:104EE0002F968FAF2F9781E069968FAF69972F9696
:104EF0009FAD2F978B8D981718F069961FAE699705
:104F000066969FAD66972F968FAD2F97980F6A96EE
:104F10009FAF6A9791E06B969FAF6B976A968FAD44
:104F20006A972F969FAD2F97891718F06B961FAE33
:104F30006B9769968FAD69976B969FAD6B97892B31
:104F400069968FAF69976A968FAD6A972F968FAFE4
:104F50002F979C8D8C89980F60969FAF609791E0FA
:104F60006C969FAF6C9760968FAD60979C8D8917FC
:104F700018F06C961FAE6C9769968FAD6997609626
:104F80009FAD6097890F6D968FAF6D9781E06E969C
:104F90008FAF6E976D969FAD6D9760968FAD609752
:104FA000981718F06E961FAE6E976C969FAD6C9723
:104FB0006E968FAD6E97982B6C969FAF6C976D9693
:104FC0009FAD6D9760969FAF60978D8D9D89890F7E
:104FD00061968FAF619781E06F968FAF6F97619603
:104FE0009FAD61978D8D981718F06F961FAE6F97D4
:104FF0006C969FAD6C9761968FAD6197980FA09658
:105000009FAFA09791E0A1969FAFA197A0968FAD7B
:10501000A09761969FAD6197891718F0A1961FAE72
:10502000A1976F968FAD6F97A1969FADA197892B92
:105030006F968FAF6F97A0968FADA09761968FAF49
:1050400061979E8D8E89980F62969FAF629791E0CF
:10505000A2969FAFA29762968FAD62979E8D891799
:1050600018F0A2961FAEA2976F968FAD6F976296BB
:105070009FAD6297890FA3968FAFA39781E0A49607
:105080008FAFA497A3969FADA39762968FAD6297BB
:10509000981718F0A4961FAEA497A2969FADA2975A
:1050A000A4968FADA497982BA2969FAFA297A39694
:1050B0009FADA39762969FAF62978F8D9F89890F4F
:1050C00063968FAF639781E0A5968FAFA5976396A0
:1050D0009FAD63978F8D981718F0A5961FAEA59773
:1050E000A2969FADA29763968FAD6397980FA696F1
:1050F0009FAFA69791E0A7969FAFA797A6968FAD73
:10510000A69763969FAD6397891718F0A7961FAE71
:10511000A797A5968FADA597A7969FADA797892B23
:10512000A5968FAFA597A6968FADA69763968FAFDE
:10513000639798A1888D980F64969FAF6497A59602
:105140008FADA59764969FAD6497890F64968FAFD6
:1051500064972D968FAD2D9789832E969FAD2E97B0
:105160009A832F968FAD2F978B8360969FAD609714
:105170009C8361968FAD61978D8362969FAD629798
:105180009E8363968FAD63978F8364969FAD64977C
:105190009887A984BA84CB84DC84ED84FE840F854F
:1051A00018892A2D3B2D4C2D5D2D6E2D7F2D802FA6
:1051B000912F0F2EFAE0AF2EF02DBB24CC24DD244E
:1051C000EE24FF2400E010E00E946E02A22EB32E17
:1051D000C42ED52EE62EF72E082F192FA986BA86B3
:1051E000CB86DC86ED86FE860F87188B89859A85AF
:1051F000892B9B85892B9C85892B9D85892B9E8559
:10520000892B9F85892B9889892B882309F090CC3D
:105210005EC0A980BA80CB80DC80ED80FE800F81EB
:1052200018852A2D3B2D4C2D5D2D6E2D7F2D802F29
:10523000912F0F2EFAE0AF2EF02DBB24CC24DD24CD
:10524000EE24FF2400E010E00E94E308A22EB32E1B
:10525000C42ED52EE62EF72E082F192F2A2D3B2DE2
:105260004C2D5D2D6E2D7F2D802F912F822F805DF7
:105270000E94F524A980BA80CB80DC80ED80FE807E
:105280000F8118852A2D3B2D4C2D5D2D6E2D7F2DE8
:10529000802F912F0F2EFAE0AF2EF02DBB24CC24BF
:1052A000DD24EE24FF2400E010E00E946E02A22E16
:1052B000B32EC42ED52EE62EF72E082F192FA98235
:1052C000BA82CB82DC82ED82FE820F8318878981CD
:1052D000813009F09ECF8A81882309F09ACF8B8193
:1052E000882309F096CF8C81882309F092CF8D8195
:1052F000882309F08ECF8E81882309F08ACF8F8191
:10530000882309F086CF8885882309F082CFCA597F
:10531000DF4F0FB6F894DEBF0FBECDBFCF91DF9148
:105320001F910F91FF90EF90DF90CF90BF90AF90C3
:105330000895DF93CF9300D0CDB7DEB78A838A81FB
:1053400082958F70898389818A3050F089819AE0B3
:10535000692F0E94B72B892F8F5B0E94F52404C010
:105360008981805D0E94F5248A818F70898389817B
:105370008A3050F089819AE0692F0E94B72B892FDB
:105380008F5B0E94F52404C08981805D0E94F52412
:105390000F900F90CF91DF910895DF93CF9300D0BE
:1053A00000D00F92CDB7DEB79C838B836D838D8148
:1053B000882F90E00896880F991F880F991F880FF3
:1053C000991F8A838A810E94D22019820EC0898106
:1053D000282F30E08B819C81FC01E20FF31F80813C
:1053E0000E94C12289818F5F89838981883078F307
:1053F00080E80E94D2200F900F900F900F900F9096
:10540000CF91DF910895DF93CF93CDB7DEB781E0E1
:105410000E94D220CF91DF910895DF93CF93CDB733
:10542000DEB782E00E94D220CF91DF910895DF9312
:10543000CF9300D000D00F92CDB7DEB79D838C8381
:10544000EC81FD81108281E08B831A824BC08A81BE
:105450000E947E2A19823FC08981882F90E0FC013A
:10546000E557FE4F90819E012D5F3F4F80E0692FF1
:10547000A9010E941C1F8B81882351F50FC08981CF
:10548000882F90E0FC01E557FE4F90819E012D5F33
:105490003F4F80E0692FA9010E941C1F8B81882348
:1054A00071F34FE851E08A81882F90E09C01220F30
:1054B000331F220F331F8981882F90E0820F931FA3
:1054C000FA01E80FF91F8081EC81FD8180830EC015
:1054D00089818F5F89838981843008F4BDCF8A8177
:1054E0008F5F8A838A81843008F4B1CF0F900F9048
:1054F0000F900F900F90CF91DF910895DF93CF938E
:1055000000D000D000D0CDB7DEB78A838A81282FA3
:1055100030E081E090E0022E02C0880F991F0A94CB
:10552000E2F7809589838981882F90E0817090705F
:10553000882319F081E08E8301C01E8280E060E044
:105540004E810E94FE1D8981882F90E082709070AC
:10555000009719F081E08D8301C01D8280E061E039
:105560004D810E94FE1D8981882F90E0847090708B
:10557000009719F081E08C8301C01C8280E062E01A
:105580004C810E94FE1D8981882F90E08870907068
:10559000009719F081E08B8301C01B8280E063E0FB
:1055A0004B810E94FE1D26960FB6F894DEBF0FBEFB
:1055B000CDBFCF91DF910895DF93CF93CDB7DEB705
:1055C00081E060E041E00E94FE1D80E690E063E043
:1055D00040E00E94452580E00E94D71D1092C00146
:1055E000CF91DF910895DF93CF93CDB7DEB70E94BF
:1055F000E01C0E94C2202CED3AE284E0B9010E9436
:10560000461781E00E94D71DCF91DF910895DF9367
:10561000CF9300D000D00F92CDB7DEB719821A8297
:105620001B821C821D8281E060E00E94B024CE01BA
:1056300005960E94172A8D81882321F18D8184345B
:1056400009F18D810E94F52489819A81AB81BC8109
:105650002AE030E040E050E0BC01CD010E94982BF0
:105660009B01AC018D81882F90E0C097AA2797FD00
:10567000A095BA2F820F931FA41FB51F89839A8309
:10568000AB83BC838D81843491F689819A81AB810F
:10569000BC81BC01CD010F900F900F900F900F9027
:1056A000CF91DF910895DF93CF93CDB7DEB72C97DD
:1056B0000FB6F894DEBF0FBECDBF69877A878B87A0
:1056C0009C8789859A85AB85BC8589839A83AB83C2
:1056D000BC8384E08D8381E08E831F821886CE0197
:1056E00001960E94811481E08093C0012C960FB630
:1056F000F894DEBF0FBECDBFCF91DF910895DF9349
:10570000CF93CDB7DEB70E94F32A89E690E00E94DE
:1057100018250E94072BDC01CB01BC01CD010E94A2
:10572000532B8BE790E063E040E00E944525FFCFDC
:10573000629FD001739FF001829FE00DF11D649F75
:10574000E00DF11D929FF00D839FF00D749FF00D01
:10575000659FF00D9927729FB00DE11DF91F639FA2
:10576000B00DE11DF91FBD01CF0111240895991B52
:1057700079E004C0991F961708F0961B881F7A9548
:10578000C9F780950895A1E21A2EAA1BBB1BFD0143
:105790000DC0AA1FBB1FEE1FFF1FA217B307E40710
:1057A000F50720F0A21BB30BE40BF50B661F771F68
:1057B000881F991F1A9469F7609570958095909548
:1057C0009B01AC01BD01CF0108952F923F924F92F2
:1057D0005F926F927F928F929F92AF92BF92CF9281
:1057E000DF92EF92FF920F931F93CF93DF93CDB78A
:1057F000DEB7CA1BDB0B0FB6F894DEBF0FBECDBF02
:1058000009942A88398848885F846E847D848C84D2
:105810009B84AA84B984C884DF80EE80FD800C81DB
:105820001B81AA81B981CE0FD11D0FB6F894DEBFBE
:0C5830000FBECDBFED010895F894FFCF2E
:10583C00446F6E65202020200054696D65205661F0
:10584C006C756520286D73293A2000576169742E98
:10585C002E2E0000000000000000000001020203D8
:10586C0003030304040404040404040505050505EA
:10587C0005050505050505050505050606060606C7
:10588C0006060606060606060606060606060606AC
:10589C000606060606060606060606070707070797
:1058AC00070707070707070707070707070707077C
:1058BC00070707070707070707070707070707076C
:1058CC00070707070707070707070707070707075C
:1058DC000707070707070707070707080808080847
:1058EC00080808080808080808080808080808082C
:1058FC00080808080808080808080808080808081C
:10590C00080808080808080808080808080808080B
:10591C0008080808080808080808080808080808FB
:10592C0008080808080808080808080808080808EB
:10593C0008080808080808080808080808080808DB
:10594C0008080808080808080808080808080808CB
:10595C000808080808080808080808040506073796
:10596C0038394134353642313233432A30234400FE
:00000001FF
