:100000000C946B000C94FA040C9423050C944C058E
:100010000C9488000C9488000C9488000C94880040
:100020000C9488000C9488000C9488000C94880030
:100030000C9488000C9488000C9488000C94880020
:100040000C94A2030C9488000C9488000C948800F3
:100050000C94880007634236B79BD8A71A396856B4
:1000600018AEBAAB558C1D3CB7CC5763BD6DEDFDDA
:10007000753EF6177231BF000000803F0800000097
:10008000BE922449123EABAAAA2ABECDCCCC4C3E8D
:1000900000000080BEABAAAAAA3E00000000BF007C
:1000A0000000803F0000000000084178D3BB438778
:1000B000D1133D190E3CC3BD4282AD2B3E68EC828C
:1000C00076BED98FE1A93E4C80EFFFBE01C4FF7F11
:1000D0003F000000000011241FBECFE5D8E0DEBFC6
:1000E000CDBF10E0A0E6B0E0ECECF2E102C005907C
:1000F0000D92A238B107D9F720E0A2E8B0E001C024
:100100001D92A439B207E1F70E9404010C9464091E
:100110000C94000080918900813019F410928900BC
:10012000089581E0809389000895909387008093DB
:100130008600BC0180E090E00E94AD0620E030E047
:100140004AE754E40E94050660938200709383009E
:10015000809384009093850081E0809388000895C7
:100160004AE850E061E081E00E946F0485E990E098
:100170000E94860380E00E94900384E690E00E9443
:10018000CA02809188008130D9F58091890081115F
:100190001AC06BE00E94AE028091860090918700A9
:1001A0000E94DD026EE080E00E94AE028EE790E0E9
:1001B0000E94CA0262E181E00E94AE028DE690E0F8
:1001C0000E94CA021AC0809189008130B1F46BE0AC
:1001D00080E00E94AE026091820070918300809165
:1001E0008400909185000E94460362E181E00E94B4
:1001F000AE0280E790E00E94CA0210928800C1CF50
:1002000080E00E949003BDCF0E9489050E946D038B
:100210000E941D0280E00E9475050E94B00061509E
:10022000710920E030E00EC0DC01A20FB31F4C9139
:10023000FC01E60FF71F50815C9340832F5F3F4F17
:1002400061507109261737077CF308950F931F93A8
:10025000CF93DF938B019A01C0E0D0E00CC0F8018E
:10026000EC0FFD1F6AE070E00E942D09805D808325
:10027000862F972F2196009791F706C0F801EC0F73
:10028000FD1F80E380832196C217D307BCF3BE0114
:10029000C8010E940F01F801EC0FFD1F1082CE0172
:1002A000DF91CF911F910F9108954F925F926F92BE
:1002B0007F928F929F92AF92BF92EF92FF920F9395
:1002C0001F93CF93DF932B013C017A0189010E9498
:1002D00077064B015C01072E000C880B990B0E94DE
:1002E000AF069B01AC01C301B2010E9498052B012E
:1002F0003C0141E050E0B701C4010E942601EC013D
:100300000115110529F1F701E80FF91F8EE280832D
:10031000B801012E000C880B990B0E94AF069B01BF
:10032000AC0160E070E080E291E40E94A8079B01CC
:10033000AC01C301B2010E943B072196CE0DDF1D27
:100340000E947706DC01CB01A801BE010E942601B4
:10035000DF91CF911F910F91FF90EF90BF90AF90E1
:100360009F908F907F906F905F904F9008951F9314
:10037000CF93DF93D82F60E083E00E94D60360E044
:1003800087E00E94D6031D2F12951F70C0E011C098
:10039000EC2FF0E0612F70E00C2E02C07595679590
:1003A0000A94E2F76170E05AFF4F80810E94D60301
:1003B000CF5FC43068F361E082E00E94D6038FE92A
:1003C0009FE00197F1F700C0000060E082E00E942A
:1003D000D6038FE193E00197F1F700C00000DF70D2
:1003E000C0E011C0EC2FF0E06D2F70E00C2E02C0C9
:1003F000759567950A94E2F76170E05AFF4F808126
:100400000E94D603CF5FC43068F361E082E00E94AF
:10041000D6038FE99FE00197F1F700C0000060E08C
:1004200082E00E94D6038FE39FE10197F1F700C0BD
:100430000000DF91CF911F9108952FEF80E792E0A8
:10044000215080409040E1F700C0000082E00E940F
:10045000B70188E20E94B70181E00E94B7018FE7EF
:100460009EE30197F1F700C0000086E00E94B7010B
:100470008FE99FE00197F1F700C000008CE00E9437
:10048000B7018FE99FE00197F1F700C000000895E0
:100490001F93CF93DF93D82F61E083E00E94D603B0
:1004A00060E087E00E94D6031D2F12951F70C0E008
:1004B00011C0EC2FF0E0612F70E00C2E02C075959A
:1004C00067950A94E2F76170E05AFF4F80810E94BD
:1004D000D603CF5FC43068F361E082E00E94D603A8
:1004E0008FE99FE00197F1F700C0000060E082E033
:1004F0000E94D6038FE193E00197F1F700C000005E
:10050000DF70C0E011C0EC2FF0E06D2F70E00C2E1A
:1005100002C0759567950A94E2F76170E05AFF4F43
:1005200080810E94D603CF5FC43068F361E082E02F
:100530000E94D6038FE99FE00197F1F700C0000009
:1005400060E082E00E94D6038FE39FE10197F1F71C
:1005500000C00000DF91CF911F910895811105C067
:1005600080E8860F0E94B7010895813029F480EC5D
:10057000860F0E94B7010895823029F484E9860F1E
:100580000E94B7010895833021F484ED860F0E9404
:10059000B70108950F931F93CF938C01C0E003C060
:1005A000CF5F0E944802F801EC0FF11D808181119C
:1005B000F7CFCF911F910F910895CF93DF93AC01A7
:1005C000C1E0D0E030C0CE01880F991FCC0FDD1FF5
:1005D000CC0FDD1FCC0FDD1FC80FD91F9A01ADEC6A
:1005E000BCEC0E94410996958795969587959695BE
:1005F00087959C01220F331F880F991F880F991F21
:10060000880F991F820F931F9A01281B390BC20F65
:10061000D31F9A010E944109AC0156954795569502
:100620004795569547954115510569F629C09E0194
:10063000ADECBCEC0E9441099695879596958795FF
:10064000969587959C01220F331F880F991F880F5D
:10065000991F880F991F820F931F9E01281B390B2A
:10066000C901805D0E9448029E01ADECBCEC0E9475
:100670004109EC01D695C795D695C795D695C795EE
:10068000C130D105A1F6DF91CF910895CF93DF93CB
:10069000CDB7DEB72A970FB6F894DEBF0FBECDBF39
:1006A0001A821982FE01339628E0DF011D922A95F5
:1006B000E9F723E030E0AE014F5F5F4F0E94550144
:1006C000CE0101960E94CA022A960FB6F894DEBFA8
:1006D0000FBECDBFDF91CF91089587B1806487B9F8
:1006E00087B18F7787B987B18F7D87B986B18E7FC4
:1006F00086B986B18D7F86B986B18B7F86B986B182
:10070000886086B986B1806886B90895009731F00F
:1007100090938B0080938A0080E0089582E0089592
:10072000883070F4339903C096B1986096B997B148
:100730008F71892B87B986B1806486B980E008956E
:1007400081E008951F920F920FB60F9211242F93FC
:100750003F934F935F936F937F938F939F93AF9349
:10076000BF93EF93FF93E0918A00F0918B00309755
:1007700061F084B195B19F7090938D0080938C004F
:1007800080918C0090918D000995FF91EF91BF9120
:10079000AF919F918F917F916F915F914F913F9119
:1007A0002F910F900FBE0F901F901895282F277034
:1007B000982F969596959695803208F078C062307D
:1007C00008F077C0913011F130F09230D1F19330D0
:1007D00009F452C070C061110DC03BB381E090E0DC
:1007E00002C0880F991F2A95E2F7809583238BBB5F
:1007F00080E008953BB381E090E002C0880F991F2C
:100800002A95E2F7832B8BBB80E0089561110DC020
:1008100038B381E090E002C0880F991F2A95E2F773
:100820008095832388BB80E0089538B381E090E011
:1008300002C0880F991F2A95E2F7832B88BB80E0BE
:10084000089561110DC035B381E090E002C0880FBA
:10085000991F2A95E2F78095832385BB80E0089550
:1008600035B381E090E002C0880F991F2A95E2F726
:10087000832B85BB80E0089561110DC032B381E008
:1008800090E002C0880F991F2A95E2F78095832394
:1008900082BB80E0089532B381E090E002C0880F0F
:1008A000991F2A95E2F7832B82BB80E0089581E0AF
:1008B000089582E0089580E00895811104C08BB707
:1008C00080648BBF0895813021F48BB780688BBF23
:1008D0000895823019F48BB780628BBF0895CF934F
:1008E000833008F07FC0643008F07EC041155105A8
:1008F00009F47CC0E82FF0E0EE0FFF1FE257FF4F36
:1009000051834083813071F120F0823009F452C06C
:100910005FC0611108C095B7916095BF95B79260AF
:1009200095BFC0E05CC0613041F495B79E7F95BF34
:1009300095B7926095BFC0E052C0623041F495B760
:100940009E7F95BF95B79D7F95BFC0E048C063303F
:1009500009F040C095B7916095BF95B79D7F95BF51
:10096000C0E03DC0611108C095B7946095BF95B7D0
:10097000986095BFC0E033C0613041F495B79B7F6C
:1009800095BF95B7986095BFC0E029C0623041F42B
:1009900095B79B7F95BF95B7977F95BFC0E01FC068
:1009A0006330D1F495B7946095BF95B7977F95BFA5
:1009B000C0E015C0611105C094B7906494BFC0E059
:1009C0000EC0613059F494B79F7B94BFC0E007C05C
:1009D000C0E005C0C0E003C0C0E001C0C2E00E94AA
:1009E0005D0405C0C1E003C0C2E001C0C3E08C2FBC
:1009F000CF9108951F920F920FB60F9211242F934B
:100A00003F934F935F936F937F938F939F93AF9396
:100A1000BF93EF93FF93E0918E00F0918F0030979A
:100A200009F00995FF91EF91BF91AF919F918F913F
:100A30007F916F915F914F913F912F910F900FBEDA
:100A40000F901F9018951F920F920FB60F921124BE
:100A50002F933F934F935F936F937F938F939F93C6
:100A6000AF93BF93EF93FF93E0919000F0919100CB
:100A7000309709F00995FF91EF91BF91AF919F9148
:100A80008F917F916F915F914F913F912F910F9037
:100A90000FBE0F901F9018951F920F920FB60F92D6
:100AA00011242F933F934F935F936F937F938F9373
:100AB0009F93AF93BF93EF93FF93E0919200F091D8
:100AC0009300309709F00995FF91EF91BF91AF9195
:100AD0009F918F917F916F915F914F913F912F9156
:100AE0000F900FBE0F901F901895823070F48111F7
:100AF00005C08FB780688FBF80E00895811107C05F
:100B00008FB78F778FBF80E0089581E0089580E0F0
:100B100008958CE08ABB8FE187BB8FEF84BB81E0B7
:100B200081BB1BBA18BA8FEB85BB8CEF82BB0895D3
:100B30005058BB27AA270E94B0050C9401070E94B9
:100B4000F30638F00E94FA0620F039F49F3F19F4BA
:100B500026F40C94F0060EF4E095E7FB0C94EA06FC
:100B6000E92F0E94120758F3BA1762077307840728
:100B7000950720F079F4A6F50C9434070EF4E0956F
:100B80000B2EBA2FA02D0B01B90190010C01CA0147
:100B9000A0011124FF27591B99F0593F50F4503EF2
:100BA00068F11A16F040A22F232F342F4427585FE4
:100BB000F3CF469537952795A795F0405395C9F7FC
:100BC0007EF41F16BA0B620B730B840BBAF09150B4
:100BD000A1F0FF0FBB1F661F771F881FC2F70EC053
:100BE000BA0F621F731F841F48F487957795679526
:100BF000B795F7959E3F08F0B0CF9395880F08F012
:100C00009927EE0F9795879508950E9419060C94E1
:100C100001070E94FA0658F00E94F30640F029F4FA
:100C20005F3F29F00C94EA0651110C9435070C949F
:100C3000F0060E94120768F39923B1F3552391F34C
:100C4000951B550BBB27AA2762177307840738F03B
:100C50009F5F5F4F220F331F441FAA1FA9F335D098
:100C60000E2E3AF0E0E832D091505040E695001C4C
:100C7000CAF72BD0FE2F29D0660F771F881FBB1F06
:100C8000261737074807AB07B0E809F0BB0B802DE4
:100C9000BF01FF2793585F4F3AF09E3F510578F010
:100CA0000C94EA060C9435075F3FE4F3983ED4F3C6
:100CB000869577956795B795F7959F5FC9F7880FE4
:100CC000911D9695879597F90895E1E0660F771F36
:100CD000881FBB1F621773078407BA0720F0621BC7
:100CE000730B840BBA0BEE1F88F7E09508950E94F2
:100CF0007E066894B1110C94350708950E941A0776
:100D000088F09F5798F0B92F9927B751B0F0E1F0CC
:100D1000660F771F881F991F1AF0BA95C9F714C07C
:100D2000B13091F00E943407B1E008950C9434077B
:100D3000672F782F8827B85F39F0B93FCCF38695B5
:100D400077956795B395D9F73EF490958095709512
:100D500061957F4F8F4F9F4F0895E89409C097FB8F
:100D60003EF490958095709561957F4F8F4F9F4F82
:100D70009923A9F0F92F96E9BB279395F6958795C6
:100D800077956795B795F111F8CFFAF4BB0F11F489
:100D900060FF1BC06F5F7F4F8F4F9F4F16C0882330
:100DA00011F096E911C0772321F09EE8872F762F66
:100DB00005C0662371F096E8862F70E060E02AF0A7
:100DC0009A95660F771F881FDAF7880F9695879593
:100DD00097F9089597F99F6780E870E060E00895BB
:100DE0009FEF80EC089500240A9416161706180643
:100DF0000906089500240A9412161306140605061F
:100E00000895092E0394000C11F4882352F0BB0FAF
:100E100040F4BF2B11F460FF04C06F5F7F4F8F4F12
:100E20009F4F089557FD9058440F551F59F05F3F4D
:100E300071F04795880F97FB991F61F09F3F79F0FC
:100E400087950895121613061406551FF2CF46957E
:100E5000F1DF08C0161617061806991FF1CF869500
:100E60007105610508940895E894BB2766277727E4
:100E7000CB0197F908950E944E070C9401070E9438
:100E8000F30638F00E94FA0620F0952311F00C9436
:100E9000EA060C94F00611240C9435070E94120700
:100EA00070F3959FC1F3950F50E0551F629FF001BD
:100EB000729FBB27F00DB11D639FAA27F00DB11DD6
:100EC000AA1F649F6627B00DA11D661F829F22275F
:100ED000B00DA11D621F739FB00DA11D621F839FE6
:100EE000A00D611D221F749F3327A00D611D231FBC
:100EF000849F600D211D822F762F6A2F11249F570A
:100F000050409AF0F1F088234AF0EE0FFF1FBB1F0C
:100F1000661F771F881F91505040A9F79E3F5105CB
:100F200080F00C94EA060C9435075F3FE4F3983E9A
:100F3000D4F3869577956795B795F795E7959F5F75
:100F4000C1F7FE2B880F911D9695879597F9089507
:100F5000FA01EE0FFF1F309621053105A1F1611551
:100F6000710561F48038BFE39B0749F168949038BC
:100F7000810561F08038BFEF9B0741F099234AF566
:100F8000FF3FE1053105210519F1E8940894E79543
:100F9000D901AA2329F4AB2FBE2FF85FD0F310C0DC
:100FA000FF5F70F4A695E0F7F73950F019F0FF3ABB
:100FB00038F49F779F930DD00F9007FC90580895B9
:100FC00046F00C94F00660E070E080E89FE308953E
:100FD0004FE79F775F934F933F932F930E94A30810
:100FE0002F913F914F915F910E943B070C94000815
:100FF00029F416F00C94EA060C9434070C94F006CD
:101000000E941A07A8F39638A0F707F80F92E89401
:101010002BE33AEA48EB5FE70E9451070F920F92E9
:101020000F924DB75EB70F920E94EB08E4E5F0E037
:101030000E9432084F915F91EF91FF91E595EE1F6D
:10104000FF1F49F0FE57E0684427EE0F441FFA9552
:10105000E1F74195550B0E9465080F9007FE0C942F
:1010600059080895DF93CF931F930F93FF92EF9248
:10107000DF927B018C01689406C0DA2EEF010E949A
:101080004E07FE01E894A591259135914591559122
:10109000A6F3EF010E94B005FE019701A801DA94C2
:1010A00069F7DF90EF90FF900F911F91CF91DF9143
:1010B00008959B01AC0160E070E080E89FE30C9430
:1010C00005060C94EA060C941F090E941A07D8F32F
:1010D0009923C9F3940F511DA3F39150504094F0FC
:1010E00059F0882332F0660F771F881F91505040C7
:1010F000C1F79E3F51052CF7880F911D9695879556
:1011000097F908955F3FACF0983E9CF0BB27869519
:1011100077956795B79508F4B1609395C1F7BB0FC4
:1011200058F711F460FFE8CF6F5F7F4F8F4F9F4FED
:10113000E3CF0C94350716F00C941F090C94F006BD
:1011400068940C94EA060E941A07A8F39923C1F345
:10115000AEF3DF93CF931F930F93FF92C92FDD2739
:1011600088232AF02197660F771F881FDAF720E07F
:1011700030E040E85FEB9FE3883920F0803E38F0B4
:1011800021968F770E949905ECE7F0E004C00E9459
:101190009905E9EAF0E00E9432088B01BE01EC01FA
:1011A000FB2E6F5771097595771F880B990B0E945D
:1011B000AF0628E132E741E35FE30E944E07AF2D1F
:1011C0009801AE01FF900F911F91CF91DF910E9486
:1011D000B0050C940107FA01DC01AA0FBB1F9B01AB
:1011E000AC01BF5728F4222733274427507820C06A
:1011F000B75190F4AB2F0024469537952795011CE5
:10120000A395D2F3002071F0220F331F441FB39532
:10121000DAF30ED00C94980561307105A0E88A07C6
:10122000B94630F49B01AC01662777278827907870
:10123000309621F0208331834283538308959F3F6A
:1012400031F0915020F4879577956795B795880F81
:10125000911D9695879597F9089597FB072E16F49B
:10126000009407D077FD09D00E94500907FC05D0F3
:101270003EF4909581959F4F0895709561957F4FAD
:101280000895A29FB001B39FC001A39F700D811D5F
:101290001124911DB29F700D811D1124911D08957F
:1012A000AA1BBB1B51E107C0AA1FBB1FA617B7078C
:1012B00010F0A61BB70B881F991F5A95A9F78095A8
:0C12C0009095BC01CD010895F894FFCF7B
:1012CC0008090A0C20566F6C74203D20006D7600C6
:1012DC0020760020564F4C554D45200020202020D4
:0212EC00000000
:00000001FF
