:100000000C942A000C9447000C9447000C94470071
:100010000C9447000C9447000C9447000C94470044
:100020000C9447000C9447000C9447000C94470034
:100030000C9447000C9447000C9447000C94470024
:100040000C9447000C9447000C9447000C94470014
:100050000C94470011241FBECFE5D8E0DEBFCDBF12
:1000600010E0A0E6B0E0E6EBFBE002C005900D92E8
:10007000A439B107D9F710E0A4E9B0E001C01D929E
:10008000A639B107E1F70E942A030C94D9050C9414
:100090000000379A86B1876086B93E9A87B187B9E2
:1000A0000895FB0187B187B9369A349BFECF24B1FE
:1000B00030E03183208345B1942F80E0820F931F7D
:1000C0009183808380E0089536980895803208F007
:1000D0000895982F97708695869586958130A9F119
:1000E000813038F0823009F45CC0833009F0B0C050
:1000F00084C02AB330E0092E02C0359527950A94B2
:10010000E2F720FFA7C0662389F0613009F0A4C0A0
:100110004BB321E030E0B90102C0660F771F9A951A
:10012000E2F7CB01842B8BBB80E008954BB321E039
:1001300030E0B90102C0660F771F9A95E2F7CB0154
:10014000809584238BBB80E0089527B330E0092E8F
:1001500002C0359527950A94E2F720FF7FC06623F9
:1001600089F0613009F07CC048B321E030E0B9018A
:1001700002C0660F771F9A95E2F7CB01842B88BBEC
:1001800080E0089548B321E030E0B90102C0660F75
:10019000771F9A95E2F7CB018095842388BB80E096
:1001A000089524B330E0092E02C0359527950A94AE
:1001B000E2F720FF57C0662389F0613009F054C090
:1001C00045B321E030E0B90102C0660F771F9A9570
:1001D000E2F7CB01842B85BB80E0089545B321E095
:1001E00030E0B90102C0660F771F9A95E2F7CB01A4
:1001F0008095842385BB80E0089521B330E0092EEB
:1002000002C0359527950A94E2F720FF2FC0662398
:1002100081F0613069F542B321E030E0B90102C0FC
:10022000660F771F9A95E2F7CB01842B82BB80E0A3
:10023000089542B321E030E0B90102C0660F771F94
:100240009A95E2F7CB018095842382BB80E00895E4
:1002500080E0089582E0089580E0089582E00895A6
:1002600080E0089582E0089580E0089582E0089596
:1002700080E00895803208F00895982F9770869551
:10028000869586958130F9F0813030F0823099F191
:10029000833009F060C047C02AB330E0092E02C0A5
:1002A000359527950A94E2F720FD0FC029B330E079
:1002B000092E02C0359527950A94E2F72170FB01BB
:1002C000208380E003C080E001C082E027B330E0FB
:1002D000092E02C0359527950A94E2F720FD3DC00E
:1002E00026B330E002C0359527959A95E2F7217044
:1002F000FB012083089524B330E0092E02C0359518
:1003000027950A94E2F720FD2AC023B330E0A90123
:1003100002C0559547959A95E2F7CA018170FB0195
:10032000808380E0089521B330E0092E02C0359526
:1003300027950A94E2F720FD14C020B330E0A9010C
:1003400002C0559547959A95E2F7CA018170FB0165
:10035000808380E0089583E0089582E0089582E03C
:10036000089582E00895813051F0813028F0823084
:1003700049F0833069F409C06BBB80E0089568BB25
:1003800080E0089565BB80E0089562BB80E0089539
:1003900083E00895813061F0813028F0823069F087
:1003A0008330A9F40FC089B3FB01808380E00895F6
:1003B00086B3FB01808380E0089583B3FB018083D3
:1003C00080E0089580B3FB01808380E0089583E09E
:1003D0000895CF93C82F89E060E00E9466008AE00C
:1003E00061E00E9466006C2F617080E10E946600EF
:1003F0006C2F6695617081E10E9466006C2F669596
:100400006695617082E10E9466006C2F6695669524
:100410006695617083E10E9466006C2F62956F7033
:10042000617084E10E9466006C2F6295669567702A
:10043000617085E10E9466006C2F629566956695F5
:100440006370617086E10E9466006C2F661F6627EC
:10045000661F87E10E94660088E061E00E946600F6
:1004600088E060E00E946600CF910895CF93C82F86
:100470008AE060E00E94660089E060E00E94660019
:100480006C2F617080E10E9466006C2F6695617030
:1004900081E10E9466006C2F66956695617082E12D
:1004A0000E9466006C2F669566956695617083E183
:1004B0000E9466006C2F62956F70617084E10E94EB
:1004C00066006C2F629566956770617085E10E9489
:1004D00066006C2F6295669566956370617086E123
:1004E0000E9466006C2F661F6627661F87E10E94C8
:1004F000660088E061E00E946600000088E060E03D
:100500000E94660081E28A95F1F7000083EC99E091
:100510000197F1F700C00000CF91089580E161E0FC
:100520000E94D20381E161E00E94D20382E161E096
:100530000E94D20383E161E00E94D20384E161E082
:100540000E94D20385E161E00E94D20386E161E06E
:100550000E94D20387E161E00E94D2038AE061E059
:100560000E94D20389E061E00E94D20388E061E04A
:100570000E94D20381EE94E00197F1F700C00000E1
:1005800087E893E10197F1F700C0000088E30E943B
:1005900036028EE00E94360281E00E94360283EF2E
:1005A00091E00197F1F700C000008CE00E94360254
:1005B00008950F931F93CF93DF93062F172F883043
:1005C00070F4880F880F880F805C0E943602C02F5D
:1005D000D12F18E089910E94E9011150D9F780E8E4
:1005E0000E943602DF91CF911F910F910895CF9312
:1005F000DF93EC018881882331F021960E94E90184
:1006000089918823D9F7DF91CF9108958431A8F497
:10061000643098F4613039F0613058F0623029F07C
:10062000633041F404C090EC05C094E903C094ED3C
:1006300001C090E8890F0E943602089581E00E946F
:10064000360208958CE10E943602089588E10E94E6
:10065000360208950E9449000E948E0280E090E0D8
:100660006CE870E00E94D90281E090E064E870E0FC
:100670000E94D90282E090E06CE770E00E94D9020B
:1006800083E090E064E770E00E94D90280E064E9D2
:1006900070E00E94510080E090E061E070E00E9414
:1006A000060384E690E00E94F702C0E0D0E004E98F
:1006B00010E00F2EF2E7EF2EF0E0FF2EF02D0F2EC0
:1006C000FFE6CF2EF0E0DF2EF02D0F2EFBE6AF2E53
:1006D000F0E0BF2EF02D80E0B8010E945100809123
:1006E000940090919500C817D907A9F3009769F075
:1006F00089E090E061E070E00E94060380E090E015
:100700000E94E901C5010E94F70280919400909136
:10071000950021E08C32920768F08AE090E061E079
:1007200070E00E94060381E090E00E94E901C601AA
:100730000E94F702809194009091950022E0883504
:10074000920768F08BE090E061E070E00E940603A1
:1007500082E090E00E94E901C7010E94F7028091C7
:1007600094009091950023E08438920750F08CE03B
:1007700090E061E070E00E94060383E090E00E9458
:10078000E901C0919400D0919500A5CF83E08ABB88
:100790008FE787BB14BA11BA89E08BBB18BA15BAB8
:1007A00012BA0895803208F00895982F97708695B0
:1007B00086958695813059F1813038F0823009F480
:1007C00048C0833009F087C065C0613071F44AB316
:1007D00021E030E0B90102C0660F771F9A95E2F779
:1007E000CB01842B8ABB80E00895662309F075C095
:1007F0004AB321E030E0B90102C0660F771F9A9535
:10080000E2F7CB01809584238ABB80E008956130B4
:1008100071F447B321E030E0B90102C0660F771FE1
:100820009A95E2F7CB01842B87BB80E0089566237D
:1008300009F055C047B321E030E0B90102C0660FAE
:10084000771F9A95E2F7CB018095842387BB80E0E0
:100850000895613071F444B321E030E0B90102C081
:10086000660F771F9A95E2F7CB01842B84BB80E05B
:1008700008956623B1F544B321E030E0B90102C028
:10088000660F771F9A95E2F7CB018095842384BB8E
:1008900080E00895613071F441B321E030E0B901A6
:1008A00002C0660F771F9A95E2F7CB01842B81BBBC
:1008B00080E008956623B9F441B321E030E0B90146
:1008C00002C0660F771F9A95E2F7CB0180958423CB
:1008D00081BB80E0089582E0089580E0089580E083
:1008E000089580E0089580E00895803208F055C1B1
:1008F000982F9770869586958695813009F45AC011
:10090000813038F0823009F4A6C0833009F047C145
:10091000F3C0613041F06130A0F0623029F1633002
:1009200009F03FC134C08AB321E030E001C0220F9A
:100930009A95EAF7822B8ABB8BB3282B2BBB80E0DE
:1009400008954AB321E030E0B90102C0660F771F75
:100950009A95E2F7CB01942F982B9ABB2BB38095F5
:1009600082238BBB80E008954AB321E030E0B901D7
:1009700002C0660F771F9A95E2F7CB018095982FFA
:1009800094239ABB9BB389238BBB80E008954AB321
:1009900021E030E0B90102C0660F771F9A95E2F7B7
:1009A000CB01962F909594239ABB9BB3892B8BBB3D
:1009B00080E00895613041F06130A0F0623029F1AB
:1009C000633009F0F0C034C087B321E030E001C0EB
:1009D000220F9A95EAF7822B87BB88B3282B28BB76
:1009E00080E0089547B321E030E0B90102C0660F0E
:1009F000771F9A95E2F7CB01942F982B97BB28B3DA
:100A00008095822388BB80E0089547B321E030E0E1
:100A1000B90102C0660F771F9A95E2F7CB01809566
:100A2000982F942397BB98B3892388BB80E00895BF
:100A300047B321E030E0B90102C0660F771F9A95F5
:100A4000E2F7CB01962F9095942397BB98B3892B0F
:100A500088BB80E00895613041F06130A0F06230E1
:100A600029F1633009F0A1C034C084B321E030E043
:100A700001C0220F9A95EAF7822B84BB85B3282BFD
:100A800025BB80E0089544B321E030E0B90102C005
:100A9000660F771F9A95E2F7CB01942F982B94BBA2
:100AA00025B38095822385BB80E0089544B321E07F
:100AB00030E0B90102C0660F771F9A95E2F7CB01CB
:100AC0008095982F942394BB95B3892385BB80E0B0
:100AD000089544B321E030E0B90102C0660F771FEA
:100AE0009A95E2F7CB01962F9095942394BB95B3FA
:100AF000892B85BB80E00895613041F06130A0F022
:100B0000623029F1633009F052C034C081B321E072
:100B100030E001C0220F9A95EAF7822B81BB82B3A5
:100B2000282B22BB80E0089541B321E030E0B901D9
:100B300002C0660F771F9A95E2F7CB01942F982B8E
:100B400091BB22B38095822382BB80E0089541B39C
:100B500021E030E0B90102C0660F771F9A95E2F7F5
:100B6000CB018095982F942391BB92B3892382BBAC
:100B700080E0089541B321E030E0B90102C0660F82
:100B8000771F9A95E2F7CB01962F9095942391BB0E
:100B900092B3892B82BB80E0089581E0089580E0C4
:100BA000089584E0089584E0089584E0089584E041
:060BB0000895F894FFCF48
:100BB60080C094D4564F4C554D450020202000202F
:100BC600200020001F1F1F1F1F1F1F1F00001F1FA9
:100BD6001F1F1F1F000000001F1F1F1F0000000017
:040BE60000001F1FCD
:00000001FF
