:100000000C942A000C9447000C9447000C94470071
:100010000C9447000C9447000C9447000C94470044
:100020000C9447000C9447000C9447000C94470034
:100030000C9447000C9447000C9447000C94470024
:100040000C9447000C9447000C9447000C94470014
:100050000C94470011241FBECFE5D8E0DEBFCDBF12
:1000600010E0A0E6B0E0E8E8FAE002C005900D92EA
:10007000A037B107D9F710E0A0E7B0E001C01D92AA
:10008000A837B107E1F70E94F2020C9442050C94E4
:100090000000CF93DF93EC01888161E00E94190397
:1000A000898161E00E9419038A8161E00E9419033D
:1000B0008B8161E00E94190383EC99E00197F1F7CD
:1000C00000C00000DF91CF9108958CE690E09093FE
:1000D00071008093700028E630E030937300209325
:1000E000720024E630E0309375002093740020E61F
:1000F00030E030937700209376000E944900809191
:100100007200909173000E94490080917400909158
:1001100075000E94490080917600909177000E94BE
:10012000490008951F93CF93DF93182FEB01682F99
:10013000617088810E946F01612F6695617089816D
:100140000E946F01612F6695669561708A810E9499
:100150006F01169516951695612F61708B810E941F
:100160006F0183EC99E00197F1F700C00000DF9187
:10017000CF911F9108952F923F924F925F926F926D
:100180007F928F929F92AF92BF92CF92DF92EF9227
:10019000FF920F931F93CF93DF9300D000D0CDB782
:1001A000DEB74C01AA24BB2480E1881687E29806BA
:1001B00080E0A80680E0B80608F07AC00F2EF8EEBE
:1001C0002F2EF3E03F2EF0E04F2EF0E05F2EF02DCB
:1001D0000F2EF5E06F2E7724F02D6C0E7D1EE8EECD
:1001E0008E16E3E09E06E0E0AE06E0E0BE0660F0BC
:1001F000C501B401A20191010E9420052983C62EE8
:10020000D72EE82EF92E09C0C501B401A201910133
:100210000E942005298375016401F5E6CF16D104FB
:10022000E104F10470F0C701B60124E630E040E0DB
:1002300050E00E9420052A83C62ED72EE82EF92EE4
:1002400009C0C701B60124E630E040E050E00E945A
:1002500020052A83C701B6012AE030E040E050E0E3
:100260000E9420052B836C838E010F5F1F4F0F2E82
:10027000F0E7CF2EF0E0DF2EF02DF60161917191C5
:100280006F01F80181918F010E94920006151705F8
:10029000A1F70894811C911CA11CB11CF0E18F16E0
:1002A000F7E29F06F0E0AF06F0E0BF0609F097CF57
:1002B0000F900F900F900F90DF91CF911F910F91A2
:1002C000FF90EF90DF90CF90BF90AF909F908F9076
:1002D0007F906F905F904F903F902F900895803265
:1002E00008F00895982F97708695869586958130A9
:1002F000A9F1813038F0823009F45CC0833009F014
:10030000B0C084C02AB330E0092E02C035952795CD
:100310000A94E2F720FFA7C0662389F0613009F054
:10032000A4C04BB321E030E0B90102C0660F771FD3
:100330009A95E2F7CB01842B8BBB80E008954BB3F9
:1003400021E030E0B90102C0660F771F9A95E2F70D
:10035000CB01809584238BBB80E0089527B330E0E8
:10036000092E02C0359527950A94E2F720FF7FC039
:10037000662389F0613009F07CC048B321E030E0A9
:10038000B90102C0660F771F9A95E2F7CB01842B63
:1003900088BB80E0089548B321E030E0B90102C095
:1003A000660F771F9A95E2F7CB018095842388BB6F
:1003B00080E0089524B330E0092E02C035952795DA
:1003C0000A94E2F720FF57C0662389F0613009F0F4
:1003D00054C045B321E030E0B90102C0660F771F79
:1003E0009A95E2F7CB01842B85BB80E0089545B355
:1003F00021E030E0B90102C0660F771F9A95E2F75D
:10040000CB018095842385BB80E0089521B330E043
:10041000092E02C0359527950A94E2F720FF2FC0D8
:10042000662381F0613069F542B321E030E0B90123
:1004300002C0660F771F9A95E2F7CB01842B82BB2F
:1004400080E0089542B321E030E0B90102C0660FB8
:10045000771F9A95E2F7CB018095842382BB80E0D9
:10046000089580E0089582E0089580E0089582E094
:10047000089580E0089582E0089580E0089582E084
:10048000089580E00895803208F00895982F9770BD
:100490008695869586958130F9F0813030F08230EE
:1004A00099F1833009F060C047C02AB330E0092ECB
:1004B00002C0359527950A94E2F720FD0FC029B3B5
:1004C00030E0092E02C0359527950A94E2F7217095
:1004D000FB01208380E003C080E001C082E027B3FD
:1004E00030E0092E02C0359527950A94E2F720FDE9
:1004F0003DC026B330E002C0359527959A95E2F7C6
:100500002170FB012083089524B330E0092E02C03E
:10051000359527950A94E2F720FD2AC023B330E0F1
:10052000A90102C0559547959A95E2F7CA018170D5
:10053000FB01808380E0089521B330E0092E02C0E2
:10054000359527950A94E2F720FD14C020B330E0DA
:10055000A90102C0559547959A95E2F7CA018170A5
:10056000FB01808380E0089583E0089582E0089590
:1005700082E0089582E00895813051F0813028F0C2
:10058000823049F0833069F409C06BBB80E0089584
:1005900068BB80E0089565BB80E0089562BB80E0A1
:1005A000089583E00895813061F0813028F0823031
:1005B00069F08330A9F40FC089B3FB01808380E028
:1005C000089586B3FB01808380E0089583B3FB0127
:1005D000808380E0089580B3FB01808380E00895EC
:1005E00083E00895CF93DF930F92CDB7DEB70E94DB
:1005F000650080E163E00E94BC0311E0198380E1A3
:10060000BE016F5F7F4F0E94430289818130B9F341
:1006100080E090E00E94BB00F1CF83E08ABB8FE7CF
:1006200087BB14BA11BA89E08BBB18BA15BA12BAD3
:100630000895803208F00895982F977086958695D2
:100640008695813059F1813038F0823009F448C004
:10065000833009F087C065C0613071F44AB321E08E
:1006600030E0B90102C0660F771F9A95E2F7CB011F
:10067000842B8ABB80E00895662309F075C04AB3D5
:1006800021E030E0B90102C0660F771F9A95E2F7CA
:10069000CB01809584238ABB80E00895613071F49A
:1006A00047B321E030E0B90102C0660F771F9A9589
:1006B000E2F7CB01842B87BB80E00895662309F025
:1006C00055C047B321E030E0B90102C0660F771F83
:1006D0009A95E2F7CB018095842387BB80E008954B
:1006E000613071F444B321E030E0B90102C0660F1B
:1006F000771F9A95E2F7CB01842B84BB80E00895A5
:100700006623B1F544B321E030E0B90102C0660FC1
:10071000771F9A95E2F7CB018095842384BB80E014
:100720000895613071F441B321E030E0B90102C0B5
:10073000660F771F9A95E2F7CB01842B81BB80E08F
:1007400008956623B9F441B321E030E0B90102C055
:10075000660F771F9A95E2F7CB018095842381BBC2
:1007600080E0089582E0089580E0089580E0089593
:1007700080E0089580E00895803208F055C1982FF8
:100780009770869586958695813009F45AC0813098
:1007900038F0823009F4A6C0833009F047C1F3C0B5
:1007A000613041F06130A0F0623029F1633009F02E
:1007B0003FC134C08AB321E030E001C0220F9A95D6
:1007C000EAF7822B8ABB8BB3282B2BBB80E00895E2
:1007D0004AB321E030E0B90102C0660F771F9A9555
:1007E000E2F7CB01942F982B9ABB2BB380958223F1
:1007F0008BBB80E008954AB321E030E0B90102C02C
:10080000660F771F9A95E2F7CB018095982F942376
:100810009ABB9BB389238BBB80E008954AB321E048
:1008200030E0B90102C0660F771F9A95E2F7CB015D
:10083000962F909594239ABB9BB3892B8BBB80E01A
:100840000895613041F06130A0F0623029F16330E9
:1008500009F0F0C034C087B321E030E001C0220FBE
:100860009A95EAF7822B87BB88B3282B28BB80E0B8
:10087000089547B321E030E0B90102C0660F771F49
:100880009A95E2F7CB01942F982B97BB28B38095CC
:10089000822388BB80E0089547B321E030E0B901AE
:1008A00002C0660F771F9A95E2F7CB018095982FCB
:1008B000942397BB98B3892388BB80E0089547B3FE
:1008C00021E030E0B90102C0660F771F9A95E2F788
:1008D000CB01962F9095942397BB98B3892B88BB17
:1008E00080E00895613041F06130A0F0623029F17C
:1008F000633009F0A1C034C084B321E030E001C00E
:10090000220F9A95EAF7822B84BB85B3282B25BB4F
:1009100080E0089544B321E030E0B90102C0660FE1
:10092000771F9A95E2F7CB01942F982B94BB25B3B0
:100930008095822385BB80E0089544B321E030E0B8
:10094000B90102C0660F771F9A95E2F7CB01809537
:10095000982F942394BB95B3892385BB80E0089599
:1009600044B321E030E0B90102C0660F771F9A95C9
:10097000E2F7CB01962F9095942394BB95B3892BE6
:1009800085BB80E00895613041F06130A0F06230B5
:1009900029F1633009F052C034C081B321E030E066
:1009A00001C0220F9A95EAF7822B81BB82B3282BD4
:1009B00022BB80E0089541B321E030E0B90102C0DC
:1009C000660F771F9A95E2F7CB01942F982B91BB76
:1009D00022B38095822382BB80E0089541B321E059
:1009E00030E0B90102C0660F771F9A95E2F7CB019C
:1009F0008095982F942391BB92B3892382BB80E08A
:100A0000089541B321E030E0B90102C0660F771FBD
:100A10009A95E2F7CB01962F9095942391BB92B3D0
:100A2000892B82BB80E0089581E0089580E00895DD
:100A300084E0089584E0089584E0089584E00895B2
:100A4000A1E21A2EAA1BBB1BFD010DC0AA1FBB1FD2
:100A5000EE1FFF1FA217B307E407F50720F0A21B44
:100A6000B30BE40BF50B661F771F881F991F1A94B1
:100A700069F760957095809590959B01AC01BD01DB
:080A8000CF010895F894FFCFA7
:100A88000C0D0E0F08090A0B0405060700010203E6
:00000001FF
