S01300004156525F445249564552532E73726563AA
S11300000C942A000C9422020C9449020C94700261
S11300100C9447000C9447000C9447000C94470040
S11300200C9447000C9447000C9465030C943E0315
S11300300C9426030C9447000C9447000C9447003E
S11300400C9447000C9447000C947F010C949B0281
S11300500C94470011241FBECFE5D8E0DEBFCDBF0E
S113006011E0A0E6B0E0E4E7FDE002C005900D92E7
S1130070A233B107D9F721E0A2E3B1E001C01D9298
S1130080A534B207E1F70E941C050C94B8060C9441
S113009000000F931F93CF938C01C0E008C0F801B8
S11300A0EC0FF11D61E080810E94DF05CF5FC43059
S11300B0B0F361E0F80185810E94DF0561E0F80199
S11300C084810E94DF05CF911F910F910895CF93F2
S11300D0DF93EC0161E08D810E947B058FE19EE45A
S11300E00197F1F700C0000060E08D810E947B055C
S11300F0DF91CF9108950F931F93CF93DF93EC017A
S1130100062F10E014C0812F90E09C012C5F3F4F1C
S1130110602F70E002C0759567952A95E2F76170CB
S1130120FE01E80FF91F80810E947B051F5F1430D8
S113013050F3CE010E94670010E010C0602F70E001
S1130140012E02C0759567950A94E2F76170FE016D
S1130150E10FF11D80810E947B051F5F143070F355
S1130160CE010E946700DF91CF911F910F910895F6
S1130170CF93DF93009709F445C0EC010E94490036
S11301802FEF83EF91E0215080409040E1F700C0D1
S1130190000060E08C810E947B0568E3CE010E9430
S11301A07B008FE19EE40197F1F700C0000068E353
S11301B0CE010E947B009FEF22E587E09150204012
S11301C08040E1F700C0000068E3CE010E947B009C
S11301D061E0CE010E947B0062E0CE010E947B00C0
S11301E066E0CE010E947B006CE0CE010E947B00A1
S11301F068E2CE010E947B0060E8CE010E947B0091
S113020081E001C082E0DF91CF9108951F93CF93E5
S1130210DF93009761F0162FEC0160E08C810E945F
S11302207B05612FCE010E947B0081E001C082E04A
S1130230DF91CF911F9108951F93CF93DF93009780
S113024061F0162FEC0161E08C810E947B05612F27
S1130250CE010E947B0081E001C082E0DF91CF915A
S11302601F910895009739F1653038F5653138F5F7
S1130270623079F018F4613031F023C0633079F0E2
S1130280643099F01EC060E8640F0E94060181E0AA
S1130290089560EC640F0E94060181E0089564E90A
S11302A0640F0E94060181E0089564ED640F0E94CA
S11302B0060181E0089582E0089583E0089584E0D2
S11302C0089581E008950F931F93CF93DF938C01DA
S11302D0EB01892B61F0209729F40BC0C8010E941F
S11302E01C01219668816111F9CF81E003C082E08D
S11302F001C082E0DF91CF911F910F9108951F9269
S11303000F920FB60F9211242F933F934F935F9345
S11303106F937F938F939F93AF93BF93EF93FF93C9
S1130320E0913201F09133010995FF91EF91BF9172
S1130330AF919F918F917F916F915F914F913F9179
S11303402F910F900FBE0F901F9018950F931F932E
S1130350CF93C62F8A01813071F120F0823009F4E5
S113036053C06CC063E08AE10E941B068BB78F7B8D
S11303708BBF8AB78F7B8ABFC11104C085B78C7FBE
S113038085BF11C0C13029F485B781608D7F85BFD9
S11303900AC0C23029F485B78E7F826085BF03C04E
S11303A085B7836085BF10933501009334018BB703
S11303B080648BBF43C063E08BE10E941B068BB754
S11303C08F778BBF8AB78F778ABFC11104C085B777
S11303D0837F85BF11C0C13029F485B78460877FCE
S11303E085BF0AC0C23029F485B78B7F886085BF7A
S11303F003C085B78C6085BF109337010093360125
S11304008BB780688BBF1AC063E08AE00E941B062A
S11304108BB78F7D8BBF8AB78F7D8ABFC23021F4A3
S113042084B78F7B84BF03C084B7806484BF109378
S11304303901009338018BB780628BBFCF911F9134
S11304400F9108951F920F920FB60F9211242F93BC
S11304503F934F935F936F937F938F939F93AF9348
S1130460BF93EF93FF93E0913401F0913501099527
S1130470FF91EF91BF91AF919F918F917F916F9178
S11304805F914F913F912F910F900FBE0F901F904E
S113049018951F920F920FB60F9211242F933F932A
S11304A04F935F936F937F938F939F93AF93BF9378
S11304B0EF93FF93E0913601F09137010995FF9195
S11304C0EF91BF91AF919F918F917F916F915F91C8
S11304D04F913F912F910F900FBE0F901F90189541
S11304E01F920F920FB60F9211242F933F934F93A5
S11304F05F936F937F938F939F93AF93BF93EF9388
S1130500FF93E0913801F09139010995FF91EF9142
S1130510BF91AF919F918F917F916F915F914F9117
S11305203F912F910F900FBE0F901F9018958FB78A
S113053080688FBF08951F920F920FB60F921124F7
S11305402F933F934F935F936F937F938F939F93D7
S1130550AF93BF93EF93FF93E0E0F0E00995FF9131
S1130560EF91BF91AF919F918F917F916F915F9127
S11305704F913F912F910F900FBE0F901F901895A0
S1130580CF93DF93EC018B8183709DB1892B8DB95F
S11305908B8184709EB1892B8EB98C81882319F04C
S11305A0813029F007C08DB18F7D8DB903C08DB125
S11305B080628DB98881882319F0813069F01BC06D
S11305C08DB18F7E8DB961E08EE00E94DF0563E01E
S11305D08CE00E941B060FC061E08DE00E94DF05E5
S11305E061E08CE00E941B0661E08FE00E94DF0561
S11305F08DB180618DB98981882319F0813029F00A
S113060007C08DB1877F8DB903C08DB188608DB966
S11306108A81882319F0813029F007C08DB18B7F3E
S11306208DB903C08DB184608DB98F81811103C0F0
S11306308DB180688DB98DB180648DB9DF91CF9112
S1130640089590933B0180933A0108951F920F926D
S11306500FB60F9211248F93EF93FF93E0913A0119
S1130660F0913B01309711F08FB18083FF91EF91AE
S11306708F910F900FBE0F901F9018951F920F929D
S11306800FB60F9211242F933F934F935F936F9361
S11306907F938F939F93AF93BF93EF93FF93E091D7
S11306A03E01F0913F010995FF91EF91BF91AF9108
S11306B09F918F917F916F915F914F913F912F9176
S11306C00F900FBE0F901F9018951F920F920FB6A8
S11306D00F9211242F933F934F935F936F937F93C4
S11306E08F939F93AF93BF93EF93FF93E0913C015C
S11306F0F0913D010995FF91EF91BF91AF919F91C9
S11307008F917F916F915F914F913F912F910F90B6
S11307100FBE0F901F90189589B1876689B98AB169
S113072088618AB980B58B688F7B80BD08955F9B93
S1130730FECF2CB1FC012083089561E089E690E0AE
S11307400E94060140E061E089E690E00E943201E7
S113075060E082E10E947B0560E083E10E947B050A
S113076060E084E10E947B0560E085E10E947B05F6
S113077060E086E10E947B0560E087E10E947B05E2
S11307808091420181110CC061E08DE10E947B05E2
S113079061E08EE10E947B0581E08093420108952F
S11307A060E08DE10E947B0560E08EE10E947B05A4
S11307B010924201089561E089E690E00E940601EA
S11307C06FE670E089E690E00E9463012FEF85EA0E
S11307D09EE0215080409040E1F700C0000061E0BD
S11307E089E690E00E94060140E061E089E690E03D
S11307F00E94320165E870E089E690E00E9463019E
S113080040E062E089E690E00E94320163E970E032
S113081089E690E00E94630140E063E089E690E0AD
S11308200E9432016DE970E089E690E00E94630164
S113083040E064E089E690E00E94320167EA70E0FB
S113084089E690E00E946301089561E089E690E002
S11308500E94060140E061E089E690E00E943201D6
S113086061EB70E089E690E00E94630140E062E0A1
S113087089E690E00E94320161EC70E089E690E044
S11308800E94630140E063E089E690E00E94320147
S11308906BEC70E089E690E00E94630108950E9489
S11308A0250483E491E00E94970361E089E690E0E7
S11308B00E94060140E061E089E690E00E94320176
S11308C080914301813399F482E10E94B70568ED78
S11308D070E089E690E00E9463012FEF83EC99E0D9
S11308E0215080409040E1F700C0000024C08233D2
S11308F099F483E10E94B70567EE70E089E690E021
S11309000E9463012FEF83EC99E0215080409040D6
S1130910E1F700C000000FC063EF70E089E690E0EB
S11309200E9463012FEF83EC99E0215080409040B6
S1130930E1F700C000001092430108950E942504CD
S113094083E491E00E94970361E089E690E00E94CD
S1130950060140E061E089E690E00E943201809166
S11309604301813399F484E10E94B70568ED70E096
S113097089E690E00E9463012FEF83EC99E0215017
S113098080409040E1F700C0000014C0823391F42D
S113099085E10E94B70567EE70E089E690E00E9469
S11309A063012FEF83EC99E0215080409040E1F700
S11309B000C000001092430108950E94250483E4BE
S11309C091E00E94970361E089E690E00E940601AD
S11309D040E061E089E690E00E94320180914301A9
S11309E0813399F486E10E94B70568ED70E089E6E9
S11309F090E00E9463012FEF83EC99E02150804046
S1130A009040E1F700C0000014C0823391F487E104
S1130A100E94B70567EE70E089E690E00E946301EA
S1130A202FEF83EC99E0215080409040E1F700C023
S1130A3000001092430108950E94D60589E690E0D3
S1130A400E94B8000E9497020E948C0381E690E005
S1130A500E94C00280E690E00E9421034DE953E029
S1130A6062E080E00E94A601809142018111FCCFE6
S1130A70809160008234F9F0833479F18134A1F7F4
S1130A800E94DB0384E491E00E9497038091440177
S1130A90882351F3823339F0833341F0813341F4B5
S1130AA00E944F0405C00E949E0402C00E94DD04FF
S1130AB010924401D9CF809141018111D5CF61E0D9
S1130AC071E089E690E00E94630161E08EE10E949A
S1130AD07B0581E080934101C7CF80914001811162
S1130AE0C3CF6DE071E089E690E00E94630181E08C
S1130AF080934001B9CF8032B0F5E82FE695E695B2
S1130B00E69587706623C1F0613079F5F0E0EE0F69
S1130B10FF1FE75EFE4F0190F081E02D408121E050
S1130B2030E0B90102C0660F771F8A95E2F7CB0166
S1130B30842B808382E00895F0E0EE0FFF1FE75ED0
S1130B40FE4F0190F081E02D408121E030E0B901B9
S1130B5002C0660F771F8A95E2F7CB018095842344
S1130B60808382E0089580E0089583E008958032D0
S1130B70D8F4E82FE695E695E6958770F0E0EE0F59
S1130B80FF1FE75EFE4F0190F081E02D408121E0E0
S1130B9030E0B90102C0660F771F8A95E2F7CB01F6
S1130BA08427808382E0089580E0089580E78ABBEB
S1130BB080E887BB8CEF84BB80E681BB08958032DC
S1130BC0B0F5E82FE695E695E69587706130B1F4C7
S1130BD0F0E0EE0FFF1FE75DFE4F0190F081E02D86
S1130BE0408121E030E0B90102C0660F771F8A9589
S1130BF0E2F7CB01842B808381E00895611119C051
S1130C00F0E0EE0FFF1FE75DFE4F0190F081E02D55
S1130C10408121E030E0B90102C0660F771F8A9558
S1130C20E2F7CB0180958423808381E0089580E0FE
S1130C30089582E00895803208F096C0282F269502
S1130C40269526958770613051F138F0623009F4A9
S1130C5047C0633009F466C089C030E0220F331FF7
S1130C60F901E75DFE4F0190F081E02D608141E0E4
S1130C7050E0DA0102C0AA0FBB1F8A95E2F7CD014A
S1130C80962F982B9083F901EF5DFE4F0190F08130
S1130C90E02D908180958923808381E0089530E060
S1130CA0220F331FF901E75DFE4F0190F081E02D23
S1130CB0608141E050E0DA0102C0AA0FBB1F8A95AF
S1130CC0E2F7CD01962F982B9083F901EF5DFE4F4B
S1130CD00190F081E02D9081892B808381E008953B
S1130CE030E0220F331FF901E75DFE4F0190F081E0
S1130CF0E02D608141E050E0DA0102C0AA0FBB1F81
S1130D008A95E2F7CD018095962F98239083F90177
S1130D10EF5DFE4F0190F081E02D90818923808367
S1130D2081E0089530E0220F331FF901E75DFE4FA3
S1130D300190F081E02D608141E050E0DA0102C0D1
S1130D40AA0FBB1F8A95E2F7CD019A2F909596239F
S1130D509083F901EF5DFE4F0190F081E02D9081C9
S1130D60892B808381E0089580E0089583E00895CD
S1070D70F894FFCF21
S1130D7439000100030100000008090A0B030220E2
S1130D8457656C636F6D6520746F207468652068A3
S1130D946F6D6520002043484F534520526F6F6D9B
S1130DA43A20003129526F6F6D313A2000322952B2
S1130DB46F6F6D323A20003329526F6F6D333A20CE
S1130DC4002043484F5345206F7074696F6E3A2076
S1130DD40031296C696768743A20003229416952E8
S1130DE420636F6E643A200061697220636F6E64DD
S1130DF420646F6E6520006C6967687420646F6E8C
S1130E0465200077726F6E672063686F697365206D
S1130E1400616C61726D20737461746500636C6F3E
S1130E247365207374617465003B003800350032C7
S1130E34003B003800350032003A003700340031FA
S1050E440000A8
S9030000FC
