:020000040800F2
:1000000060060020190200082102000823020008EF
:10001000250200082702000829020008000000004D
:100020000000000000000000000000002B0200089B
:100030002D020008000000002F0200083102000815
:1000400033020008330200083302000833020008BC
:1000500033020008330200083302000833020008AC
:10006000330200083302000833020008330200089C
:10007000330200083302000833020008330200088C
:1000800033020008330200083302000800000000B9
:100090000000000000000000000000003302000823
:1000A000330200083302000833020008330200085C
:1000B000330200083302000833020008330200084C
:1000C000330200083302000833020008330200083C
:1000D0003302000833020008330200080000000069
:1000E0003302000833020008330200080000000059
:1000F00000000000000000000000000033020008C3
:100100000000000033020008330200083302000838
:1001100000000000000000000000000000000000DF
:1001200033020008330200083302000833020008DB
:100130003302000800000000000000000000000082
:100140000000000000000000000000003302000872
:1001500033020008330200083302000833020008AB
:100160003302000833020008000000000000000015
:10017000000000000000000000000000000000007F
:100180000000000033020008000000000000000032
:100190003302000800F002F800F02EF80AA090E800
:1001A000000C82448344AAF10107DA4501D100F032
:1001B00023F8AFF2090EBAE80F0013F0010F18BFD1
:1001C000FB1A43F001031847A8060000B806000018
:1001D0000023002400250026103A28BF78C1FBD850
:1001E000520728BF30C148BF0B6070471FB500F0F1
:1001F00031FB1FBD10B510BD00F031F81146FFF7FF
:10020000F5FF00F007FB00F04FF803B4FFF7F2FF33
:1002100003BC00F057F80000094880470948004730
:10022000FEE7FEE7FEE7FEE7FEE7FEE7FEE7FEE7A6
:10023000FEE7FEE704480549054A064B7047000003
:1002400001080008950100086000002060060020F9
:1002500060020020600200207047704770477546BA
:1002600000F02CF8AE4605006946534620F0070022
:10027000854618B020B5FFF7DDFFBDE820404FF000
:1002800000064FF000074FF000084FF0000BAC469F
:10029000ACE8C009ACE8C009ACE8C009ACE8C009EA
:1002A00021F007018D46704710B50446AFF300807A
:1002B0002046BDE81040FFF7A8BF00000048704787
:1002C0000000002001491820ABBEFEE72600020016
:1002D0007047000083B0029000208DF8070002985C
:1002E00000906FF46041884200F0F580FFE70098CD
:1002F0006FF4E051884200F0B980FFE70098F130D8
:10030000002852D0FFE70098802857D0FFE70098D8
:1003100090285ED0FFE70098A02865D0FFE70098FE
:10032000B0286CD0FFE70098C02873D0FFE7009892
:10033000D0287AD0FFE70098E02800F08180FFE71E
:100340000098F02800F08780FFE70098B0F5805F04
:1003500000F09580FFE70098B0F5A05F00F09A806C
:10036000FFE70098B0F5C05F00F09F80FFE70098BE
:10037000B0F5E05F00F0A480FFE70098B0F5004F13
:1003800000F0B280FFE70098B0F5204F00F0B78092
:10039000FFE70098B0F5404F00F0BC80FFE7009801
:1003A000B0F5604F00F0C180CAE043F60801C4F226
:1003B0000201086820F0F0000860C5E043F608017B
:1003C000C4F20201086820F0F000029A10430860AD
:1003D000BAE043F60801C4F20201086820F0F00018
:1003E000029A10430860AFE043F60801C4F202012C
:1003F000086820F0F000029A10430860A4E043F679
:100400000801C4F20201086820F0F000029A1043CB
:10041000086099E043F60801C4F20201086820F080
:10042000F000029A104308608EE043F60801C4F21F
:100430000201086820F0F000029A1043086083E08F
:1004400043F60801C4F20201086820F0F000029AA5
:100450001043086078E043F60801C4F2020108681E
:1004600020F0F000029A104308606DE043F60801A6
:10047000C4F20201086820F4E050086064E043F62A
:100480000801C4F20201086820F4E050029A104307
:10049000086059E043F60801C4F20201086820F43C
:1004A000E050029A104308604EE043F60801C4F29F
:1004B0000201086820F4E050029A1043086043E00B
:1004C00043F60801C4F20201086820F4E050029AE1
:1004D0001043086038E043F60801C4F202010868DE
:1004E00020F4604008602FE043F60801C4F20201E6
:1004F000086820F46040029A1043086024E043F644
:100500000801C4F20201086820F46040029A104316
:10051000086019E043F60801C4F20201086820F4FB
:100520006040029A104308600EE043F60801C4F2EE
:100530000201086820F46040029A1043086003E05A
:100540000B208DF80700FFE79DF8070003B0704708
:1005500080B587B0844609988DF81BC0ADF8181097
:100560008DF817208DF816308DF8150000208DF8C5
:1005700014009DF81B000490BDF818008001039042
:100580009DF81700000402909DF816008005019068
:100590009DF81500000600900498039908430299FD
:1005A0000843019908430099084343F60401C4F243
:1005B000020108609DF8140007B080BD84B08DF87A
:1005C0000F008DF80E108DF80D2000208DF80C0016
:1005D0009DF80F0001460291032804D0FFE702981E
:1005E000042809D011E043F60001C4F202010868B2
:1005F00040F00100086008E043F60001C4F2020187
:10060000086820F001000860FFE79DF80E00014631
:100610000191052804D0FFE70198062809D011E0D0
:1006200043F60001C4F20201086840F4803008601B
:1006300008E043F60001C4F20201086820F48030AB
:100640000860FFE79DF80D0001460091072804D0DF
:10065000FFE70098082809D011E043F60001C4F232
:100660000201086840F08070086008E043F600016D
:10067000C4F20201086820F080700860FFE79DF86E
:100680000C0004B07047000084B08DF80F00029198
:1006900000208DF807009DF80F00063801460091F4
:1006A000032828D80099DFE801F0020B141D029AF4
:1006B00043F63001C4F202010868104308601EE0EE
:1006C000029A43F63401C4F202010868104308603C
:1006D00015E0029A43F64001C4F202010868104393
:1006E00008600CE0029A43F64401C4F20201086873
:1006F0001043086003E00A208DF80700FFE79DF82B
:10070000070004B07047000083B08DF80B008DF82F
:100710000A1000208DF809009DF80B000146019198
:1007200040B1FFE70198012815D0FFE701980228A2
:1007300023D034E043F60001C4F20201086840F01F
:100740000100086043F60801C4F20201086820F0C5
:100750000300086024E043F60001C4F202010868C7
:1007600040F48030086043F60801C4F202010868D2
:10077000012262F30100086012E043F60001C4F2B6
:100780000201086840F08070086043F60801C4F276
:1007900002010868022262F30100086000E0FFE73E
:1007A0009DF80A0001460091012808D0FFE7009853
:1007B00002280DD0FFE70098032812D01AE043F674
:1007C0000001C4F20201086820F00100086012E094
:1007D00043F60001C4F20201086820F4803008608A
:1007E00009E043F60001C4F20201086820F08070BD
:1007F000086000E0FFE79DF8090003B070470000C3
:100800004EF68851CEF20001086840F4700008608E
:100810007047000080B584B00023029303936846BC
:1008200003601020C02101220192FFF791FE0221F6
:100830000846FFF769FF032005210722FFF7BEFEE8
:1008400001990620FFF720FF9020FFF743FD029853
:1008500004B080BDF1EE100A4FF6FF71C0F2C03156
:1008600020EA010040F04070E1EE100A70470000FD
:10087000800800080000002060060000D001000889
:0400000508000219D4
:00000001FF
