S00C00006D61696E2E7372656373
S11300000C946B000C9488000C9488000C94880069
S11300100C9488000C9488000C9488000C9488003C
S11300200C9488000C9488000C9488000C9488002C
S11300300C9488000C9488000C9488000C9488001C
S11300400C9488000C9488000C9488000C9488000C
S11300500C94880007634236B79BD8A71A396856B0
S113006018AEBAAB558C1D3CB7CC5763BD6DEDFDD6
S1130070753EF6177231BF000000803F0800000093
S1130080BE922449123EABAAAA2ABECDCCCC4C3E89
S113009000000080BEABAAAAAA3E00000000BF0078
S11300A00000803F0000000000084178D3BB438774
S11300B0D1133D190E3CC3BD4282AD2B3E68EC8288
S11300C076BED98FE1A93E4C80EFFFBE01C4FF7F0D
S11300D03F000000000011241FBECFE5D8E0DEBFC2
S11300E0CDBF10E0A0E6B0E0ECE8F7E102C0059077
S11300F00D92AE37B107D9F710E0AEE7B0E001C01A
S11301001D92A739B107E1F70E94CC050C94C40BEA
S11301100C940000803208F00895982F977086950B
S1130120869586958130A9F1813038F0823009F4C2
S11301305CC0833009F0B0C084C02AB330E0092E1B
S113014002C0359527950A94E2F720FFA7C06623DD
S113015089F0613009F0A4C04BB321E030E0B9016B
S113016002C0660F771F9A95E2F7CB01842B8BBBF5
S113017080E008954BB321E030E0B90102C0660F7E
S1130180771F9A95E2F7CB01809584238BBB80E09F
S1130190089527B330E0092E02C0359527950A94B7
S11301A0E2F720FF7FC0662389F0613009F07CC04C
S11301B048B321E030E0B90102C0660F771F9A9579
S11301C0E2F7CB01842B88BB80E0089548B321E09B
S11301D030E0B90102C0660F771F9A95E2F7CB01B0
S11301E08095842388BB80E0089524B330E0092EF1
S11301F002C0359527950A94E2F720FF57C066237D
S113020089F0613009F054C045B321E030E0B90110
S113021002C0660F771F9A95E2F7CB01842B85BB4A
S113022080E0089545B321E030E0B90102C0660FD3
S1130230771F9A95E2F7CB018095842385BB80E0F4
S1130240089521B330E0092E02C0359527950A940C
S1130250E2F720FF2FC0662381F0613069F542B3D5
S113026021E030E0B90102C0660F771F9A95E2F7EA
S1130270CB01842B82BB80E0089542B321E030E0BF
S1130280B90102C0660F771F9A95E2F7CB018095FA
S1130290842382BB80E0089580E0089582E008957D
S11302A080E0089582E0089580E0089582E0089552
S11302B080E0089582E0089580E00895803208F097
S11302C00895982F97708695869586958130F9F0D4
S11302D0813030F0823099F1833009F060C047C03A
S11302E02AB330E0092E02C0359527950A94E2F727
S11302F020FD0FC029B330E0092E02C035952795A3
S11303000A94E2F72170FB01208380E003C080E0BF
S113031001C082E027B330E0092E02C0359527954D
S11303200A94E2F720FD3DC026B330E002C03595C3
S113033027959A95E2F72170FB012083089524B351
S113034030E0092E02C0359527950A94E2F720FD86
S11303502AC023B330E0A90102C0559547959A9568
S1130360E2F7CA018170FB01808380E0089521B324
S113037030E0092E02C0359527950A94E2F720FD56
S113038014C020B330E0A90102C0559547959A9551
S1130390E2F7CA018170FB01808380E0089583E065
S11303A0089582E0089582E0089582E008958130FE
S11303B051F0813028F0823049F0833069F409C06B
S11303C06BBB80E0089568BB80E0089565BB80E066
S11303D0089562BB80E0089583E00895813061F060
S11303E0813028F0823069F08330A9F40FC089B3DA
S11303F0FB01808380E0089586B3FB01808380E065
S1130400089583B3FB01808380E0089580B3FB01EA
S1130410808380E0089583E00895CF93C82F682FE8
S1130420617080E10E948A006C2F6695617081E1A1
S11304300E948A006C2F66956695617082E10E9425
S11304408A00C695C695C6956C2F617083E10E949B
S11304508A00CF91089580E161E00E945A0681E10B
S113046061E00E945A0682E161E00E945A0683E13B
S113047061E00E945A0684E163E00E94FD0685E182
S113048063E00E94FD0686E163E00E94FD0687E1C9
S113049063E00E94FD0608950F931F93CF93DF93AB
S11304A00F92CDB7DEB78C01198284E1BE016F5F74
S11304B07F4F0E945E018981F801808385E1BE013E
S11304C06F5F7F4F0E945E018981880FF8019081E0
S11304D0892B808386E1BE016F5F7F4F0E945E019E
S11304E08981880F880FF8019081892B808387E1A7
S11304F0BE016F5F7F4F0E945E018981880F880F64
S1130500880FF8019081892B80830F90DF91CF9120
S11305101F910F9108956F927F928F929F92AF9245
S1130520BF92CF92DF92EF92FF920F931F93CF93DC
S1130530DF930F92CDB7DEB75C0119828091600022
S1130540882309F45FC010E07724CC24DD24C3940D
S11305500FE00F2EF1E68F2EF0E09F2EF02D662493
S11305606394E12EFF24C601012E02C0880F991F57
S11305700A94E2F7802790E00E940D02CE010196D2
S11305800E944C0289818B30F9F08C3018F487304A
S113059089F525C08D3069F08E3061F5F701EE0FD5
S11305A0FF1FEE0FFF1FE80DF91D8081F501808309
S11305B022C0F701EE0FFF1FEE0FFF1FE80DF91D1C
S11305C08181F501808317C0F701EE0FFF1FEE0F45
S11305D0FF1FE80DF91D8281F50180830CC0F7012E
S11305E0EE0FFF1FEE0FFF1FE80DF91D8381F501CC
S11305F0808301C0762C1F5F80916000181708F477
S1130600B0CF01C07724872D0F90DF91CF911F9138
S11306100F91FF90EF90DF90CF90BF90AF909F909D
S11306208F907F906F900895CF93C82F89E060E0FA
S11306300E948A008AE061E00E948A006C2F617047
S113064080E00E948A006C2F6695617081E00E94B0
S11306508A006C2F66956695617082E00E948A001C
S11306606C2F669566956695617083E00E948A009A
S11306706C2F62956F70617084E00E948A006C2F09
S1130680629566956770617085E00E948A006C2FA0
S11306906295669566956370617086E00E948A0033
S11306A06C2F661F6627661F87E00E948A0088E019
S11306B061E00E948A0088E060E00E948A00CF9195
S11306C00895CF93C82F8AE060E00E948A0089E0F1
S11306D060E00E948A006C2F617080E00E948A00B2
S11306E06C2F6695617081E00E948A006C2F66957C
S11306F06695617082E00E948A006C2F669566950B
S11307006695617083E00E948A006C2F62956F7019
S1130710617084E00E948A006C2F62956695677010
S1130720617085E00E948A006C2F629566956695DB
S11307306370617086E00E948A006C2F661F6627D2
S1130740661F87E00E948A0088E061E00E948A00B8
S1130750000088E060E00E948A0081E28A95F1F757
S1130760000083EC99E00197F1F700C00000CF91FD
S1130770089580E061E00E945A0681E061E00E94F1
S11307805A0682E061E00E945A0683E061E00E941A
S11307905A0684E061E00E945A0685E061E00E9406
S11307A05A0686E061E00E945A0687E061E00E94F2
S11307B05A068AE061E00E945A0689E061E00E94DC
S11307C05A0688E061E00E945A0681EE94E001979F
S11307D0F1F700C0000087E893E10197F1F700C04A
S11307E0000088E30E9461038EE00E94610381E0BF
S11307F00E94610383EF91E00197F1F700C00000CC
S11308008CE00E94610308950F931F93CF93DF93AD
S1130810062F172F883070F4880F880F880F805C9C
S11308200E946103C02FD12F18E089910E94140304
S11308301150D9F780E80E946103DF91CF911F9195
S11308400F910895CF93DF93EC018881882331F0D1
S113085021960E94140389918823D9F7DF91CF91BF
S113086008958431A8F4643098F4613039F061302B
S113087058F0623029F0633041F404C090EC05C0B4
S113088094E903C094ED01C090E8890F0E946103CC
S1130890089581E00E94610308958CE10E94610340
S11308A0089588E10E94610308950F931F93CF93E5
S11308B0DF93FC01208131812115310521F480E38E
S11308C00E9414032DC081E090E0CAE0D0E0AC01A6
S11308D0440F551FFC01EE0FFF1FEE0FFF1FEE0F1D
S11308E0FF1FE40FF51FC901BE010E94B00B8E0F5C
S11308F09F1F262F372F2115310549F78130910588
S113090079F00AE010E0B8010E94B00BC62FD72F8F
S1130910805D0E9414038C2F9D2F8130910599F7DF
S1130920DF91CF911F910F9108952F923F924F9293
S11309305F926F927F928F929F92AF92BF92CF926B
S1130940DF92EF92FF920F931F93CF93DF93CDB774
S1130950DEB72A970FB6F894DEBF0FBECDBF9A83D9
S11309608983509080005520D1F0DC018D919C91B9
S113097011978A30910560F006C0819191918A3077
S1130980910550F001C020E0422E9E838D8307C064
S1130990E981FA81329620E02F5F251571F7442012
S11309A009F45AC069807A80842D90E05C0108942F
S11309B0A108B1080297242D2150FC01E21BF10982
S11309C0FC83EB8322243324D3018D909D903D013D
S11309D0B501882777FD8095982F0E94F4089B0124
S11309E0AC0160E070E080E291E40E94E309698771
S11309F0072F8A87192FB10180E090E00E94F20846
S1130A006B017C01B40180E090E00E94F208F9855A
S1130A10E02F5A85412F0F2F1E2F252F342FA90188
S1130A2098010E9480099B01AC01C701B6010E9494
S1130A306208462F572F682F792FCB01BA010E94E5
S1130A40C6081B010894A108B108EB81FC81AE160D
S1130A50BF0609F0B9CF02C02224332443944514BD
S1130A6008F04EC0CC24DD24652C7724042D10E03E
S1130A70B80160957095660D771D882777FD809580
S1130A80982F0E94F4089B01AC0160E070E080E2C2
S1130A9091E40E94E309862EB72EA82E992EB60162
S1130AA080E090E00E94F2086B017C01C801880F8D
S1130AB0991F29813A81820F931FDC016D917C91EA
S1130AC080E090E00E94F208082D1B2D2A2D392D7C
S1130AD0A90198010E9480099B01AC01C701B601DC
S1130AE00E946208462F572F682F792FCB01BA0135
S1130AF00E94C6086B014394451408F4B7CF02C0A2
S1130B00CC24DD24ED81FE81EF3FF10539F4C101F0
S1130B10B6010E94B00B78876F8324C02D813E817B
S1130B202A3F310551F4C29CA001C39C500DD29CB4
S1130B30500D112458874F8315C08D819E818D3FA0
S1130B40910531F4D101AC19BD09B887AF830AC04E
S1130B50ED81FE81EB3FF10529F49601220D331D51
S1130B6038872F838F812A960FB6F894DEBF0FBE85
S1130B70CDBFDF91CF911F910F91FF90EF90DF9048
S1130B80CF90BF90AF909F908F907F906F905F9029
S1130B904F903F902F9008950E94B9030E942B021A
S1130BA005E710E0D1E0CBE00F2EF1E8CF2EF0E026
S1130BB0DF2EF02D0F2EFCE7EF2EF0E0FF2EF02DB0
S1130BC09C2C8D2C0F2EFEE7AF2EF0E0BF2EF02DC7
S1130BD07D2EC8010E94220485E06D2F0E943104FD
S1130BE010927B00C0937C0053C0C7010E948B020B
S1130BF080917C008D3061F58DE30E9414038FE4B5
S1130C0093EC0197F1F700C00000892D982D0E9404
S1130C10950480937E0010927F00C5010E945504C4
S1130C208FE39DE0A3E081509040A040E1F700C035
S1130C300000AFE4B3EC1197F1F700C0000010928C
S1130C408000C0937C0070927B000E94490420C005
S1130C508B30F1F090918000E92FF0E0EE0FFF1F50
S1130C60EC0DFD1D808311829F5F90938000805D59
S1130C700E9414038FE59AEEA0E081509040A040BA
S1130C80E1F700C00000C0937C00C7010E948B0202
S1130C9080917B00882309F09CCFA7CF83E08ABB97
S1130CA08FE787BB14BA11BA89E08BBB18BA15BA9F
S1130CB012BA0895803208F00895982F9770869597
S1130CC086958695813059F1813038F0823009F467
S1130CD048C0833009F087C065C0613071F44AB3FD
S1130CE021E030E0B90102C0660F771F9A95E2F760
S1130CF0CB01842B8ABB80E00895662309F075C07C
S1130D004AB321E030E0B90102C0660F771F9A951B
S1130D10E2F7CB01809584238ABB80E0089561309B
S1130D2071F447B321E030E0B90102C0660F771FC8
S1130D309A95E2F7CB01842B87BB80E00895662364
S1130D4009F055C047B321E030E0B90102C0660F95
S1130D50771F9A95E2F7CB018095842387BB80E0C7
S1130D600895613071F444B321E030E0B90102C068
S1130D70660F771F9A95E2F7CB01842B84BB80E042
S1130D8008956623B1F544B321E030E0B90102C00F
S1130D90660F771F9A95E2F7CB018095842384BB75
S1130DA080E00895613071F441B321E030E0B9018D
S1130DB002C0660F771F9A95E2F7CB01842B81BBA3
S1130DC080E008956623B9F441B321E030E0B9012D
S1130DD002C0660F771F9A95E2F7CB0180958423B2
S1130DE081BB80E0089582E0089580E0089580E06A
S1130DF0089580E0089580E00895803208F055C198
S1130E00982F9770869586958695813009F45AC0F7
S1130E10813038F0823009F4A6C0833009F047C12C
S1130E20F3C0613041F06130A0F0623029F16330E9
S1130E3009F03FC134C08AB321E030E001C0220F81
S1130E409A95EAF7822B8ABB8BB3282B2BBB80E0C5
S1130E5008954AB321E030E0B90102C0660F771F5C
S1130E609A95E2F7CB01942F982B9ABB2BB38095DC
S1130E7082238BBB80E008954AB321E030E0B901BE
S1130E8002C0660F771F9A95E2F7CB018095982FE1
S1130E9094239ABB9BB389238BBB80E008954AB308
S1130EA021E030E0B90102C0660F771F9A95E2F79E
S1130EB0CB01962F909594239ABB9BB3892B8BBB24
S1130EC080E00895613041F06130A0F0623029F192
S1130ED0633009F0F0C034C087B321E030E001C0D2
S1130EE0220F9A95EAF7822B87BB88B3282B28BB5D
S1130EF080E0089547B321E030E0B90102C0660FF5
S1130F00771F9A95E2F7CB01942F982B97BB28B3C0
S1130F108095822388BB80E0089547B321E030E0C8
S1130F20B90102C0660F771F9A95E2F7CB0180954D
S1130F30982F942397BB98B3892388BB80E00895A6
S1130F4047B321E030E0B90102C0660F771F9A95DC
S1130F50E2F7CB01962F9095942397BB98B3892BF6
S1130F6088BB80E00895613041F06130A0F06230C8
S1130F7029F1633009F0A1C034C084B321E030E02A
S1130F8001C0220F9A95EAF7822B84BB85B3282BE4
S1130F9025BB80E0089544B321E030E0B90102C0EC
S1130FA0660F771F9A95E2F7CB01942F982B94BB89
S1130FB025B38095822385BB80E0089544B321E066
S1130FC030E0B90102C0660F771F9A95E2F7CB01B2
S1130FD08095982F942394BB95B3892385BB80E097
S1130FE0089544B321E030E0B90102C0660F771FD1
S1130FF09A95E2F7CB01962F9095942394BB95B3E1
S1131000892B85BB80E00895613041F06130A0F008
S1131010623029F1633009F052C034C081B321E059
S113102030E001C0220F9A95EAF7822B81BB82B38C
S1131030282B22BB80E0089541B321E030E0B901C0
S113104002C0660F771F9A95E2F7CB01942F982B75
S113105091BB22B38095822382BB80E0089541B383
S113106021E030E0B90102C0660F771F9A95E2F7DC
S1131070CB018095982F942391BB92B3892382BB93
S113108080E0089541B321E030E0B90102C0660F69
S1131090771F9A95E2F7CB01962F9095942391BBF5
S11310A092B3892B82BB80E0089581E0089580E0AB
S11310B0089584E0089584E0089584E0089584E028
S11310C008955058BB27AA270ED0E0C0D1D030F0E5
S11310D0D6D020F031F49F3F11F41EF4C6C00EF4B4
S11310E0E095E7FBBCC0E92FE2D080F3BA176207B2
S11310F073078407950718F071F49EF5FAC00EF48F
S1131100E0950B2EBA2FA02D0B01B90190010C0113
S1131110CA01A0011124FF27591B99F0593F50F42B
S1131120503E68F11A16F040A22F232F342F442783
S1131130585FF3CF469537952795A795F04053957B
S1131140C9F77EF41F16BA0B620B730B840BBAF04B
S11311509150A1F0FF0FBB1F661F771F881FC2F7B6
S11311600EC0BA0F621F731F841F48F487957795CA
S11311706795B795F7959E3F08F0B3CF9395880F81
S113118008F09927EE0F97958795089598D088F0E1
S11311909F5790F0B92F9927B751A0F0D1F0660F5F
S11311A0771F881F991F1AF0BA95C9F712C0B1307A
S11311B081F09FD0B1E008959CC0672F782F8827D5
S11311C0B85F39F0B93FCCF3869577956795B395B9
S11311D0D9F73EF490958095709561957F4F8F4F28
S11311E09F4F0895E89409C097FB3EF4909580952D
S11311F0709561957F4F8F4F9F4F9923A9F0F92FD9
S113120096E9BB279395F695879577956795B79556
S1131210F111F8CFFAF4BB0F11F460FF1BC06F5F3C
S11312207F4F8F4F9F4F16C0882311F096E911C04E
S1131230772321F09EE8872F762F05C0662371F06F
S113124096E8862F70E060E02AF09A95660F771F83
S1131250881FDAF7880F9695879597F9089597F977
S11312609F6780E870E060E008959FEF80EC089548
S113127000240A9416161706180609060895002471
S11312800A9412161306140605060895092E0394EB
S1131290000C11F4882352F0BB0F40F4BF2B11F45F
S11312A060FF04C06F5F7F4F8F4F9F4F089557FDBE
S11312B09058440F551F59F05F3F71F04795880FC0
S11312C097FB991F61F09F3F79F087950895121657
S11312D013061406551FF2CF4695F1DF08C0161603
S11312E017061806991FF1CF8695710561050894B4
S11312F00895E894BB2766277727CB0197F90895CB
S11313000BD0C4CFB5DF28F0BADF18F0952309F06D
S1131310A6CFABCF1124EECFCADFA0F3959FD1F3B4
S1131320950F50E0551F629FF001729FBB27F00D8F
S1131330B11D639FAA27F00DB11DAA1F649F6627E4
S1131340B00DA11D661F829F2227B00DA11D621F33
S1131350739FB00DA11D621F839FA00D611D221FED
S1131360749F3327A00D611D231F849F600D211DD1
S1131370822F762F6A2F11249F5750408AF0E1F074
S113138088234AF0EE0FFF1FBB1F661F771F881FBD
S113139091505040A9F79E3F510570F060CFAACFFD
S11313A05F3FECF3983EDCF3869577956795B795A8
S11313B0F795E7959F5FC1F7FE2B880F911D9695D2
S11313C0879597F90895FA01EE0FFF1F30962105CE
S11313D0310599F16115710561F48038BFE39B070C
S11313E049F168949038810561F08038BFEF9B071C
S11313F041F0992342F5FF3FE1053105210511F143
S1131400E8940894E795D901AA2329F4AB2FBE2FB9
S1131410F85FD0F310C0FF5F70F4A695E0F7F739DA
S113142050F019F0FF3A38F49F779F930CD00F9047
S113143007FC905808953EF018CF60E070E080E813
S11314409FE308954FE79F775F934F933F932F93C5
S11314509ED02F913F914F915F9152DF05C019F4B7
S11314600EF0FDCE46CF01CF2ADFC8F39638C0F781
S113147007F80F92E8942BE33AEA48EB5FE74EDF74
S11314800F920F920F924DB75EB70F92C0D0E4E562
S1131490F0E016D04F915F91EF91FF91E595EE1F2B
S11314A0FF1F49F0FE57E0684427EE0F441FFA95EA
S11314B0E1F74195550B32D00F9007FE26C00895F1
S11314C0DF93CF931F930F93FF92EF92DF927B01F1
S11314D08C01689405C0DA2EEF011EDFFE01E8944A
S11314E0A5912591359145915591AEF3EF01FBDD21
S11314F0FE019701A801DA9479F7DF90EF90FF904D
S11315000F911F91CF91DF9108959B01AC0160E091
S113151070E080E89FE3AEC0A2CE14C1D0DEE8F351
S11315209923D9F3940F511DBBF39150504094F07B
S113153059F0882332F0660F771F881F915050406E
S1131540C1F79E3F510544F7880F911D96958795E5
S113155097F908955F3FACF0983E9CF0BB278695C1
S113156077956795B79508F4B1609395C1F7BB0F6C
S113157058F711F460FFE8CF6F5F7F4F8F4F9F4F95
S1131580E3CFB8CE0EF0DEC070CE689468CE97DE9E
S1131590C8F39923D1F3C6F3DF93CF931F930F932B
S11315A0FF92C92FDD2788232AF02197660F771F22
S11315B0881FDAF720E030E040E85FEB9FE38839EA
S11315C020F0803E30F021968F777CDDECE7F0E070
S11315D003C078DDE9EAF0E073DF8B01BE01EC01C2
S11315E0FB2E6F5771097595771F880B990BFCDDDE
S11315F028E132E741E35FE38FDEAF2D9801AE01CE
S1131600FF900F911F91CF91DF916DDD3FCEFA01D5
S1131610DC01AA0FBB1F9B01AC01BF5728F4222792
S11316203327442750781FC0B75188F4AB2F0024C8
S1131630469537952795011CA395D2F3002069F0B0
S1131640220F331F441FB395DAF30DD03ACD613026
S11316507105A0E88A07B94630F49B01AC016627FE
S1131660772788279078309621F02083318342832E
S1131670538308950CD00ACE02DE40F0F9DD30F039
S113168021F45F3F19F0EBCD511134CEEECD0FDED6
S113169098F39923C9F35523B1F3951B550BBB2735
S11316A0AA2762177307840738F09F5F5F4F220FE2
S11316B0331F441FAA1FA9F333D00E2E3AF0E0E8DB
S11316C030D091505040E695001CCAF729D0FE2F27
S11316D027D0660F771F881FBB1F261737074807B9
S11316E0AB07B0E809F0BB0B802DBF01FF2793586F
S11316F05F4F2AF09E3F510568F0B1CDFBCD5F3FAF
S1131700ECF3983EDCF3869577956795B795F79556
S11317109F5FC9F7880F911D9695879597F908954E
S1131720E1E0660F771F881FBB1F621773078407EA
S1131730BA0720F0621B730B840BBA0BEE1F88F7F9
S1131740E09508959F3F31F0915020F48795779567
S11317506795B795880F911D9695879597F9089584
S1131760AA1BBB1B51E107C0AA1FBB1FA617B707C3
S113177010F0A61BB70B881F991F5A95A9F78095DF
S10F17809095BC01CD010895F894FFCFB2
S113178C04070809FF040506FA010203FD04000D11
S111179CFB80C094D4656E74657200010B006E
S9030000FC
