:100000000C944A000C94BE170C94F5170C942C1801
:100010000C947D090C94B4090C94AA0D0C94180E40
:100020000C94E10D0C946D0D0C9466110C949D11C3
:100030000C94E9130C9467000C9467000C9467000F
:100040000C94391D0C9467000C9467000C946700A5
:100050000C9467006E08C9086E08C908C908C90869
:100060006E08C908C9089D086E089D08C90870086F
:100070006E08700802115D1102115D115D115D11B4
:1000800002115D115D113111021131115D11041167
:100090000211041111241FBECFE5D8E0DEBFCDBF91
:1000A00010E0A0E6B0E0ECE4FDE502C005900D92A2
:1000B000A23EB107D9F721E0A2EEB0E001C01D9247
:1000C000AA33B207E1F70E9409290C94A42E0C94DC
:1000D0000000CF93DF93CDB7DEB727970FB6F89424
:1000E000DEBF0FBECDBF6A837B838C839D835F831E
:1000F0004E8319828E819F81892B19F481E0898337
:100100001DC08D818F938C818F938B818F938A817A
:100110008F938FEA90E0892F8F938FEA90E08F93EF
:100120008F818F938E818F930E94BA2B8DB79EB74C
:1001300008960FB6F894DEBF0FBECDBF8981279613
:100140000FB6F894DEBF0FBECDBFDF91CF910895FB
:10015000CF93DF93CDB7DEB765970FB6F894DEBFC8
:100160000FBECDBF688B798B8A8B9B8B5D8B4C8B45
:1001700019821F861E868C899D89892B19F481E03E
:10018000898378C020E030E0A901688979898A896B
:100190009B890E94E92988235CF488899989AA8926
:1001A000BB89B058888B998BAA8BBB8B8DE28E87CD
:1001B000688979898A899B890E94602ADC01CB0140
:1001C0008A839B83AC83BD836A817B818C819D8183
:1001D0000E94982ADC01CB019C01AD0168897989D4
:1001E0008A899B890E947C29DC01CB018E839F83B5
:1001F000A887B98720E030E44CE156E46E817F8126
:10020000888599850E944D2BDC01CB01BC01CD0175
:100210000E94602ADC01CB018A879B87AC87BD875F
:100220008D858F938C858F938B858F938A858F9304
:100230008D818F938C818F938B818F938A818F9304
:10024000CE010E96292F2F938F9383EB90E0892F69
:100250008F9383EB90E08F938D898F938C898F930D
:100260000E94BA2B8DB79EB70E960FB6F894DEBFDC
:100270000FBECDBF898165960FB6F894DEBF0FBE65
:10028000CDBFDF91CF9108952F923F924F925F9211
:100290006F927F928F929F92AF92BF92CF92DF9296
:1002A000EF92FF920F931F93CF93DF93CDB7DEB7FB
:1002B0006E970FB6F894DEBF0FBECDBF9C878B87BD
:1002C0007E876D8719821A821B821C821D821E8284
:1002D0001F82188619861A868D859E85892B21F0A6
:1002E0008B859C85892B19F481E089839FC01A82B4
:1002F0008CC02B813C814D815E816F8178858985A1
:100300009A85222E332E442E552E662E772E882E39
:10031000992E222D332D442D552D662D772D882D88
:10032000992D01E00E945A29A22EB32EC42ED52E5B
:10033000E62EF72E082F192F2A2C3B2C4C2C5D2C47
:100340006E2C7F2C802E912E222D332D442D552D59
:10035000662D772D882D992D02E00E945A292F8B2A
:10036000388F498F5A8F6B8F7C8F8D8F9E8F222D68
:10037000332D442D552D662D772D882D992DAF8841
:10038000B88CC98CDA8CEB8CFC8C0D8D1E8D0E9488
:100390007329A22EB32EC42ED52EE62EF72E082FAB
:1003A000192F8A81882F90E02D853E85820F931F1B
:1003B000FC018081882F90E0C097988B8F87892FD0
:1003C000880F880B898B8A8B8B8B8C8B8D8B8E8B7C
:1003D0002A2D3B2D4C2D5D2D6E2D7F2D802F912FA5
:1003E000AF84B888C988DA88EB88FC880D891E89B3
:1003F0000E9473292B833C834D835E836F837887B0
:1004000089879A878A818F5F8A838A81882F90E083
:100410002D853E85820F931FFC018081882309F082
:1004200068CF2B818B859C85FC01208389816E960A
:100430000FB6F894DEBF0FBECDBFDF91CF911F91F5
:100440000F91FF90EF90DF90CF90BF90AF909F9073
:100450008F907F906F905F904F903F902F90089576
:100460002F923F924F925F926F927F928F929F92C4
:10047000AF92BF92CF92DF92EF92FF920F931F93B2
:10048000CF93DF93CDB7DEB76E970FB6F894DEBF8C
:100490000FBECDBF9C878B877E876D8719821A829E
:1004A0001B821C821D821E821F82188619861A8654
:1004B0008D859E85892B21F08B859C85892B19F450
:1004C00081E08983A1C01A828CC02B813C814D813F
:1004D0005E816F81788589859A85222E332E442E00
:1004E000552E662E772E882E992E222D332D442DB3
:1004F000552D662D772D882D992D01E00E945A29C2
:10050000A22EB32EC42ED52EE62EF72E082F192F8D
:100510002A2C3B2C4C2C5D2C6E2C7F2C802E912E6B
:10052000222D332D442D552D662D772D882D992D77
:1005300002E00E945A292F8B388F498F5A8F6B8F78
:100540007C8F8D8F9E8F222D332D442D552D662D22
:10055000772D882D992DAF88B88CC98CDA8CEB8CCF
:10056000FC8C0D8D1E8D0E947329A22EB32EC42EDD
:10057000D52EE62EF72E082F192F8A81882F90E08E
:100580002D853E85820F931FFC018081882F90E08E
:10059000C097988B8F87892F880F880B898B8A8BC0
:1005A0008B8B8C8B8D8B8E8B2A2D3B2D4C2D5D2D2B
:1005B0006E2D7F2D802F912FAF84B888C988DA885F
:1005C000EB88FC880D891E890E9473292B833C834C
:1005D0004D835E836F83788789879A878A818F5F4F
:1005E0008A838A81882F90E02D853E85820F931F14
:1005F000FC018081882309F068CF2B813C818B85A9
:100600009C85FC013183208389816E960FB6F89416
:10061000DEBF0FBECDBFDF91CF911F910F91FF9035
:10062000EF90DF90CF90BF90AF909F908F907F9092
:100630006F905F904F903F902F9008952F923F9230
:100640004F925F926F927F928F929F92AF92BF92E2
:10065000CF92DF92EF92FF920F931F93CF93DF938E
:10066000CDB7DEB76E970FB6F894DEBF0FBECDBF25
:100670009C878B877E876D8719821A821B821C82DA
:100680001D821E821F82188619861A868D859E8578
:10069000892B21F08B859C85892B19F481E0898336
:1006A000A5C01A828CC02B813C814D815E816F81F7
:1006B000788589859A85222E332E442E552E662ED6
:1006C000772E882E992E222D332D442D552D662DD3
:1006D000772D882D992D01E00E945A29A22EB32E44
:1006E000C42ED52EE62EF72E082F192F2A2C3B2CA0
:1006F0004C2C5D2C6E2C7F2C802E912E222D332D98
:10070000442D552D662D772D882D992D02E00E94C0
:100710005A292F8B388F498F5A8F6B8F7C8F8D8FF3
:100720009E8F222D332D442D552D662D772D882D0E
:10073000992DAF88B88CC98CDA8CEB8CFC8C0D8D24
:100740001E8D0E947329A22EB32EC42ED52EE62E06
:10075000F72E082F192F8A81882F90E02D853E854E
:10076000820F931FFC018081882F90E0C097988BA7
:100770008F87892F880F880B898B8A8B8B8B8C8B2B
:100780008D8B8E8B2A2D3B2D4C2D5D2D6E2D7F2D2F
:10079000802F912FAF84B888C988DA88EB88FC88CD
:1007A0000D891E890E9473292B833C834D835E83B0
:1007B0006F83788789879A878A818F5F8A838A8106
:1007C000882F90E02D853E85820F931FFC0180814C
:1007D000882309F068CF8B819C81AD81BE812B85F8
:1007E0003C85F90180839183A283B38389816E96CE
:1007F0000FB6F894DEBF0FBECDBFDF91CF911F9132
:100800000F91FF90EF90DF90CF90BF90AF909F90AF
:100810008F907F906F905F904F903F902F900895B2
:100820002F923F924F925F926F927F928F929F9200
:10083000AF92BF92CF92DF92EF92FF920F931F93EE
:10084000CF93DF93CDB7DEB76E970FB6F894DEBFC8
:100850000FBECDBF9C878B877E876D8719821A82DA
:100860001B821C821D821E821F82188619861A8690
:100870008D859E85892B21F08B859C85892B19F48C
:1008800081E08983B4C01A828CC02B813C814D8168
:100890005E816F81788589859A85222E332E442E3C
:1008A000552E662E772E882E992E222D332D442DEF
:1008B000552D662D772D882D992D01E00E945A29FE
:1008C000A22EB32EC42ED52EE62EF72E082F192FCA
:1008D0002A2C3B2C4C2C5D2C6E2C7F2C802E912EA8
:1008E000222D332D442D552D662D772D882D992DB4
:1008F00002E00E945A292F8B388F498F5A8F6B8FB5
:100900007C8F8D8F9E8F222D332D442D552D662D5E
:10091000772D882D992DAF88B88CC98CDA8CEB8C0B
:10092000FC8C0D8D1E8D0E947329A22EB32EC42E19
:10093000D52EE62EF72E082F192F8A81882F90E0CA
:100940002D853E85820F931FFC018081882F90E0CA
:10095000C097988B8F87892F880F880B898B8A8BFC
:100960008B8B8C8B8D8B8E8B2A2D3B2D4C2D5D2D67
:100970006E2D7F2D802F912FAF84B888C988DA889B
:10098000EB88FC880D891E890E9473292B833C8388
:100990004D835E836F83788789879A878A818F5F8B
:1009A0008A838A81882F90E02D853E85820F931F50
:1009B000FC018081882309F068CF8B859C852B8181
:1009C000FC0120832C81FC0121832D81FC012283E9
:1009D0002E81FC0123832F81FC0124832885FC01C7
:1009E00025832985FC0126832A85FC0127838981AB
:1009F0006E960FB6F894DEBF0FBECDBFDF91CF91DC
:100A00001F910F91FF90EF90DF90CF90BF90AF902C
:100A10009F908F907F906F905F904F903F902F901E
:100A20000895CF93DF9300D0CDB7DEB78A8381E0FE
:100A3000898381E490E021E430E0F9012081322FC4
:100A4000307E2A81232B2860FC01208389810F902E
:100A50000F90DF91CF910895CF93DF931F92CDB781
:100A6000DEB781E0898381E490E021E430E0F901A0
:100A70002081207E2861FC01208381E490E0FC013C
:100A8000108289810F90DF91CF910895CF93DF93EA
:100A9000CDB7DEB727970FB6F894DEBF0FBECDBF38
:100AA0009F838E8381E0898380E890E09B838A83A3
:100AB0008E819F81892B19F482E08983BCC08AE2F0
:100AC00090E02AE230E0F90120812061FC012083DE
:100AD0008AE290E02AE230E0F90120812860FC01FE
:100AE000208380E490E020E430E0F9012081206858
:100AF000FC01208380E490E020E430E0F9012081D3
:100B0000422F497F2E813F81F9012081222F30E041
:100B1000220F331F2670242BFC0120838AE290E0F1
:100B20002AE230E0F9012081422F4B7F2E813F8164
:100B3000F90120812470242BFC01208380E490E0C3
:100B400020E430E0F9012081422F4F7C2E813F814B
:100B5000F9012381222F30E022953295307F322710
:100B6000207F3227242BFC01208380E490E020E4C6
:100B700030E0F9012081422F477F2E813F81F9012A
:100B80002281222F30E0220F331F220F331F220F2A
:100B9000331F242BFC01208380E490E020E430E02C
:100BA000F9012081422F477F2E813F81F901228167
:100BB000222F30E0220F331F220F331F220F331F4B
:100BC000242BFC0120838E819F81FC018181882F51
:100BD00090E0892B79F58E819F81FC01848195813C
:100BE000A681B781BC01CD010E94962ADC01CB0110
:100BF0009C01AD0160E074E284E799E40E94EE2973
:100C0000DC01CB0120E030E040E85FE3BC01CD0136
:100C10000E947C29DC01CB01BC01CD010E94672A26
:100C2000DC01CB019D838C8389E290E02C81FC0167
:100C3000208301C00000898127960FB6F894DEBF9B
:100C40000FBECDBFDF91CF910895CF93DF9300D03A
:100C500000D01F92CDB7DEB79B838A837D836C83E0
:100C600081E089838A819B81892B19F482E08983C1
:100C700013C000008BE290E0FC0180818295869594
:100C80008770882F90E081709927892B99F38CE2E7
:100C900090E02C81FC01208389810F900F900F90B0
:100CA0000F900F90DF91CF910895CF93DF9300D0F5
:100CB00000D01F92CDB7DEB79B838A837D836C8380
:100CC00081E089838A819B81892B21F08C819D81A0
:100CD000892B19F482E0898319C000008BE290E02F
:100CE000FC018081881F8827881F882F90E08170F1
:100CF0009927892B99F38CE290E0FC018081282FC1
:100D000030E08C819D81FC013183208389810F90AB
:100D10000F900F900F900F90DF91CF910895CF9388
:100D2000DF9300D000D000D0CDB7DEB79C838B839B
:100D30007E836D8381E089831A828B819C81892BDC
:100D400021F08D819E81892BB9F482E089831FC0B7
:100D50008A8191E0980F9A83882F90E02D813E81BF
:100D6000820F931FFC018081282F30E08B819C81B2
:100D7000B9010E94250689838A81882F90E02D8100
:100D80003E81820F931FFC018081882309F78981AE
:100D900026960FB6F894DEBF0FBECDBFDF91CF9180
:100DA0000895CF93DF9300D01F92CDB7DEB79B831A
:100DB0008A8381E089838A819B81892B19F482E06F
:100DC00089839AC085E490E025E430E0F901208130
:100DD000287FFC01208385E490E025E430E0F901E0
:100DE0002081422F4F7B2A813B81F9012181222FD3
:100DF00030E02170332700243695279507943695E7
:100E000027950794322F202D242BFC01208385E485
:100E100090E025E430E0F9012081422F477F2A81CC
:100E20003B81F90121812695222F30E02170332763
:100E3000220F331F220F331F220F331F242BFC01DD
:100E4000208385E490E025E430E0F9012081422F01
:100E50004F7E2A813B81F901218126952695222FFB
:100E600030E02170332722953295307F3227207F62
:100E70003227242BFC01208385E490E025E430E038
:100E8000F9012081422F4F7D2A813B81F901218187
:100E9000269526952695222F30E021703327220FA4
:100EA000331F22953295307F3227207F3227242B23
:100EB000FC0120838A819B81FC0182818093E60072
:100EC0008A819B81FC0181818093E7008A819B81DB
:100ED000FC0182810E94D008898385E490E025E4AA
:100EE00030E0F9012081422F487F2A813B81F901BE
:100EF0002081242BFC01208389810F900F900F907B
:100F0000DF91CF910895CF93DF9300D01F92CDB79B
:100F1000DEB79B838A8381E089838A819B81892BC9
:100F200019F482E0898309C085E490E025E430E08B
:100F3000F9012081287FFC01208389810F900F9087
:100F40000F90DF91CF910895CF93DF931F92CDB78C
:100F5000DEB781E0898389E590E029E530E0F90199
:100F600020812064FC01208389810F90DF91CF9143
:100F70000895CF93DF931F92CDB7DEB781E08983C9
:100F800089E590E029E530E0F90120812068FC0145
:100F9000208389810F90DF91CF910895CF93DF93C4
:100FA0001F92CDB7DEB781E0898389E590E029E51E
:100FB00030E0F90120812F7BFC01208389810F9093
:100FC000DF91CF910895CF93DF931F92CDB7DEB716
:100FD00081E0898389E590E029E530E0F90120810D
:100FE0002F77FC01208389810F90DF91CF910895A5
:100FF000CF93DF9300D01F92CDB7DEB79B838A8358
:1010000081E089838A819B81892B19F482E089831D
:1010100006C08A819B819093E3008093E2008981DE
:101020000F900F900F90DF91CF910895CF93DF93A2
:1010300000D01F92CDB7DEB79B838A8381E089837E
:101040008A819B81892B19F482E0898306C08A8179
:101050009B819093E5008093E40089810F900F902D
:101060000F90DF91CF910895CF93DF931F92CDB76B
:10107000DEB781E0898385E490E025E430E0F90182
:1010800020812068FC01208389810F90DF91CF911E
:101090000895CF93DF9300D01F92CDB7DEB78B8337
:1010A00081E089838B81853608F084E68B8380918B
:1010B000E700882F90E0092E000CAA0BBB0B40E044
:1010C00050E02FE030E0841B950B2817390708F417
:1010D00060C0865D9F4FFC010C945429198259C051
:1010E0008B81882F90E0A0E0B0E0BC01CD010E9490
:1010F000962ADC01CB0120E030E048EC52E4BC0150
:10110000CD010E94EE29DC01CB0120E030E04FE769
:1011100053E4BC01CD010E944D2BDC01CB01BC018D
:10112000CD010E94672ADC01CB0180958A8383E48C
:1011300090E02A81FC0120832CC08B81882F90E0D5
:10114000A0E0B0E0BC01CD010E94962ADC01CB01F9
:1011500020E030E048EC52E4BC01CD010E94EE29D1
:10116000DC01CB0120E030E04FE753E4BC01CD01CE
:101170000E944D2BDC01CB01BC01CD010E94672AEE
:10118000DC01CB018A8383E490E02A81FC01208387
:10119000000089810F900F900F90DF91CF910895FB
:1011A000CF93DF9300D0CDB7DEB78A8381E0898308
:1011B00084E490E02A81FC01208389810F900F90C4
:1011C000DF91CF910895CF93DF9300D01F92CDB7D9
:1011D000DEB79B838A8381E089838A819B81892B07
:1011E00019F482E0898308C084E490E0FC01208146
:1011F0008A819B81FC01208389810F900F900F9041
:10120000DF91CF910895CF93DF9300D01F92CDB798
:10121000DEB79B838A8381E089838A819B81892BC6
:1012200019F482E089830AC084E490E0FC018081A3
:10123000282F20958A819B81FC01208389810F9032
:101240000F900F90DF91CF910895CF93DF9300D04F
:10125000CDB7DEB78A8381E0898383E490E02A8179
:10126000FC01208389810F900F90DF91CF91089529
:10127000CF93DF9300D01F92CDB7DEB79B838A83D5
:1012800081E089838A819B81892B19F482E089839B
:1012900008C084E490E0FC0120818A819B81FC01EC
:1012A000208389810F900F900F90DF91CF91089547
:1012B000CF93DF9300D01F92CDB7DEB79B838A8395
:1012C00081E089838A819B81892B19F482E089835B
:1012D0000DC083E490E0FC01208184E490E0FC01F7
:1012E0008081281B8A819B81FC01208389810F904A
:1012F0000F900F90DF91CF9108951F920F92009061
:101300005F000F9211242F933F934F935F936F933E
:101310007F938F939F93AF93BF93EF93FF93CF935D
:10132000DF93CDB7DEB78091E4009091E500892B83
:1013300031F08091E4009091E500FC0109950000F6
:10134000DF91CF91FF91EF91BF91AF919F918F91DD
:101350007F916F915F914F913F912F910F900092EC
:101360005F000F901F9018951F920F9200905F00E2
:101370000F9211242F933F934F935F936F937F931B
:101380008F939F93AF93BF93EF93FF93CF93DF938D
:10139000CDB7DEB78091E2009091E300892B61F038
:1013A00084E490E02091E600FC0120838091E2003B
:1013B0009091E300FC0109950000DF91CF91FF912E
:1013C000EF91BF91AF919F918F917F916F915F91BD
:1013D0004F913F912F910F9000925F000F901F90BF
:1013E0001895CF93DF9300D01F92CDB7DEB79B83C4
:1013F0008A8319828A819B81892B19F482E08983EF
:101400007CC08EE490E02EE430E0F9012081287F5A
:10141000FC0120838FE490E02FE430E0F90120818B
:10142000422F4C7F2A813B81F9012181242BFC0131
:1014300020838EE490E02EE430E0F9012081422FF9
:10144000477E2A813B81F9012181222F30E0220F42
:10145000331F242BFC0120838FE490E02FE430E045
:10146000F9012081422F4F732A813B81F9012281AA
:10147000222F30E00024369527950794369527953E
:101480000794322F202D242BFC0120838FE490E041
:101490002FE430E0F9012081422F4C702A813B81FA
:1014A000F9012381222F30E022953295307F3227B7
:1014B000207F3227242BFC0120838A819B81FC0121
:1014C000848195819093F1008093F0008A819B81C3
:1014D000FC01848195810E94B80B89838EE490E0A1
:1014E0002EE430E0F9012081422F487F2A813B81A0
:1014F000F9012081242BFC01208389810F900F901A
:101500000F90DF91CF910895CF93DF9300D01F927A
:10151000CDB7DEB79B838A8319828A819B81892B11
:1015200019F482E0898309C08EE490E02EE430E073
:10153000F9012081287FFC01208389810F900F9081
:101540000F90DF91CF910895CF93DF931F92CDB786
:10155000DEB7198289E590E029E530E0F9012081C4
:101560002460FC01208389810F90DF91CF91089541
:10157000CF93DF931F92CDB7DEB7198289E590E054
:1015800029E530E0F90120812B7FFC01208389814E
:101590000F90DF91CF910895CF93DF931F92CDB736
:1015A000DEB7198289E590E029E530E0F901208174
:1015B0002860FC01208389810F90DF91CF910895ED
:1015C000CF93DF931F92CDB7DEB7198289E590E004
:1015D00029E530E0F9012081277FFC012083898102
:1015E0000F90DF91CF910895CF93DF931F92CDB7E6
:1015F000DEB7198289E590E029E530E0F901208124
:101600002061FC01208389810F90DF91CF910895A3
:10161000CF93DF931F92CDB7DEB7198289E590E0B3
:1016200029E530E0F90120812F7EFC0120838981AA
:101630000F90DF91CF910895CF93DF931F92CDB795
:10164000DEB7198289E590E029E530E0F9012081D3
:101650002062FC01208389810F90DF91CF91089552
:10166000CF93DF931F92CDB7DEB7198289E590E063
:1016700029E530E0F90120812F7DFC01208389815B
:101680000F90DF91CF910895CF93DF9300D01F92F9
:10169000CDB7DEB79B838A8319828A819B81892B90
:1016A00019F482E0898306C08A819B819093E900C6
:1016B0008093E80089810F900F900F90DF91CF9178
:1016C0000895CF93DF9300D01F92CDB7DEB79B83F1
:1016D0008A8319828A819B81892B19F482E089830C
:1016E00006C08A819B819093EB008093EA008981F8
:1016F0000F900F900F90DF91CF910895CF93DF93CC
:1017000000D01F92CDB7DEB79B838A8319828A816E
:101710009B81892B19F482E0898306C08A819B8191
:101720009093ED008093EC0089810F900F900F90C3
:10173000DF91CF910895CF93DF9300D01F92CDB763
:10174000DEB79B838A8319828A819B81892B19F456
:1017500082E0898306C08A819B819093EF00809309
:10176000EE0089810F900F900F90DF91CF91089537
:10177000CF93DF9300D01F92CDB7DEB79B838A83D0
:1017800019828DE490E02A813B81232F3327FC01CD
:1017900020838CE490E02A812F70FC0120838981D2
:1017A0000F900F900F90DF91CF910895CF93DF931B
:1017B00000D01F92CDB7DEB79B838A8319828BE45A
:1017C00090E02A813B81232F3327FC0120838AE488
:1017D00090E02A812F70FC01208389810F900F9067
:1017E0000F90DF91CF910895CF93DF9300D01F9298
:1017F000CDB7DEB79B838A83198289E490E02A8182
:101800003B81232F3327FC01208388E490E02A8149
:101810002F70FC01208389810F900F900F90DF9132
:10182000CF910895CF93DF9300D01F92CDB7DEB74D
:101830009B838A83198287E490E02A813B81232F4E
:101840003327FC01208386E490E02A812F70FC017D
:10185000208389810F900F900F90DF91CF91089591
:10186000CF93DF9300D01F92CDB7DEB79B838A83DF
:1018700019828A819B81892B19F482E089831FC098
:101880008CE490E0FC018081282F30E08A819B81EC
:10189000FC01318320838DE490E0FC018081882F5E
:1018A00090E0382F22278A819B81FC0180819181E1
:1018B000282B392B8A819B81FC01318320838981EC
:1018C0000F900F900F90DF91CF910895CF93DF93FA
:1018D00000D01F92CDB7DEB79B838A8319828A819D
:1018E0009B81892B19F482E089831FC08AE490E0F0
:1018F000FC018081282F30E08A819B81FC013183AB
:1019000020838BE490E0FC018081882F90E0382FC9
:1019100022278A819B81FC0180819181282B392B90
:101920008A819B81FC013183208389810F900F90F4
:101930000F90DF91CF910895CF93DF9300D01F9246
:10194000CDB7DEB79B838A8319828A819B81892BDD
:1019500019F482E089831FC088E490E0FC01808153
:10196000282F30E08A819B81FC013183208389E428
:1019700090E0FC018081882F90E0382F22278A8117
:101980009B81FC0180819181282B392B8A819B814D
:10199000FC013183208389810F900F900F90DF919C
:1019A000CF910895CF93DF9300D01F92CDB7DEB7CC
:1019B0009B838A8319828A819B81892B19F482E017
:1019C00089831FC086E490E0FC018081282F30E0ED
:1019D0008A819B81FC013183208387E490E0FC01B4
:1019E0008081882F90E0382F22278A819B81FC01FB
:1019F00080819181282B392B8A819B81FC01318345
:101A0000208389810F900F900F90DF91CF910895DF
:101A1000CF93DF931F92CDB7DEB719828FE490E0AA
:101A20002FE430E0F90120812860FC0120838981C6
:101A30000F90DF91CF910895CF93DF931F92CDB791
:101A4000DEB719828FE490E02FE430E0F9012081C5
:101A50002460FC01208389810F90DF91CF9108954C
:101A6000CF93DF931F92CDB7DEB719828EE490E05B
:101A70002EE430E0F90120812064FC01208389817B
:101A80000F90DF91CF910895CF93DF931F92CDB741
:101A9000DEB719828EE490E02EE430E0F901208177
:101AA0002F7BFC01208389810F90DF91CF910895D6
:101AB000CF93DF931F92CDB7DEB719828EE490E00B
:101AC0002EE430E0F901308120E42327FC0120835B
:101AD00089810F90DF91CF9108951F920F9200900E
:101AE0005F000F9211242F933F934F935F936F9357
:101AF0007F938F939F93AF93BF93EF93FF93CF9376
:101B0000DF93CDB7DEB78091E8009091E900892B93
:101B100061F08091F0009091F1000E94B80B8091EB
:101B2000E8009091E900FC0109950000DF91CF9158
:101B3000FF91EF91BF91AF919F918F917F916F91A5
:101B40005F914F913F912F910F9000925F000F9006
:101B50001F9018951F920F9200905F000F92112412
:101B60002F933F934F935F936F937F938F939F93A5
:101B7000AF93BF93EF93FF93CF93DF93CDB7DEB7D0
:101B80008091EE009091EF00892B31F08091EE0072
:101B90009091EF00FC0109950000DF91CF91FF913A
:101BA000EF91BF91AF919F918F917F916F915F91D5
:101BB0004F913F912F910F9000925F000F901F90D7
:101BC00018951F920F9200905F000F9211242F938F
:101BD0003F934F935F936F937F938F939F93AF93B5
:101BE000BF93EF93FF93CF93DF93CDB7DEB7809191
:101BF000EC009091ED00892B31F08091EC009091F8
:101C0000ED00FC0109950000DF91CF91FF91EF916C
:101C1000BF91AF919F918F917F916F915F914F9104
:101C20003F912F910F9000925F000F901F90189599
:101C30001F920F9200905F000F9211242F933F93F9
:101C40004F935F936F937F938F939F93AF93BF93C4
:101C5000EF93FF93CF93DF93CDB7DEB78091EA0088
:101C60009091EB00892B31F08091EA009091EB008C
:101C7000FC0109950000DF91CF91FF91EF91BF9199
:101C8000AF919F918F917F916F915F914F913F9114
:101C90002F910F9000925F000F901F901895CF9397
:101CA000DF9300D01F92CDB7DEB79B838A8381E09C
:101CB00089838A819B81892B19F482E0898397C06B
:101CC00083E590E023E530E0F9012081287FFC01E5
:101CD000208383E590E023E530E0F9012081422F65
:101CE0004F7B2A813B81F9012181222F30E0217035
:101CF0003327002436952795079436952795079422
:101D0000322F202D242BFC01208383E590E023E556
:101D100030E0F9012081422F477F2A813B81F90180
:101D200021812695222F30E021703327220F331F87
:101D3000220F331F220F331F242BFC01208383E546
:101D400090E023E530E0F9012081422F4F7E2A8187
:101D50003B81F901218126952695222F30E02170C3
:101D6000332722953295307F3227207F3227242B4C
:101D7000FC01208383E590E023E530E0F901208138
:101D8000422F4F7D2A813B81F9012181269526959D
:101D90002695222F30E021703327220F331F229502
:101DA0003295307F3227207F3227242BFC0120837D
:101DB0008A819B81FC0182818093F6008A819B81CC
:101DC000FC0122818A819B81622F0E94810F89837D
:101DD00083E590E023E530E0F9012081422F487F40
:101DE0002A813B81F9012081242BFC0120838981F8
:101DF0000F900F900F90DF91CF910895CF93DF93C5
:101E000000D01F92CDB7DEB79B838A8381E08983A0
:101E10008A819B81892B19F482E0898309C083E53B
:101E200090E023E530E0F9012081287FFC01208348
:101E300089810F900F900F90DF91CF910895CF93EC
:101E4000DF9300D01F92CDB7DEB79B838A8381E0FA
:101E500089838A819B81892B19F482E0898319C047
:101E60008A819B81FC018181882351F489E590E07E
:101E700029E530E0F90120812160FC01208309C0BF
:101E800089E590E029E530E0F90120812260FC013C
:101E9000208389810F900F900F90DF91CF9108954B
:101EA000CF93DF9300D01F92CDB7DEB79B838A8399
:101EB00081E089838A819B81892B19F482E089835F
:101EC00019C08A819B81FC018181882351F489E5B5
:101ED00090E029E530E0F90120812E7FFC0120838C
:101EE00009C089E590E029E530E0F90120812D7FE6
:101EF000FC01208389810F900F900F90DF91CF918B
:101F00000895CF93DF9300D000D0CDB7DEB79B8389
:101F10008A836C8381E089838A819B81892B19F470
:101F200082E0898311C08A819B81FC0181818823A1
:101F300031F482E590E02C81FC01208305C08CE522
:101F400090E02C81FC01208389810F900F900F90ED
:101F50000F90DF91CF910895CF93DF9300D000D001
:101F60001F92CDB7DEB79B838A837D836C8381E02C
:101F700089838A819B81892B19F482E089830BC034
:101F800082E590E0FC018081282F30E08C819D81EA
:101F9000FC013183208389810F900F900F900F9067
:101FA0000F90DF91CF910895CF93DF9300D000D0B1
:101FB0001F92CDB7DEB79B838A837D836C8381E0DC
:101FC00089838A819B81892B11F482E089838981AD
:101FD0000F900F900F900F900F90DF91CF91089579
:101FE000CF93DF9300D000D01F92CDB7DEB79B8395
:101FF0008A837D836C8381E089838A819B81892B9D
:1020000019F482E0898313C08A819B81FC0181815C
:10201000882339F48C819D819093F3008093F200A2
:1020200006C08C819D819093F5008093F400898196
:102030000F900F900F900F900F90DF91CF91089518
:10204000CF93DF931F92CDB7DEB781E0898389E517
:1020500090E029E530E0F90120812160FC01208336
:1020600089810F90DF91CF910895CF93DF931F92D5
:10207000CDB7DEB781E0898389E590E029E530E0DE
:10208000F90120812260FC01208389810F90DF917A
:10209000CF910895CF93DF9300D01F92CDB7DEB7D5
:1020A0009B838A8381E089838A819B81892B19F4B0
:1020B00082E0898306C08A819B819093F30080939C
:1020C000F20089810F900F900F90DF91CF910895CA
:1020D000CF93DF9300D01F92CDB7DEB79B838A8367
:1020E00081E089838A819B81892B19F482E089832D
:1020F00006C08A819B819093F5008093F4008981CA
:102100000F900F900F90DF91CF910895CF93DF93B1
:102110001F92CDB7DEB781E0898389E590E029E59C
:1021200030E0F90120812E7FFC01208389810F900E
:10213000DF91CF910895CF93DF931F92CDB7DEB794
:1021400081E0898389E590E029E530E0F90120818B
:102150002D7FFC01208389810F90DF91CF9108951D
:10216000CF93DF9300D01F92CDB7DEB79B838A83D6
:1021700081E089838A819B81892B19F482E089839C
:1021800009C083E590E023E530E0F9012081206873
:10219000FC01208389810F900F900F90DF91CF91E8
:1021A0000895CF93DF9300D000D01F92CDB7DEB754
:1021B0009C838B836D8381E089838B819C81892BB8
:1021C00019F482E0898379C08D81853608F084E630
:1021D0008D838B819C81FC018181882F90E0092E69
:1021E000000CAA0BBB0B40E050E02FE030E0841B5A
:1021F000950B2817390708F460C0865C9F4FFC01D7
:102200000C945429198259C08D81882F90E0A0E048
:10221000B0E0BC01CD010E94962ADC01CB0120E098
:1022200030E048EC52E4BC01CD010E94EE29DC0113
:10223000CB0120E030E04FE753E4BC01CD010E9428
:102240004D2BDC01CB01BC01CD010E94672ADC01D2
:10225000CB0180958A838CE590E02A81FC01208364
:102260002CC08D81882F90E0A0E0B0E0BC01CD01B2
:102270000E94962ADC01CB0120E030E048EC52E4D9
:10228000BC01CD010E94EE29DC01CB0120E030E051
:102290004FE753E4BC01CD010E944D2BDC01CB0183
:1022A000BC01CD010E94672ADC01CB018A838CE549
:1022B00090E02A81FC012083000089810F900F901B
:1022C0000F900F900F90DF91CF9108951F920F9272
:1022D00000905F000F9211242F933F934F935F93D1
:1022E0006F937F938F939F93AF93BF93EF93FF93DE
:1022F000CF93DF93CDB7DEB78091F4009091F500D6
:10230000892B31F08091F4009091F500FC01099542
:102310000000DF91CF91FF91EF91BF91AF919F911D
:102320008F917F916F915F914F913F912F910F907E
:1023300000925F000F901F9018951F920F920090CF
:102340005F000F9211242F933F934F935F936F93EE
:102350007F938F939F93AF93BF93EF93FF93CF930D
:10236000DF93CDB7DEB78091F2009091F300892B17
:1023700061F082E590E02091F600FC0120838091DD
:10238000F2009091F300FC0109950000DF91CF91DC
:10239000FF91EF91BF91AF919F918F917F916F913D
:1023A0005F914F913F912F910F9000925F000F909E
:1023B0001F901895CF93DF9300D01F92CDB7DEB753
:1023C0009B838A8381E089838A819B81892B19F48D
:1023D00082E089838FC08DE290E02DE230E0F90148
:1023E00020812F7BFC0120838DE290E02DE230E004
:1023F000F9012081422F4F7E2A813B81F901208102
:10240000222F30E022953295307F3227207F3227ED
:10241000242BFC0120838DE290E02DE230E0F901D5
:102420002081422F4F7D2A813B81F9012181222F7A
:1024300030E0220F331F22953295307F3227207FE4
:102440003227242BFC0120838DE290E02DE230E046
:10245000F9012081422F477F2A813B81F9012281A6
:10246000222F30E0220F331F220F331F220F331F82
:10247000242BFC0120838DE290E02DE230E0F90175
:102480002081422F4B7F2A813B81F9012381222F1A
:1024900030E0220F331F220F331F242BFC01208337
:1024A0008DE290E02DE230E0F9012081422F4C7F57
:1024B0002A813B81F90124812370242BFC01208394
:1024C0008EE290E02EE230E0F9012081422F4E7F33
:1024D0002A813B81F901248126952695242BFC0134
:1024E00020838DE290E02DE230E0F901208120642C
:1024F000FC01208389810F900F900F90DF91CF9185
:102500000895CF93DF931F92CDB7DEB781E0898323
:102510008DE290E02DE230E0F90120812F7BFC017B
:10252000208389810F90DF91CF910895CF93DF931E
:102530001F92CDB7DEB781E089838DE290E02DE276
:1025400030E0F90120812068FC01208389810F900F
:10255000DF91CF910895CF93DF931F92CDB7DEB770
:1025600081E089838DE290E02DE230E0F901208165
:102570002F77FC01208389810F90DF91CF910895FF
:10258000CF93DF9300D01F92CDB7DEB79B838A83B2
:1025900081E089838A819B81892B19F482E0898378
:1025A00006C08A819B819093F8008093F70089810F
:1025B0000F900F900F90DF91CF910895CF93DF93FD
:1025C00000D0CDB7DEB78A8381E089838DE290E0C9
:1025D0002DE230E0F90120812F7BFC0120838DE288
:1025E00090E02DE230E0F9012081322F3C7F2A81FA
:1025F0002370232BFC0120838EE290E02EE230E05A
:10260000F90120812E7F3A8136953695232BFC01E6
:1026100020838DE290E02DE230E0F90120812064FA
:10262000FC01208389810F900F90DF91CF91089555
:10263000CF93DF9300D01F92CDB7DEB79B838A8301
:1026400081E089838A819B81892B19F482E08983C7
:1026500014C08EE290E0FC0180818295869586957B
:102660008370882F90E08170992721E0892B09F4ED
:1026700020E08A819B81FC01208389810F900F904B
:102680000F90DF91CF910895CF93DF9300D000D0CA
:10269000CDB7DEB79B838A836C8381E089838A818F
:1026A0009B81892B19F482E089831BC08FE290E023
:1026B0002C81FC01208300008EE290E0FC018081EF
:1026C000881F8827881F882F90E081709927892B81
:1026D00099F38FE290E0FC0120818A819B81FC01CB
:1026E000208389810F900F900F900F90DF91CF91F1
:1026F0000895CF93DF9300D000D01F92CDB7DEB7FF
:102700008A836B835D834C8381E089838C819D8187
:10271000892B19F482E0898323C060E08A810E94BA
:1027200063188FE290E02B81FC01208300008EE291
:1027300090E0FC018081881F8827881F882F90E007
:1027400081709927892B99F38FE290E0FC01208119
:102750008C819D81FC01208361E08A810E94631845
:1027600089810F900F900F900F900F90DF91CF9174
:102770000895CF93DF9300D01F92CDB7DEB78A8341
:102780006B8381E0898360E08A810E9463188A817B
:102790008093F9008FE290E02B81FC0120838981F6
:1027A0000F900F900F90DF91CF910895CF93DF930B
:1027B00000D0CDB7DEB78A8381E089838FE290E0D5
:1027C0002A81FC01208389810F900F90DF91CF91A6
:1027D00008951F920F9200905F000F9211242F9383
:1027E0003F934F935F936F937F938F939F93AF9399
:1027F000BF93EF93FF93CF93DF931F92CDB7DEB7D5
:102800008091F7009091F800892BC9F08FE290E059
:10281000FC01808189832091F7003091F800898143
:10282000F90109958091FA00882F90E0019709F04D
:1028300006C08091F90061E00E946318000000006A
:102840000F90DF91CF91FF91EF91BF91AF919F9149
:102850008F917F916F915F914F913F912F910F9049
:1028600000925F000F901F901895CF93DF93CDB724
:10287000DEB78AE390E02FEFFC01208387E390E04E
:1028800027E4FC01208384E390E02FEFFC01208308
:1028900081E390E02FE3FC0120838BE390E0FC01D7
:1028A000108288E390E028E0FC01208385E390E03B
:1028B000FC01108282E390E020E8FC01208300000C
:1028C000DF91CF910895CF93DF9300D000D01F9276
:1028D000CDB7DEB78C836D8319828C8187708A8334
:1028E0008C818695869586958B838C81803218F0B5
:1028F00082E0898359C08D81823018F081E089831C
:1029000053C08D81882F90E0009741F1019709F025
:102910004BC08B81882F90E0880F991F805A9F4F62
:10292000FC01808191812B81222F30E0220F331F07
:10293000205A3F4FF90120813181F9012081622F16
:102940002A81422F50E021E030E002C0220F331FE5
:102950004A95E2F7262BFC01208326C08B81882F25
:1029600090E0880F991F805A9F4FFC0180819181D0
:102970002B81222F30E0220F331F205A3F4FF901C5
:1029800020813181F9012081622F2A81422F50E07C
:1029900021E030E002C0220F331F4A95E2F7209574
:1029A0002623FC012083000089810F900F900F9057
:1029B0000F900F90DF91CF910895CF93DF9300D0C8
:1029C00000D01F92CDB7DEB78C836D8319828C81C6
:1029D00087708A838C818695869586958B838C817A
:1029E000803218F082E0898343C18D81843018F0F1
:1029F00081E089833DC18D81882F90E081309105F0
:102A000009F457C0823091051CF4892B49F030C17C
:102A10008230910509F497C0039709F4DFC028C1FB
:102A20008B81882F90E0880F991F805A9F4FFC015F
:102A3000808191812B81222F30E0220F331F205A79
:102A40003F4FF90120813181F9012081622F2A81D4
:102A5000422F50E021E030E002C0220F331F4A95A0
:102A6000E2F7262BFC0120838B81882F90E0880FD2
:102A7000991F88599F4FFC01808191812B81222FC2
:102A800030E0220F331F28593F4FF9012081318157
:102A9000F9012081622F2A81422F50E021E030E0AD
:102AA00002C0220F331F4A95E2F7262BFC01208338
:102AB000DFC08B81882F90E0880F991F805A9F4F2D
:102AC000FC01808191812B81222F30E0220F331F66
:102AD000205A3F4FF90120813181F9012081622F75
:102AE0002A81422F50E021E030E002C0220F331F44
:102AF0004A95E2F7262BFC0120838B81882F90E0FA
:102B0000880F991F88599F4FFC01808191812B81EB
:102B1000222F30E0220F331F28593F4FF901208127
:102B20003181F9012081622F2A81422F50E021E07A
:102B300030E002C0220F331F4A95E2F7209526238A
:102B4000FC01208395C08B81882F90E0880F991F0E
:102B5000805A9F4FFC01808191812B81222F30E090
:102B6000220F331F205A3F4FF90120813181F90193
:102B70002081622F2A81422F50E021E030E002C004
:102B8000220F331F4A95E2F720952623FC0120836C
:102B90008B81882F90E0880F991F88599F4FFC01E7
:102BA000808191812B81222F30E0220F331F285901
:102BB0003F4FF90120813181F9012081622F2A8163
:102BC000422F50E021E030E002C0220F331F4A952F
:102BD000E2F720952623FC0120834AC08B81882FB1
:102BE00090E0880F991F805A9F4FFC01808191814E
:102BF0002B81222F30E0220F331F205A3F4FF90143
:102C000020813181F9012081622F2A81422F50E0F9
:102C100021E030E002C0220F331F4A95E2F72095F1
:102C20002623FC0120838B81882F90E0880F991F39
:102C300088599F4FFC01808191812B81222F30E0A8
:102C4000220F331F28593F4FF90120813181F901AB
:102C50002081622F2A81422F50E021E030E002C023
:102C6000220F331F4A95E2F7262BFC012083000038
:102C700089810F900F900F900F900F90DF91CF915F
:102C80000895CF93DF931F92CDB7DEB719828FE5FA
:102C900090E02FE530E0F90120812068FC012083DD
:102CA00089810F90DF91CF910895CF93DF931F9289
:102CB000CDB7DEB719828FE590E02FE530E0F9015E
:102CC00020812F77FC01208389810F90DF91CF91A4
:102CD0000895CF93DF9300D0CDB7DEB78A831982F2
:102CE0008FE590E02FE530E0F9012081422F4F770A
:102CF0002A81222F30E03695322F222737952795CB
:102D0000242BFC01208389810F900F90DF91CF91BC
:102D10000895CF93DF9300D000D0CDB7DEB78A837C
:102D20007C836B8319828B819C81892B19F482E0CF
:102D300089830CC08FE590E0FC018081282F221F41
:102D40002227221F8B819C81FC01208389810F9087
:102D50000F900F900F90DF91CF910895CF93DF9355
:102D600000D01F92CDB7DEB78A836B8381E0898361
:102D70008A81833018F083E089838FC08A81882F0D
:102D800090E08130910589F18230910509F462C0AB
:102D9000892B09F082C085E590E025E530E0F90156
:102DA0002081322F3E7F2B812170232BFC01208339
:102DB00085E590E025E530E0F9012081422F4D7F47
:102DC0002B812695222F30E021703327220F331FCD
:102DD000242BFC0120838BE590E02BE530E0F9010A
:102DE00020812064FC01208358C085E590E025E522
:102DF00030E0F9012081422F4B7F2B81222F30E0E0
:102E000021703327220F331F220F331F242BFC0185
:102E1000208385E590E025E530E0F9012081422F0F
:102E2000477F2B812695222F30E021703327220FF8
:102E3000331F220F331F220F331F242BFC0120834B
:102E40008BE590E02BE530E0F90120812068FC0162
:102E5000208323C084E590E024E530E0F90120815F
:102E6000422F4F7B2B81222F30E02170332700240B
:102E7000369527950794369527950794322F202D60
:102E8000242BFC0120838BE590E02BE530E0F90159
:102E900020812062FC012083000089810F900F9027
:102EA0000F90DF91CF910895CF93DF9300D0CDB7EE
:102EB000DEB78A8381E089838A81833018F083E0DA
:102EC00089832AC08A81882F90E08130910581F022
:102ED00082309105B9F0892B09F01EC08BE590E096
:102EE0002BE530E0F90120812F7BFC01208314C009
:102EF0008BE590E02BE530E0F90120812F77FC0194
:102F000020830AC08BE590E02BE530E0F9012081B9
:102F10002F7DFC012083000089810F900F90DF91AD
:102F2000CF910895CF93DF9300D000D0CDB7DEB717
:102F30008A837C836B8381E089838A81833018F064
:102F400083E0898313C08B819C81892B19F482E0F3
:102F500089830CC08A81882F90E0880F991F855043
:102F60009F4F2B813C81FC013183208389810F900D
:102F70000F900F900F90DF91CF9108951F920F92B5
:102F800000905F000F9211242F933F934F935F9314
:102F90006F937F938F939F93AF93BF93EF93FF9321
:102FA000CF93DF93CDB7DEB78091FB009091FC000B
:102FB000892B31F08091FB009091FC00FC01099578
:102FC0000000DF91CF91FF91EF91BF91AF919F9161
:102FD0008F917F916F915F914F913F912F910F90C2
:102FE00000925F000F901F9018951F920F92009013
:102FF0005F000F9211242F933F934F935F936F9332
:103000007F938F939F93AF93BF93EF93FF93CF9350
:10301000DF93CDB7DEB78091FD009091FE00892B44
:1030200031F08091FD009091FE00FC0109950000B7
:10303000DF91CF91FF91EF91BF91AF919F918F91D0
:103040007F916F915F914F913F912F910F900092DF
:103050005F000F901F9018951F920F9200905F00D5
:103060000F9211242F933F934F935F936F937F930E
:103070008F939F93AF93BF93EF93FF93CF93DF9380
:10308000CDB7DEB78091FF0090910001892B31F020
:103090008091FF0090910001FC0109950000DF91F3
:1030A000CF91FF91EF91BF91AF919F918F917F91C0
:1030B0006F915F914F913F912F910F9000925F0020
:1030C0000F901F901895CF93DF9300D000D01F92E0
:1030D000CDB7DEB78C836D8319828C8187708A832C
:1030E0008C818695869586958B838C81803218F0AD
:1030F00082E089834EC08B81882F90E0880F991FD2
:1031000080599F4FFC0180819181FC018081882F33
:1031100090E02A81222F30E002C0959587952A956C
:10312000E2F781709927892B19F481E0898331C0F6
:103130008B81882F90E0880F991F88589F4FFC0142
:10314000808191812B81222F30E0220F331F28585C
:103150003F4FF90120813181F9012081622F2A81BD
:10316000422F50E021E030E002C0220F331F4A9589
:10317000E2F7209562232D81222F30E04A81442FEF
:1031800050E002C0220F331F4A95E2F7262BFC01C4
:10319000208389810F900F900F900F900F90DF91F7
:1031A000CF910895CF93DF9300D000D000D0CDB75A
:1031B000DEB78C837E836D8319828C8187708A83CE
:1031C0008C818695869586958B838C81803218F0CC
:1031D00082E0898340C08B81882F90E0880F991FFF
:1031E00080599F4FFC0180819181FC018081882F53
:1031F00090E02A81222F30E002C0959587952A958C
:10320000E2F781709927892B19F081E0898323C027
:103210008D819E81892B19F484E089831CC08B8168
:10322000882F90E0880F991F80589F4FFC01808164
:103230009181FC018081882F90E02A81222F30E04B
:1032400002C0959587952A95E2F7282F21708D81E8
:103250009E81FC012083898126960FB6F894DEBFFB
:103260000FBECDBFDF91CF910895CF93DF9300D0F4
:103270001F92CDB7DEB78A836B8319828A8184302F
:1032800018F083E089831EC08A81882F90E0880F20
:10329000991F80599F4FFC0180819181FC018081A1
:1032A0008F3F19F081E089830DC08A81882F90E0DB
:1032B000880F991F88589F4FFC01808191812B8135
:1032C000FC01208389810F900F900F90DF91CF91A7
:1032D0000895CF93DF9300D000D0CDB7DEB78A83B7
:1032E0007C836B8319828A81843018F083E0898320
:1032F00028C08A81882F90E0880F991F80599F4F9E
:10330000FC0180819181FC018081882319F081E09A
:10331000898317C08B819C81892B19F484E0898370
:1033200010C08A81882F90E0880F991F80589F4F86
:10333000FC0180819181FC0120818B819C81FC01B9
:10334000208389810F900F900F900F90DF91CF9184
:103350000895CF93DF9300D000D0CDB7DEB78C8334
:1033600019828C8187708A838C8186958695869553
:103370008B838C81803218F082E0898341C08B81FD
:10338000882F90E0880F991F80599F4FFC01808102
:103390009181FC018081882F90E02A81222F30E0EA
:1033A00002C0959587952A95E2F781709927892B18
:1033B00019F481E0898324C08B81882F90E0880FE5
:1033C000991F88589F4FFC01808191812B81222F6A
:1033D00030E0220F331F28583F4FF90120813181FF
:1033E000F9012081622F2A81422F50E021E030E054
:1033F00002C0220F331F4A95E2F72627FC012083E3
:1034000089810F900F900F900F90DF91CF910895C9
:10341000CF93DF9300D01F92CDB7DEB79B838A8313
:1034200081E089838A819B81892B19F482E08983D9
:1034300065C086E290E026E230E0F90120812F7736
:10344000FC01208386E290E026E230E0F901208151
:10345000422F40772A813B81F90123812770242B59
:10346000FC01208387E290E027E230E0F90120812F
:10347000422F487F2A813B81F90120812770242B2C
:10348000FC01208387E290E027E230E0F90120810F
:10349000422F4F7D2A813B81F9012281222F30E08A
:1034A000220F331F22953295307F3227207F32271B
:1034B000242BFC01208387E290E027E230E0F90131
:1034C0002081422F4F732A813B81F9012181222FD4
:1034D00030E0002436952795079436952795079474
:1034E000322F202D242BFC01208386E290E026E25F
:1034F00030E0F90120812068FC01208389810F9050
:103500000F900F90DF91CF910895CF93DF931F928B
:10351000CDB7DEB781E0898386E290E026E230E035
:10352000F90120812F77FC01208389810F90DF91A1
:10353000CF910895CF93DF93CDB7DEB7A6970FB69F
:10354000F894DEBF0FBECDBF9CA38BA37EA36DA35B
:1035500081E089831A828BA19CA1892B21F08DA106
:103560009EA1892B19F482E0898354C186E290E000
:10357000FC01808186958695869581708A8387E295
:1035800090E027E230E0F9012081422F487F2BA113
:103590003CA1F90120812770242BFC01208386E2C5
:1035A00090E026E230E0F9012081277FFC012083B2
:1035B00086E290E026E230E0F90120812064FC01FF
:1035C0002083000086E290E0FC0180818295869550
:1035D00086958370882F90E081709927892B91F7C9
:1035E00080E090E0A0E2B1E48B839C83AD83BE8356
:1035F0002BEA3AEA4AEA50E46B817C818D819E8114
:103600000E944D2BDC01CB018F839887A987BA8755
:1036100020E030E040E850E46B817C818D819E8128
:103620000E944D2BDC01CB018B879C87AD87BE8729
:1036300020E030E040E85FE36F81788589859A85F6
:103640000E94E92988231CF481E08F87B2C020E022
:103650003FEF4FE757E46B857C858D859E850E9403
:10366000482B18160CF07BC020E030E04AE754E409
:103670006B817C818D819E810E94EE29DC01CB01D2
:10368000888B998BAA8BBB8B20E030E04AE755E40E
:10369000688979898A899B890E944D2BDC01CB013D
:1036A0008C8B9D8BAE8BBF8B20E030E040E85FE3DE
:1036B0006C897D898E899F890E94E92988232CF451
:1036C00081E090E0998F888F3FC020E03FEF4FE787
:1036D00057E46C897D898E899F890E94482B181632
:1036E0004CF520E030E040E251E4688979898A892C
:1036F0009B890E944D2BDC01CB01BC01CD010E94B6
:10370000672ADC01CB01998F888F0FC080E991E097
:103710009B8F8A8F8A8D9B8D0197F1F79B8F8A8F64
:10372000888D998D0197998F888F888D998D892B98
:1037300069F73FC06C897D898E899F890E94672ABD
:10374000DC01CB01998F888F888D998D9D8F8C8F0F
:103750008C8D9D8D0197F1F79D8F8C8F2AC020E075
:1037600030E04FE753E46F81788589859A850E9420
:10377000482B1816ACF46B857C858D859E850E9440
:10378000672ADC01CB019F8F8E8F8E8D9F8D99A331
:1037900088A388A199A10197F1F799A388A30FC0E5
:1037A0006F81788589859A850E94672ADC01CB0123
:1037B0008F878F858AA38AA18A95F1F78AA38BA127
:1037C0009CA1FC0122818DA19EA1BC01822F0E949F
:1037D000C31C982F89818923898386E290E026E2A1
:1037E00030E0F90120812061FC01208386E290E035
:1037F00026E230E0F9012081422F477F2A81222FE3
:1038000030E0220F331F220F331F220F331F242BD0
:10381000FC0120838981A6960FB6F894DEBF0FBE07
:10382000CDBFDF91CF910895CF93DF9300D000D02B
:103830001F92CDB7DEB79B838A837D836C8381E043
:1038400089838C819D81892B19F482E089831CC036
:103850008A819B81CC01A0E0B0E0BC01CD010E9437
:10386000962ADC01CB0123E931E040EA5BE3BC01AD
:10387000CD010E944D2BDC01CB012C813D81F90152
:1038800080839183A283B38389810F900F900F90DF
:103890000F900F90DF91CF910895CF93DF9300D0D9
:1038A0001F92CDB7DEB79B838A8381E089838A81AB
:1038B0009B81892B19F482E0898334C0000086E261
:1038C00090E0FC0180818295869586958370882F93
:1038D00090E081709927892B91F78A819B81FC0167
:1038E0008081809312018A819B81FC018281809377
:1038F000110187E290E027E230E0F9012081422FB8
:10390000487F2A813B81F90120812770242BFC010B
:10391000208386E290E026E230E0F90120812064F5
:10392000FC01208389810F900F900F90DF91CF9140
:103930000895CF93DF931F92CDB7DEB781E08983DF
:1039400086E290E026E230E0F90120812860FC0167
:10395000208389810F90DF91CF910895CF93DF93DA
:103960001F92CDB7DEB781E0898386E290E026E240
:1039700030E0F9012081277FFC01208389810F90AD
:10398000DF91CF910895CF93DF9300D000D0CDB7D2
:10399000DEB78A837C836B8381E089838B819C8102
:1039A000892B19F482E0898330C08A81882F90E0C6
:1039B000892BB9F484E290E0FC018081282F30E06B
:1039C00085E290E0FC018081882F90E0982F882785
:1039D000822B932B9C018B819C81FC013183208362
:1039E00014C084E290E0FC01808191819C0100245C
:1039F000220F331F001C220F331F001C232F302DDA
:103A00008B819C81FC013183208389810F900F90F1
:103A10000F900F90DF91CF910895CF93DF9300D057
:103A200000D01F92CDB7DEB79B838A837D836C83E2
:103A300081E089838A819B81892B19F482E08983C3
:103A40000FC08A819B81FC018081882F90E0880FC4
:103A5000991F8F5F9E4F2C813D81FC013183208314
:103A600089810F900F900F900F900F90DF91CF9161
:103A700008951F920F9200905F000F9211242F93D0
:103A80003F934F935F936F937F938F939F93AF93E6
:103A9000BF93EF93FF93CF93DF9300D01F92CDB7E7
:103AA000DEB781E0898320911101CE010296BC012D
:103AB000822F0E94C31C898380911201882F90E07D
:103AC000880F991F8F5F9E4FFC0180819181892B08
:103AD00079F080911201882F90E0880F991F8F5FF5
:103AE0009E4FFC01208131818A819B81F9010995DA
:103AF00000000F900F900F90DF91CF91FF91EF9109
:103B0000BF91AF919F918F917F916F915F914F91F5
:103B10003F912F910F9000925F000F901F9018958A
:103B2000CF93DF93CDB7DEB727970FB6F894DEBFFC
:103B30000FBECDBF9E838D836F8319821B821C8233
:103B40001A828D819E81892B19F482E0898322C09B
:103B50001A821DC08F81882F90E02A81222F30E0A9
:103B600002C0959587952A95E2F781708C838A81AA
:103B7000882F90E02D813E81820F931FFC01808170
:103B80006C810E9463188B838A818F5F8A838A810C
:103B9000843000F3898127960FB6F894DEBF0FBEFC
:103BA000CDBFDF91CF910895CF93DF93CDB7DEB72F
:103BB000EF970FB6F894DEBF0FBECDBF9FAF8EAFAD
:103BC00019828EAD9FAD892B19F482E089830FC2D3
:103BD0008EAD9FAD68E30E940120898380E090E074
:103BE000A0EAB0E48A839B83AC83BD8320E030E00D
:103BF0004AE755E46A817B818C819D810E944D2B2F
:103C0000DC01CB018CAB9DABAEABBFAB20E030E0B9
:103C100040E85FE36CA97DA98EA99FA90E94E929CC
:103C200088232CF481E090E099AF88AF3FC020E07A
:103C30003FEF4FE757E46CA97DA98EA99FA90E9489
:103C4000482B18164CF520E030E040E251E46A8140
:103C50007B818C819D810E944D2BDC01CB01BC01BD
:103C6000CD010E94672ADC01CB0199AF88AF0FC05C
:103C700080E991E09BAF8AAF8AAD9BAD0197F1F7E8
:103C80009BAF8AAF88AD99AD019799AF88AF88ADEA
:103C900099AD892B69F714C06CA97DA98EA99FA93C
:103CA0000E94672ADC01CB0199AF88AF88AD99AD3E
:103CB0009DAF8CAF8CAD9DAD0197F1F79DAF8CAFF3
:103CC0008EAD9FAD68E30E940120898380E090E083
:103CD000A6E1B3E48E839F83A887B9872BEA3AEAEB
:103CE0004AEA50E46E817F81888599850E944D2B38
:103CF000DC01CB01888F998FAA8FBB8F20E030E049
:103D000040E850E46E817F81888599850E944D2B23
:103D1000DC01CB018C8F9D8FAE8FBF8F20E030E018
:103D200040E85FE3688D798D8A8D9B8D0E94E9293B
:103D300088231CF481E088A3B2C020E03FEF4FE766
:103D400057E46C8D7D8D8E8D9F8D0E94482B1816AB
:103D50000CF07BC020E030E04AE754E46E817F81C4
:103D6000888599850E94EE29DC01CB0189A39AA35D
:103D7000ABA3BCA320E030E04AE755E469A17AA1F7
:103D80008BA19CA10E944D2BDC01CB018DA39EA396
:103D9000AFA3B8A720E030E040E85FE36DA17EA1CB
:103DA0008FA198A50E94E92988232CF481E090E056
:103DB0009AA789A73FC020E03FEF4FE757E46DA1E6
:103DC0007EA18FA198A50E94482B18164CF520E0E3
:103DD00030E040E251E469A17AA18BA19CA10E944C
:103DE0004D2BDC01CB01BC01CD010E94672ADC0117
:103DF000CB019AA789A70FC080E991E09CA78BA768
:103E00008BA59CA50197F1F79CA78BA789A59AA5DF
:103E100001979AA789A789A59AA5892B69F73FC019
:103E20006DA17EA18FA198A50E94672ADC01CB011C
:103E30009AA789A789A59AA59EA78DA78DA59EA5B6
:103E40000197F1F79EA78DA72AC020E030E04FE749
:103E500053E4688D798D8A8D9B8D0E94482B1816AE
:103E6000ACF46C8D7D8D8E8D9F8D0E94672ADC0158
:103E7000CB0198AB8FA78FA598A99AAB89AB89A9DD
:103E80009AA90197F1F79AAB89AB0FC0688D798D2C
:103E90008A8D9B8D0E94672ADC01CB0188A388A1B3
:103EA0008BAB8BA98A95F1F78BAB8EAD9FAD68E399
:103EB0000E94012089838EAD9FAD61E00E940120A8
:103EC00089838EAD9FAD62E00E94012089838EAD13
:103ED0009FAD66E00E94012089838EAD9FAD6CE0AE
:103EE0000E94012089838EAD9FAD68E20E9401206F
:103EF00089838EAD9FAD60E80E94012089838EADDD
:103F00009FAD61E00E940120898380E090E0A0EAFB
:103F1000B0E48A879B87AC87BD8720E030E04AE722
:103F200055E46A857B858C859D850E944D2BDC013F
:103F3000CB018E879F87A88BB98B20E030E040E8CB
:103F40005FE36E857F85888999890E94E9298823A6
:103F50002CF481E090E09B8B8A8B3FC020E03FEF08
:103F60004FE757E46E857F85888999890E94482BA1
:103F700018164CF520E030E040E251E46A857B857C
:103F80008C859D850E944D2BDC01CB01BC01CD01B0
:103F90000E94672ADC01CB019B8B8A8B0FC080E9D2
:103FA00091E09D8B8C8B8C899D890197F1F79D8B7E
:103FB0008C8B8A899B8901979B8B8A8B8A899B89A9
:103FC000892B69F714C06E857F85888999890E943D
:103FD000672ADC01CB019B8B8A8B8A899B899F8B0B
:103FE0008E8B8E899F890197F1F79F8B8E8B8981AC
:103FF000EF960FB6F894DEBF0FBECDBFDF91CF9125
:104000000895CF93DF9300D000D01F92CDB7DEB7D5
:104010009C838B836D8319821A828B819C81892B6F
:1040200019F482E0898322C08B819C81FC01848108
:1040300060E00E9463188A838D81282F22952F705B
:104040008B819C81622F0E94202389838B819C819C
:104050000E945E2389838B819C816D810E94202335
:1040600089838B819C810E945E23898389810F9043
:104070000F900F900F900F90DF91CF910895CF93F5
:10408000DF9300D000D0CDB7DEB79B838A836C83EB
:1040900019828A819B81892B19F482E0898322C04D
:1040A0008A819B81FC01848161E00E94631889837D
:1040B0008C81282F22952F708A819B81622F0E94EC
:1040C000202389838A819B810E945E2389838A8140
:1040D0009B816C810E94202389838A819B810E941D
:1040E0005E23898389810F900F900F900F90DF914D
:1040F000CF910895CF93DF9300D000D000D0CDB7FB
:10410000DEB79B838A836C834D832E8319828A81D9
:104110009B81892B19F482E0898329C08A819B8144
:104120004E816D810E94632189838A819B81FC017C
:10413000848161E00E94631889838C81282F2295F5
:104140002F708A819B81622F0E94202389838A811C
:104150009B810E945E2389838A819B816C810E945E
:10416000202389838A819B810E945E2389838981A0
:1041700026960FB6F894DEBF0FBECDBFDF91CF916C
:104180000895CF93DF93CDB7DEB728970FB6F89495
:10419000DEBF0FBECDBF9C838B837E836D834F8339
:1041A000288719821A828B819C81892B21F08D812D
:1041B0009E81892B19F482E0898325C08B819C81A3
:1041C00048856F810E946321898312C08A81882F6C
:1041D00090E02D813E81820F931FFC0120818B8115
:1041E0009C81622F0E943F2089838A818F5F8A830E
:1041F0008A81882F90E02D813E81820F931FFC01E0
:104200008081882319F7898128960FB6F894DEBF3C
:104210000FBECDBFDF91CF910895CF93DF93CDB780
:10422000DEB727970FB6F894DEBF0FBECDBF9C83D5
:104230008B837E836D834F8319821A828B819C814D
:10424000892B21F08D819E81892B19F482E089834D
:1042500030C08F81883018F083E089832AC08F8135
:10426000882F90E00896282F220F220F220F8B8193
:104270009C81622F0E94012089831A8211C08A8149
:10428000882F90E02D813E81820F931FFC012081B9
:104290008B819C81622F0E943F208A818F5F8A835D
:1042A0008A81883060F38B819C8160E80E940120C4
:1042B0008983898127960FB6F894DEBF0FBECDBFE4
:1042C000DF91CF910895CF93DF9300D000D01F925C
:1042D000CDB7DEB79B838A836C834D8319828A8135
:1042E0009B81892B19F482E0898356C08C818530AB
:1042F00018F085E0898350C08D81853118F084E005
:1043000089834AC08D8181508D838C81882F90E074
:1043100082309105C9F0833091051CF4019739F082
:104320003AC083309105E9F0049741F134C08D81A2
:1043300020E8280F8A819B81622F0E940120982FFC
:1043400089818923898328C08D8120EC280F8A8167
:104350009B81622F0E940120982F89818923898364
:104360001BC08D8124E9280F8A819B81622F0E94C6
:104370000120982F8981892389830EC08D8124EDA6
:10438000280F8A819B81622F0E940120982F8981AA
:104390008923898301C0198289810F900F900F9022
:1043A0000F900F90DF91CF910895CF93DF9300D0BE
:1043B00000D000D0CDB7DEB79C838B837E836D8326
:1043C00019821A828B819C81892B21F08D819E819B
:1043D000892BA9F482E089831DC08A81882F90E00F
:1043E0002D813E81820F931FFC0120818B819C8156
:1043F000622F0E943F2089838A818F5F8A838A810E
:10440000882F90E02D813E81820F931FFC018081D7
:10441000882319F7898126960FB6F894DEBF0FBE60
:10442000CDBFDF91CF910895CF93DF93CDB7DEB7A6
:10443000CC56D1090FB6F894DEBF0FBECDBF9E019A
:1044400029593F4FF90191838083CE0187599F4FAE
:10445000FC01408351836283738319821A82CE01E7
:1044600089599F4FFC0180819181892B19F482E049
:1044700089831EC09E012D5F3F4FCE0187599F4FFC
:10448000FC0180819181A281B381A901BC01CD0190
:104490000E9469008A839E012D5F3F4FCE0189599A
:1044A0009F4FFC0180819181B9010E94D5218983B0
:1044B0008981C459DF4F0FB6F894DEBF0FBECDBF60
:1044C000DF91CF9108950F93CF93DF93CDB7DEB7F0
:1044D000CE56D1090FB6F894DEBF0FBECDBFFE0198
:1044E000E959FF4F91838083CE0187599F4FDC01AB
:1044F0004D935D936D937C931397CE0183599F4F9A
:10450000FC012083CE0182599F4FDC010C9319825C
:104510001A82CE0189599F4FFC0180819181892B9C
:1045200019F482E0898331C09E012D5F3F4FCE0197
:1045300087599F4FFC0180819181A281B381A9019C
:10454000BC01CD010E9469008A839E0122593F4F20
:10455000CE0183599F4FAE0149595F4FDA01ED916A
:10456000FC91D9014C91DC016C91CF010E94632137
:104570009E012D5F3F4FCE0189599F4FFC018081E5
:104580009181B9010E94D52189838981C259DF4F68
:104590000FB6F894DEBF0FBECDBFDF91CF910F9164
:1045A0000895CF93DF93CDB7DEB7CC56D1090FB6C0
:1045B000F894DEBF0FBECDBF9E0129593F4FF901D0
:1045C00091838083CE0187599F4FFC0140835183A3
:1045D0006283738319821A82CE0189599F4FFC012D
:1045E00080819181892B19F482E089831EC09E010C
:1045F0002D5F3F4FCE0187599F4FFC0180819181F4
:10460000A281B381A901BC01CD010E94A8008A83C7
:104610009E012D5F3F4FCE0189599F4FFC01808144
:104620009181B9010E94D52189838981C459DF4FC5
:104630000FB6F894DEBF0FBECDBFDF91CF910895C6
:10464000CF93DF9300D000D01F92CDB7DEB79C830D
:104650008B836D8319821A828B819C81892B19F43B
:1046600082E0898322C01A821DC08D81882F90E04C
:104670002A81222F30E002C0959587952A95E2F78E
:10468000482F41708A81882F90E02B813C81820FD6
:10469000931FFC018081642F0E94631889838A81A3
:1046A0008F5F8A838A81843000F389810F900F9015
:1046B0000F900F900F90DF91CF910895CF93DF93DC
:1046C000CDB7DEB7A3970FB6F894DEBF0FBECDBF50
:1046D0009BA38AA319828AA19BA1892B19F482E04A
:1046E0008983FFC08AA19BA1FC01858161E00E94B2
:1046F0006318898380E090E0A0EAB0E48A839B831A
:10470000AC83BD832BEA3AEA4AEA50E46A817B81B2
:104710008C819D810E944D2BDC01CB018E839F8378
:10472000A887B98720E030E040E850E46A817B81C7
:104730008C819D810E944D2BDC01CB018A879B8758
:10474000AC87BD8720E030E040E85FE36E817F8189
:10475000888599850E94E92988231CF481E08E8749
:10476000B2C020E03FEF4FE757E46A857B858C8538
:104770009D850E94482B18160CF07BC020E030E08D
:104780004AE754E46A817B818C819D810E94EE29F5
:10479000DC01CB018F87988BA98BBA8B20E030E0AE
:1047A0004AE755E46F85788989899A890E944D2B5B
:1047B000DC01CB018B8B9C8BAD8BBE8B20E030E082
:1047C00040E85FE36B897C898D899E890E94E92995
:1047D00088232CF481E090E0988F8F8B3FC020E0FD
:1047E0003FEF4FE757E46B897C898D899E890E9452
:1047F000482B18164CF520E030E040E251E46F857C
:10480000788989899A890E944D2BDC01CB01BC01F2
:10481000CD010E94672ADC01CB01988F8F8B0FC0DE
:1048200080E991E09A8F898F898D9A8D0197F1F7B0
:104830009A8F898F8F89988D0197988F8F8B8F8909
:10484000988D892B69F73FC06B897C898D899E89FA
:104850000E94672ADC01CB01988F8F8B8F89988DFE
:104860009C8F8B8F8B8D9C8D0197F1F79C8F8B8FFD
:104870002AC020E030E04FE753E46E817F818885D5
:1048800099850E94482B1816ACF46A857B858C8527
:104890009D850E94672ADC01CB019E8F8D8F8D8DB7
:1048A0009E8D98A38F8F8F8D98A10197F1F798A374
:1048B0008F8F0FC06E817F81888599850E94672ABE
:1048C000DC01CB018E878E8589A389A18A95F1F7BA
:1048D00089A38AA19BA1FC01858160E00E946318E5
:1048E00089838981A3960FB6F894DEBF0FBECDBF32
:1048F000DF91CF910895CF93DF93CDB7DEB729979E
:104900000FB6F894DEBF0FBECDBF9F838E8379872D
:10491000688783E089831C821A821B828E819F8133
:10492000FC0181858D838E819F81892B21F0888573
:104930009985892B19F482E08983DFC08E819F815C
:104940000E94872589838E819F81FC018085882F25
:1049500090E0009721F0019709F467C0CCC01A825B
:104960005FC08E819F81FC01918581E0992309F0D0
:1049700080E0482F8A81882F90E02E813F81820F2E
:10498000931FFC018081642F0E9463188C831B821B
:1049900030C08B81882F90E02E813F81820F931F42
:1049A0000496FC012081CE010596BC01822F0E9455
:1049B000D2188C838E819F81FC0191858D819817FF
:1049C000A9F08A81282F30E08B81882F90E0220F78
:1049D000331F220F331F820F931F8E529F4FFC01F4
:1049E000208188859985FC01208319828B818F5FC6
:1049F0008B838B81843068F28E819F81FC0141859D
:104A00008A81882F90E02E813F81820F931FFC01C5
:104A10008081642F0E9463188C838A818F5F8A83D0
:104A20008A81843008F49DCF68C01B825FC08E816C
:104A30009F81FC01918581E0992309F080E0482F56
:104A40008B81882F90E02E813F81820F931F0496E7
:104A5000FC018081642F0E9463188C831A822EC00F
:104A60008A81882F90E02E813F81820F931FFC0165
:104A70002081CE010596BC01822F0E94D2188C8322
:104A80008E819F81FC0191858D819817A1F08A818B
:104A9000282F30E08B81882F90E0220F331F220FC8
:104AA000331F820F931F8E529F4FFC0120818885F8
:104AB0009985FC0120838A818F5F8A838A81843073
:104AC00078F28E819F81FC0141858B81882F90E057
:104AD0002E813F81820F931F0496FC018081642FF9
:104AE0000E9463188C838B818F5F8B838B818430D2
:104AF00008F49DCF02C081E08983898129960FB691
:104B0000F894DEBF0FBECDBFDF91CF910895CF9354
:104B1000DF9300D000D01F92CDB7DEB79D838C838A
:104B200083E089831B821A828C819D81892B19F4F1
:104B300082E0898342C08C819D81FC018085882F21
:104B400090E0009719F00197D9F035C01A8214C08F
:104B50008C819D81FC0141858A81882F90E02C8188
:104B60003D81820F931FFC018081642F0E94631896
:104B70008B838A818F5F8A838A81843048F31DC04A
:104B80001A8215C08C819D81FC0141858A81882F04
:104B900090E02C813D81820F931F0496FC0180815F
:104BA000642F0E9463188B838A818F5F8A838A8136
:104BB000843040F302C081E0898389810F900F9097
:104BC0000F900F900F90DF91CF910895CF93DF93C7
:104BD00000D000D0CDB7DEB79C838B83198281E0F3
:104BE0008A838B819C81892B19F482E0898368C038
:104BF0008B819C81FC018081882F90E08130910520
:104C000089F082309105D1F0892B21F563E080E0B5
:104C10000E94AE168A8368E277E280E00E949217D3
:104C20008A831AC063E081E00E94AE168A8366EA36
:104C300078E281E00E9492178A830EC061E082E0F0
:104C40000E94AE168A836EEA78E282E00E94921792
:104C50008A8302C01A8200008B819C81FC018181C1
:104C6000882F90E08130910541F18230910539F132
:104C7000892B01F581EA90E00E944F0E6DE077E20A
:104C800081EA90E00E94F00F81EA90E00E941F0FFD
:104C90008B819C81FC018081882F90E0880F991F77
:104CA000880F991F8D5D9E4FFC0110821182128228
:104CB000138206C081E0898303C0000001C00000A8
:104CC0000E94411689810F900F900F900F90DF91F5
:104CD000CF910895CF93DF9300D01F92CDB7DEB769
:104CE0009B838A8319828A819B81892B11F482E0BC
:104CF000898389810F900F900F90DF91CF91089554
:104D0000CF93DF9300D000D01F92CDB7DEB79B8347
:104D10008A837D836C8319828A819B81892B21F010
:104D20008C819D81892B19F482E089830FC0809149
:104D3000130190911401A0911501B09116012C81DD
:104D40003D81F90180839183A283B38389810F9090
:104D50000F900F900F900F90DF91CF910895CF9308
:104D6000DF9300D000D01F92CDB7DEB79B838A833C
:104D70007D836C8319828A819B81892B21F08C81B0
:104D80009D81892B19F482E089830FC080911701DE
:104D900090911801A0911901B0911A012C813D81C7
:104DA000F90180839183A283B38389810F900F904F
:104DB0000F900F900F90DF91CF910895CF93DF93D5
:104DC00000D000D01F92CDB7DEB79B838A837D834E
:104DD0006C8319828A819B81892B21F08C819D8132
:104DE000892B19F482E089830FC080911B01909177
:104DF0001C01A0911D01B0911E012C813D81F90182
:104E000080839183A283B38389810F900F900F9049
:104E10000F900F90DF91CF910895CF93DF93CDB78F
:104E2000DEB780911F0190912001A0912101B091E6
:104E300022010196A11DB11D80931F0190932001B5
:104E4000A0932101B09322010000DF91CF9108953A
:104E5000CF92DF92EF92FF92CF93DF93CDB7DEB781
:104E600080912F01882389F580912F018F5F809396
:104E70002F0110921F011092200110922101109217
:104E8000220162E080E00E94AE16809123019091A1
:104E90002401A0912501B091260181309105A10541
:104EA000B10509F444C181309105A105B10530F087
:104EB0000297A105B10509F43CC140C160E371E06E
:104EC00081EA90E00E94AC0F39C180912F018130BE
:104ED00009F049C080912F018F5F80932F0163E01B
:104EE00080E00E94AE168091230190912401A09150
:104EF0002501B091260181309105A105B10509F484
:104F00001AC181309105A105B10530F00297A105C4
:104F1000B10509F412C112C162E371E081EA90E0C7
:104F20000E94AC0F80911F0190912001A09121015E
:104F3000B09122014FEF489F9001499F300D1124FD
:104F40008091320190913301280F391F80913001F7
:104F500090913101A901481B590BCA019093350169
:104F600080933401EBC080912F01823009F0E6C0BC
:104F700062E080E00E94AE168091230190912401AE
:104F8000A0912501B091260181309105A105B105BF
:104F900089F181309105A105B10528F00297A1059D
:104FA000B10551F12AC066E371E081EA90E00E9408
:104FB000AC0F80911F0190912001A0912101B0912F
:104FC00022014FEF489F9001499F300D112480919D
:104FD000360190913701280F391F8091300190914F
:104FE0003101A901481B590BCA01909339018093E3
:104FF000380103C0000001C0000080913801909189
:105000003901CC01A0E0B0E0BC01CD010E94962A9C
:10501000DC01CB012FE632E143E85DE3BC01CD01C9
:105020000E944D2BDC01CB01BC01CD010E94672AFF
:10503000DC01CB018093170190931801A093190113
:10504000B0931A018091340190913501CC01A0E018
:10505000B0E0BC01CD010E94962ADC01CB012FE615
:1050600032E143E85DE3BC01CD010E944D2BDC0140
:10507000CB01BC01CD010E94672ADC01CB018093EA
:10508000130190931401A0931501B0931601809120
:10509000130190911401A0911501B0911601BC016A
:1050A000CD010E94962A6B017C018091170190919D
:1050B0001801A0911901B0911A01BC01CD010E9403
:1050C000962ADC01CB019C01AD01C701B6010E940B
:1050D000EE29DC01CB0120E030E048EC52E4BC01D9
:1050E000CD010E944D2BDC01CB01BC01CD010E9402
:1050F000672ADC01CB0180931B0190931C01A093D4
:105100001D01B0931E0110921F01109220011092F8
:1051100021011092220181E080932F0180913601BC
:1051200090913701909331018093300107C00000C6
:1051300005C0000003C0000001C000000000DF91B6
:10514000CF91FF90EF90DF90CF900895CF93DF93B2
:10515000CDB7DEB70000DF91CF910895CF93DF93F5
:10516000CDB7DEB70000DF91CF910895CF93DF93E5
:1051700000D000D000D0CDB7DEB79C838B837E8378
:105180006D8319821A828B819C81892B21F08D81FC
:105190009E81892B19F482E0898331C08B819C81A7
:1051A000FC018181882F90E0009771F0019729F52B
:1051B0008B819C81FC0120818D819E81BC01822F8D
:1051C0000E94D2188A831BC08B819C81FC012081A4
:1051D0008D819E81BC01822F0E94D2188A838D818D
:1051E0009E81FC01908181E0992309F080E0282FC5
:1051F0008D819E81FC01208302C081E089838981A9
:1052000026960FB6F894DEBF0FBECDBFDF91CF91CB
:105210000895CF93DF93CDB7DEB766970FB6F894B6
:10522000DEBF0FBECDBF0E94351480E990E00E9422
:10523000D41D8AEA90E00E94DA11198284E1EEEB33
:10524000F0E0DE01139601900D928A95E1F71FC000
:10525000898191E0980F9983882F90E09E012D5FBE
:105260003F4F820F931FFC012081CE010296622FD7
:105270000E9444138A81682F80E990E00E943F20B9
:105280008A818D3421F461E080E10E946318898174
:10529000882F90E09E012D5F3F4F820F931FFC01EE
:1052A00080818823A9F6FFCFEE0FFF1F0590F491B0
:1052B000E02D09940F93083090F0982F872F762FC8
:1052C000652F542F432F322F22270850F4CF220F5F
:1052D000331F441F551F661F771F881F991F0A958C
:1052E000B2F70F9108952A0D3B1D4C1D5D1D6E1DDB
:1052F0007F1D801F911F08955058BB27AA270E9429
:1053000094290C940E2B0E94002B38F00E94072B3E
:1053100020F039F49F3F19F426F40C94FD2A0EF482
:10532000E095E7FB0C94F72AE92F0E941F2B58F316
:10533000BA17620773078407950720F079F4A6F57A
:105340000C94412B0EF4E0950B2EBA2FA02D0B01DF
:10535000B90190010C01CA01A0011124FF27591BBA
:1053600099F0593F50F4503E68F11A16F040A22FC0
:10537000232F342F4427585FF3CF46953795279531
:10538000A795F0405395C9F77EF41F16BA0B620B30
:10539000730B840BBAF09150A1F0FF0FBB1F661F77
:1053A000771F881FC2F70EC0BA0F621F731F841FBA
:1053B00048F4879577956795B795F7959E3F08F0E0
:1053C000B0CF9395880F08F09927EE0F97958795A2
:1053D00008950E94D32A08F481E008950E94022AC9
:1053E0000C940E2B0E94072B58F00E94002B40F0CB
:1053F00029F45F3F29F00C94F72A51110C94422BA9
:105400000C94FD2A0E941F2B68F39923B1F35523B6
:1054100091F3951B550BBB27AA27621773078407C7
:1054200038F09F5F5F4F220F331F441FAA1FA9F35D
:1054300035D00E2E3AF0E0E832D091505040E6954B
:10544000001CCAF72BD0FE2F29D0660F771F881FAC
:10545000BB1F261737074807AB07B0E809F0BB0B9F
:10546000802DBF01FF2793585F4F3AF09E3F5105B3
:1054700078F00C94F72A0C94422B5F3FE4F3983EAB
:10548000D4F3869577956795B795F7959F5FC9F79C
:10549000880F911D9695879597F90895E1E0660F1D
:1054A000771F881FBB1F621773078407BA0720F096
:1054B000621B730B840BBA0BEE1F88F7E0950895FF
:1054C0000E94672A6894B1110C94422B08950E949F
:1054D000272B88F09F5798F0B92F9927B751B0F034
:1054E000E1F0660F771F881F991F1AF0BA95C9F768
:1054F00014C0B13091F00E94412BB1E008950C949A
:10550000412B672F782F8827B85F39F0B93FCCF34C
:10551000869577956795B395D9F73EF490958095E4
:10552000709561957F4F8F4F9F4F0895E89409C004
:1055300097FB3EF490958095709561957F4F8F4FC6
:105540009F4F9923A9F0F92F96E9BB279395F695DC
:10555000879577956795B795F111F8CFFAF4BB0F5A
:1055600011F460FF1BC06F5F7F4F8F4F9F4F16C0BE
:10557000882311F096E911C0772321F09EE8872F48
:10558000762F05C0662371F096E8862F70E060E004
:105590002AF09A95660F771F881FDAF7880F96957D
:1055A000879597F90895990F0008550FAA0BE0E821
:1055B000FEEF16161706E807F907C0F012161306D5
:1055C000E407F50798F0621B730B840B950B39F415
:1055D0000A2661F0232B242B252B21F408950A267B
:1055E00009F4A140A6958FEF811D811D089597F9BB
:1055F0009F6780E870E060E008959FEF80EC089579
:1056000000240A94161617061806090608950024A1
:105610000A9412161306140605060895092E03941B
:10562000000C11F4882352F0BB0F40F4BF2B11F48F
:1056300060FF04C06F5F7F4F8F4F9F4F089557FDEE
:105640009058440F551F59F05F3F71F04795880FF0
:1056500097FB991F61F09F3F79F087950895121687
:1056600013061406551FF2CF4695F1DF08C0161633
:1056700017061806991FF1CF8695710561050894E4
:105680000895E894BB2766277727CB0197F90895FB
:105690000E94D32A08F48FEF08950E94602B0C9487
:1056A0000E2B0E94002B38F00E94072B20F0952330
:1056B00011F00C94F72A0C94FD2A11240C94422B1F
:1056C0000E941F2B70F3959FC1F3950F50E0551F5B
:1056D000629FF001729FBB27F00DB11D639FAA2747
:1056E000F00DB11DAA1F649F6627B00DA11D661F96
:1056F000829F2227B00DA11D621F739FB00DA11DB7
:10570000621F839FA00D611D221F749F3327A00D70
:10571000611D231F849F600D211D822F762F6A2F0C
:1057200011249F5750409AF0F1F088234AF0EE0F71
:10573000FF1FBB1F661F771F881F91505040A9F79E
:105740009E3F510580F00C94F72A0C94422B5F3F4A
:10575000E4F3983ED4F3869577956795B795F795DA
:10576000E7959F5FC1F7FE2B880F911D9695879552
:1057700097F90895AEE0B0E0E0ECFBE20C947B2EEC
:105780000D891E8986E08C831A8309838FEF9FE73A
:105790009E838D83AE01475E5F4F6F89788DCE010A
:1057A00001960E94DC2BEF81F885E00FF11F10823B
:1057B0002E96E4E00C94972EABE0B0E0E2EEFBE234
:1057C0000C946D2E6C017B018A01FC0117821682FC
:1057D000838181FFCCC1CE0101963C01F60193810A
:1057E000F70193FD859193FF81917F01882309F44F
:1057F000BAC1853239F493FD859193FF81917F0180
:10580000853229F4B60190E00E94D32DE7CF912C88
:10581000212C312CFFE1F315D8F08B3279F038F4DC
:10582000803279F08332A1F4232D20611DC08D32A6
:1058300061F0803369F4232D216016C0832D8260CE
:10584000382EE32DE4603E2E2AC0F32DF8601DC0F3
:1058500037FC2DC020ED280F2A3040F08E32B9F4ED
:1058600036FC81C1232D2064322E19C036FE06C0BD
:105870008AE0989E200D1124922E11C0EAE02E9EFF
:10588000200D1124222EF32DF0623F2E08C08C36FD
:1058900021F4832D8068382E02C0883641F4F70148
:1058A00093FD859193FF81917F018111B3CF982F53
:1058B0009F7D9554933028F40C5F1F4F9FE399838D
:1058C0000DC0833631F0833771F0833509F059C04C
:1058D00021C0F801808189830E5F1F4F8824839443
:1058E000912C530113C02801F2E04F0E511CF80116
:1058F000A080B18036FE03C0692D70E002C06FEF5A
:105900007FEFC5010E94C82D4C018201F32DFF7766
:105910003F2E16C0280122E0420E511CF801A08043
:10592000B18036FE03C0692D70E002C06FEF7FEFDB
:10593000C5010E94BD2D4C01F32DF0683F2E820160
:1059400033FC1BC0822D90E088169906B0F4B60196
:1059500080E290E00E94D32D2A94F4CFF50137FC29
:10596000859137FE81915F01B60190E00E94D32DB1
:1059700021102A9421E0821A91088114910471F770
:10598000E8C0843611F0893641F5F80137FE07C0CA
:1059900060817181828193810C5F1F4F08C060819B
:1059A0007181072E000C880B990B0E5F1F4FF32D92
:1059B000FF763F2E97FF09C0909580957095619571
:1059C0007F4F8F4F9F4FF0683F2E2AE030E0A301BA
:1059D0000E940F2E882E861845C0853731F4232D5E
:1059E0002F7EB22E2AE030E025C0932D997FB92E6C
:1059F0008F36C1F018F4883579F0B5C0803719F0CA
:105A0000883721F0B0C0E92FE061BE2EB4FE0DC092
:105A1000FB2DF460BF2E09C034FE0AC0292F26607A
:105A2000B22E06C028E030E005C020E130E002C020
:105A300020E132E0F801B7FE07C060817181828108
:105A400093810C5F1F4F06C06081718180E090E000
:105A50000E5F1F4FA3010E940F2E882E8618FB2D6C
:105A6000FF773F2E36FE0DC0232D2E7FA22E8914E8
:105A700058F434FE0BC032FC09C0832D8E7EA82E54
:105A800005C0B82CA32C03C0B82C01C0B92CA4FEAF
:105A90000FC0FE01E80DF11D8081803321F49A2DA5
:105AA000997EA92E09C0A2FE06C0B394B39404C087
:105AB0008A2D867809F0B394A3FC11C0A0FE06C01D
:105AC000B21488F4280C922C9B180EC0B21460F407
:105AD000B60180E290E00E94D32DB394F7CFB214C8
