:100000000C942A000C9447000C9447000C94470071
:100010000C9447000C9447000C9447000C94470044
:100020000C9447000C9447000C9447000C94470034
:100030000C9447000C9447000C9447000C94470024
:100040000C9447000C9447000C9447000C94470014
:100050000C94470011241FBECFE5D8E0DEBFCDBF12
:1000600011E0A0E6B0E0E2E6FFE202C005900D92EA
:10007000A431B107D9F711E0A4E1B1E001C01D92AC
:10008000A531B107E1F70E94A3050C94AF170C94BA
:100090000000EF92FF920F931F937B018C0120E0F1
:1000A00030E040E05FE40E94490388238CF0C801FF
:1000B000B70120E030E040E05FE40E94C1010E940F
:1000C000A9039B01AC01205030404040504806C07D
:1000D000C801B7010E94A9039B01AC01B901CA0183
:1000E0001F910F91FF90EF900895A0E0B0E0EBE733
:1000F000F0E00C947817DC012B01FA019C9192300E
:1001000008F439C1EB018881823008F433C194309E
:1001100069F4843009F02FC111969C91119789815F
:10012000981709F428C1AAE6B0E025C1843009F483
:1001300021C18230A9F4923009F01DC19A01AD01AC
:1001400088E0EA010990AE01E90109929E0181501F
:10015000C1F7E201898111969C918923818308C1AD
:10016000923009F407C112962D903C901397EB0141
:100170008A819B811496AD90BD90CD90DC901797AD
:10018000EC80FD800E811F819101281B390BB90184
:1001900037FF04C066277727621B730B6032710537
:1001A0000CF061C0121613066CF537014801062EDB
:1001B00004C096948794779467940A94D2F721E0C8
:1001C00030E040E050E004C0220F331F441F551FB1
:1001D0006A95D2F721503040404050402E213F21B7
:1001E00040235123211531054105510521F021E01E
:1001F00030E040E050E079018A01E628F72808293C
:1002000019293CC0232BD1F1260E371E350146019A
:10021000062E04C096948794779467940A94D2F734
:1002200021E030E040E050E004C0220F331F441FC3
:10023000551F6A95D2F721503040404050402A2146
:100240003B214C215D21211531054105510521F04E
:1002500021E030E040E050E059016A01A628B728CB
:10026000C828D9280BC0821593052CF01C01AA249C
:10027000BB24650103C0EE24FF24870111969C91E5
:10028000D20111968C91981709F445C0992339F041
:10029000A80197012A193B094C095D0906C0A6016E
:1002A00095012E193F09400B510B57FD08C01182D3
:1002B0003382228224833583468357831DC081E0A5
:1002C00081833382228288279927DC01821B930B4A
:1002D000A40BB50B84839583A683B7830DC0220F2F
:1002E000331F441F551F24833583468357838281E0
:1002F000938101979383828324813581468157813D
:10030000DA01C9010197A109B1098F5F9F4FAF4F72
:10031000BF4328F30BC0918333822282EA0CFB1C7B
:100320000C1D1D1DE482F5820683178383E0808304
:10033000248135814681578157FF1AC0C901AA27F8
:1003400097FDA095BA2F81709070A070B0705695EF
:10035000479537952795822B932BA42BB52B848318
:100360009583A683B7838281938101969383828349
:10037000DF0101C0D201CD01CDB7DEB7E2E10C94BF
:100380009417A0E2B0E0E7ECF1E00C9484176983E5
:100390007A838B839C832D833E834F835887E9E048
:1003A000EE2EF12CEC0EFD1ECE010196B7010E943F
:1003B000D2048E010F5E1F4FCE010596B8010E9438
:1003C000D2048A8991E089278A8BC701B801AE01DE
:1003D000475E5F4F0E9475000E94FD03A096E6E015
:1003E0000C94A017A0E2B0E0E8EFF1E00C948417C1
:1003F00069837A838B839C832D833E834F835887C5
:10040000F9E0EF2EF12CEC0EFD1ECE010196B701A6
:100410000E94D2048E010F5E1F4FCE010596B801D7
:100420000E94D204C701B801AE01475E5F4F0E942F
:1004300075000E94FD03A096E6E00C94A017A0E2D0
:10044000B0E0E5E2F2E00C94781769837A838B835D
:100450009C832D833E834F835887CE010196BE0136
:10046000675F7F4F0E94D204CE010596BE016F5E8A
:100470007F4F0E94D2049985923088F0898982301A
:10048000C8F0943019F4823051F404C0843029F457
:10049000923081F48AE690E0C6C0923049F420E0C0
:1004A0009A858A89981321E02A87CE010996BBC0D4
:1004B000823049F420E09A858A89981321E02A8BBA
:1004C000CE014196B0C02D843E844F8458886D88FB
:1004D0007E888F88988CEE24FF248701AA24BB2471
:1004E000650140E050E060E070E0E0E0F0E0C10174
:1004F00081709070892BE9F0E60CF71C081D191D1E
:100500009A01AB012A0D3B1D4C1D5D1D80E090E062
:10051000A0E0B0E0E614F7040805190520F481E036
:1005200090E0A0E0B0E0BA01A901480F591F6A1F8E
:100530007B1FAA0CBB1CCC1CDD1C97FE08C081E0F5
:1005400090E0A0E0B0E0A82AB92ACA2ADB2A3196B6
:10055000E032F10549F0660C771C881C991C569412
:10056000479437942794C3CFFA85EA892B893C892D
:100570008B859C85280F391F2E5F3F4F17C0CA01FE
:1005800081709070892B61F016950795F794E79428
:1005900080E090E0A0E0B0E8E82AF92A0A2B1B2BC3
:1005A00076956795579547952F5F3F4F77FDE7CF36
:1005B0000CC0440F551F661F771F17FD4160EE0CDE
:1005C000FF1C001F111F21503040403090E05907A0
:1005D00090E0690790E4790760F32B8F3C8FDB0193
:1005E000CA018F779070A070B07080349105A1051A
:1005F000B10561F447FD0AC0E114F10401051105DC
:1006000029F0405C5F4F6F4F7F4F40781A8EFE1786
:1006100011F081E08A8F4D8F5E8F6F8F78A383E01A
:10062000898FCE0149960E94FD03A096E2E10C94C9
:100630009417A8E1B0E0EFE1F3E00C94841769832C
:100640007A838B839C832D833E834F83588789E0F5
:10065000E82EF12CEC0EFD1ECE010196B7010E9492
:10066000D2048E010F5E1F4FCE010596B8010E9485
:10067000D2048985823040F08989823028F0C70110
:10068000B8010E944A0501C08FEF6896E6E00C941D
:10069000A017A8E1B0E0EFE4F3E00C9484176983BD
:1006A0007A838B839C832D833E834F83588789E095
:1006B000E82EF12CEC0EFD1ECE010196B7010E9432
:1006C000D2048E010F5E1F4FCE010596B8010E9425
:1006D000D2048985823040F08989823028F0C701B0
:1006E000B8010E944A0501C08FEF6896E6E00C94BD
:1006F000A017A8E1B0E0EFE7F3E00C94841769835A
:100700007A838B839C832D833E834F83588789E034
:10071000E82EF12CEC0EFD1ECE010196B7010E94D1
:10072000D2048E010F5E1F4FCE010596B8010E94C4
:10073000D2048985823040F08989823028F0C7014F
:10074000B8010E944A0501C081E06896E6E00C9479
:10075000A017ACE0B0E0EFEAF3E00C9488176983EF
:100760007A838B839C83CE010196BE016B5F7F4FA2
:100770000E94D2048D81823061F1823050F1843048
:1007800021F48E81882351F12EC02F81388537FDC9
:1007900020C06E812F3131051CF06623F9F023C093
:1007A0008EE190E0821B930B29853A854B855C8511
:1007B00004C056954795379527958A95D2F76623B5
:1007C000B1F050954095309521953F4F4F4F5F4F79
:1007D0000EC020E030E040E050E009C02FEF3FEFD6
:1007E0004FEF5FE704C020E030E040E050E8B9019F
:1007F000CA012C96E2E00C94A417DF92EF92FF92CC
:100800000F931F93FC01E480F58006811781D1804E
:100810008081823048F480E090E0A0E1B0E0E82AF6
:10082000F92A0A2B1B2BA5C0843009F49FC0823003
:1008300021F4EE24FF24870105C0E114F104010531
:10084000110519F4E0E0F0E096C0628173819FEF3A
:10085000623879070CF05BC022E83FEF261B370BAC
:100860002A3131052CF020E030E040E050E02AC091
:10087000B801A701022E04C0769567955795479554
:100880000A94D2F781E090E0A0E0B0E004C0880FC5
:10089000991FAA1FBB1F2A95D2F70197A109B10979
:1008A0008E219F21A023B1230097A105B10521F03E
:1008B00081E090E0A0E0B0E09A01AB01282B392B59
:1008C0004A2B5B2BDA01C9018F779070A070B07052
:1008D00080349105A105B10539F427FF09C0205CDA
:1008E0003F4F4F4F5F4F04C0215C3F4F4F4F5F4F13
:1008F000E0E0F0E02030A0E03A07A0E04A07A0E402
:100900005A0710F0E1E0F0E079018A0127C0603871
:10091000710564F5FB01E158FF4FD801C7018F77DE
:100920009070A070B07080349105A105B10539F4C4
:10093000E7FE0DC080E490E0A0E0B0E004C08FE3EB
:1009400090E0A0E0B0E0E80EF91E0A1F1B1F17FFA1
:1009500005C016950795F794E794319687E01695AC
:100960000795F794E7948A95D1F705C0EE24FF2404
:100970008701EFEFF0E06E2F679566276795902F60
:100980009F77D794DD24D7948E2F8695492F462BB9
:10099000582F5D29B701CA011F910F91FF90EF9069
:1009A000DF900895FC01DB01408151812281622F9B
:1009B0006F7770E0221F2227221F9381892F880FD3
:1009C000822B282F30E0991F9927991F11969C930D
:1009D000119721153105A9F54115510561057105DD
:1009E00011F482E037C082E89FEF13969C938E93B8
:1009F00012979A01AB0167E0220F331F441F551F66
:100A00006A95D1F783E08C930DC0220F331F441FEA
:100A1000551F12968D919C911397019713969C9355
:100A20008E931297203080E0380780E0480780E4FA
:100A3000580758F314962D933D934D935C93179755
:100A400008952F3F310579F4411551056105710570
:100A500019F484E08C93089564FF03C081E08C93C3
:100A600012C01C9210C02F57304013963C932E9307
:100A7000129783E08C9387E0440F551F661F771F02
:100A80008A95D1F7706414964D935D936D937C9322
:100A9000179708951F93DC01FB019C91923008F495
:100AA00047C08081823008F443C0943051F41196DD
:100AB0001C91843099F58181682F70E0611B710968
:100AC0003FC0843021F0923031F48230B9F181811D
:100AD000882389F12DC011961C9111978230F1F075
:100AE00081811817D9F412962D913C911397828128
:100AF00093818217930794F028173907BCF0149656
:100B00008D919D910D90BC91A02D248135814681C0
:100B10005781281739074A075B0718F4112341F05A
:100B20000AC082179307A407B50740F4112319F0F0
:100B300061E070E005C06FEF7FEF02C060E070E041
:100B4000CB011F9108950F931F93DF93CF93CDB7E0
:100B5000DEB7C658D0400FB6F894DEBF0FBECDBF8B
:100B600081E06FEF0E94881680E060E041E00E9423
:100B7000041480E061E041E00E94041480E062E03F
:100B800041E00E9404140E94EB0F82E790E060E0D5
:100B900040E020E00E945213FE01EA57FF4F10820E
:100BA0000E94650CFE01EB57FF4F1082D8C0FE017A
:100BB000EB57FF4F8081882359F0FE01EB57FF4F21
:100BC0008081982F915080E0692F4FE50E94EE13AD
:100BD000FE01EB57FF4FDE01AA57BF4F80E0608157
:100BE0004C910E94EE13FE01E558FF4F80E090E02B
:100BF000A8ECB2E480839183A283B3838E01095869
:100C00001F4FFE01E558FF4F608171818281938102
:100C100020E030E04AEF54E40E941F02DC01CB01E7
:100C2000F80180839183A283B383FE01E958FF4FCB
:100C3000608171818281938120E030E040E85FE350
:100C40000E947903882344F4FE01EB58FF4F81E0B2
:100C500090E09183808364C0FE01E958FF4F60817A
:100C600071818281938120E03FEF4FE757E40E943A
:100C7000190318160CF043C0FE01E558FF4F6081C0
:100C800071818281938120E030E040E251E40E9452
:100C90001F02DC01CB018E010B581F4FBC01CD019F
:100CA0000E944900DC01CB01F801918380831FC0C1
:100CB000FE01ED58FF4F88EC90E091838083FE01A8
:100CC000ED58FF4F808191810197F1F7FE01ED58BA
:100CD000FF4F91838083DE01AB58BF4FFE01EB587D
:100CE000FF4F80819181019711969C938E93FE0115
:100CF000EB58FF4F808191810097D1F627C08E017C
:100D00000B581F4FFE01E958FF4F608171818281AE
:100D100093810E944900DC01CB01F801918380831B
:100D2000DE01AF58BF4FFE01EB58FF4F808191812C
:100D30008D939C93FE01EF58FF4F80819181019725
:100D4000F1F7FE01EF58FF4F91838083DE01AB572F
:100D5000BF4FFE01EB57FF4F80818F5F8C93FE01E9
:100D6000EB57FF4F80818F3008F421CF0E949313FF
:100D70000E94650CFE01EC57FF4F1082D8C0FE01A7
:100D8000EC57FF4F8081882359F0FE01EC57FF4F4D
:100D90008081982F915081E0692F4FE50E94EE13DA
:100DA000FE01EC57FF4FDE01AA57BF4F81E0608183
:100DB0004C910E94EE13FE01E359FF4F80E090E05A
:100DC000A8ECB2E480839183A283B3838E01075998
:100DD0001F4FFE01E359FF4F608171818281938132
:100DE00020E030E04AEF54E40E941F02DC01CB0116
:100DF000F80180839183A283B383FE01E759FF4FFB
:100E0000608171818281938120E030E040E85FE37E
:100E10000E947903882344F4FE01E959FF4F81E0E1
:100E200090E09183808364C0FE01E759FF4F6081A9
:100E300071818281938120E03FEF4FE757E40E9468
:100E4000190318160CF043C0FE01E359FF4F6081EF
:100E500071818281938120E030E040E251E40E9480
:100E60001F02DC01CB018E0109591F4FBC01CD01CE
:100E70000E944900DC01CB01F801918380831FC0EF
:100E8000FE01EB59FF4F88EC90E091838083FE01D7
:100E9000EB59FF4F808191810197F1F7FE01EB59EA
:100EA000FF4F91838083DE01A959BF4FFE01E959AD
:100EB000FF4F80819181019711969C938E93FE0143
:100EC000E959FF4F808191810097D1F627C08E01AB
:100ED00009591F4FFE01E759FF4F608171818281DF
:100EE00093810E944900DC01CB01F801918380834A
:100EF000DE01AD59BF4FFE01E959FF4F808191815D
:100F00008D939C93FE01ED59FF4F80819181019754
:100F1000F1F7FE01ED59FF4F91838083DE01AC575D
:100F2000BF4FFE01EC57FF4F80818F5F8C93FE0116
:100F3000EC57FF4F8081813108F421CF0E94931339
:100F40000E94C90CFE01ED57FF4F1082D8C0FE0170
:100F5000ED57FF4F8081882359F0FE01ED57FF4F79
:100F60008081982F915080E0692F4FE50E94EE1309
:100F7000FE01ED57FF4FDE01AA57BF4F80E06081B1
:100F80004C910E94EE13FE01E15AFF4F80E090E089
:100F9000A8ECB2E480839183A283B3838E01055AC7
:100FA0001F4FFE01E15AFF4F608171818281938161
:100FB00020E030E04AEF54E40E941F02DC01CB0144
:100FC000F80180839183A283B383FE01E55AFF4F2A
:100FD000608171818281938120E030E040E85FE3AD
:100FE0000E947903882344F4FE01E75AFF4F81E011
:100FF00090E09183808364C0FE01E55AFF4F6081D9
:1010000071818281938120E03FEF4FE757E40E9496
:10101000190318160CF043C0FE01E15AFF4F60811E
:1010200071818281938120E030E040E251E40E94AE
:101030001F02DC01CB018E01075A1F4FBC01CD01FD
:101040000E944900DC01CB01F801918380831FC01D
:10105000FE01E95AFF4F88EC90E091838083FE0106
:10106000E95AFF4F808191810197F1F7FE01E95A1A
:10107000FF4F91838083DE01A75ABF4FFE01E75ADD
:10108000FF4F80819181019711969C938E93FE0171
:10109000E75AFF4F808191810097D1F627C08E01DA
:1010A000075A1F4FFE01E55AFF4F6081718182810F
:1010B00093810E944900DC01CB01F8019183808378
:1010C000DE01AB5ABF4FFE01E75AFF4F808191818D
:1010D0008D939C93FE01EB5AFF4F80819181019784
:1010E000F1F7FE01EB5AFF4F91838083DE01AD578C
:1010F000BF4FFE01ED57FF4F80818F5F8C93FE0144
:10110000ED57FF4F8081893008F421CF0E9493135F
:10111000FE01EE57FF4F88E08083D8C0FE01EE57F6
:10112000FF4F8081883058F0FE01EE57FF4F8081DD
:10113000982F915081E0692F4FE50E94EE13FE0138
:10114000EE57FF4FDE01AA57BF4F81E060814C91FF
:101150000E94EE13FE01EF5AFF4F80E090E0A8ECF2
:10116000B2E480839183A283B3838E01035B1F4F1C
:10117000FE01EF5AFF4F608171818281938120E0EF
:1011800030E04AEF54E40E941F02DC01CB01F80179
:1011900080839183A283B383FE01E35BFF4F608171
:1011A00071818281938120E030E040E85FE30E941A
:1011B0007903882344F4FE01E55BFF4F81E090E072
:1011C0009183808364C0FE01E35BFF4F6081718186
:1011D0008281938120E03FEF4FE757E40E9419039B
:1011E00018160CF043C0FE01EF5AFF4F6081718169
:1011F0008281938120E030E040E251E40E941F02AE
:10120000DC01CB018E01055B1F4FBC01CD010E94AB
:101210004900DC01CB01F801918380831FC0FE01EE
:10122000E75BFF4F88EC90E091838083FE01E75BF2
:10123000FF4F808191810197F1F7FE01E75BFF4F3E
:1012400091838083DE01A55BBF4FFE01E55BFF4F0D
:1012500080819181019711969C938E93FE01E55BAD
:10126000FF4F808191810097D1F627C08E01055BE9
:101270001F4FFE01E35BFF4F60817181828193818B
:101280000E944900DC01CB01F80191838083DE01DB
:10129000A95BBF4FFE01E55BFF4F808191818D937C
:1012A0009C93FE01E95BFF4F808191810197F1F7EB
:1012B000FE01E95BFF4F91838083DE01AE57BF4F94
:1012C000FE01EE57FF4F80818F5F8C93FE01EE573A
:1012D000FF4F8081803108F421CF0E9493130E9438
:1012E0004E0DFE01EF57FF4F1082AAC0FE01EF57CF
:1012F000FF4F8081882359F0FE01EF57FF4F808117
:10130000982F915081E0692F4FE50E94EE13FE0166
:10131000EF57FF4FDE01AA57BF4F81E060814C912C
:101320000E94EE13FE01ED5BFF4F80E090E0A8EC21
:10133000B2E480839183A283B3838E01015C1F4F4B
:10134000FE01ED5BFF4F608171818281938120E01E
:1013500030E04AEF54E40E941F02DC01CB01F801A7
:1013600080839183A283B383FE01FF9660817181A4
:101370008281938120E030E040E85FE30E947903BE
:1013800088232CF481E090E09EAF8DAF46C0FE0133
:10139000FF96608171818281938120E03FEF4FE76A
:1013A00057E40E941903181664F5FE01ED5BFF4F28
:1013B000608171818281938120E030E040E251E4DC
:1013C0000E941F02DC01CB01BC01CD010E9449003B
:1013D000DC01CB019EAF8DAF0FC088EC90E09CAFDD
:1013E0008BAF8BAD9CAD0197F1F79CAF8BAF8DAD03
:1013F0009EAD01979EAF8DAF8DAD9EAD009769F705
:1014000016C0FE01FF9660817181828193810E94E6
:101410004900DC01CB019EAF8DAF8DAD9EAD9AAF83
:1014200089AF89AD9AAD0197F1F79AAF89AFDE0127
:10143000AF57BF4FFE01EF57FF4F80818F5F8C93F7
:10144000FE01EF57FF4F8081893008F44FCF0E9493
:1014500093130E94D90DFE01E058FF4F88E080836E
:1014600097C0FE01E058FF4F8081883058F0FE01A0
:10147000E058FF4F8081982F915080E0692F4FE511
:101480000E94EE13FE01E058FF4FDE01AA57BF4F46
:1014900080E060814C910E94EE1380E090E0A8EC27
:1014A000B2E48DAB9EABAFABB8AF6DA97EA98FA9EF
:1014B00098AD20E030E04AEF54E40E941F02DC01C6
:1014C000CB0189AB9AABABABBCAB69A97AA98BA9B1
:1014D0009CA920E030E040E85FE30E947903882384
:1014E0002CF481E090E098AB8FA73FC069A97AA95E
:1014F0008BA99CA920E03FEF4FE757E40E94190316
:1015000018164CF56DA97EA98FA998AD20E030E0A2
:1015100040E251E40E941F02DC01CB01BC01CD017D
:101520000E944900DC01CB0198AB8FA70FC088EC6B
:1015300090E09EA78DA78DA59EA50197F1F79EA788
:101540008DA78FA598A9019798AB8FA78FA598A96C
:10155000009769F714C069A97AA98BA99CA90E9470
:101560004900DC01CB0198AB8FA78FA598A99CA758
:101570008BA78BA59CA50197F1F79CA78BA7DE01F4
:10158000A058BF4FFE01E058FF4F80818F5F8C93C2
:10159000FE01E058FF4F8081803108F462CF0E9445
:1015A0009313FE01E158FF4F108297C0FE01E158EE
:1015B000FF4F8081882359F0FE01E158FF4F808161
:1015C000982F915080E0692F4FE50E94EE13FE01A5
:1015D000E158FF4FDE01AA57BF4F80E060814C9178
:1015E0000E94EE1380E090E0AAEFB3E48FA398A7E7
:1015F000A9A7BAA76FA178A589A59AA520E030E090
:101600004AEF54E40E941F02DC01CB018BA39CA390
:10161000ADA3BEA36BA17CA18DA19EA120E030E073
:1016200040E85FE30E94790388232CF481E090E096
:101630009AA389A33FC06BA17CA18DA19EA120E0AC
:101640003FEF4FE757E40E94190318164CF56FA1BE
:1016500078A589A59AA520E030E040E251E40E94F7
:101660001F02DC01CB01BC01CD010E944900DC015D
:10167000CB019AA389A30FC088EC90E098A38F8F29
:101680008F8D98A10197F1F798A38F8F89A19AA1C7
:1016900001979AA389A389A19AA1009769F714C019
:1016A0006BA17CA18DA19EA10E944900DC01CB0110
:1016B0009AA389A389A19AA19E8F8D8F8D8D9E8DCE
:1016C0000197F1F79E8F8D8FDE01A158BF4FFE016C
:1016D000E158FF4F80818F5F8C93FE01E158FF4FEF
:1016E00080818D3008F462CF0E94931380E060E027
:1016F0000E94341380E690E00E940B1380E090E893
:10170000ABE3B5E4898F9A8FAB8FBC8F698D7A8DEF
:101710008B8D9C8D20E030E04AEF54E40E941F0244
:10172000DC01CB018D8B9E8BAF8BB88F6D897E8951
:101730008F89988D20E030E040E85FE30E947903D4
:1017400088232CF481E090E09C8B8B8B3FC06D89CB
:101750007E898F89988D20E03FEF4FE757E40E9404
:10176000190318164CF5698D7A8D8B8D9C8D20E0B0
:1017700030E040E251E40E941F02DC01CB01BC01D9
:10178000CD010E944900DC01CB019C8B8B8B0FC0EB
:1017900088EC90E09A8B898B89899A890197F1F777
:1017A0009A8B898B8B899C8901979C8B8B8B8B89DE
:1017B0009C89009769F714C06D897E898F89988DFF
:1017C0000E944900DC01CB019C8B8B8B8B899C890F
:1017D000988B8F878F8598890197F1F7988B8F87E2
:1017E0000E94931380E090E8ABE3B5E48B879C877D
:1017F000AD87BE876B857C858D859E8520E030E03A
:101800004AEF54E40E941F02DC01CB018F839887CA
:10181000A987BA876F81788589859A8520E030E02D
:1018200040E85FE30E94790388232CF481E090E094
:101830009E838D833FC06F81788589859A8520E05E
:101840003FEF4FE757E40E94190318164CF56B85DC
:101850007C858D859E8520E030E040E251E40E9449
:101860001F02DC01CB01BC01CD010E944900DC015B
:10187000CB019E838D830FC088EC90E09C838B838B
:101880008B819C810197F1F79C838B838D819E8155
:1018900001979E838D838D819E81009769F780C912
:1018A0006F81788589859A850E944900DC01CB018A
:1018B0009E838D838D819E819A83898389819A817C
:1018C0000197F1F79A8389836BC9DF93CF93CDB7E3
:1018D000DEB7A5970FB6F894DEBF0FBECDBFCE0121
:1018E00003969AA389A3EAE7F0E0FCA3EBA3FEE149
:1018F000FDA3EBA1FCA100808BA19CA101969CA360
:101900008BA3E9A1FAA1008289A19AA101969AA3C9
:1019100089A39DA191509DA3EDA1EE2351F71A82B9
:101920002CC08A8160E00E943413198220C0AE016D
:101930004D5F5F4F8A81282F30E0C901880F991FC2
:10194000820F931F9C01220F331F220F331F280F7A
:10195000391F8981882F90E0820F931FFA01E80FC9
:10196000F91F80810E946D1289818F5F898389812F
:101970008031E8F28A818F5F8A838A81823088F29F
:10198000A5960FB6F894DEBF0FBECDBFCF91DF9105
:101990000895DF93CF93CDB7DEB7A4970FB6F89431
:1019A000DEBF0FBECDBF82E2FE013396DF01982F6E
:1019B0001D929A95E9F78FE58B838FE58C838FE5F0
:1019C0008D838FE58E838FE58F838FE588878FE505
:1019D00089878FE58A878FE58B878FE58C878FE5F1
:1019E0008D878FE58E8780E28F8780E28C8B80E207
:1019F0008D8B80E28E8B80E28F8B80E2888F80E2FD
:101A0000898F80E28A8F80E28B8F80E28C8F80E2E8
:101A10008D8F80E28E8F80E28F8F80E288A380E2BC
:101A200089A380E28AA380E28BA380E28CA31A823E
:101A300029C08A8160E00E94341319821DC0AE0162
:101A40004D5F5F4F8A81282F30E0C90182959295C2
:101A5000907F9827807F9827280F391F8981882FAA
:101A600090E0820F931FFA01E80FF91F80810E9416
:101A70006D1289818F5F89838981803100F38A812A
:101A80008F5F8A838A818230A0F2A4960FB6F89481
:101A9000DEBF0FBECDBFCF91DF910895DF93CF930F
:101AA000CDB7DEB7A4970FB6F894DEBF0FBECDBF9B
:101AB00082E2FE013396DF01982F1D929A95E9F795
:101AC0008FE58B838FE58C838FE58D838FE58E8308
:101AD0008FE58F838FE588878FE589878FE58A87F4
:101AE00080E28B8780E28C878FE58D878FE58E87FC
:101AF0008FE58F878FE5888B8FE5898B8FE58A8BC4
:101B00008FE58C8B8FE58D8B8FE58E8B8FE58F8BA3
:101B10008FE5888F8FE5898F8FE58A8F8FE58B8F93
:101B20008FE58C8F8FE28D8F8FE58E8F8FE58F8F76
:101B30008FE588A38FE589A38FE58AA38FE58BA323
:101B40008FE58CA31A8229C08A8161E00E94341338
:101B500019821DC0AE014D5F5F4F8A81282F30E092
:101B6000C90182959295907F9827807F9827280FAA
:101B7000391F8981882F90E0820F931FFA01E80FA7
:101B8000F91F80810E946D1289818F5F898389810D
:101B9000803100F38A818F5F8A838A818230A0F24C
:101BA000A4960FB6F894DEBF0FBECDBFCF91DF91E4
:101BB0000895DF93CF93CDB7DEB7A5970FB6F8940E
:101BC000DEBF0FBECDBFCE0103969AA389A3E8E97D
:101BD000F0E0FCA3EBA3FEE1FDA3EBA1FCA10080E0
:101BE0008BA19CA101969CA38BA3E9A1FAA10082E1
:101BF00089A19AA101969AA389A39DA191509DA321
:101C0000EDA1EE2351F71A822CC08A8160E00E9478
:101C10003413198220C0AE014D5F5F4F8A81282F97
:101C200030E0C901880F991F820F931F9C01220F7A
:101C3000331F220F331F280F391F8981882F90E00F
:101C4000820F931FFA01E80FF91F80810E946D1225
:101C500089818F5F898389818031E8F28A818F5FF2
:101C60008A838A81823088F2A5960FB6F894DEBF07
:101C70000FBECDBFCF91DF910895DF93CF93CDB746
:101C8000DEB7A5970FB6F894DEBF0FBECDBFCE016D
:101C900003969AA389A3E6EBF0E0FCA3EBA3FEE195
:101CA000FDA3EBA1FCA100808BA19CA101969CA3AC
:101CB0008BA3E9A1FAA1008289A19AA101969AA316
:101CC00089A39DA191509DA3EDA1EE2351F71A8206
:101CD0002CC08A8160E00E943413198220C0AE01BA
:101CE0004D5F5F4F8A81282F30E0C901880F991F0F
:101CF000820F931F9C01220F331F220F331F280FC7
:101D0000391F8981882F90E0820F931FFA01E80F15
:101D1000F91F80810E946D1289818F5F898389817B
:101D20008031E8F28A818F5F8A838A81823088F2EB
:101D3000A5960FB6F894DEBF0FBECDBFCF91DF9151
:101D40000895DF93CF93CDB7DEB782E065E041E041
:101D50000E94041482E064E041E00E94041482E0E6
:101D600063E041E00E94041482E062E041E00E94EE
:101D7000041483E067E040E00E94041483E066E01E
:101D800040E00E94041483E065E040E00E940414F7
:101D900083E064E040E00E940414CF91DF91089555
:101DA000DF93CF93CDB7DEB76B970FB6F894DEBF56
:101DB0000FBECDBF81E08A8B87E08B8B86E08C8B5A
:101DC00085E08D8B84E08E8B85E08F8B84E0888F1F
:101DD00083E0898F82E08A8F188AEDC08889282F56
:101DE00030E0CE014796FC01E20FF31F908182E0C4
:101DF000692F40E00E9404151F86C8C08F85282FD8
:101E000030E0CE014396FC01E20FF31F90819E016A
:101E10002E5E3F4F83E0692FA9010E9404168A8934
:101E2000882309F0B0C080E090E0A8E4B2E48B879A
:101E30009C87AD87BE876B857C858D859E8520E0E0
:101E400030E04AEF54E40E941F02DC01CB018F8393
:101E50009887A987BA876F81788589859A8520E0D8
:101E600030E040E85FE30E94790388232CF481E0AE
:101E700090E09E838D833FC06F81788589859A85A8
:101E800020E03FEF4FE757E40E94190318164CF586
:101E90006B857C858D859E8520E030E040E251E4B5
:101EA0000E941F02DC01CB01BC01CD010E94490050
:101EB000DC01CB019E838D830FC088EC90E09C8376
:101EC0008B838B819C810197F1F79C838B838D8120
:101ED0009E8101979E838D838D819E81009769F7F6
:101EE00014C06F81788589859A850E944900DC013C
:101EF000CB019E838D838D819E819A838983898185
:101F00009A810197F1F79A8389838F85282F30E092
:101F1000CE014396FC01E20FF31F90819E012E5EDD
:101F20003F4F83E0692FA9010E9404168A89882304
:101F300051F58889282F30E0CE014796FC01E20F49
:101F4000F31F908182E0692F41E00E940415888987
:101F5000482F50E08F85282F30E0CA01880F991F45
:101F6000880F991F820F931F880F991F880F991F41
:101F7000FC01EC52FF4F80819181A281B381898B5A
:101F800089898B8F1EC08F858F5F8F878F85843067
:101F900008F434CF8889282F30E0CE014796FC0121
:101FA000E20FF31F908182E0692F41E00E94041547
:101FB00088898F5F888B8889843008F40FCF89895E
:101FC0008B8F8B8D6B960FB6F894DEBF0FBECDBF97
:101FD000CF91DF910895DF93CF93CDB7DEB7E89728
:101FE0000FB6F894DEBF0FBECDBF80E090E0A8EF43
:101FF000B1E48DAB9EABAFABB8AF6DA97EA98FA995
:1020000098AD20E030E04AEF54E40E941F02DC016A
:10201000CB0189AB9AABABABBCAB69A97AA98BA955
:102020009CA920E030E040E85FE30E947903882328
:102030002CF481E090E098AB8FA73FC069A97AA902
:102040008BA99CA920E03FEF4FE757E40E941903BA
:1020500018164CF56DA97EA98FA998AD20E030E047
:1020600040E251E40E941F02DC01CB01BC01CD0122
:102070000E944900DC01CB0198AB8FA70FC088EC10
:1020800090E09EA78DA78DA59EA50197F1F79EA72D
:102090008DA78FA598A9019798AB8FA78FA598A911
:1020A000009769F714C069A97AA98BA99CA90E9415
:1020B0004900DC01CB0198AB8FA78FA598A99CA7FD
:1020C0008BA78BA59CA50197F1F79CA78BA788E30D
:1020D0000E94CF1180E090E0A0E8BFE38FA398A713
:1020E000A9A7BAA76FA178A589A59AA520E030E095
:1020F0004AEF54E40E941F02DC01CB018BA39CA396
:10210000ADA3BEA36BA17CA18DA19EA120E030E078
:1021100040E85FE30E94790388232CF481E090E09B
:102120009AA389A33FC06BA17CA18DA19EA120E0B1
:102130003FEF4FE757E40E94190318164CF56FA1C3
:1021400078A589A59AA520E030E040E251E40E94FC
:102150001F02DC01CB01BC01CD010E944900DC0162
:10216000CB019AA389A30FC088EC90E098A38F8F2E
:102170008F8D98A10197F1F798A38F8F89A19AA1CC
:1021800001979AA389A389A19AA1009769F714C01E
:102190006BA17CA18DA19EA10E944900DC01CB0115
:1021A0009AA389A389A19AA19E8F8D8F8D8D9E8DD3
:1021B0000197F1F79E8F8D8F8CE00E94CF1180E008
:1021C00090E0A0E8BFE3898F9A8FAB8FBC8F698DB9
:1021D0007A8D8B8D9C8D20E030E04AEF54E40E9494
:1021E0001F02DC01CB018D8B9E8BAF8BB88F6D896D
:1021F0007E898F89988D20E030E040E85FE30E947F
:10220000790388232CF481E090E09C8B8B8B3FC07A
:102210006D897E898F89988D20E03FEF4FE757E4E5
:102220000E94190318164CF5698D7A8D8B8D9C8D43
:1022300020E030E040E251E40E941F02DC01CB01CB
:10224000BC01CD010E944900DC01CB019C8B8B8B32
:102250000FC088EC90E09A8B898B89899A890197C5
:10226000F1F79A8B898B8B899C8901979C8B8B8B3F
:102270008B899C89009769F714C06D897E898F8945
:10228000988D0E944900DC01CB019C8B8B8B8B8944
:102290009C89988B8F878F8598890197F1F7988B08
:1022A0008F8781E00E94CF1180E090E0A0E8BFE33B
:1022B0008B879C87AD87BE876B857C858D859E854A
:1022C00020E030E04AEF54E40E941F02DC01CB0121
:1022D0008F839887A987BA876F81788589859A8542
:1022E00020E030E040E85FE30E94790388232CF48B
:1022F00081E090E09E838D833FC06F8178858985E2
:102300009A8520E03FEF4FE757E40E941903181623
:102310004CF56B857C858D859E8520E030E040E224
:1023200051E40E941F02DC01CB01BC01CD010E94DF
:102330004900DC01CB019E838D830FC088EC90E0C7
:102340009C838B838B819C810197F1F79C838B838A
:102350008D819E8101979E838D838D819E810097C3
:1023600069F714C06F81788589859A850E94490034
:10237000DC01CB019E838D838D819E819A8389832D
:1023800089819A810197F1F79A838983E8960FB63C
:10239000F894DEBF0FBECDBFCF91DF910895DF93DC
:1023A000CF93CDB7DEB72F970FB6F894DEBF0FBE31
:1023B000CDBF8F8780E061E040E00E94041580E09F
:1023C00062E040E00E94041581E06F850E94C9161A
:1023D00080E060E041E00E94041580E090E0A0E031
:1023E000B0E48B879C87AD87BE876B857C858D85A8
:1023F0009E8520E030E04AEF54E40E941F02DC0199
:10240000CB018F839887A987BA876F817885898563
:102410009A8520E030E040E85FE30E94790388235A
:102420002CF481E090E09E838D833FC06F8178859E
:1024300089859A8520E03FEF4FE757E40E94190312
:1024400018164CF56B857C858D859E8520E030E0E7
:1024500040E251E40E941F02DC01CB01BC01CD012E
:102460000E944900DC01CB019E838D830FC088EC64
:1024700090E09C838B838B819C810197F1F79C83F7
:102480008B838D819E8101979E838D838D819E811B
:10249000009769F714C06F81788589859A850E94B5
:1024A0004900DC01CB019E838D838D819E819A83BF
:1024B000898389819A810197F1F79A83898380E0E2
:1024C00060E040E00E9404152F960FB6F894DEBF3E
:1024D0000FBECDBFCF91DF910895DF93CF93CDB7DE
:1024E000DEB72F970FB6F894DEBF0FBECDBF8F8734
:1024F00080E061E041E00E94041580E062E040E09D
:102500000E94041581E06F850E94C91680E060E09A
:1025100041E00E94041580E090E0A0E0B0E48B87E9
:102520009C87AD87BE876B857C858D859E8520E0E9
:1025300030E04AEF54E40E941F02DC01CB018F839C
:102540009887A987BA876F81788589859A8520E0E1
:1025500030E040E85FE30E94790388232CF481E0B7
:1025600090E09E838D833FC06F81788589859A85B1
:1025700020E03FEF4FE757E40E94190318164CF58F
:102580006B857C858D859E8520E030E040E251E4BE
:102590000E941F02DC01CB01BC01CD010E94490059
:1025A000DC01CB019E838D830FC088EC90E09C837F
:1025B0008B838B819C810197F1F79C838B838D8129
:1025C0009E8101979E838D838D819E81009769F7FF
:1025D00014C06F81788589859A850E944900DC0145
:1025E000CB019E838D838D819E819A83898389818E
:1025F0009A810197F1F79A83898380E060E040E057
:102600000E9404152F960FB6F894DEBF0FBECDBF03
:10261000CF91DF910895DF93CF9300D00F92CDB784
:10262000DEB79B838A8319820EC08981282F30E010
:102630008A819B81FC01E20FF31F80810E946D1251
:1026400089818F5F89838981282F30E08A819B81EE
:10265000FC01E20FF31F8081882339F70F900F9060
:102660000F90CF91DF910895DF93CF9300D00F9219
:10267000CDB7DEB78A836B838A81882319F48B8177
:10268000898306C08A81813019F48B81805C8983BB
:10269000898180580E94CF110F900F900F90CF9199
:1026A000DF910895DF93CF93CDB7DEB727970FB6AD
:1026B000F894DEBF0FBECDBF9C838B836D834E83AA
:1026C0002F831A828D81882F90E0880F991F880FA1
:1026D000991F880F991F8A838A81805C0E94CF117D
:1026E00019820EC08981282F30E08B819C81FC01EA
:1026F000E20FF31F80810E946D1289818F5F8983B1
:102700008981883078F38E816F810E9434138D81A6
:102710000E946D1227960FB6F894DEBF0FBECDBF94
:10272000CF91DF910895DF93CF93CDB7DEB781E0EE
:102730000E94CF11CF91DF910895DF93CF9300D006
:1027400000D0CDB7DEB769837A838B839C83898180
:102750009A81AB81BC810097A105B10541F48091BC
:102760001401882321F480E30E946D122EC081E0C1
:102770008093140189819A81AB81BC810097A10566
:10278000B10519F189819A81AB81BC812AE030E0E1
:1027900040E050E0BC01CD010E945617DA01C901AA
:1027A000BC01CD010E949D1389819A81AB81BC81BE
:1027B0002AE030E040E050E0BC01CD010E94561715
:1027C000DC01CB01805D0E946D12109214010F900C
:1027D0000F900F900F90CF91DF910895DF93CF93DB
:1027E00000D00F92CDB7DEB789836A834B8389818E
:1027F0006A810E9434138B810E946D120F900F909A
:102800000F90CF91DF910895DF93CF93CDB7DEB7CF
:1028100027970FB6F894DEBF0FBECDBF89836A83BA
:102820004B838B81882309F074C08981282F30E085
:102830003F832E838E819F818130910559F12E81B6
:102840003F81223031052CF48E819F81009769F001
:10285000D2C02E813F812230310589F18E819F8146
:102860008330910509F440C0C6C0AAE3B0E0EAE3B2
:10287000F0E08081482F8A81282F30E081E090E0CD
:10288000022E02C0880F991F0A94E2F780958423D4
:102890008C93B1C0A7E3B0E0E7E3F0E08081482F7C
:1028A0008A81282F30E081E090E0022E02C0880F5C
:1028B000991F0A94E2F7809584238C939CC0A4E32B
:1028C000B0E0E4E3F0E08081482F8A81282F30E0F7
:1028D00081E090E0022E02C0880F991F0A94E2F76F
:1028E000809584238C9387C0A1E3B0E0E1E3F0E01E
:1028F0008081482F8A81282F30E081E090E0022EED
:1029000002C0880F991F0A94E2F7809584238C9364
:1029100072C08B81813009F06EC08981282F30E030
:102920003D832C838C819D818130910549F12C81DF
:102930003D81223031052CF48C819D81009761F01E
:102940005AC02C813D812230310571F18C819D81ED
:1029500083309105E9F14FC0AAE3B0E0EAE3F0E08B
:102960008081482F8A81282F30E081E090E0022E7C
:1029700002C0880F991F0A94E2F7842B8C933BC006
:10298000A7E3B0E0E7E3F0E08081482F8A81282FB9
:1029900030E081E090E0022E02C0880F991F0A9477
:1029A000E2F7842B8C9327C0A4E3B0E0E4E3F0E0EB
:1029B0008081482F8A81282F30E081E090E0022E2C
:1029C00002C0880F991F0A94E2F7842B8C9313C0DE
:1029D000A1E3B0E0E1E3F0E08081482F8A81282F75
:1029E00030E081E090E0022E02C0880F991F0A9427
:1029F000E2F7842B8C9327960FB6F894DEBF0FBEB8
:102A0000CDBFCF91DF910895DF93CF93CDB7DEB7E0
:102A100027970FB6F894DEBF0FBECDBF89836A83B8
:102A20004B838B81882309F074C08981282F30E083
:102A30003F832E838E819F818130910559F12E81B4
:102A40003F81223031052CF48E819F81009769F0FF
:102A5000D2C02E813F812230310589F18E819F8144
:102A60008330910509F440C0C6C0ABE3B0E0EBE3AE
:102A7000F0E08081482F8A81282F30E081E090E0CB
:102A8000022E02C0880F991F0A94E2F780958423D2
:102A90008C93B1C0A8E3B0E0E8E3F0E08081482F78
:102AA0008A81282F30E081E090E0022E02C0880F5A
:102AB000991F0A94E2F7809584238C939CC0A5E328
:102AC000B0E0E5E3F0E08081482F8A81282F30E0F4
:102AD00081E090E0022E02C0880F991F0A94E2F76D
:102AE000809584238C9387C0A2E3B0E0E2E3F0E01A
:102AF0008081482F8A81282F30E081E090E0022EEB
:102B000002C0880F991F0A94E2F7809584238C9362
:102B100072C08B81813009F06EC08981282F30E02E
:102B20003D832C838C819D818130910549F12C81DD
:102B30003D81223031052CF48C819D81009761F01C
:102B40005AC02C813D812230310571F18C819D81EB
:102B500083309105E9F14FC0ABE3B0E0EBE3F0E087
:102B60008081482F8A81282F30E081E090E0022E7A
:102B700002C0880F991F0A94E2F7842B8C933BC004
:102B8000A8E3B0E0E8E3F0E08081482F8A81282FB5
:102B900030E081E090E0022E02C0880F991F0A9475
:102BA000E2F7842B8C9327C0A5E3B0E0E5E3F0E0E7
:102BB0008081482F8A81282F30E081E090E0022E2A
:102BC00002C0880F991F0A94E2F7842B8C9313C0DC
:102BD000A2E3B0E0E2E3F0E08081482F8A81282F71
:102BE00030E081E090E0022E02C0880F991F0A9425
:102BF000E2F7842B8C9327960FB6F894DEBF0FBEB6
:102C0000CDBFCF91DF910895DF93CF9300D000D057
:102C100000D0CDB7DEB789836A835C834B8389811B
:102C2000282F30E03E832D834D815E814130510558
:102C300059F18D819E818230910534F42D813E8140
:102C40002115310569F05BC04D815E81423051052F
:102C500079F18D819E818330910509F43DC04FC08B
:102C6000E9E3F0E08081282F30E08A81882F90E02E
:102C7000A90102C0559547958A95E2F7CA0181706E
:102C8000EB81FC8180833BC0E6E3F0E08081282F6C
:102C900030E08A81882F90E0A90102C055954795C0
:102CA0008A95E2F7CA018170EB81FC81808327C09D
:102CB000E3E3F0E08081282F30E08A81882F90E0E4
:102CC000A90102C0559547958A95E2F7CA0181701E
:102CD000EB81FC81808313C0E0E3F0E08081282F4A
:102CE00030E08A81882F90E0A90102C05595479570
:102CF0008A95E2F7CA018170EB81FC818083269678
:102D00000FB6F894DEBF0FBECDBFCF91DF9108950F
:102D1000DF93CF9300D000D0CDB7DEB789836A832D
:102D20008981282F30E03C832B838B819C818130EB
:102D30009105D1F02B813C81223031052CF48B811F
:102D40009C81009761F01EC02B813C8122303105AF
:102D500081F08B819C818330910581F013C0EAE37F
:102D6000F0E08A8180830EC0E7E3F0E08A8180830F
:102D700009C0E4E3F0E08A81808304C0E1E3F0E08D
:102D80008A8180830F900F900F900F90CF91DF91E9
:102D90000895DF93CF9300D000D0CDB7DEB78983FD
:102DA0006A838981282F30E03C832B838B819C812F
:102DB00081309105D1F02B813C81223031052CF4FA
:102DC0008B819C81009761F01EC02B813C81223059
:102DD000310581F08B819C818330910581F013C096
:102DE000EBE3F0E08A8180830EC0E8E3F0E08A81C3
:102DF000808309C0E5E3F0E08A81808304C0E2E3D8
:102E0000F0E08A8180830F900F900F900F90CF9108
:102E1000DF910895DF93CF9300D000D00F92CDB70C
:102E2000DEB789837B836A838981282F30E03D83E5
:102E30002C838C819D8181309105E1F02C813D8135
:102E4000223031052CF48C819D81009761F026C0E1
:102E50002C813D8122303105A1F08C819D81833010
:102E60009105B1F01BC0E9E3F0E08081EA81FB81CC
:102E7000808314C0E6E3F0E08081EA81FB818083F7
:102E80000DC0E3E3F0E08081EA81FB81808306C02E
:102E9000E0E3F0E08081EA81FB8180830F900F9076
:102EA0000F900F900F90CF91DF910895A1E21A2E0D
:102EB000AA1BBB1BFD010DC0AA1FBB1FEE1FFF1FDE
:102EC000A217B307E407F50720F0A21BB30BE40B2E
:102ED000F50B661F771F881F991F1A9469F7609575
:102EE0007095809590959B01AC01BD01CF0108952F
:102EF0002F923F924F925F926F927F928F929F920A
:102F0000AF92BF92CF92DF92EF92FF920F931F93F7
:102F1000CF93DF93CDB7DEB7CA1BDB0B0FB6F894A8
:102F2000DEBF0FBECDBF09942A88398848885F84E8
:102F30006E847D848C849B84AA84B984C884DF8059
:102F4000EE80FD800C811B81AA81B981CE0FD11D3D
:102F50000FB6F894DEBF0FBECDBFED010895F89413
:022F6000FFCFA1
:102F620047616D65204F7665720000000000000029
:102F720000000E0E04041F1B1B005F5F5F5F5F5F9C
:102F82005F5F5F5F5F5F5F5F5F5F5F5F5F5F5F5F4F
:102F92005F5F5F5F5F5F5F5F5F5F5F5F5F5F5F5F3F
:102FA2005F5F5F5F5F5F5F5F5F5F5F5F5F5F5F5F2F
:102FB2005F5F5F5F5F5F5F5F5F5F5F5F5F5F5F5F1F
:102FC2005F5F5F5F5F5F5F5F5F5F5F5F5F5F5F5F0F
:102FD2005F5F5F5F370000003800000039000000CB
:102FE2002F00000034000000350000003600000011
:102FF2002A0000003100000032000000330000000F
:103002002D00000041000000300000003D000000E3
:043012002B0000008F
:00000001FF
