S01300004156525F445249564552532E73726563AA
S11300000C942A000C94DF010C9406020C942D022B
S11300100C9447000C9447000C9447000C94470040
S11300200C9447000C9447000C9447000C94470030
S11300300C9447000C9447000C9447000C94470020
S11300400C9447000C9447000C9447000C94470010
S11300500C94470011241FBECFE5D8E0DEBFCDBF0E
S113006010E0A0E6B0E0E2EDF6E002C005900D92EB
S1130070A839B107D9F720E0A8E9B0E001C01D9282
S1130080AE39B207E1F70E9454020C9467030C9452
S113009000000F931F93CF938C01C0E008C0F801B8
S11300A0EC0FF11D61E080810E942B03CF5FC4300F
S11300B0B0F361E0F80185810E942B0361E0F8014F
S11300C084810E942B03CF911F910F910895CF93A8
S11300D0DF93EC0161E08D810E94EF028FE19EE4E9
S11300E00197F1F700C0000060E08D810E94EF02EB
S11300F0DF91CF9108950F931F93CF93DF93EC017A
S1130100062F10E014C0812F90E09C012C5F3F4F1C
S1130110602F70E002C0759567952A95E2F76170CB
S1130120FE01E80FF91F80810E94EF021F5F143067
S113013050F3CE010E94670010E010C0602F70E001
S1130140012E02C0759567950A94E2F76170FE016D
S1130150E10FF11D80810E94EF021F5F143070F3E4
S1130160CE010E946700DF91CF911F910F910895F6
S1130170CF93DF93009709F445C0EC010E94490036
S11301802FEF83EF91E0215080409040E1F700C0D1
S1130190000060E08C810E94EF0268E3CE010E94BF
S11301A07B008FE19EE40197F1F700C0000068E353
S11301B0CE010E947B009FEF22E587E09150204012
S11301C08040E1F700C0000068E3CE010E947B009C
S11301D061E0CE010E947B0062E0CE010E947B00C0
S11301E066E0CE010E947B006CE0CE010E947B00A1
S11301F068E2CE010E947B0060E8CE010E947B0091
S113020081E001C082E0DF91CF9108951F93CF93E5
S1130210DF93009761F0162FEC0160E08C810E945F
S1130220EF02612FCE010E947B0081E001C082E0D9
S1130230DF91CF911F9108951F93CF93DF93009780
S113024061F0162FEC0161E08C810E94EF02612FB6
S1130250CE010E947B0081E001C082E0DF91CF915A
S11302601F910895EF92FF921F93CF93DF9300970E
S113027011F16115710509F1483008F57B01EC01B4
S1130280642F70E0685F7F4F660F660F660F0E94F1
S1130290060110E008C0F701E10FF11D6081CE01F5
S11302A00E941C011F5F1830B0F360E8CE010E9469
S11302B0060181E005C082E003C082E001C082E063
S11302C0DF91CF911F91FF90EF900895009739F13E
S11302D0653038F5653138F5623079F018F46130FD
S11302E031F023C0633079F0643099F01EC060E8C7
S11302F0640F0E94060181E0089560EC640F0E947F
S1130300060181E0089564E9640F0E94060181E01A
S1130310089564ED640F0E94060181E0089582E06F
S1130320089583E0089584E0089581E008950F938B
S11303301F93CF93DF938C01EB01892B61F02097FE
S113034029F40BC0C8010E941C0121966881611127
S1130350F9CF81E003C082E001C082E0DF91CF9158
S11303601F910F91089586B1806886B987B1806422
S113037087B986B1876086B908950F931F93CF9389
S1130380C82F8B0160E00E942B0387B1CF70C82B6C
S1130390C7B986B1806486B9349BFECF24B185B1D8
S11303A090E0982F8827820F911DF8019183808314
S11303B086B18F7E86B9CF911F910F9108951F92B8
S11303C00F920FB60F9211242F933F934F935F9385
S11303D06F937F938F939F93AF93BF93EF93FF9309
S11303E0E0919800F09199000995FF91EF91BF91E8
S11303F0AF919F918F917F916F915F914F913F91B9
S11304002F910F900FBE0F901F9018951F920F926F
S11304100FB60F9211242F933F934F935F936F93D3
S11304207F938F939F93AF93BF93EF93FF93E09149
S11304309A00F0919B000995FF91EF91BF91AF91C4
S11304409F918F917F916F915F914F913F912F91E8
S11304500F900FBE0F901F9018951F920F920FB61A
S11304600F9211242F933F934F935F936F937F9336
S11304708F939F93AF93BF93EF93FF93E0919C006F
S1130480F0919D000995FF91EF91BF91AF919F91DC
S11304908F917F916F915F914F913F912F910F9029
S11304A00FBE0F901F90189588E790E00E94B80047
S11304B041E060E770E088E790E00E94320142E0AA
S11304C068E670E088E790E00E94320143E060E66D
S11304D070E088E790E00E94320160E870E088E70D
S11304E090E00E94970148E061E088E790E00E9474
S11304F066010E94B3016EE770E081E00E94BD01D5
S113050080917E0090917F0084369105B0F448E09C
S113051061E088E790E00E94660168E588E790E082
S11305200E941C0160E288E790E00E941C0160E2E6
S113053088E790E00E941C01DECF9C01255631091A
S11305402B323140B0F448E061E088E790E00E944B
S1130550660161E088E790E00E941C0160E288E7A0
S113056090E00E941C0160E288E790E00E941C0178
S1130570C2CF9C01215931402B323140B0F448E0C4
S113058061E088E790E00E94660161E088E790E01E
S11305900E941C0162E088E790E00E941C0160E276
S11305A088E790E00E941C01A6CF8D3B924008F49E
S11305B0A2CF48E061E088E790E00E94660161E034
S11305C088E790E00E941C0162E088E790E00E94C6
S11305D01C0163E088E790E00E941C018CCF80320C
S11305E0B0F5E82FE695E695E69587706623C1F0A9
S11305F0613079F5F0E0EE0FFF1FE857FF4F0190EF
S1130600F081E02D408121E030E0B90102C0660FA5
S1130610771F8A95E2F7CB01842B808382E00895CB
S1130620F0E0EE0FFF1FE857FF4F0190F081E02D3F
S1130630408121E030E0B90102C0660F771F8A953E
S1130640E2F7CB0180958423808382E0089580E0E3
S1130650089583E008958032B0F5E82FE695E69595
S1130660E69587706130B1F4F0E0EE0FFF1FE057BC
S1130670FF4F0190F081E02D408121E030E0B9018D
S113068002C0660F771F8A95E2F7CB01842B808323
S113069081E00895611119C0F0E0EE0FFF1FE057EB
S11306A0FF4F0190F081E02D408121E030E0B9015D
S11306B002C0660F771F8A95E2F7CB0180958423E9
S11306C0808381E0089580E0089582E00895F8949D
S10506D0FFCF56
S11306D21F1F1F1F1F1F1F1F0000001F1F1F1F1F81
S11306E200000000001F1F1F08090A0C0302090072
S11306F2564F4C554D453A003B0038003500320008
S10B07023A0037003400310015
S9030000FC
