S018000054496D6572414C61726D53797374656D2E73726563D9
S11300000C942A000C94AA010C9447000C94470009
S11300100C9447000C9447000C9447000C94470040
S11300200C9447000C9447000C9447000C94C504AE
S11300300C9447000C9447000C9447000C94470020
S11300400C9447000C9447000C9447000C94470010
S11300500C94470011241FBECFE5D8E0DEBFCDBF0E
S113006010E0A0E6B0E0ECEDF9E002C005900D92DE
S1130070A439B107D9F720E0A4E9B0E001C01D928A
S1130080A13AB207E1F70E9488030C94EC040C94A3
S11300900000803208F0C1C0633008F0C0C0982F5F
S11300A097708695869586958130A1F138F08230D7
S11300B009F45CC0833009F485C0B3C02AB330E0CE
S11300C0092E02C0359527950A94E2F720FFABC0AC
S11300D0662389F0613009F0A8C04BB321E030E019
S11300E0B90102C0660F771F9A95E2F7CB01842B02
S11300F08BBB80E008954BB321E030E0B90102C02E
S1130100660F771F9A95E2F7CB01809584238BBB0A
S113011080E0089527B330E0092E02C03595279575
S11301200A94E2F720FF83C0662389F0613009F066
S113013080C048B321E030E0B90102C0660F771FE8
S11301409A95E2F7CB01842B88BB80E0089548B3ED
S113015021E030E0B90102C0660F771F9A95E2F7FB
S1130160CB018095842388BB80E0089524B330E0DC
S1130170092E02C0359527950A94E2F720FF5BC04B
S1130180662389F0613009F058C045B321E030E0BE
S1130190B90102C0660F771F9A95E2F7CB01842B51
S11301A085BB80E0089545B321E030E0B90102C089
S11301B0660F771F9A95E2F7CB018095842385BB60
S11301C080E0089521B330E0092E02C035952795CB
S11301D00A94E2F720FF33C0662381F0613089F589
S11301E042B321E030E0B90102C0660F771F9A954F
S11301F0E2F7CB01842B82BB80E0089542B321E077
S113020030E0B90102C0660F771F9A95E2F7CB017F
S11302108095842382BB80E0089581E0089582E084
S1130220089580E0089583E0089580E0089583E0D0
S1130230089580E0089583E0089580E0089583E0C0
S1130240089580E00895803208F076C06115710544
S113025009F474C0982F9770869586958695813099
S113026001F130F08230B1F1833009F44CC068C040
S11302702AB330E0092E02C0359527950A94E2F797
S113028020FD60C089B3282F30E0A90102C0559534
S113029047959A95E2F7CA018170FB01808380E05B
S11302A0089527B330E0092E02C0359527950A94A6
S11302B0E2F720FD49C086B3282F30E0A90102C02F
S11302C0559547959A95E2F7CA018170FB018083A1
S11302D080E0089524B330E0092E02C035952795B7
S11302E00A94E2F720FD32C083B3282F30E0A9013D
S11302F002C0559547959A95E2F7CA018170FB01B2
S1130300808380E0089521B330E0092E02C0359542
S113031027950A94E2F720FD1BC080B3282F30E014
S1130320A90102C0559547959A95E2F7CA018170D3
S1130330FB01808380E0089581E0089584E00895BE
S113034080E0089583E0089583E0089583E00895AC
S113035083E008951F920F920FB60F9211242F93EA
S11303603F934F935F936F937F938F939F93AF9339
S1130370BF93EF93FF93E0919400F091950009955A
S1130380FF91EF91BF91AF919F918F917F916F9169
S11303905F914F913F912F910F900FBE0F901F903F
S11303A018958FB780688FBF08954F925F926F92B0
S11303B07F928F929F92AF92BF92CF92DF92EF92F1
S11303C0FF920F931F93CF93DF931F92CDB7DEB7A6
S11303D00F2EF4E78F2EF0E09F2EF02DA12CB12CE0
S11303E03501F40141904F0160E0842D0E944900E1
S11303F00F2EF0E7EF2EF0E0FF2EF02D00E010E0DE
S1130400F70151907F01BE016F5F7F4F852D0E94E0
S113041023018981811116C0C801880F991F880F93
S1130420991F805A9F4FFC01E60DF71D1081BE01F4
S11304306F5F7F4F852D0E94230199819923B9F322
S1130440812F12C00F5F1F4F04301105C9F661E000
S1130450842D0E944900FFEFAF1ABF0A84E0A8165A
S1130460B10409F0BDCF8FEF0F90DF91CF911F91B1
S11304700F91FF90EF90DF90CF90BF90AF909F903F
S11304808F907F906F905F904F900895CF93C82F77
S113049060E088E00E94490060E089E00E94490031
S11304A089EF90E00197F1F700C0000061E08AE075
S11304B00E944900C4FB662760F980E10E9449005C
S11304C0C5FB662760F981E10E944900C6FB6627E7
S11304D060F982E10E9449006C2F661F6627661F3F
S11304E083E10E94490089EF90E00197F1F700C091
S11304F0000060E08AE00E94490089EF90E00197E3
S1130500F1F700C0000061E08AE00E94490089EF31
S113051090E00197F1F700C000006C2F617080E15A
S11305200E944900C1FB662760F981E10E944900ED
S1130530C2FB662760F982E10E944900C3FB66277B
S113054060F983E10E94490089EF90E00197F1F797
S113055000C0000060E08AE00E94490089EF90E05A
S11305600197F1F700C00000CF91089585EA9EE05D
S11305700197F1F700C0000083E30E94460282E382
S11305800E94460288E20E9446028CE00E944602D3
S113059081E00E94460289EF90E00197F1F700C0E4
S11305A000000895CF93C82F61E088E00E944900BD
S11305B060E089E00E94490061E08AE00E9449000D
S11305C0C4FB662760F980E10E944900C5FB6627E9
S11305D060F981E10E944900C6FB662760F982E167
S11305E00E9449006C2F661F6627661F83E10E94E4
S11305F0490089EF90E00197F1F700C0000060E046
S11306008AE00E94490089EF90E00197F1F700C069
S1130610000061E08AE00E94490089EF90E00197C0
S1130620F1F700C000006C2F617080E10E94490066
S1130630C1FB662760F981E10E944900C2FB66277D
S113064060F982E10E944900C3FB662760F983E1F7
S11306500E94490089EF90E00197F1F700C0000083
S113066060E08AE00E94490089EF90E00197F1F789
S113067000C00000CF9108950F931F93CF93FC0106
S11306808081882359F08F01C0E00E94D202CF5F9D
S1130690F801EC0FF11D80818111F7CF83EF91E018
S11306A00197F1F700C00000CF911F910F910895B9
S11306B0882329F0813021F490E4960F01C0962F0D
S11306C080E8890F0E944602089581E00E94460254
S11306D008958091960090919700019690939700C9
S11306E08093960020919E004EE3240290011124F1
S11306F08217930761F461E083E00E94490088E770
S113070090E00E943C031092970010929600089586
S11307100E94A3040E94B60289E693E00E94BE04EC
S113072010929B0010929A001092990064E080E06D
S11307300E94580382E890E00E943C0364E081E058
S11307400E9458038BE890E00E943C032FE78DE859
S11307509BE5215080409040E1F700C000000E94DA
S113076065030E94D1010E94D50180939F008F3FB1
S1130770D1F30E94D20280919F008053809398000D
S113078062E080E00E94580380919F000E94D202A0
S11307900E94AF0480919F00813321F0823309F4D9
S11307A0B1C0FACF85E890E00E943C032FEF88E0C7
S11307B09DE3215080409040E1F700C000000E947A
S11307C06503C7E682E80E9446028AE30E94D202D9
S11307D085E80E9446028AE30E94D20280E80E94D1
S11307E04602909199009C02812D1124859585954E
S11307F097FD8395805D0E94D20281E80E944602A3
S1130800809199008C02912D11249595959587FDE1
S11308109395990F292F220F220F920F891B805D28
S11308200E94D20283E80E94460290919A009C02A0
S1130830812D11248595859597FD8395805D0E9472
S1130840D20284E80E94460280919A008C02912D83
S113085011249595959587FD9395990F292F220F2E
S1130860220F920F891B805D0E94D20286E80E94AB
S1130870460290919B009C02812D112485958595BB
S113088097FD8395805D0E94D20287E80E9446020C
S113089080919B008C02912D11249595959587FD4F
S11308A09395990F292F220F220F920F891B805D98
S11308B00E94D2022FE38DE093E0215080409040CB
S11308C0E1F700C0000080919B008F5F80939B0044
S11308D08C3309F077CF10929B0080919A008F5F40
S11308E080939A008C3309F06DCF10929A00809116
S11308F099008F5F80939900883109F063CF10923B
S1130900990060CF8EE890E00E943C032FEF88E0CE
S11309109DE3215080409040E1F700C000000E9418
S113092065030E94D5018093A0008F3FD1F38053CB
S113093080939E0062E080E00E9458038091A000B2
S11309400E94D20227CF8CEF8ABB8FEF87BB84BB78
S113095090EF91BB1BBA18BA15BA82BB089583B73E
S1130960806883BF89B7816089BF13BE12BE83B715
S1130970816083BF83B7846083BF0895009721F0AB
S113098090939D0080939C0008951F920F920FB640
S11309900F9211242F933F934F935F936F937F9301
S11309A08F939F93AF93BF93EF93FF93E0919C003A
S11309B0F0919D000995FF91EF91BF91AF919F91A7
S11309C08F917F916F915F914F913F912F910F90F4
S10F09D00FBE0F901F901895F894FFCFF5
S11309DC3738392F3435362A3132332D41303D2BCB
S11309EC18191A1B1C1D1E1F20414C41524D5F4FE0
S11309FC4E0020312E434C4F434B0020322E414CA1
S1070A0C41524D0002
S9030000FC
