:100000000C942A000C9445020C946E020C949702F6
:100010000C9447000C9447000C9447000C94470044
:100020000C9447000C9447000C9447000C94470034
:100030000C9447000C9447000C9447000C94470024
:100040000C9447000C9447000C9447000C94470014
:100050000C94470011241FBECFE5D8E0DEBFCDBF12
:1000600010E0A0E6B0E0E0E4F3E102C005900D92FC
:10007000A438B107D9F710E0A4E8B0E001C01D92A0
:10008000A439B107E1F70E94A2050C949E090C94D3
:100090000000379A86B1876086B93E9A87B187B9E2
:1000A000359A80B780BF339A0895FB01369A349B06
:1000B000FECF24B130E03183208345B1942F80E01E
:1000C000820F931F9183808380E00895369808956E
:1000D000982F97708695869586958130A9F1813005
:1000E00038F0823009F45CC0833009F0B0C084C0BD
:1000F0002AB330E0092E02C0359527950A94E2F71D
:1001000020FFA7C0662389F0613009F0A4C04BB37B
:1001100021E030E0B90102C0660F771F9A95E2F73F
:10012000CB01842B8BBB80E008954BB321E030E002
:10013000B90102C0660F771F9A95E2F7CB0180954F
:1001400084238BBB80E0089527B330E0092E02C0E2
:10015000359527950A94E2F720FF7FC0662389F042
:10016000613009F07CC048B321E030E0B90102C041
:10017000660F771F9A95E2F7CB01842B88BB80E04E
:10018000089548B321E030E0B90102C0660F771F3F
:100190009A95E2F7CB018095842388BB80E008958F
:1001A00024B330E0092E02C0359527950A94E2F772
:1001B00020FF57C0662389F0613009F054C045B371
:1001C00021E030E0B90102C0660F771F9A95E2F78F
:1001D000CB01842B85BB80E0089545B321E030E05E
:1001E000B90102C0660F771F9A95E2F7CB0180959F
:1001F000842385BB80E0089521B330E0092E02C03E
:10020000359527950A94E2F720FF2FC0662381F0E9
:10021000613069F542B321E030E0B90102C0660FF8
:10022000771F9A95E2F7CB01842B82BB80E008957B
:1002300042B321E030E0B90102C0660F771F9A9502
:10024000E2F7CB018095842382BB80E0089580E0B3
:10025000089581E0089580E0089581E0089580E0A8
:10026000089581E0089580E0089581E0089580E098
:100270000895982F97708695869586958130F9F028
:10028000813030F0823099F1833009F060C047C08E
:100290002AB330E0092E02C0359527950A94E2F77B
:1002A00020FD0FC029B330E0092E02C035952795F7
:1002B0000A94E2F72170FB01208380E003C080E014
:1002C00001C081E027B330E0092E02C035952795A3
:1002D0000A94E2F720FD3DC026B330E002C0359518
:1002E00027959A95E2F72170FB012083089524B3A6
:1002F00030E0092E02C0359527950A94E2F720FDDB
:100300002AC023B330E0A90102C0559547959A95BC
:10031000E2F7CA018170FB01808380E0089521B378
:1003200030E0092E02C0359527950A94E2F720FDAA
:1003300014C020B330E0A90102C0559547959A95A5
:10034000E2F7CA018170FB01808380E0089583E0B9
:10035000089581E0089581E0089581E00895813055
:1003600051F0813028F0823049F0833069F409C0BF
:100370006BBB80E008956BBB80E0089565BB80E0B7
:10038000089562BB80E0089583E00895813061F0B4
:10039000813028F0823069F08330A9F40FC089B32E
:1003A000FB01808380E0089586B3FB01808380E0B9
:1003B000089583B3FB01808380E0089580B3FB013F
:1003C000808380E0089583E008958FB780688FBFB1
:1003D00008951F93CF93DF93162FEA01863029F0FB
:1003E000873091F08530A1F520C08AE160E00E945D
:1003F000090685B78C7F85BF85B7182B15BFD093AD
:100400008500C093840024C08BE160E00E9409064F
:1004100085B7837F85BF85B7110F110F182B15BFC7
:10042000D0938700C093860013C08BE160E00E94E8
:100430000906123021F484B78F7B84BF05C01330C6
:1004400019F484B7806484BFD0938900C093880076
:10045000DF91CF911F9108954BB721E030E0B901B2
:1004600002C0660F771F8A95E2F7CB01842B8BBF02
:1004700008959BB721E030E002C0220F331F8A9518
:10048000E2F7209592239BBF08951F920F920FB61B
:100490000F9211242F933F934F935F936F937F930A
:1004A0008F939F93AF93BF93EF93FF93E09184005B
:1004B000F0918500309709F00995FF91EF91BF9178
:1004C000AF919F918F917F916F915F914F913F91EC
:1004D0002F910F900FBE0F901F9018951F920F92A3
:1004E0000FB60F9211242F933F934F935F936F9307
:1004F0007F938F939F93AF93BF93EF93FF93E0917D
:100500008600F0918700309709F00995FF91EF91EF
:10051000BF91AF919F918F917F916F915F914F911B
:100520003F912F910F900FBE0F901F9018951F9223
:100530000F920FB60F9211242F933F934F935F9317
:100540006F937F938F939F93AF93BF93EF93FF939B
:10055000E0918800F0918900309709F00995FF91AA
:10056000EF91BF91AF919F918F917F916F915F912B
:100570004F913F912F910F900FBE0F901F901895A4
:10058000CF93C82F682F617080E10E9468006C2FA4
:100590006695617081E10E9468006C2F6695669592
:1005A000617082E10E946800C695C695C6956C2F61
:1005B000617083E10E946800CF91089580E161E05D
:1005C0000E94090681E161E00E94090682E161E082
:1005D0000E94090683E161E00E94090684E163E06C
:1005E0000E94A90685E163E00E94A90686E163E016
:1005F0000E94A90687E163E00E94A90608950F936F
:100600001F93CF93DF930F92CDB7DEB78C01198282
:1006100084E1BE016F5F7F4F0E9439018981F8013B
:10062000808385E1BE016F5F7F4F0E943901898120
:10063000880FF801808386E1BE016F5F7F4F0E94C3
:1006400039018981880F880FF8019081892B808377
:1006500087E1BE016F5F7F4F0E9439018981880F5A
:10066000880F880FF8019081892B80830F90DF918C
:10067000CF911F910F9108956F927F928F929F92C9
:10068000AF92BF92CF92DF92EF92FF920F931F93A0
:10069000CF93DF930F92CDB7DEB75C0119828091C3
:1006A0006000882309F45FC010E07724CC24DD24A7
:1006B000C3940FE00F2EF1E68F2EF0E09F2EF02D69
:1006C00066246394E12EFF24C601012E02C0880F28
:1006D000991F0A94E2F7802790E00E94C002CE01A1
:1006E00001960E94FF0289818B30F9F08C3018F45A
:1006F000873089F525C08D3069F08E3061F5F701BE
:10070000EE0FFF1FEE0FFF1FE80DF91D8081F501B1
:10071000808322C0F701EE0FFF1FEE0FFF1FE80DD1
:10072000F91D8181F501808317C0F701EE0FFF1FCE
:10073000EE0FFF1FE80DF91D8281F50180830CC0CB
:10074000F701EE0FFF1FEE0FFF1FE80DF91D83816C
:10075000F501808301C0762C1F5F8091600018171F
:1007600008F4B0CF01C07724872D0F90DF91CF918F
:100770001F910F91FF90EF90DF90CF90BF90AF90BF
:100780009F908F907F906F900895CF93C82F89E0AE
:1007900060E00E9468008AE061E00E9468006C2FBF
:1007A000617080E10E9468006C2F6695617081E144
:1007B0000E9468006C2F66956695617082E10E94C8
:1007C00068006C2F669566956695617083E10E945E
:1007D00068006C2F62956F70617084E10E94680000
:1007E0006C2F629566956770617085E10E94680064
:1007F0006C2F6295669566956370617086E10E94C4
:1008000068006C2F661F6627661F87E10E946800DC
:1008100088E061E00E94680087E893E10197F1F7C2
:1008200000C0000088E060E00E946800CF91089559
:10083000CF93C82F8AE060E00E94680089E060E002
:100840000E9468006C2F617080E10E9468006C2F2C
:100850006695617081E10E9468006C2F66956695CF
:10086000617082E10E9468006C2F669566956695BE
:10087000617083E10E9468006C2F62956F706170F7
:1008800084E10E9468006C2F6295669567706170C4
:1008900085E10E9468006C2F62956695669563708D
:1008A000617086E10E9468006C2F661F6627661FD4
:1008B00087E10E94680088E061E00E946800000013
:1008C00088E060E00E94680081E28A95F1F700000C
:1008D00083EC99E00197F1F700C00000CF910895F3
:1008E00080E161E00E94090681E161E00E94090661
:1008F00082E161E00E94090683E161E00E9409064D
:1009000084E161E00E94090685E161E00E94090638
:1009100086E161E00E94090687E161E00E94090624
:100920008AE061E00E94090689E061E00E94090610
:1009300088E061E00E94090683E060E00E946800B0
:1009400087E893E10197F1F700C0000088E30E9477
:1009500018048EE00E94180481E00E94180483EFBE
:1009600091E00197F1F700C0000086E00E941804B2
:1009700008950F931F93CF93DF93062F172F88307F
:1009800070F4880F880F880F805C0E941804C02FB5
:10099000D12F18E089910E94C5031150D9F780E842
:1009A0000E941804DF91CF911F910F910895CF936A
:1009B000DF93EC018881882331F021960E94C503E2
:1009C00089918823D9F7DF91CF9108958431A8F4D4
:1009D000643098F4613039F0613058F0623029F0B9
:1009E000633041F404C090EC05C094E903C094ED79
:1009F00001C090E8890F0E941804089581E00E94C8
:100A0000180408958CE10E941804089588E10E945A
:100A1000180408959BB384E089278BBB0895CF9277
:100A2000DF92EF92FF92CF93DF936B017C018BB348
:100A300086958695817080938C0080918C008130A2
:100A4000E9F5C701B6010E946D08DC01CB01EC019C
:100A5000805D0E94C5038EE20E94C503BE0180E056
:100A600090E00E9499089B01AC01C701B6010E9469
:100A7000080820E030E048EC52E40E942709462FA5
:100A8000572F682F792FCB01BA010E946D08DC0126
:100A9000CB016AE070E00E948A09C82F862F805D32
:100AA0000E94C5038C2F805D0E94C50380E20E94D6
:100AB000C50385E790E00E94D70439C0C701B6019D
:100AC0000E946D08DC01CB01EC01805D0E94C50332
:100AD000BE0180E090E00E9499089B01AC01C70133
:100AE000B6010E94080820E030E048EC52E40E9481
:100AF0002709462F572F682F792FCB01BA010E9463
:100B00006D08DC01CB016AE070E00E948A09C82F01
:100B1000862F805D0E94C5038C2F805D0E94C503D7
:100B200080E20E94C50388E790E00E94D70486E037
:100B300060E00E94E604DF91CF91FF90EF90DF909C
:100B4000CF9008950E94E50182E061E00E940906CD
:100B500086E062E04AE055E00E94E9018AE163E054
:100B60000E94A90686E00E942C020E9470040E9446
:100B700049008BE790E00E94D7040DE810E080E088
:100B8000B8010E945500C0918D00D0918E00BE0129
:100B9000660F771F660F771F6C0F7D1F80E090E058
:100BA0000E94990820E030E040E85AE30E942709BB
:100BB000E62FF72F462F572F682F792F409390005D
:100BC00050939100609392007093930020918A005B
:100BD00030918B00C217D30791F28E2F9F2FA62F33
:100BE000B72FBC01CD010E940F0580918D0090911F
:100BF0008E0090938B0080938A00C1CF83E08ABBE4
:100C000017BA14BA11BA89E08BBB18BA15BA12BA5E
:100C10000895982F9770869586958695813059F11D
:100C2000813038F0823009F448C0833009F087C041
:100C300065C0613071F44AB321E030E0B90102C00F
:100C4000660F771F9A95E2F7CB01842B8ABB80E071
:100C50000895662309F075C04AB321E030E0B90178
:100C600002C0660F771F9A95E2F7CB018095842327
:100C70008ABB80E00895613071F447B321E030E031
:100C8000B90102C0660F771F9A95E2F7CB01842B5A
:100C900087BB80E00895662309F055C047B321E083
:100CA00030E0B90102C0660F771F9A95E2F7CB01D9
:100CB0008095842387BB80E00895613071F444B34C
:100CC00021E030E0B90102C0660F771F9A95E2F784
:100CD000CB01842B84BB80E008956623B1F544B337
:100CE00021E030E0B90102C0660F771F9A95E2F764
:100CF000CB018095842384BB80E00895613071F43A
:100D000041B321E030E0B90102C0660F771F9A9528
:100D1000E2F7CB01842B81BB80E008956623B9F410
:100D200041B321E030E0B90102C0660F771F9A9508
:100D3000E2F7CB018095842381BB80E0089581E0B8
:100D4000089580E0089580E0089580E0089580E0AF
:100D50000895982F9770869586958695813009F429
:100D60005AC0813038F0823009F4A6C0833009F0CF
:100D700045C1F3C0613041F06130A0F0623029F12B
:100D8000633009F03DC134C08AB321E030E001C0D6
:100D9000220F9A95EAF7822B8ABB8BB3282B2BBBA9
:100DA00080E008954AB321E030E0B90102C0660F47
:100DB000771F9A95E2F7CB01942F982B9ABB2BB310
:100DC000809582238BBB80E008954AB321E030E018
:100DD000B90102C0660F771F9A95E2F7CB018095A3
:100DE000982F94239ABB9BB389238BBB80E00895F3
:100DF0004AB321E030E0B90102C0660F771F9A952F
:100E0000E2F7CB01962F909594239ABB9BB3892B45
:100E10008BBB80E00895613041F06130A0F062301A
:100E200029F1633009F0EEC034C087B321E030E02F
:100E300001C0220F9A95EAF7822B87BB88B3282B33
:100E400028BB80E0089547B321E030E0B90102C03B
:100E5000660F771F9A95E2F7CB01942F982B97BBDB
:100E600028B38095822388BB80E0089547B321E0B2
:100E700030E0B90102C0660F771F9A95E2F7CB0107
:100E80008095982F942397BB98B3892388BB80E0E3
:100E9000089547B321E030E0B90102C0660F771F23
:100EA0009A95E2F7CB01962F9095942397BB98B330
:100EB000892B88BB80E00895613041F06130A0F05B
:100EC000623029F1633009F09FC034C084B321E05F
:100ED00030E001C0220F9A95EAF7822B84BB85B3DC
:100EE000282B25BB80E0089544B321E030E0B90110
:100EF00002C0660F771F9A95E2F7CB01942F982BCB
:100F000094BB25B38095822385BB80E0089544B3CC
:100F100021E030E0B90102C0660F771F9A95E2F731
:100F2000CB018095982F942394BB95B3892385BBDF
:100F300080E0089544B321E030E0B90102C0660FBB
:100F4000771F9A95E2F7CB01962F9095942394BB47
:100F500095B3892B85BB80E00895613041F0613005
:100F6000A0F0623029F1633009F050C034C081B381
:100F700021E030E001C0220F9A95EAF7822B81BB75
:100F800082B3282B22BB80E0089541B321E030E0FA
:100F9000B90102C0660F771F9A95E2F7CB01942F33
:100FA000982B91BB22B38095822382BB80E0089569
:100FB00041B321E030E0B90102C0660F771F9A9576
:100FC000E2F7CB018095982F942391BB92B38923AC
:100FD00082BB80E0089541B321E030E0B90102C056
:100FE000660F771F9A95E2F7CB01962F9095942381
:100FF00091BB92B3892B82BB80E0089580E0089575
:1010000082E0089582E0089582E0089582E00895E4
:101010005058BB27AA270ED0E0C0D1D030F0D6D090
:1010200020F031F49F3F11F41EF4C6C00EF4E09599
:10103000E7FBBCC0E92FE2D080F3BA176207730761
:101040008407950718F071F49EF5FAC00EF4E09548
:101050000B2EBA2FA02D0B01B90190010C01CA0172
:10106000A0011124FF27591B99F0593F50F4503E1D
:1010700068F11A16F040A22F232F342F4427585F0F
:10108000F3CF469537952795A795F0405395C9F727
:101090007EF41F16BA0B620B730B840BBAF09150DF
:1010A000A1F0FF0FBB1F661F771F881FC2F70EC07E
:1010B000BA0F621F731F841F48F487957795679551
:1010C000B795F7959E3F08F0B3CF9395880F08F03A
:1010D0009927EE0F97958795089598D088F09F5798
:1010E00090F0B92F9927B751A0F0D1F0660F771F74
:1010F000881F991F1AF0BA95C9F712C0B13081F054
:101100009FD0B1E008959CC0672F782F8827B85FE3
:1011100039F0B93FCCF3869577956795B395D9F7B4
:101120003EF490958095709561957F4F8F4F9F4FBE
:101130000895E89409C097FB3EF4909580957095CA
:1011400061957F4F8F4F9F4F9923A9F0F92F96E913
:10115000BB279395F695879577956795B795F11188
:10116000F8CFFAF4BB0F11F460FF1BC06F5F7F4F25
:101170008F4F9F4F16C0882311F096E911C0772337
:1011800021F09EE8872F762F05C0662371F096E840
:10119000862F70E060E02AF09A95660F771F881F0F
:1011A000DAF7880F9695879597F9089597F99F67CD
:1011B00080E870E060E008959FEF80EC08950024DF
:1011C0000A941616170618060906089500240A94AC
:1011D00012161306140605060895092E0394000C32
:1011E00011F4882352F0BB0F40F4BF2B11F460FFC1
:1011F00004C06F5F7F4F8F4F9F4F089557FD9058EA
:10120000440F551F59F05F3F71F04795880F97FBCA
:10121000991F61F09F3F79F0879508951216130684
:101220001406551FF2CF4695F1DF08C016161706B3
:101230001806991FF1CF86957105610508940895E8
:10124000E894BB2766277727CB0197F908950BD041
:10125000C4CFB5DF28F0BADF18F0952309F0A6CF88
:10126000ABCF1124EECFCADFA0F3959FD1F3950F3A
:1012700050E0551F629FF001729FBB27F00DB11D1A
:10128000639FAA27F00DB11DAA1F649F6627B00DAA
:10129000A11D661F829F2227B00DA11D621F739F93
:1012A000B00DA11D621F839FA00D611D221F749FA1
:1012B0003327A00D611D231F849F600D211D822FE8
:1012C000762F6A2F11249F5750408AF0E1F088232F
:1012D0004AF0EE0FFF1FBB1F661F771F881F91503C
:1012E0005040A9F79E3F510570F060CFAACF5F3FF5
:1012F000ECF3983EDCF3869577956795B795F7956F
:10130000E7959F5FC1F7FE2B880F911D96958795F6
:1013100097F90895AA1BBB1B51E107C0AA1FBB1F69
:10132000A617B70710F0A61BB70B881F991F5A9571
:10133000A9F780959095BC01CD010895F894FFCF51
:101340000407080904040506050102030504000753
:101350000580C094D45620006D7600564F4C542022
:041360003D006300E9
:00000001FF
